:020000040800F2
:1000000000040020A1020008A1030008B1030008B9
:10001000A1030008A1030008A1030008A103000830
:10002000A1030008A1030008A1030008E1030008E0
:10003000A1030008A1030008A1030008A10400080F
:10004000A1030008A1030008A1030008A103000800
:10005000A1030008A1030008A1030008A1030008F0
:10006000A1030008A1030008A1030008A1030008E0
:10007000A1030008A1030008A1030008A1030008D0
:10008000A1030008A1030008A1030008A1030008C0
:10009000A1030008A1030008A1030008A1030008B0
:1000A000A1030008A1030008A1030008A1030008A0
:1000B000A1030008A1030008A1030008A103000890
:1000C000A1030008A1030008A1030008A103000880
:1000D000A1030008A1030008A1030008A103000870
:1000E000A1030008A1030008A1030008A103000860
:1000F000A1030008A1030008A1030008A103000850
:10010000A1030008A1030008A1030008A10300083F
:10011000A1030008A1030008A1030008A10300082F
:10012000A1030008A1030008A1030008A10300081F
:10013000A1030008A1030008A1030008A10300080F
:10014000A1030008A1030008A1030008A1030008FF
:10015000A1030008A1030008A1030008A1030008EF
:10016000A1030008A1030008A1030008A1030008DF
:10017000A103000861710008A1030008A1030008A1
:10018000A1030008A1030008A1030008A1030008BF
:10019000A1030008A1030008A1030008A1030008AF
:0C01A000A1030008A1030008A10300084F
:1001B00030B5294D294C83B005F062FC00F0E0F920
:1001C00007F096F9284605F03BFD2146284605F044
:1001D0005FFD23689B6E9A6B22F400229A634FF4B2
:1001E0007A7000F085FC20681D4905F051FE2368F7
:1001F0001C489A6E1C4B916B002441F400219163C2
:100200004FF4A8714A22009400F0F2FB00941748C2
:10021000174B4FF4A8714A2200F0EAFB44B1237F48
:100220000E2B13D04FF4FA7000F062FC002CF6D1C4
:10023000D5F854321B681B78042BF3D10D484FF4CA
:100240000D61402207F06CF90446EBE7204600F010
:10025000E7FC0024E6E700BFE0160020308F00082E
:10026000008E000840140020C17A0008901500207C
:10027000917A000850910008AFF30080AFF300803E
:10028000704700BFAFF30080AFF30080AFF3008092
:10029000FEE700BFAFF30080AFF30080AFF3008054
:1002A00072B6304880F30988022383F31488BFF3C1
:1002B0006F8F2D4B2D4A93420BD2D943114421F01D
:1002C000030119444FF05532043B43F8042F8B428D
:1002D000FBD1274B83420CD226491A1D891A21F0E3
:1002E000030119444FF05532043B43F8042F8B426D
:1002F000FBD107F045F82049204B99420BD2C84367
:10030000184420F003001E4C04300023E258CA5069
:1003100004338342FAD11B4B1B4A93420AD2D9437E
:10032000114421F0030119440022043B43F8042F37
:100330008B42FBD1154D164CFFF7A2FFAC4204D205
:1003400054F8043B9847AC42FAD3124D124CFFF7D5
:100350002FFFAC4204D254F8043B9847AC42FAD386
:10036000FFF796FF00080020000000200004002096
:10037000000400200308002000080020DC08002002
:1003800068920008E008002038190020AC0100083D
:10039000AC010008AC010008AC010008AFF300801C
:1003A000FEE700BFAFF30080AFF30080AFF3008043
:1003B000034BEFF309821A60EFF309839D46FEE7D2
:1003C000E0080020AFF30080AFF30080AFF30080BF
:1003D00000F09EFA00DF00BFAFF30080AFF30080B3
:1003E000EFF30983203383F30988002383F3118813
:1003F000704700BFAFF30080AFF30080AFF3008021
:1004000008B5094B094A002199600720DA601021DC
:1004100000F08EF80A20202100F08AF80B208021BD
:10042000BDE8084000F084B800ED00E00003FA05E4
:10043000202383F31188164B5B6813F4006319D0F3
:10044000EFF309834FF0807243F8042CA3F12002EC
:1004500082F309880F498A690968D07F89689268A0
:1004600058B1914294BF0022012262B10A4A43F876
:10047000082C704783F311887047914234BF0022E3
:100480000122002AF2D1054A43F8082C704700BF28
:1004900000ED00E0200A0020D1030008D40300088A
:1004A00008B5202383F3118800F09AF8002383F322
:1004B0001188BDE80840FFF7BBBF00BFAFF3008065
:1004C0002DE9F04FC1F80CD0D0F80CD0BDE8F08F7A
:1004D000002383F311882846A04700F069FB70478A
:1004E00020F0030202F1604202F56142F0B44309D8
:1004F00000F00304D2F80053E400FF269B00A6405E
:1005000003F1604325EA060503F561430127A14095
:1005100000F01F0007FA00F045EA0104C2F80043AA
:10052000C3F88001F0BC1860704700BFAFF30080D3
:1005300020F0030303F1604303F56D4300F0030073
:1005400010B4C0009A69FF24844022EA040281406A
:100550000A439A615DF8044B704700BFAFF3008017
:10056000024B034A9B699A61FEE700BF200A002004
:10057000C07D0008AFF30080AFF30080AFF30080D0
:1005800000B583B0FFF73CFF00F0DAF800F058F850
:1005900001F076FB01F0BCFB40210B4800F0C8F9EC
:1005A0000A49012288610277002383F3118862B629
:1005B0008969074888610093E021064B064800F0EE
:1005C00017FA03B05DF804FBE4080020200A0020BD
:1005D000D07D00086105000830090020AFF30080DD
:1005E00070B5134B9B69DA7F0AB1013ADA771A6A60
:1005F000104C01321A62E36822680133A242E360C0
:1006000014D09668013E966086B91168D56821605D
:10061000D66000234C6083F311881069A84720231B
:1006200083F3118822689368002BEED070BD00BF61
:10063000200A0020100A0020AFF30080AFF30080F2
:10064000044B4FF0FF3100225B601B609960DA6061
:10065000704700BF100A0020AFF30080AFF30080A6
:1006600070B40C4E3468A5680361A942C26004D915
:100670002468491BA5688D42FAD363684360B4427D
:10068000046060601860816002D0A368591AA1609C
:1006900070BC7047100A0020AFF30080AFF30080F9
:1006A000074A0368934203D0996882680A449A60B3
:1006B00042681360036800215A60C160704700BF40
:1006C000100A0020AFF30080AFF30080AFF300808A
:1006D00010B4202383F31188037F0D2B11D8DFE89A
:1006E00003F026101007100B101010101010100B34
:1006F000436A9A6801329A6090E80C001A600268B6
:1007000053604FF0FF34002381680C4A4462037742
:10071000126893688B42FBD25168416002600023EB
:100720005060086083F311885DF8044B7047002324
:1007300083F311885DF8044B704700BF200A002046
:10074000034B00225B601B605B611B619A6070471A
:10075000200A0020AFF30080AFF30080AFF30080E9
:1007600000228168084B10B4044602771B689A681F
:100770008A42FBD25A686260236020465C60146043
:100780005DF8044B704700BF200A0020AFF30080E3
:10079000084B30B41A689969146808770125142049
:1007A000C877636015771C60104630BC9A61FFF70C
:1007B00087BE00BF200A0020AFF30080AFF30080A7
:1007C00030B54B1C87B0054611D00C4C0C4AA369C0
:1007D00001A8FFF745FF2846FFF7DAFF049B13B196
:1007E00001A8FFF75DFFA369586A07B030BD034C4D
:1007F000FFF7CEFFA369586A07B030BD200A00207A
:10080000D1060008AFF30080AFF30080AFF30080A3
:10081000DFF858C0F0B4DCF818708568BC68416235
:10082000A54206460DD80022634602771B689A68E7
:100830009542FBD95A68726033605E601660F0BC06
:10084000704700233B7763461B689A689442FBD944
:100850005A687A6001243B605F60176034773946DC
:100860003046CCF81860F0BCFFF72ABE200A002002
:100870000E4A1068F0B403689569136001271426C6
:100880000021AC685A60077703469061EE772977BC
:1008900000E01B689A68A242FBD25A686A602B602B
:1008A00029465D601560F0BCFFF70ABE200A0020F3
:1008B0000D4A106870B40368956913600126002121
:1008C000AC685A60067703469061297700E01B68A0
:1008D0009A68A242FBD85A686A602B6029465D601C
:1008E000156070BCFFF7ECBD200A0020AFF300805C
:1008F000044B1A689B6992689B689A4200D87047BB
:10090000FFF7D6BF200A0020AFF30080AFF30080CE
:10091000034B9B69DB7F0BB1FFF7CABFFFF7A8BF93
:10092000200A0020AFF30080AFF30080AFF3008017
:100930002DE9F003114C016465694561002200F165
:100940002C064FF002094FF0140800F128074FF071
:10095000010C0461816080F81C90606180F81F8048
:1009600080F81EC04277C26382630262826128619E
:1009700087620663C662BDE8F0037047200A002064
:100980002DE9F00F184D089FD5F814C0DFF85C80F2
:1009900024394618C6604FF0020B43504FF0140A3A
:1009A0007760002300F12C074FF0010900F12801C6
:1009B000C6F820800561826080F81CB080F81FA016
:1009C00080F81E90C0F814C0026468614377C36366
:1009D000836303628361CCF810000763C76281629E
:1009E000BDE8F00F704700BF200A0020D1040008C6
:1009F0002DE9F84F1D460446202383F311881C4E31
:100A0000DFF870B0D6F814E024394718C76000F159
:100A10002C03455000F1280C00250A9979604FF00D
:100A2000020A4FF014094FF00108C7F820B0294618
:100A300082600661C0F814E0026480F81CA080F8AF
:100A40001F9080F81E8045777061C56385630562DD
:100A50008561CEF810000363C362C0F828C0FFF7B9
:100A6000D7FE2B4683F311882046BDE8F88F00BFE0
:100A7000200A0020D1040008AFF30080AFF300800B
:100A800010B5202383F31188084B9B691C6C99686F
:100A90008C4201D0814200D298601864FFF728FF91
:100AA000002383F31188204610BD00BF200A0020D8
:100AB00010B52023044683F311880021FFF7A8FE18
:100AC000002383F31188204610BD00BFAFF30080E0
:100AD000202383F31188437F43F0040343770023EB
:100AE00083F31188704700BFAFF30080AFF300803D
:100AF00008B50146202383F311880620FFF760FE26
:100B0000002383F3118808BDAFF30080AFF30080AA
:100B100008B5202383F31188054BD968411A02D008
:100B20000620FFF74DFE002383F3118808BD00BFA8
:100B3000100A0020AFF30080AFF30080AFF3008015
:100B400008B5202383F31188064B1A689B699268C5
:100B50009B689A4201D3FFF78BFE002383F3118831
:100B600008BD00BF200A0020AFF30080AFF3008073
:100B700038B50E4B9C692546606255F8280FA8428F
:100B800006D00368A362FFF7EBFDA06AA842F8D184
:100B9000637F9B0704D1636922691A6122695361EB
:100BA0000E20BDE83840FFF7F3BD00BF200A00204B
:100BB000202383F31188FFF7DBBF00BFAFF3008072
:100BC00038B50446202383F31188037F0E2B07D00A
:100BD000084B826A9B6907201A60A362FFF7D8FD61
:100BE000656A002383F31188204600F019F828462F
:100BF00038BD00BF200A0020AFF30080AFF30080B3
:100C0000202383F31188837F01338377002383F3C9
:100C100011887047AFF30080AFF30080AFF300801E
:100C20000146202383F31188827F013AD2B2827772
:100C3000002383F3118812B9037F0E2B00D0704775
:100C4000437F03F00303012B02D0022B07D0704730
:100C5000436902691A610269536101F0B9B84369D5
:100C600002691A610269406C536101F051B900BF19
:100C7000F0B583B017461D460E4601F069F898B1ED
:100C8000202383F31188089B009331463A462B4674
:100C9000FFF776FE0123437700210446FFF7B8FDF6
:100CA000002383F31188204603B0F0BDAFF300802A
:100CB0002DE9F04182B0884616461F46054601F0F0
:100CC0000FF998B1202383F3118869680097424691
:100CD0003346FFF755FE022343774564002104465F
:100CE000FFF796FD002383F31188204602B0BDE88C
:100CF000F08100BFAFF30080AFF30080AFF300805E
:100D0000202383F31188044B1869837F0133837791
:100D1000002383F311887047200A0020AFF300807E
:100D200010B5202383F31188074B04699C421DBF33
:100D3000A37F0133A3770024002383F31188FFF7F7
:100D40006FFF204610BD00BF200A0020AFF30080D7
:100D50004060006081607047AFF30080AFF30080B7
:100D600070B5856881600135002D04460BDC6FF09D
:100D700001066068436863601C60FFF7F1FC0135A1
:100D8000012D4662F5D170BDAFF30080AFF3008056
:100D900008B5202383F31188FFF7E2FFFFF7A8FDD2
:100DA000002383F3118808BDAFF30080AFF3008008
:100DB0008268013A002A10B50346826001DB0020F8
:100DC00010BD074CA26950624168516010605A60C2
:100DD00003200A60FFF7DCFCA369586A10BD00BF5E
:100DE000200A0020AFF30080AFF30080AFF3008053
:100DF00008B5202383F31188FFF7DAFF002383F37C
:100E0000118808BDAFF30080AFF30080AFF300801E
:100E100003468068421E002A10B49A6003DB00205B
:100E20005DF8044B704761B1084A926953625C688F
:100E3000032082E818005A6022605DF8044BFFF737
:100E4000BFBC98604FF0FF30EAE700BF200A0020E7
:100E500008B5202383F31188FFF7DAFF002383F31B
:100E6000118808BDAFF30080AFF30080AFF30080BE
:100E700008B50246202383F3118883680133002BD1
:100E8000836003DD002383F3118808BD00680368D5
:100E9000136000215A60FFF7BBFC002383F3118825
:100EA00008BD00BFAFF30080AFF30080AFF3008058
:100EB00083680133002B836000DD704703681A6884
:100EC00002600021506018465962FFF749BC00BF1C
:100ED00070B50C1E054611DD002601E0013C0DD069
:100EE000AB680133002BAB60F8DC286803682B602B
:100EF0005D60FFF735FC013C4662F1D170BD00BF7B
:100F000010B5024682B0202383F311888368013331
:100F1000002B83601DDD8B68013B002B8B6007DBA2
:100F2000FFF7E6FC0020002383F3118802B010BD18
:100F30000D4A4B689469032084E80A004C601C60E9
:100F40006162FFF725FC606A002383F3118802B019
:100F500010BD0068036813605A600191FFF700FC40
:100F6000002343620199D6E7200A0020AFF30080F6
:100F70000023406000608360704700BFAFF30080D3
:100F800070B52F4B054680689C69002853D0A26835
:100F900083689A4206D9037F8260042B32D0052BE6
:100FA0001CD09BB12B4603E09968A268914202D302
:100FB0001B689D42F8D15A68626023605C601460CF
:100FC00065620420BDE87040FFF7E2BB90E80C00CA
:100FD0001A6002685360FFF7C3FBE3E790E80A007A
:100FE0001960466A01684B60334602E099688A429C
:100FF00002D81B689E42F9D15A684260036058606B
:101000001060CFE790E80A001960466A01684B60FB
:10101000334602E09968914202D31B689E42F9D19F
:101020005A684260036058601060B068A2688368C4
:101030009342B0D3B6E7E36BEB60AC60E56370BDA1
:10104000200A0020AFF30080AFF30080AFF30080F0
:1010500008B5202383F31188FFF792FF002383F361
:10106000118808BDAFF30080AFF30080AFF30080BC
:101070000246202383F31188836823B100200023D4
:1010800083F311887047054B9B698360D96BC160FE
:10109000DA630120002383F311887047200A0020BF
:1010A000174A38B59069202383F31188C46B2568EB
:1010B000E368C363A5421CD0016C4BB11A689A4225
:1010C00003D09268914238BF1146DB68002BF5D1FE
:1010D0002B68EA6B8160236028465C600021A56074
:1010E000E260EC63FFF794FB002383F31188204652
:1010F00038BD0023A360002383F31188204638BD48
:10110000200A0020AFF30080AFF30080AFF300802F
:1011100038B5124B9869C46B2568E368C363A54270
:1011200018D0016C4BB11A689A4203D09268914270
:1011300038BF1146DB68002BF5D12B68EA6B816064
:10114000236028465C60A560E260EC63FFF708FB63
:10115000204638BD0023A360204638BD200A002069
:10116000134A70B52023946983F31188E36BD3B1DC
:1011700000260BE01168D56B196010464B609A6031
:10118000DD60D363FFF7ECFAE36B43B11A68D9680B
:10119000E1639A42EED19E60E36B002BF6D1236CA3
:1011A000A360FFF7A5FB002383F3118870BD00BF88
:1011B000200A0020AFF30080AFF30080AFF300807F
:1011C00040600060704700BFAFF30080AFF3008065
:1011D00008B50246202383F311880068904205D0A9
:1011E0000368136000215A60FFF712FB002383F3AA
:1011F000118808BDAFF30080AFF30080AFF300802B
:1012000008B503460068984206D002681A60536029
:10121000FFF7A6FA0023436208BD00BFAFF30080CA
:1012200038B504460068A0420AD06FF00105036893
:1012300023605C60FFF794FA45622068A042F6D113
:1012400038BD00BFAFF30080AFF30080AFF3008084
:1012500008B5202383F31188FFF7E2FFFFF748FB6F
:10126000002383F3118808BDAFF30080AFF3008043
:101270000F4B70B59C690546FFF74AFF656206464D
:101280002B4603E09968A268914202D31B689D42F5
:10129000F8D15A686260236005205C601460FFF733
:1012A00077FA646A3046FFF76BFE204670BD00BFD8
:1012B000200A0020AFF30080AFF30080AFF300807E
:1012C00008B5202383F31188FFF7D2FF002383F3AF
:1012D000118808BDAFF30080AFF30080AFF300804A
:1012E0002DE9F04106468846FFF712FF0F4B9D6936
:1012F000074633466E6203E09C68AA68944202D3B4
:101300001B689E42F8D15A686A602B6041465D6056
:1013100005201560FFF754FA431C044602D03846F6
:10132000FFF72EFE2046BDE8F08100BF200A002016
:1013300008B5202383F31188FFF7D2FF002383F33E
:10134000118808BDAFF30080AFF30080AFF30080D9
:1013500030B4202383F31188064C0368A5690B6021
:101360000024016023464D608A60CC6083F31188BD
:1013700030BC7047200A0020AFF30080AFF300803C
:10138000202383F31188024602E0994207D01A46CF
:1013900013688342F9D1002383F3118870470B68E7
:1013A0001360002383F31188704700BFAFF3008000
:1013B000202383F31188054B9B699A6B22EA000175
:1013C0009963002383F3118810407047200A00209E
:1013D000202383F31188044B9B699A6B1043986315
:1013E000002383F311887047200A0020AFF30080A8
:1013F00008B5826B037F1143082B81630BD0092B47
:1014000000D008BD436A19408B42FAD1FFF7A8F912
:101410000023436208BD436A1942F7D108BD00BFEB
:1014200070B50468A04205460E4608D0201D0BC8C2
:101430003343E360FFF7DCFF2468A542F6D170BDBB
:1014400008B5202383F31188FFF7D2FFFFF750FA86
:10145000002383F3118808BDAFF30080AFF3008051
:1014600008B5202383F31188FFF7DAFFFFF740FA6E
:10147000002383F3118808BDAFF30080AFF3008031
:10148000F8B50D46074689B10024012601E0013474
:1014900065B106FA04F32B42F9D057F82420204610
:1014A00025EA030501349047002DF2D1F8BD00BFB5
:1014B00038B50D4B05469C69202383F31188A36B37
:1014C00010EA030206D160620820FFF761F9A36BFE
:1014D00005EA03025042104023EA0003A3630023FD
:1014E00083F3118838BD00BF200A0020AFF30080CD
:1014F00038B50B4B05469C69202383F31188A36BF9
:10150000184006D108206562FFF742F9A36B05EA8F
:10151000030023EA0003A363002383F3118838BD8B
:10152000200A0020AFF30080AFF30080AFF300800B
:1015300038B50C4B04469D69202383F31188AB6BAF
:1015400000EA0302824204D068620920FFF720F912
:10155000AB6B23EA0403AB63002383F311882046BB
:1015600038BD00BF200A0020AFF30080AFF3008039
:10157000134B70B504469D690846202383F31188F8
:10158000AA6B14EA02060DD119B90B4683F3118830
:1015900070BD6C620820FFF713F900280BDBAA6B03
:1015A00004EA02067042304022EA0002AA630023E5
:1015B00083F3118870BD334683F31188304670BDC4
:1015C000200A0020AFF30080AFF30080AFF300806B
:1015D000134B70B504469D690846202383F3118898
:1015E000AA6B14EA02060DD119B90B4683F31188D0
:1015F00070BD6C620820FFF7E3F800280ADBAA6BD5
:1016000004EA020622EA0602AA63002383F3118891
:10161000304670BD334683F31188304670BD00BF3D
:10162000200A0020AFF30080AFF30080AFF300800A
:1016300038B5124B04469D690846202383F3118870
:10164000AA6B04EA0203A3420BD019B90B4683F339
:10165000118838BD6C620920FFF7B2F8002808DB5A
:10166000AA6B22EA0402AA63002383F311882046AE
:1016700038BD002383F31188184638BD200A0020A6
:101680000E4B70B59C69202383F3118800F12C0563
:10169000067F6562036B63600C2E616325600463E3
:1016A0001C6007D00A20FFF773F8606A002383F3F9
:1016B000118870BDFFF754F8F4E700BF200A00203E
:1016C00010B5202383F311880B4CA269134653F8FD
:1016D0002C0F984208D00168D1620B224B60002386
:1016E000027783F3118810BD0C20FFF751F8A2692F
:1016F000D06A02F12C03EEE7200A0020AFF300804D
:1017000008B5202383F31188FFF782F8002383F3C1
:10171000118808BDAFF30080AFF30080AFF3008005
:1017200010B50B4601EB820141600446C360836043
:10173000036011461C30FFF70BFB04F11000002181
:10174000BDE81040FFF704BBAFF30080AFF30080AB
:1017500010B52023044683F3118803684168C360F1
:10176000C91A836089101C30FFF7FAFA04F11000DF
:101770000021FFF7F5FAFFF7BBF8002383F3118888
:1017800010BD00BFAFF30080AFF30080AFF3008067
:1017900070B504460E461C301146FFF739FB05466E
:1017A00078B9A2686168131D8B42A36028BF2368C3
:1017B000166004F1100028BFA360FFF779FBFFF764
:1017C00097F8284670BD00BFAFF30080AFF30080EC
:1017D00008B5202383F31188FFF7DAFF002383F392
:1017E000118808BDAFF30080AFF30080AFF3008035
:1017F00038B5436A002B12DD84684568221D013B21
:10180000AA42436228BF03688260216000F1100091
:1018100028BF40F8083CFFF74BFB002038BD4FF0D5
:10182000FF3038BDAFF30080AFF30080AFF300802E
:1018300070B504460E461C301146FFF7E9FA05461E
:1018400060B9E3682268043B9342E36008D31E60FA
:1018500004F11000FFF72CFBFFF74AF8284670BD93
:101860006368043BE360F2E7AFF30080AFF300800E
:1018700008B5202383F31188FFF7DAFF002383F3F1
:10188000118808BDAFF30080AFF30080AFF3008094
:10189000426A002A10B510DDC3680468043B013AAF
:1018A000A3424262C36002D24368043BC360196032
:1018B0001030FFF7FDFA002010BD4FF0FF3010BDD3
:1018C00070B504460E4610301146FFF7A1FA0546E2
:1018D00080B9E3686268196804339342E36028BF03
:1018E0002368316004F11C0028BFE360FFF7E0FAD1
:1018F000FEF7FEFF284670BDAFF30080AFF3008017
:1019000008B5202383F31188FFF7DAFF002383F360
:10191000118808BDAFF30080AFF30080AFF3008003
:101920008369002B10B513DD5A1EC36882614268BB
:101930001C6804339342C36028BF03680C6000F145
:101940001C0028BF40F8103CFFF7B2FA002010BD81
:101950004FF0FF3010BD00BFAFF30080AFF3008049
:1019600010B4024661B1094B9B69586244680D206E
:1019700083E81400536023605DF8044BFEF720BF3A
:101980004FF0FF305DF8044B704700BF200A002085
:1019900030B4029C046200250A4485600261406004
:1019A000006041618161C160C36130BC704700BFAC
:1019B00038B504460068E36863610022A042A26073
:1019C000A3610AD06FF00105036823605C60FEF735
:1019D000C7FE45622068A042F6D138BDAFF3008053
:1019E000034642698069824210B598681BD0541C36
:1019F00001305C619860117059691A6991420BD28B
:101A0000186898420DD002681A605360FEF7A8FE6D
:101A100000234362184610BD1868DA685A6198427C
:101A2000F1D1002010BD0028E1D06FF0030010BDFF
:101A300070B520230E46044683F31188C3692BB189
:101A4000984703E0FFF78CFF002815DBA5682046C8
:101A50003146002DF6D0A2692169531C8B4205F155
:101A6000FF35A361A56028BFE368107828BFA36194
:101A7000002383F3118870BD2B4683F3118870BD5A
:101A80002DE9F0471E460446D0F81C80202383F33E
:101A900011884FF0000901EB020A4F1CB8F1000F4A
:101AA00005D02046C04702E0FFF75AFFF0B9A5680D
:101AB00020463146002DF7D0A369013D5A1CA26192
:101AC000A5601B7807F8013C2369A2699A4224BFEC
:101AD000E368A361002383F31188574509F10109E5
:101AE00007D0202383F311880137D7E72B4683F3F0
:101AF00011884846BDE8F087AFF30080AFF300805F
:101B000030B4029C04628D18056140600060826000
:101B100041618161C160C36130BC7047AFF3008037
:101B200038B50269C368044600686361D21AA042EE
:101B3000A361A2600AD06FF00105036823605C60B6
:101B4000FEF70EFE45622068A042F6D138BD00BF08
:101B5000F8B504460F461646202383F3118803E0A8
:101B6000FFF7FEFE002819DBA56820463146002D50
:101B7000F6D06369013D5A1C6261A5601F7023693C
:101B800062699A4224BFE3686361E3690BB120464E
:101B90009847002383F311881846F8BD2B4683F33A
:101BA0001188F8BDAFF30080AFF30080AFF3008081
:101BB00041698269914210B50346816816D018695F
:101BC0004C1C511C9C609961814214780BD218689E
:101BD000984206D002681A605360FEF7C1FD0023E8
:101BE0004362204610BDDA689A61F0E70029E6D02A
:101BF0006FF0020010BD00BFAFF30080AFF30080B4
:101C00002DE9F84F9A4604460E461746D0F81C9028
:101C1000202383F311884FF00008A56806F1010B1B
:101C200020466B1EDDB16269A360531C636133788B
:101C30001370236962699A4224BFE3686361B9F152
:101C4000000F00D0C847002383F31188013F08F13B
:101C500001080DD0202383F311885E46DDE720467E
:101C60005146FFF77DFE0028D7D02B4683F311881D
:101C70004046BDE8F88F00BFAFF30080AFF30080AF
:101C80000548064A0649074B20F0070022F00702E4
:101C900008601A60704700BF3F1900200000032051
:101CA000400A00203C0A0020AFF30080AFF3008020
:101CB000202383F31188094A09491368096807300A
:101CC00020F00700C91A88429BBFC018106000208E
:101CD0001846002383F31188704700BF400A002094
:101CE0003C0A0020AFF30080AFF30080AFF3008028
:101CF000024A034B10681B68C01A70473C0A002058
:101D0000400A0020AFF30080AFF30080AFF3008003
:101D1000044B054A1A6003F1100000229A60DA6051
:101D2000FFF726B9480A0020B11C0008AFF3008075
:101D30000023083A81600360C36010304A600B6082
:101D4000FFF716B9AFF30080AFF30080AFF3008068
:101D5000F8B51E4E002818BF0646073106F11000E0
:101D600021F0070506F10804FFF772F903E05A684D
:101D7000954211D91C462368002BF8D1FFF790F942
:101D800033680BB305F108009847E8B10660456079
:101D900000F108042046F8BD05F10801914208D978
:101DA0001A6822601C4644F8086BFFF779F9204650
:101DB000F8BD6FF00700401B5F18024418685850C8
:101DC0007A6027605D60EDE70024E3E7480A0020C1
:101DD00070B50646A0F1080450F8080C00F108059B
:101DE0001030FFF735F92B46AB4204D0A34202D3A3
:101DF0001B68AB42FAD11A681AB1944201D3134658
:101E0000F2E756F8041C46F8082C1C6001F10802A1
:101E100056F8085CA018A84209D05A6802F10801D7
:101E200019448C4211D0BDE87040FFF739B94068C1
:101E3000A25846F8082C0A18083246F8042C5A68AA
:101E400002F1080119448C42EDD156F8040C56F801
:101E5000081C1960024408325A60BDE87040FFF760
:101E60001FB900BFAFF30080AFF30080AFF3008075
:101E700038B50E4C002818BF044604F110000D467A
:101E8000FFF7E6F8A3686BB10022144658681B6898
:101E900001340244002BF9D105B12A60FFF700F9A3
:101EA000204638BD1A461C46F6E700BF480A002007
:101EB0000023416082600360704700BFAFF3008081
:101EC00062B1202383F3118803680B600023016053
:101ED00083F311884368013A1944F2D1704700BF77
:101EE00008B50246202383F31188006828B10368EF
:101EF0001360002383F3118808BD9368002BF8D08A
:101F000050689847002383F3118808BDAFF3008021
:101F1000202383F3118803680B600023016083F39F
:101F200011887047AFF30080AFF30080AFF30080FB
:101F3000014B01221A707047FD100020AFF30080A2
:101F400070B5084E4C243068064D03682D219B68FF
:101F50009847013CF7D128680349036802221B68AF
:101F6000984770BD30110020BC8C0008AFF3008092
:101F700070B584B018B30DF10105154E2B46A6FBC4
:101F80000012D20802EB8201A0EB41013031C9B24C
:101F900003F8011C1C4610460133002AEFD16B46A2
:101FA0009C420AD90B4E02E014F8021C013C306836
:101FB00003689B689847AC42F6D104B070BD054BEE
:101FC0001868036830219B68984704B070BD00BF53
:101FD000CDCCCCCC30110020AFF30080AFF300802B
:101FE00038B5017849B1054D0446286803689B68F7
:101FF000984714F8011F0029F7D138BD301100208F
:1020000038B50178084D044639B1286803689B68E3
:10201000984714F8011F0029F7D12868034903687D
:1020200002221B68984738BD30110020BC8C000884
:10203000202383F31188044B1A68511C1960107017
:10204000002383F31188704700110020AFF3008054
:1020500010B451B9074C0849084A01232370106095
:102060000B7018465DF8044B7047002318465DF866
:10207000044B7047FC10002004110020F8100020D1
:10208000F0B40E4E0E4F35683B4605E013F8014B99
:1020900011F8012B944207D1AB42F7D30B781BB94F
:1020A00037601846F0BC7047064C0749074A0123C1
:1020B000237010600B701846F0BC704700110020B0
:1020C00034110020FC10002004110020F810002022
:1020D0000B4BDB68521A591A914210B40AD3094CBF
:1020E00009490A4A0123237010600B7018465DF8F5
:1020F000044B7047002318465DF8044B704700BF3F
:10210000100A0020FC10002004110020F81000200C
:1021100038B5064C04F1140554F8043F18460BB1C9
:10212000FEF7D6FCAC42F7D138BD00BF1811002035
:1021300070B5074C002604F1140554F8043B18460A
:102140001BB1FEF73DFD44F8046CAC42F5D170BD07
:102150001C110020AFF30080AFF30080AFF30080CC
:10216000124A134B30B494694FF47A7101FB00F0BA
:10217000226A411EA3FB0151501C00EB91118A42BF
:10218000236A0DD29A4204D90023002BF7D130BC28
:102190007047994294BF00230123002BEFD1F6E74B
:1021A0009A42F6D80123002BE9D1F0E7200A00205B
:1021B000D34D6210AFF30080AFF30080AFF3008027
:1021C00008B50120FEF794FC014BD86808BD00BF9C
:1021D000100A0020AFF30080AFF30080AFF300805F
:1021E00038B50C4B00241C70202383F311884FF466
:1021F0007A7101FB00F1084B0848094A0139A3FB39
:102200000151890923460131FEF72AFA234683F357
:10221000118838BDFD100020D34D62100811002038
:10222000311F0008AFF30080AFF30080AFF30080F0
:102230002DE9F04F9E4C9F4D206085B09E48FFF7E2
:10224000DFFE9E48FFF7DCFE9D48FFF7D9FE2A21FE
:10225000206803689B68984715F8011F0029F7D18B
:102260009848994DFFF7CCFE2A21206803689B68A7
:10227000984715F8011F0029F7D19448944DFFF7AE
:10228000BFFE2A21206803689B68984715F8011F44
:102290000029F7D18F48904DFFF7B2FE2A21206820
:1022A00003689B68984715F8011F0029F7D18B48F0
:1022B0008B4DFFF7A5FE2A21206803689B6898478D
:1022C00015F8011F0029F7D18648874DFFF798FEC2
:1022D0002A21206803689B68984715F8011F002988
:1022E000F7D18248824DFFF78BFE2A2120680368D0
:1022F0009B68984715F8011F0029F7D17D487E4D4E
:10230000FFF77EFE2A21206803689B68984715F82E
:10231000011F0029F7D1794A794801910392FFF70B
:102320006FFE6548DFF888B1764FFFF769FE764BA0
:10233000019902911970029B013302934FF000083A
:1023400057F8043B002B00F08680704DFFF7F8FD36
:102350002D21206803689B68984715F8011F002904
:10236000F7D102986A4DFFF703FEDBF8000003681F
:102370002E219B6808F1010898474046FFF7F8FDB9
:102380002021206803689B68984715F8011F0029E1
:10239000F7D157F8043C1D68297839B120680368E3
:1023A0009B68984715F8011F0029F7D159485A4DE5
:1023B0005A4EDFF89491FFF723FEC820FEF798FBF2
:1023C000574A57F804ACC6F80090002313605360D6
:1023D0009360D3601361DAF804202B7002B1904748
:1023E000DAF80C309847DAF8083003B19847FFF76D
:1023F0009FFE2B78002B4FD04A4D2D21206803687B
:102400009B68984715F8011F0029F7D1464B474DA7
:102410001868FFF7ADFD2021206803689B68984786
:1024200015F8011F0029F7D133684B450BD9404DF2
:10243000206815F8011C03689B68984733689D4223
:1024400005F10105F4D33B48FFF7DAFD57F8043BEB
:10245000002B7FF47AAF039A52F8047F0392002F87
:102460007FF469AFFFF76CFD334D1348FFF7C8FDEC
:102470004621206803689B68984715F8011F0029CA
:10248000F7D1214A13785BB92C48FFF7B9FD1E4BF1
:10249000187805B0BDE8F08F2948FFF7B1FD4FE788
:1024A0002848FFF7ADFD184B187805B0BDE8F08F50
:1024B00030110020307E00087C8D0008107E00085E
:1024C0002C7E0008907E0008987E0008AC7E0008F4
:1024D000C47E0008D87E0008207F0008347F0008F2
:1024E000407F0008547F0008607F0008747F000868
:1024F0008C7F0008A07F0008D47F0008308000088F
:10250000E87F0008A080000804110020447E000835
:1025100010800008547E0008FC10002000110020EC
:102520001C110020587E0008F810002014800008BC
:1025300035110020707E000818800008807E000899
:10254000747E0008887E000834110020AFF30080FC
:10255000F0B5274F274EBB69274D9A68274B306847
:10256000274C83B0053A00934FF4A8712B46FEF731
:102570003FFABB6923499A68736820600091043A66
:1025800018464FF4A8712B46FEF732FABA69B368C1
:1025900092681D4960600091033A18464FF4A87193
:1025A0002B46FEF725FABA69F36892681749A060CE
:1025B0000091023A18464FF4A8712B46FEF718FA1C
:1025C000BA69336992681249E060013A009118468D
:1025D0004FF4A8712B46FEF70BFA2061FFF7A8FD18
:1025E0000C49012003B0BDE8F040FFF749BD00BF32
:1025F000200A0020F07D000821260008D080000875
:102600001C110020CC900008C0800008C480000885
:10261000C8800008CC800008AFF30080AFF30080D2
:1026200008B50078FFF704FD002008BDAFF3008077
:10263000F0B52B4F2B4EBB692B4D9A682B4B706816
:102640002B4C83B0043A00934FF4A8712B46FEF74D
:10265000CFF9BB6927499A68336860600091053AF1
:1026600018464FF4A8712B46FEF7C2F9BA693369D0
:102670009268214920600091013A18464FF4A871F0
:102680002B46FEF7B5F9BA69F36892681B492061D9
:102690000091023A18464FF4A8712B46FEF7A8F9AC
:1026A0002023E06083F31188BB69B0689A68144BFB
:1026B0000093033A2B464FF4A871FEF761F900230B
:1026C000A06083F31188A068FEF7F2F9FFF730FDF0
:1026D0000C49012003B0BDE8F040FFF7D1BC00BFBA
:1026E000200A0020F07D000821260008CC90000878
:1026F0001C110020D0800008C8800008C480000899
:10270000C0800008CC800008AFF30080AFF30080E9
:10271000F8B54C4EB3699C68651C2846FEF7B0F9C5
:10272000B0EB040CDCF10001074651EB0C01012079
:10273000FFF78EFC00B1F8BDB3699968B5EB010EE7
:10274000DEF1000151EB0E010220FFF781FC0028B1
:10275000F1D13846FEF794F9281A4142414103204D
:10276000FFF776FC0028E6D1B36999680A1B51424D
:1027700051410420FFF76CFC0028DCD1202383F3B7
:102780001188B2699368991C9160034683F311889C
:10279000B3699968A71CCB1B594259410520FFF723
:1027A00057FC0028C7D12846FEF76AF9B0EB040CA5
:1027B000DCF1000151EB0C010620FFF749FC002879
:1027C000B9D1B3699968B7EB010EDEF1000151EBA5
:1027D0000E010720FFF73CFC0028ACD1B369196C4F
:1027E0006F1A794279410820FFF732FC0028A2D104
:1027F000E71C3846FEF744F9281A414241410920B6
:10280000FFF726FC002896D1B36999687A1A5142DD
:1028100051410A20FFF71CFC00288CD1B369196CC8
:102820007B1A594259410B20FFF712FC002882D134
:10283000202383F31188B26903469460146483F300
:10284000118878E7200A0020AFF30080AFF3008002
:1028500038B51C4DFFF7B4FCEC686420FEF748F96E
:1028600004F1640104F165020120FFF731FC00B1BD
:1028700038BDEC686420FEF73BF904F1640104F113
:1028800065020220FFF724FC0028F1D1EC684FF428
:102890007A70FEF72DF904F57A7104F2E93203201B
:1028A000FFF716FC0028E3D1EC6804F16405284624
:1028B000FEF72EF9294604F165020420BDE83840F0
:1028C000FFF706BC100A0020AFF30080AFF30080D2
:1028D0002DE9F043434E444FB369D7F800809A681E
:1028E000DFF82891414B424D424C83B005324FF402
:1028F000A871CDF800904046FEF77AF8B2697B687F
:1029000092683D492860013218460091374B4FF4D8
:10291000A871FEF76DF8B269BB68926837496860C4
:10292000033218460091314B4FF4A871FEF760F85E
:10293000B269FB6892683249A86004321846009177
:102940002A4B4FF4A871FEF753F8B2693B699268BD
:102950002C49E860023218460091244B4FF4A871CC
:10296000FEF746F828612046FEF782FA2046FEF779
:102970007FFA2046FEF77CFA2046FEF779FA2046D9
:10298000FEF776FAFFF7D4FB01201F49FFF778FB2B
:10299000074610B103B0BDE8F083B269134B9268EB
:1029A000CDF80090053240464FF4A871FEF720F8AC
:1029B0002023286083F3118802212046FEF788FA3D
:1029C000FDF796FF3B4683F31188FFF7B1FBA16843
:1029D0004B1E59424FF00200594103B0BDE8F0438D
:1029E000FFF736BB200A0020F07D0008312A0008DE
:1029F0001C11002000080020C4800008C0800008CE
:102A0000CC900008D0800008CC800008C880000866
:102A100010B5044C2046FEF7EBF92046FEF728FAE5
:102A2000002010BD00080020AFF30080AFF300804D
:102A300010B504460348FEF7DBF92078FFF7F8FAF3
:102A4000002010BD00080020AFF30080AFF300802D
:102A500001480021FEF77CB900080020AFF3008098
:102A600001480021FEF774B900080020AFF3008090
:102A700001480021FEF76CB900080020AFF3008088
:102A800008B53220FEF734F8202383F31188054877
:102A9000FEF70EFAFDF72CFF002383F3118818468A
:102AA00008BD00BF00080020AFF30080AFF3008036
:102AB00008B5202383F311888368002B06DDFDF71A
:102AC00017FF002383F31188184608BDFEF7F0F9BD
:102AD000F5E700BFAFF30080AFF30080AFF30080F5
:102AE00000B587B003A80021FEF732F903A8002142
:102AF000FEF74EF905990029CCBF002101210120E4
:102B0000FFF7A6FA10B107B05DF804FB2F4B304A6F
:102B10009B6910689A682F4B03A90091013A4FF402
:102B2000A871FDF765FF2C4B186003A8FEF760F94C
:102B300005990029CCBF002101210220FFF788FA66
:102B40000028E0D1202383F31188059B002B34DD7E
:102B5000FDF7CEFE002383F3118805999942D4BF77
:102B6000002101210320FFF773FA0028CBD105993A
:102B70004A1E514251410420FFF76AFA0028C2D18F
:102B8000202383F31188059B002B1ADDFDF7B0FE8F
:102B9000002383F3118805999942D4BF00210121B4
:102BA0000320FFF755FA0028ADD105994B1E594275
:102BB00059410520FFF74CFAA5E703A8FEF778F97D
:102BC000C6E703A8FEF774F9E0E700BF200A00207B
:102BD000F07D0008B12A00081C110020AFF300802E
:102BE00070B54B4C82B000212046FEF731F9B0F1B0
:102BF000FF3EDEF1000151EB0E010120FFF728FA44
:102C000008B102B070BD21680E1B714271410220F3
:102C1000FFF71EFA0028F4D1A168D1F1010138BFF5
:102C200000210320FFF714FA0028EAD1394B3A4A71
:102C30009B6911689A68394B0090013A08464FF435
:102C4000A871FDF7D5FE364B4FF4FA711860204697
:102C5000FEF7FEF80546FFF76BFAD5F1010138BF24
:102C600000210420FFF7F4F90028CAD121680D1BC8
:102C7000694269410520FFF7EBF90028C1D1A1683D
:102C8000D1F1010138BF00210620FFF7E1F900284A
:102C9000B7D1FFF795FA234BDE6841252846FFF7A9
:102CA000C7F94FF4FA711A48FEF7D2F8B0F1FF32C3
:102CB000514251410720FFF7CBF90028A1D12168EB
:102CC0000B1B594259410820FFF7C2F9002898D13F
:102CD000A168D1F101014FF0090038BF0021FFF7D1
:102CE000B7F90135EDB200288BD1462DD6D10A2097
:102CF0000D49FFF7C5F9002883D10B2006F6C41152
:102D000006F6C91202B0BDE87040FFF7E1B900BF96
:102D100000080020200A0020F07D0008812A000819
:102D20001C110020100A0020CC800008AFF30080A6
:102D300010B5214B214A9B6910689A68204B214CA1
:102D400082B00021013200914FF4A871FDF750FECE
:102D50001D4B214618602046FEF7D2F821680A1B59
:102D6000514251410120FFF773F908B102B010BD83
:102D7000A168D1F1010138BF00210220FFF768F9F5
:102D80000028F3D121462046FEF7BAF821680B1B34
:102D9000594259410320FFF75BF90028E6D1A168A9
:102DA000D1F101014FF0040038BF002102B0BDE8AD
:102DB0001040FFF74DB900BF200A0020F07D000849
:102DC000112A0008000800201C110020AFF3008029
:102DD000F0B52A4F2A4EBB692A489C682A4D83B019
:102DE000FEF736F9294B0093621C4FF4A871284B6B
:102DF0003068FDF7FDFD736826492860A21C18465F
:102E00000091234B4FF4A871FDF7F2FDB3682249FE
:102E10006860E21C184600911D4B4FF4A871FDF745
:102E2000E7FDF3681D49A860221D18460091184B64
:102E30004FF4A871FDF7DCFD33691949E860621DA4
:102E400018460091124B4FF4A871FDF7D1FD28618F
:102E5000FEF726F9FFF76CF9BB6999680B1B59421D
:102E600059410120FFF7F4F808B103B0F0BD0D4956
:102E7000022003B0BDE8F040FFF702B9200A0020AD
:102E8000F07D00080C0800201C110020D0800008F4
:102E9000B12E0008CC900008C0800008C480000853
:102EA000C8800008CC800008AFF30080AFF300803A
:102EB00010B504460448FEF7CBF82078FFF7B8F8C1
:102EC000FEF7EEF8002010BD0C080020AFF30080E4
:102ED00010B504460448FEF7BBF82078FFF7A8F8C1
:102EE000FEF7DEF8002010BD1C080020AFF30080C4
:102EF0000148FEF73DB800BF0C080020AFF300808A
:102F00000148FEF735B800BF0C080020AFF3008081
:102F100008B50448FEF72CF80348BDE80840FEF762
:102F200027B800BF0C0800201C080020AFF3008069
:102F300008B50448FEF71CF80348BDE80840FEF752
:102F400017B800BF0C0800201C080020AFF3008059
:102F50000148FEF70DB800BF0C080020AFF3008059
:102F60002DE9F041204E214F214C82B0FFF728F986
:102F7000B36920499A68D1F80C801F4B3868002546
:102F8000013A4FF4A8710095FDF732FDB2697B68F4
:102F900092682060023A18464FF4A871174B0095CA
:102FA000FDF726FDB269BB68926860604FF4A871B6
:102FB000033A18460095124BFDF71AFDA060FFF783
:102FC000B7F801200F49FFF75BF810B102B0BDE878
:102FD000F081022008F1640108F1690202B0BDE845
:102FE000F041FFF775B800BF200A0020F07D00080F
:102FF0001C110020100A0020613100084131000836
:10300000F130000850820008AFF30080AFF3008079
:103010002DE9F0412C4E2D4F2D4C82B0FFF7D0F80A
:10302000B3692C499A68D1F80C802B4B386800257D
:10303000053A4FF4A8710095FDF7DAFCB2697B6898
:1030400092682060043A18464FF4A871234B00950B
:10305000FDF7CEFCB269BB6892686060033A18461F
:103060004FF4A8711E4B0095FDF7C2FCB269FB68D6
:103070009268A060023A18464FF4A871194B009567
:10308000FDF7B6FCB2693B699268E0604FF4A87145
:10309000013A18460095144BFDF7AAFC2061FFF792
:1030A00047F801201149FEF7EBFF10B102B0BDE86F
:1030B000F081022008F16E0108F1730202B0BDE850
:1030C000F041FFF705B800BF200A0020F07D00089E
:1030D0001C110020100A00202131000811320008C4
:1030E000E1310008C131000891310008CC800008AE
:1030F00008B50848FDF7ACFF2820FFF731F8FDF7C9
:10310000CFFF0A20FFF72CF84320FEF791FF0020A5
:1031100008BD00BF0C080020AFF30080AFF30080B3
:1031200008B50648FDF794FF1E20FFF719F8FDF7D4
:10313000B7FF4520FEF77CFF002008BD0C080020EB
:1031400008B51420FDF7D4FC2820FFF709F8422029
:10315000FEF76EFF002008BDAFF30080AFF30080E4
:1031600008B52820FDF7C4FC0648FDF771FF0A20CA
:10317000FEF7F6FFFDF794FF4120FEF759FF002010
:1031800008BD00BF0C080020AFF30080AFF3008043
:1031900008B53220FDF7ACFC0648FDF759FF0A20C0
:1031A000FEF7DEFFFDF77CFF4120FEF741FF002028
:1031B00008BD00BF1C080020AFF30080AFF3008003
:1031C00008B52820FDF794FC1420FEF7C9FF422023
:1031D000FEF72EFF002008BDAFF30080AFF30080A4
:1031E00008B51420FDF784FC0648FDF731FF0A20DE
:1031F000FEF7B6FFFDF754FF4320FEF719FF00204E
:1032000008BD00BF1C080020AFF30080AFF30080B2
:1032100008B50A20FDF76CFC0B48FDF719FF1420D8
:10322000FEF79EFF0948FDF713FF0A20FEF798FFFF
:10323000FDF736FF0A20FEF793FFFDF731FF44202C
:10324000FEF7F6FE002008BD1C0800200C08002038
:1032500008B59620FDF74CFC0348FDF7F9FEFDF795
:103260001FFF002008BD00BF0C080020AFF3008046
:1032700008B53220FDF73CFC0348FDF7E9FEFDF7F9
:103280000FFF002008BD00BF1C080020AFF3008026
:103290002DE9F0468B4D8C4EAB6932689C688B4BA8
:1032A0008B4F85B004F10109039200934A464FF415
:1032B000A871884B0398FDF79BFB7668864B3860B6
:1032C00004F1020A4FF4A871524600933046834B32
:1032D000FDF78EFB78608248FDF7BAFEAB6999680E
:1032E000B1EB040CDCF1000151EB0C010120FEF705
:1032F000AFFE10B105B0BDE8F0866420FDF7F8FB25
:10330000AB699968B1EB090EDEF1000151EB0E01DA
:103310000220FEF79DFE0028ECD17248FDF798FED2
:10332000AB699968B1EB0902514251410320FEF7A4
:103330008FFE0028DED16420FDF7DAFBAB699968C7
:10334000B1EB0A03594259410420FEF781FE0028DF
:10335000D0D1FDF7A5FEAB699968B1EB090CDCF1A2
:10336000000151EB0C010520FEF772FE0028C1D1CF
:103370006420FDF7BDFBAB699968B1EB090EDEF186
:10338000000151EB0E010620FEF762FE0028B1D1CC
:10339000FDF7E6FEAB6999680A1B514251410720CF
:1033A000FEF756FE0028A5D1FEF7C2FE4E4B009355
:1033B0004FF4A8714A46474B0398FDF719FB4B4B56
:1033C00038604FF4A87100935246444B3046FDF7E5
:1033D0000FFB78604248FDF73BFEAB6999680B1B19
:1033E000594259410820FEF733FE002882D164205B
:1033F000FDF77EFBAB699968B1EB090CDCF10001CC
:1034000051EB0C010920FEF723FE00287FF472AF78
:103410003448FDF71DFEAB699968B1EB090EDEF18A
:10342000000151EB0E010A20FEF712FE00287FF486
:1034300061AF6420FDF75CFBAB699968B1EB0A07EB
:1034400079424FF00B007941FEF702FE0646002854
:103450007FF450AF202383F31188FDF759FEFDF769
:1034600047FA334683F31188AB699968B1EB0906D3
:10347000714271410C20FEF7EBFD00287FF43AAF5A
:103480006420FDF735FBAB699968B1EB0902514245
:1034900051410D20FEF7DCFD00287FF42BAFFDF736
:1034A0005FFEAB6999680B1B594259410E20FEF72C
:1034B000CFFD00287FF41EAF05B0BDE8F046FEF753
:1034C00037BE00BF200A0020F07D0008C48000083D
:1034D0001C11002071320008C88000085132000819
:1034E0001C0800200C080020CC900008C0800008B8
:1034F000F8B52B4D2B4CAB6920469E68FDF7B8FD07
:1035000001460120FEF7A4FD00B1F8BD2046FDF7FD
:10351000AFFD80F00101C9B20220FEF799FD074618
:103520000028F2D1202383F31188FDF7F1FD3B46FB
:1035300083F3118821680F1B794279410320FEF73C
:1035400087FD0028E1D1A168D1F1010138BF002138
:103550000420FEF77DFD0028D7D1AB6999688A1B4E
:10356000514251410520FEF773FD0028CDD1204680
:10357000FDF76EFDFDF7F4FD21680B1B5942594123
:103580000620FEF765FD0028BFD1A168D1F1010139
:103590004FF0070038BF0021BDE8F840FEF758BDE6
:1035A000200A00200C080020AFF30080AFF3008059
:1035B000F0B52F4B2F4F9B692F4D9E682F4B3868CE
:1035C0002F4C83B0721C00934FF4A8712B46FDF76B
:1035D0000FFA7B682B492060B21C009118464FF40B
:1035E000A8712B46FDF704FABB6827496060F21CFE
:1035F000009118464FF4A8712B46FDF7F9F9FB68C6
:103600002249A060321D009118464FF4A8712B4644
:10361000FDF7EEF93B691E49E060721D0091184606
:103620004FF4A8712B46FDF7E3F92023206183F3C3
:103630001188184C2046FDF7E3FD2046FDF7E0FD1C
:103640002046FDF7DDFD2046FDF7DAFD2046FDF7BB
:10365000D7FDFDF74DF9002383F31188FEF768FDD0
:103660000D49012003B0BDE8F040FEF709BD00BFE1
:10367000200A0020F07D0008A1360008D080000854
:103680001C110020CC900008C0800008C4800008F5
:10369000C88000082C080020CC800008AFF3008010
:1036A00010B504460648FDF7D3FC0648FDF708FEB2
:1036B0002078FEF7BDFCFDF7F3FC002010BD00BF35
:1036C0000C0800202C080020AFF30080AFF300802E
:1036D00008B50448FDF774FD0348BDE80840FDF750
:1036E00047BC00BF2C0800200C080020AFF300806E
:1036F00008B50448FDF764FD0348BDE80840FDF740
:1037000037BC00BF2C0800200C080020AFF300805D
:1037100008B50548FDF754FD0448FDF729FC0448A9
:10372000BDE80840FDF724BC2C0800200C08002050
:103730001C080020AFF30080AFF30080AFF30080DF
:10374000F0B5244B244F9B69244D9E68244B386868
:10375000244C83B0721C00934FF4A8712B46FDF7E4
:1037600047F97B6820492060B21C009118464FF44D
:10377000A8712B46FDF73CF9BB681C496060F21C40
:10378000009118464FF4A8712B46FDF731F9FB68FC
:103790001749A060321D009118464FF4A8712B46BE
:1037A000FDF726F93B691349E060721D0091184648
:1037B0004FF4A8712B46FDF71BF920610E48FDF769
:1037C00047FDFEF7B5FC0D49012003B0BDE8F04010
:1037D000FEF756BC200A0020F07D0008A136000844
:1037E000D08000081C110020CC900008C080000888
:1037F000C4800008C88000082C080020CC80000885
:10380000F0B51B4B1B4E9B6930689D681A4B1B4CD7
:103810001B4F83B06A1C00934FF4A871194BFDF73E
:10382000E7F8736818492060AA1C009118464FF405
:10383000A871164BFDF7DCF8B168154B6060EA1C07
:1038400000930846134B4FF4A871FDF7D1F8A06020
:103850003846FDF7BDFC3846FDF7BAFCFEF768FCBC
:103860000D49012003B0BDE8F040FEF709BC00BFE0
:10387000200A0020F07D0008C88000081C110020EC
:103880002C080020A1380008C0800008A1360008DC
:10389000C4800008D12E000850820008AFF30080D9
:1038A00010B504460948FDF7D3FB0948FDF7D0FBE6
:1038B0004FF0FF310748FDF73BFD2078FEF7B8FBDE
:1038C000FDF7EEFBFDF7ECFB002010BD1C0800200F
:1038D0000C0800202C080020AFF30080AFF300801C
:1038E00010B5184A184B916918688A68174B82B04E
:1038F000013200914FF4A871FDF77AF8144B18606B
:10390000FDF7DEFE446B2146FDF7FAFEE0B2FEF75E
:103910008FFBFDF7D5FE446B2146FDF7F1FEE0B2CB
:10392000FEF786FBFDF7CCFE446B2146FDF7E8FE73
:10393000E0B2FEF77DFB0749012002B0BDE8104070
:10394000FEF79EBB200A0020F07D000861390008C8
:103950001C11002050820008AFF30080AFF30080FC
:1039600010B541210446FDF78BFE20464221FDF7AC
:1039700087FE20464321FDF783FE002010BD00BFD7
:10398000F0B5B44E716AB1F1050EDEF1000183B0FD
:1039900051EB0E010120FEF75BFB00BB4224AD4D55
:1039A000214628464FF0FF32FDF712FFD0F101010A
:1039B00038BF002102200134FEF74AFB78B9462CBB
:1039C000EDD1412128464FF0FF32FDF751FFD0F1F4
:1039D000010138BF00210320FEF73AFB08B103B014
:1039E000F0BD582101222846FDF7F2FEB0F1FF3765
:1039F000794279410420FEF72BFB04460028EED1E2
:103A0000202383F3118858212846FDF7F1FE234631
:103A1000014683F31188B1F1FF3461426141052011
:103A2000FEF716FB0028DAD1582101222846FDF7BF
:103A30001FFFB0F1FF30414241410620FEF708FB75
:103A400004460028CBD1202383F31188582128462F
:103A5000FDF71EFF2346014683F31188B1F1FF32C3
:103A600051424FF007005141FEF7F2FA0746002895
:103A7000B5D1202383F31188696AD1F101014FF098
:103A8000080038BF0021FEF7E3FA044618B13B46B0
:103A900083F31188A3E7034683F31188202383F37C
:103AA0001188A9694B1F594259410920FEF7D0FAE4
:103AB000034618B1234683F3118890E783F31188F6
:103AC000202383F31188E968AB68B1EB030CDCF1C8
:103AD00000014FF00A0051EB0C01FEF7B9FA002388
:103AE000002840F09C8083F31188052505E09DF8AF
:103AF0000400FEF79DFA013D10D0564C01A9204666
:103B00004FF0FF32FDF7FCFED0F1010138BF00217C
:103B10000B20FEF79DFA0028E9D060E70C204E4903
:103B2000FEF7AEFA00287FF45AAF472120464FF047
:103B3000FF32FDF74DFED0F1010138BF00210D200D
:103B4000FEF786FA00287FF44AAF01A920464FF01D
:103B5000FF32FDF7D5FED0F1010138BF00210E2064
:103B6000FEF776FA00287FF43AAF2168A368B1EB3C
:103B7000030EDEF1000151EB0E010F20FEF768FA93
:103B800000287FF42CAF2168E368CF1A794279418D
:103B90001020FEF75DFA00287FF421AF01A920462E
:103BA0000122FDF7ADFEB0F1FF304142414111204D
:103BB000FEF74EFA00287FF412AF202383F311881A
:103BC00001A92046FDF7ACFE2B46014683F3118880
:103BD000B1F1FF32514251411220FEF739FA00286B
:103BE0007FF4FDAE202383F31188616A4B1F594295
:103BF00059411320FEF72CFA002380B983F3118872
:103C0000202383F31188B169124CD1F1010138BF2F
:103C100000211420FEF71CFA054618B1002383F397
:103C20001188DCE6034683F31188202383F311888F
:103C3000E168A368B1EB030CDCF100014FF0150063
:103C400051EB0C01FEF704FA034638B12B4683F31F
:103C50001188C4E634080020CC80000883F3118862
:103C6000202383F3118841212046FDF7C1FDD0F1C7
:103C7000010138BF00211620FEF7EAF900287FF481
:103C8000AEAE42212046FDF7B3FDD0F1010138BFB1
:103C900000211720FEF7DCF900287FF4A0AE4321B5
:103CA0002046FDF7A5FDD0F1010138BF0021182005
:103CB000FEF7CEF900287FF492AE44212046FDF7AE
:103CC00097FDD0F1010138BF00211920FEF7C0F99E
:103CD000054600287FF483AE20464521FDF788FD88
:103CE0002B46014683F31188D1F1010138BF002131
:103CF0001A20FEF7ADF900287FF471AEE168A368E1
:103D0000B1EB030EDEF1000151EB0E011B20FEF7BB
:103D10009FF900287FF463AE0525202383F31188E3
:103D20009F4C01A92046FDF7FBFD0023014683F3CC
:103D30001188CF1A794279411C20FEF789F90028B1
:103D40007FF44DAE9DF80400FEF772F9013DE4D119
:103D50001D209449FEF794F900287FF440AE2023FB
:103D600083F31188616A4E1F71424FF01E0071414A
:103D7000FEF76EF92B4600287FF451AF83F31188CC
:103D8000202383F31188A169D1F101014FF01F00B5
:103D900038BF0021FEF75CF92B4600287FF43FAFC7
:103DA00083F31188E168A368CD1A69426941202034
:103DB000FEF74EF900287FF412AE202383F311881A
:103DC00045212046FDF764FDD0F1010138BF0021F7
:103DD0002120FEF73DF900287FF401AE4421204662
:103DE000FDF756FDD0F1010138BF00212220FEF77A
:103DF0002FF900287FF4F3AD43212046FDF748FD5D
:103E0000D0F1010138BF00212320FEF721F900285D
:103E10007FF4E5AD42212046FDF73AFDD0F10101E6
:103E200038BF00212420FEF713F900287FF4D7AD16
:103E30005B4C41212046FDF72BFD0023014683F317
:103E40001188CA1A514251412520FEF701F9002874
:103E50007FF4C5ADE168A368CB1A594259412620C9
:103E6000FEF7F6F800287FF4BAAD0524202383F38B
:103E700011884B4D01A92846FDF752FD002301464C
:103E800083F31188B1EB030CDCF1000151EB0C0161
:103E90002720FEF7DDF800287FF4A1AD9DF804008F
:103EA000FEF7C6F8013CE1D128203E49FEF7E8F8CC
:103EB00000287FF494AD202383F31188696AB1F15F
:103EC000050EDEF100014FF0290051EB0E01FEF767
:103ED000BFF8234600287FF4A2AE83F31188202385
:103EE00083F31188A969D1F101014FF02A0038BF8D
:103EF0000021FEF7ADF8234600287FF490AE83F34F
:103F00001188E968AB68CF1A794279412B20FEF716
:103F10009FF800287FF463AD2846FDF719FC2023A5
:103F200083F31188696A4E1F71424FF02C00714172
:103F3000FEF78EF8234600287FF471AE83F31188D4
:103F4000202383F31188A969D1F101014FF02D00DD
:103F500038BF0021FEF77CF8234600287FF45FAECF
:103F600083F31188202383F311882968AB68CA1A68
:103F700051424FF02E005141FEF76AF823460028C7
:103F80007FF44DAE83F31188202383F311882968D1
:103F9000EB68CB1A594259412F20FEF759F83DE6FC
:103FA00034080020CC800008AFF30080AFF300801D
:103FB000024803490522FDF7B3BB00BF34080020C7
:103FC000680A0020AFF30080AFF30080AFF30080F9
:103FD00010B51D4C88B02046694601222460FDF7CB
:103FE000B7F9204604A90222FDF7B2F92168091B9E
:103FF00018BF01210120FEF72BF808B108B010BD51
:1040000069462046FDF7BCF92168091B18BF01214C
:104010000220FEF71DF80028F0D104A92046FDF784
:10402000AFF921680B1B594259410320FEF710F8E4
:104030000028E3D105480721FDF722FA04490420AE
:10404000FEF71EF8DAE700BF5C080020B084000825
:1040500050820008AFF30080AFF30080AFF3008020
:104060004320FDF7E5BF00BFAFF30080AFF3008052
:104070004220FDF7DDBF00BFAFF30080AFF300804B
:104080004120FDF7D5BF00BFAFF30080AFF3008044
:104090004FF0FF30FDF78CB9AFF30080AFF3008035
:1040A0004FF0FF30FDF784B9AFF30080AFF300802D
:1040B0004FF0FF30FDF77CB9AFF30080AFF3008025
:1040C0002DE9F04205208CB0FDF782F94FF0FF306A
:1040D000FDF7EEF9B0F10109D9F1000151EB090149
:1040E0000120FDF7B5FF10B10CB0BDE8F0824FF034
:1040F000FF30FDF7DDF9B0F1040CDCF1000151EB0C
:104100000C010220FDF7A4FF0028EDD14FF0FF3095
:10411000FDF74EF9D0F1010138BF00210320FDF772
:1041200097FF0028E0D1734D734F744EFEF748F8A7
:10413000AB6973499A6809680093013A039108468C
:10414000704BFC684FF4A871FCF752FC30604FF0E4
:10415000FF30FDF7ADF904F13201814604F1370279
:104160000420FDF7B5FF0028BED1B9F1010EDEF144
:10417000000151EB0E010520FDF76AFF0028B3D1C5
:104180004FF0FF30FDF714F9D0F1010138BF0021E5
:104190000620FDF75DFF0028A6D1FDF7C9FF052029
:1041A000FDF716F94FF0FF30FDF7A2F9441F614209
:1041B00061410720FDF74CFF002895D14FF0FF30FB
:1041C000FDF7F6F8D0F1010138BF00210820FDF716
:1041D0003FFF002888D1FDF7F3FFA969494B8A68A2
:1041E00003980091013A4FF4A871FC68FCF700FCB9
:1041F00030604FF0FF30FDF77BF904F1320181466A
:1042000004F137020920FDF763FF00287FF46CAF4B
:10421000B9F10100414241410A20FDF719FF002890
:104220007FF462AF4FF0FF30FDF7C2F8D0F101012B
:1042300038BF00210B20FDF70BFF00287FF454AF9F
:10424000DFF8D090304CFDF773FF484604A90122F7
:10425000C9F800902460FDF77BF808A904222046E5
:10426000FDF776F8FDF7ACFFAB6928499A6803982B
:104270000091013A4FF4A871254BFD68FCF7B8FB9B
:1042800030600520FDF754F905F1320105F13702E0
:104290000C20FDF71DFF00287FF426AF4FF0FF3004
:1042A000FDF786F8D0F1010138BF00210D20FDF7A0
:1042B000CFFE00287FF418AFFDF73AFF484604A967
:1042C000FDF75EF8204608A9FDF75AF8D9F8001066
:1042D000B1EB0902514251410E20FDF7B9FE002811
:1042E0007FF402AF21680B1B594259410F20FDF7A3
:1042F000AFFEF9E6200A0020100A00201C11002061
:10430000F07D00085143000860080020C8800008C4
:10431000214300085C080020AFF30080AFF3008069
:1043200008B500210548FDF79BF83220FCF7E0FBBB
:1043300003480021FDF794F8002008BD5C08002028
:1043400060080020AFF30080AFF30080AFF300807F
:1043500010B504463220FCF7CBFB20460121FDF7C7
:104360006FF8002010BD00BFAFF30080AFF30080F6
:1043700008B500214FF0FF30FDF7FAF8D0F1010148
:1043800038BF00210120FDF763FE00B108BD0146E2
:104390004FF0FF30FDF71CF9D0F1010138BF0021CB
:1043A0000220FDF755FE0028F0D101464FF0FF3006
:1043B000FDF73EF9D0F1010138BF00210320FDF7E0
:1043C00047FE0028E2D10A214FF0FF30FDF7D0F878
:1043D000D0F1010138BF00210420FDF739FE00288B
:1043E000D4D10A214FF0FF30FDF7F2F8D0F10101EE
:1043F00038BF00210520FDF72BFE0028C6D10A2179
:104400004FF0FF30FDF714F9D0F1010138BF002162
:104410000620BDE80840FDF71BBE00BFAFF30080DB
:1044200070B582B0FDF764FC01A90020FDF720FD06
:1044300010210020FDF78CFC011C044618BF01214F
:104440000120FDF705FE054608B102B070BD20460B
:10445000FDF7BEFC6FF0FF012846FDF779FCD0F1B7
:10446000010138BF00210220FDF7F2FD0028ECD148
:1044700001A97B48FDF7FCFC10217948FDF768FC99
:10448000102105467648FDF763FC10210446744868
:10449000FDF75EFC06462846FDF79AFC2046FDF730
:1044A00097FC3046FDF794FC69466D48FDF7E0FC4B
:1044B000421E514251410320FDF7CAFD0028C4D1DC
:1044C00010216748FDF744FC102104466448FDF7BD
:1044D0003FFC102105466248FDF73AFCFDF778FCE9
:1044E0002846FDF775FC2046FDF772FC69465C48DE
:1044F000FDF7BEFC431E594259410420FDF7A8FDBB
:104500000028A2D111215648FDF722FC10210446B3
:104510005348FDF71DFC05462046FDF759FC69464A
:104520004F48FDF7A5FCB0F1020CDCF1000151EBA6
:104530000C010520FDF78CFD002886D1102148488C
:10454000FDF706FC694604464548FDF791FC012845
:1045500000F0838069464248FDF78AFCB0F1020E04
:10456000DEF1000151EB0E010620FDF771FD002880
:104570007FF46BAF2846FDF72BFC2046FDF728FCA7
:1045800069463748FDF774FC461E714271410720A9
:10459000FDF75EFD00287FF458AF10213048FDF78D
:1045A000D7FB102105462E48FDF7D2FB04462846CE
:1045B000FDF70EFC69462A48FDF75AFC851E694244
:1045C00069410820FDF744FD00287FF43EAF20211B
:1045D0002348FDF7BDFBFDF7FBFB2046FDF7F8FB8D
:1045E00069461F48FDF744FC01384142414109201A
:1045F000FDF72EFD00287FF428AF69461848FDF727
:1046000037FC00991648FDF7A3FB69460446144899
:10461000FDF72EFCD0F1010138BF00210A20FDF783
:1046200017FD00287FF411AF2046FDF7D1FB694646
:104630000B48FDF71DFC421E514251410B20FDF776
:1046400007FD00287FF401AF9DE80A00CB1A59420C
:1046500059410C20FDF7FCFCF7E6014684E700BF5A
:1046600048110020AFF30080AFF30080AFF300806B
:10467000024803494FF4D262FDF75ABB48110020AB
:10468000680A0020AFF30080AFF30080AFF3008032
:1046900000207047AFF30080AFF30080AFF30080DD
:1046A00002484FF4A8710022FDF702BC6408002004
:1046B00038B52C4B2C481D6805222946FDF700FC17
:1046C00005242948FDF70CFC011C18BF012101201D
:1046D000FDF7BEFCA0BB013CF3D12348FDF700FC75
:1046E000D0F1010138BF00210220FDF7B1FC38BB39
:1046F0001C4C1D48294604F11005FDF709FCAC428D
:1047000006D054F8041F1848FDF702FCAC42F8D15B
:1047100005241548FDF7E4FB011C18BF0121032007
:10472000FDF796FC60B9013CF3D10F48FDF7D8FBCB
:10473000D0F1010138BF00210420FDF789FC00B150
:1047400038BD10210848094AFDF7B2FB0648FDF7BD
:10475000C7FBD0F1010138BF00210520BDE838407A
:10476000FDF776BCF07D0008640800209146000843
:1047700070B5334B33489B69334C9D6884B003A9B3
:10478000FDF776FB314B00936A1E314B2D484FF4F9
:10479000A871FCF76DFA2F4B2060AA1E00934FF40E
:1047A000A8712B4B2748FCF763FA02A960602548E3
:1047B000FDF75EFB02992348FDF7CAFA264B0093EA
:1047C0004FF4A8710646EA1E214B1E48FCF750FA2A
:1047D000A0603046FDF7FCFA216821B1616811B193
:1047E000A16819B300210120FDF732FC08B104B023
:1047F00070BDFDF79DFC02201849FDF741FC002823
:10480000F5D102A90F48FDF733FB421E5142514139
:104810000320FDF71DFC0028E9D10299039BCB1A68
:10482000594259410420FDF713FCE0E7E368002BEF
:10483000D9D12169D1F1010138BF0021D3E700BFEF
:10484000200A0020781100201C110020C8800008D8
:1048500061480008C4800008C080000890850008F6
:1048600008B50078FDF7E4FB002008BDAFF3008039
:10487000024803494FF4D262FDF75ABA781100207A
:10488000680A0020AFF30080AFF30080AFF3008030
:10489000024803494FF4D262FDF74ABA781100206A
:1048A000680A0020AFF30080AFF30080AFF3008010
:1048B000324B9B6970B5324C9D6804F1100654F878
:1048C000041F3048FDF724FBB442F8D12E4A2F4B89
:1048D0002C482F4C691EFCF7EBF9A91E20602A4AD0
:1048E0002C4B2848FCF7E4F9E91E6060264A2A4B65
:1048F0002448FCF7DDF9291FA060234A274B2148F3
:10490000FCF7D6F9691FE0601F4A1E48244BFCF7EC
:10491000CFF92168206149B1616839B1A16829B135
:10492000E16819B1D0F1010138BF00210120FDF784
:104930008FFB00B170BDFDF7FBFB02201949FDF7AD
:104940009FFB0028F6D104240E48FDF7C9FA011C8C
:1049500018BF01210320FDF77BFB0028EAD1013CB1
:10496000F2D10848FDF7BCFAD0F1010138BF0021AF
:104970000420BDE87040FDF76BBB00BF200A00209B
:10498000EC7D00086811002061480008C88000081C
:104990001C110020C4800008C0800008CC900008D2
:1049A000D080000894850008AFF30080AFF300804A
:1049B00002484FF4A8710022FDF77ABA681100206E
:1049C00038B50546FCF79CF9002403461846AB426F
:1049D00008BF44F00104FCF7A3F903460028F5D111
:1049E000204638BDAFF30080AFF30080AFF3008006
:1049F00010B5494B49499B6949489A68494B82B06F
:104A0000013A00914FF4A871FCF732F904460120F5
:104A1000A17FB1EB000CDCF1000151EB0C01FDF7C3
:104A200017FB08B102B010BD2046FCF7E9F8A17FE2
:104A30000220B1EB000EDEF1000151EB0E01FDF79B
:104A400007FB0028EED12046FCF7EAF8A17F4A1EBA
:104A5000514251410320FDF7FBFA0028E2D12046E4
:104A6000FFF7AEFF01460420FDF7F2FA0028D9D186
:104A70002046FFF7A5FF01460520FDF7E9FA0028CB
:104A8000D0D12046FCF7CCF8A17FD1F1010138BF8D
:104A900000210620FDF7DCFA0028C3D1217FD1F1E7
:104AA000010138BF00210720FDF7D2FA0028B9D153
:104AB0002046FFF785FF01460820FDF7C9FA0028C8
:104AC000B0D12046FFF77CFF01460920FDF7C0FA70
:104AD0000028A7D13220FCF70BF8217FB1F10E039B
:104AE000594259410A20FDF7B3FA00289AD12046CD
:104AF000FFF766FF01460B20FDF7AAFA002891D1C7
:104B00002046FFF75DFF80F00101C9B20C2002B022
:104B1000BDE81040FDF79CBA200A0020C8800008BC
:104B20007811002061480008AFF30080AFF30080E7
:104B3000704700BFAFF30080AFF30080AFF3008099
:104B400008B5C8210248FCF773FF002008BD00BF6C
:104B500094080020AFF30080AFF30080AFF3008033
:104B600000B5064B06481968064B83B00022009238
:104B70000422FCF70DFF03B05DF804FBF07D000894
:104B800094080020314B0008AFF30080AFF30080A1
:104B900008B50021C8220248FCF7DAFF002008BD52
:104BA00070080020AFF30080AFF30080AFF3008007
:104BB00000B5064B06481968064B83B000220092E8
:104BC0000422FCF79DFF03B05DF804FBF07D0008B4
:104BD00070080020314B0008AFF30080AFF3008075
:104BE000F0B5202383B083F311889A4B9968D1F1F3
:104BF00001014FF0010038BF0021FDF729FA0646F8
:104C0000F8B9034683F31188202383F311884124E4
:104C1000904D214601342846E4B2FCF7E1FE452CD4
:104C2000F6D1002383F31188202383F311886A6966
:104C3000AB699A423FD031460220FDF709FA04469B
:104C400020B1002383F3118803B0F0BD034683F342
:104C50001188202383F311887E482146FCF7C0FE8B
:104C6000043014BF002101210320FDF7F1F900BB3E
:104C7000034683F311880424764D4FF0FF31284614
:104C8000FCF7D6FEC0B2FDF7D3F9013CF4D12023E6
:104C900083F31188A968D1F101014FF0040038BFF6
:104CA0000021FDF7D5F9234650B183F3118803B0F5
:104CB000F0BD2346F9E7AE68003618BF0126BAE713
:104CC00083F3118805206449FDF7DAF90028BBD188
:104CD000202383F3118841245E4D21460134284668
:104CE000E4B2FCF77DFE452CF6D1002383F3118856
:104CF0005A4E082271682846FCF7C2FE041F614222
:104D000061410620FDF7A4F9044600289CD1202328
:104D100083F31188A968D1F1010138BF0021072070
:104D2000FDF796F90028C4D1034683F311882023A8
:104D300083F311884124474D214601342846E4B2CB
:104D4000FCF74EFE452CF6D1002383F311887468DE
:104D5000424F214628460222FCF792FE0238414289
:104D600041410820FDF774F900287FF46DAF034638
:104D7000214602222846FCF783FE821E5142514101
:104D80000920FDF765F9064600287FF45DAF202372
:104D900083F31188A968D1F101014FF00A0038BFEF
:104DA0000021FDF755F9044618B1334683F3118805
:104DB0004AE7034683F31188202383F311882146B1
:104DC0002846FCF70DFE2846FCF7F2FD234683F348
:104DD0001188202383F31188A968D1F101014FF0D4
:104DE0000B0038BF0021FDF733F9064600287FF499
:104DF00060AF034683F31188194B38689A69194BE1
:104E00009268009601324FF4A871FBF7F1FD164A43
:104E10002023106083F31188A968D1F101014FF0BC
:104E20000C0038BF0021FDF713F903460028BCD160
:104E300083F31188FDF77CF928460A21FCF7F8FD79
:104E4000B0F1FF33594259410D2003B0BDE8F040A5
:104E5000FDF7FEB89408002094850008F07D000856
:104E6000200A0020414B00081C110020AFF30080F5
:104E70002DE9F041202382B083F31188924B5969C8
:104E80009A69914264D000210120FDF7E1F80028E1
:104E90003BD1034683F3118841248B4D21460134D5
:104EA00028464FF0FF32E4B2FCF752FE452CF4D115
:104EB000202383F31188A968D1F101014FF002008A
:104EC00038BF0021FDF7C4F80646F0B9034683F366
:104ED00011880424202383F311887B4D2846FCF796
:104EE00067FE002383F31188C0B2FDF7A1F8013CEF
:104EF000F0D1202383F311886A69AB699A422CD0E0
:104F000031460320FDF7A4F828B1002383F311886C
:104F100002B0BDE8F081034683F3118804206B4999
:104F2000FDF7AEF804460028F2D1202383F3118860
:104F3000654D2846FCF73CFE033014BF00210121DB
:104F40000520FDF785F868B1234683F31188DFE774
:104F50009968003118BF012196E7AE68003618BF86
:104F60000126CDE7034683F31188594E7468082261
:104F700021462846FCF744FEB0F1040CDCF10001A8
:104F800051EB0C010620FDF763F807460028BFD15E
:104F9000202383F31188A968D1F101014FF00700A4
:104FA00038BF0021FDF754F8804618B13B4683F323
:104FB0001188ADE7034683F31188464B30689A6940
:104FC000454B9268CDF8008001324FF4A871FBF791
:104FD0000FFD424A2023106083F311882969EA6893
:104FE000AB688A1AD11AB1F1040EDEF1000151EB5F
:104FF0000E010820FDF72CF8064618B1434683F34E
:10500000118885E7034683F31188FDF791F8202383
:1050100083F311882846FCF783FD334683F3118818
:10502000202383F311882969EA68AB68891ACF1AAB
:10503000794279410920FDF70BF8034618B1334650
:1050400083F3118864E783F31188022221462846FE
:10505000FCF7D6FD0238414241410A20FCF7F8FF37
:10506000034600287FF454AF214602222846FCF76D
:10507000C7FD821E514251410B20FCF7E9FF002879
:105080007FF446AF202383F31188A968D1F1010191
:105090004FF00C0038BF0021FCF7DAFF002310B1FD
:1050A00083F3118834E783F311880A2219460648EE
:1050B000FCF74EFDB0F1FF33594259410D2002B0CB
:1050C000BDE8F041FCF7C4BF7008002094850008DB
:1050D000F07D0008200A0020914B00081C110020E0
:1050E000704700BFAFF30080AFF30080AFF30080E4
:1050F000704700BFAFF30080AFF30080AFF30080D4
:1051000010B52F482F4CFCF76BFF4FF4EA70FCF7FB
:105110002FFF2046FCF774FF2B48FCF761FF482067
:10512000FCF726FF2046FCF76BFF2848FCF758FFEA
:105130001420FCF71DFF2046FCF762FF2448FCF713
:105140004FFF0C20FCF714FF2046FCF759FF2148C5
:10515000FCF746FF0420FCF70BFF2046FCF750FF4E
:105160001D48FCF73DFF1020FCF702FF2046FCF72E
:1051700047FF1A48FCF734FF1020FCF7F9FE2046E1
:10518000FCF73EFF1648FCF72BFF0820FCF7F0FE6B
:105190002046FCF735FF1348FCF722FF2420FCF7DC
:1051A000E7FE2046FCF72CFF0F48FCF719FF2820EC
:1051B000FCF7DEFE2046BDE81040FCF721BF00BF33
:1051C0003087000840870008488700085887000893
:1051D0006887000878870008888700089887000893
:1051E000A8870008B8870008C8870008AFF30080C8
:1051F00010B5FCF765FA446B2146FCF781FA002CE8
:10520000F7D1204610BD00BFAFF30080AFF30080A0
:105210002DE9F041144B154A9B69D2F800809E6835
:10522000134F82B0FCF7CCFF4FF47A70FCF7D8FF35
:105230000024013625460F4B009540464FF4A871D7
:105240003246FBF7D5FB3B780134002BF3D00A48FC
:10525000FCF7C6FE2046FCF78BFE084802B0BDE80E
:10526000F041FCF7CDBE00BF200A0020F07D000811
:10527000FD100020E1500008D8870008E8870008EA
:1052800070B50546FCF79CFF4FF47A70FCF7A8FF59
:10529000074E002428460121FCF7F2F93378013447
:1052A000002BF7D028460021FCF7EAF9204670BD14
:1052B000FD100020AFF30080AFF30080AFF300805B
:1052C00010B5134B134A9B6910689A68124B82B051
:1052D0000021013A00914FF4A871FBF789FB0F4BB5
:1052E0001860FFF7CDFF0446FCF722FF0C48FCF7DF
:1052F00077FE2046FCF73CFE0A48FCF771FE600092
:10530000FCF736FE084802B0BDE81040FCF778BE56
:10531000200A0020F07D0008F15100081C11002037
:10532000D8870008F487000800880008AFF30080E1
:1053300010B5134B134A9B6910689A68124B82B0E0
:105340000021013200914FF4A871FBF751FB0F4B84
:105350001860FFF795FF0446FCF7EAFE0C48FCF7DF
:105360003FFE2046FCF704FE0A48FCF739FE6000C9
:10537000FCF7FEFD084802B0BDE81040FCF740BE57
:10538000200A0020F07D0008F15100081C110020C7
:10539000D8870008F487000800880008AFF3008071
:1053A0002DE9F0412C4F2D4EBB6930689A682C4B8B
:1053B0002C4CDFF8C08082B00025013200954FF4FC
:1053C000A871FBF715FBBA69736892682060023A0E
:1053D000009518464FF4A8714346FBF709FBBA69DC
:1053E000B36892686060033A009518464FF4A8715C
:1053F0004346FBF7FDFABA69F3689268A060043A85
:10540000009518464FF4A8714346FBF7F1FABA69C4
:1054100033699268E060053A4FF4A8711846009528
:105420004346FBF7E5FA20612068FFF729FF0446B1
:10543000FCF77EFE0C48FCF7D3FD2046FCF798FDF8
:105440000A48FCF7CDFD6000FCF792FD084802B069
:10545000BDE8F041FCF7D4BD200A0020F07D000833
:10546000F15100081C110020D8870008F4870008BB
:1054700000880008E1500008AFF30080AFF300801F
:10548000084A10B52023946983F311880220FBF7A2
:105490007FF9636A002BF9D0002383F31188184643
:1054A00010BD00BF200A0020AFF30080AFF30080E2
:1054B00070B5254B254A9B6910689A68244B254E88
:1054C00082B0002501324FF4A8710095FBF790FAE5
:1054D000214B04461860FCF773FE4FF47A70FCF71A
:1054E0007FFE202383F3118800212046FBF790F9EB
:1054F00020460021FBF78CF920460021FBF788F9B4
:1055000020460021FBF784F9002383F311883378C8
:105510000435002BE5D0202383F311884FF0FF31B1
:105520002046FBF775F9002383F31188FCF700FE92
:105530000A48FCF755FD6800FCF71AFD084802B060
:10554000BDE87040FCF75CBD200A0020F07D00083B
:1055500081540008FD1000201C110020D88700088D
:1055600000880008AFF30080AFF30080AFF3008045
:105570002DE9F041154B164A9B69D2F800809E68D0
:10558000144F82B0FCF71CFE4FF47A70FCF728FE33
:105590000024013E2546104B00954FF4A871324679
:1055A0004046FBF725FAFBF70BFB3B780134002B59
:1055B000F1D00A48FCF714FD2046FCF7D9FC084856
:1055C00002B0BDE8F041FCF71BBD00BF200A00207F
:1055D000F07D0008FD100020E1500008D887000889
:1055E000E8870008AFF30080AFF30080AFF30080DE
:1055F0002DE9F041DFF80081374FD8F818303868CE
:105600009A68364B364E374D82B0002405324FF43F
:10561000A8710094FBF7ECF9D8F818207B68926821
:105620003060043218464FF4A8712C4B0094FBF7FD
:10563000DFF9D8F81820BB6892687060033218460A
:105640004FF4A871254B0094FBF7D2F9D8F8182035
:10565000FB689268B060023218464FF4A8711F4B85
:105660000094FBF7C5F9D8F818203B699268F06000
:10567000013218464FF4A871184B0094FBF7B8F9A3
:105680003061FCF79DFD4FF47A70FCF7A9FD1648D8
:105690000021FBF77DFB2B780134002BF7D0FCF7C2
:1056A00037FD00211048FBF773FBFCF741FD0F4865
:1056B000FCF796FC2046FCF75BFC0D48FCF790FCE1
:1056C00004EB44004000FCF753FC0A4802B0BDE87C
:1056D000F041FCF795BC00BFF07D000801570008C1
:1056E0001C110020FD100020F4110020D8870008B4
:1056F0000C88000800880008200A0020AFF3008012
:1057000010B5074CA3695B7F5A0706D40548FBF721
:105710006FFBA3695B7F5B07F8D5002010BD00BF5E
:10572000200A0020F4110020AFF30080AFF30080C6
:1057300001480021FBF70CBBF4110020AFF30080FF
:1057400001480121FBF704BBF4110020AFF30080F6
:105750002DE9F04184B004ACDFF8CC802D4F2E4E03
:105760002E4D002344F8043DFCF72AFDD8F81830EC
:1057700038689A6800943346013A4FF4A871FBF7F1
:1057800037F9D8F818207B6892682860013A0094AD
:1057900018464FF4A8713346FBF72AF9D8F81820B9
:1057A000BB6892686860013A009418464FF4A8718B
:1057B0003346FBF71DF9D8F81820FB689268A860FB
:1057C000013A009418464FF4A8713346FBF710F9DC
:1057D000D8F818203B699268E860013A4FF4A87144
:1057E000009418463346FBF703F928614FF47A70AA
:1057F000FBF77EF9FCF78CFCFCF79AFC0848FCF7F9
:10580000EFFB0398FCF7B4FB0648FCF7F9FB04B088
:10581000BDE8F081F07D0008315800081C1100201F
:10582000D887000800880008200A0020AFF3008015
:1058300038B5094D0446FBF783F9FBF781F9FBF70F
:105840007FF9FBF77DF92368AA6904332360537F4E
:105850005B07F0D5002038BD200A0020AFF30080A0
:1058600030B583B0002423462348244900941022F5
:10587000FCF78EF8FCF7A4FC4FF47A70204DFCF78F
:10588000AFFC202383F3118800211B48FCF7A8F804
:1058900001211948FCF7A4F802211748FCF7A0F8E9
:1058A00003211548FCF79CF8002383F311884FF07F
:1058B000FF311148FCF7BCF84FF0FF310E48FCF700
:1058C000B7F84FF0FF310C48FCF7B2F80A484FF038
:1058D000FF31FCF7ADF82B780134002BD1D009480B
:1058E000FCF77EFBA000FCF743FB074803B0BDE8D4
:1058F0003040FCF785BB00BFD0110020981100207C
:10590000FD100020D887000820880008AFF3008031
:1059100038B5FCF755FC4FF47A70FCF761FC154D77
:105920000024202383F311881348144A0121002303
:10593000FAF796FE114A124842F210710023FAF764
:105940008FFE0D48FAF7ACFE0D48FAF7A9FE0023CA
:1059500083F311882B780134002BE2D00948FCF73F
:105960003FFB6000FCF704FB0748BDE83840FCF74C
:1059700047BB00BFFD100020BC110020F150000803
:10598000A8110020D88700082C880008AFF30080F9
:1059900038B5FCF715FC4FF47A70FCF721FC144D78
:1059A00000241448FBF724FA1248FBF761FA114867
:1059B000FBF71EFA0F48FBF75BFA0E48FBF718FAE5
:1059C0000C48FBF755FA0B48FBF712FA0948FBF7AE
:1059D0004FFA2B780134002BE3D00748FCF700FB8B
:1059E000A000FCF7C5FA0548BDE83840FCF708BB45
:1059F000FD100020F4110020D88700083888000826
:105A000038B5FCF7DDFB4FF47A70FCF7E9FB124D7B
:105A100000241248FBF71CFBFBF742FB0F48FBF787
:105A200017FBFBF73DFB0D48FBF712FBFBF738FBC1
:105A30000A48FBF70DFBFBF733FB2B780134002BF7
:105A4000E7D00748FCF7CCFAA000FCF791FA05482C
:105A5000BDE83840FCF7D4BAFD1000200012002049
:105A6000D887000848880008AFF30080AFF30080B3
:105A70000148FBF77DBA00BF00120020AFF30080A1
:105A800008B500F0FDFC054800F0B2FD00F0E8F9B3
:105A900000F0CEF8BDE8084001F07ABC108B000899
:105AA0000C494A68104482424B680CD29A4203D98E
:105AB0000023002BF7D17047984294BF00230123A5
:105AC000002BF0D1F7E79A42F6D80123002BEAD158
:105AD000F1E700BF001000E0AFF30080AFF30080FB
