:020000040800F2
:100000000004002021040008210500083105000833
:100010002105000821050008210500082105000828
:1000200021050008210500082105000851050008E8
:100030002105000821050008210500082106000807
:1000400021050008210500082105000821050008F8
:1000500021050008210500082105000821050008E8
:1000600021050008210500082105000821050008D8
:1000700021050008210500082105000821050008C8
:1000800021050008210500082105000821050008B8
:1000900021050008210500082105000821050008A8
:1000A0002105000821050008210500082105000898
:1000B0002105000821050008210500082105000888
:1000C0002105000821050008210500082105000878
:1000D0002105000821050008210500082105000868
:1000E0002105000821050008210500082105000858
:1000F0002105000821050008210500082105000848
:100100002105000821050008210500082105000837
:100110002105000821050008210500082105000827
:100120002105000821050008210500082105000817
:100130002105000821050008210500082105000807
:1001400021050008210500082105000821050008F7
:1001500021050008210500082105000821050008E7
:1001600021050008210500082105000821050008D7
:10017000210500085172000821050008210500082A
:1001800021050008210500082105000821050008B7
:1001900021050008210500082105000821050008A7
:0C01A000210500082105000821050008C9
:1001B00070B52E4D2E4C2F4E82B005F0B1FC00F0E4
:1001C0009FFA07F005FA284605F082FD21462846E9
:1001D00005F0A6FD23689A6E936B23F400239363C6
:1001E0004FF47A7000F034FD2068234905F098FE42
:1001F0002268224B916E22488A6B002442F400222E
:100200008A634A224FF4A871009400F0A9FC00947C
:100210001C4B1D484A224FF4A87100F0A1FC44B1C8
:10022000237F0E2B1DD04FF4FA7000F011FD002C2F
:10023000F6D1D5F854321B681B78042B09D04FF443
:10024000FA7000F005FDD5F854321B681B78042BBA
:10025000F5D140224FF40D61304607F0D1F9044644
:10026000E1E7204600F08CFDE9E700BF3C140020E8
:10027000C08F000860920008D08F0008A17C0008A1
:1002800098160020717C0008E8170020000000008C
:1002900068309FE504E02DE500E093E50130D0E40F
:1002A00003208EE00120D2E5032002E2010052E3A8
:1002B0000120D1E402C08EE001C0DCE503C00CE205
:1002C0002030830201005CE30600000A023053E0A4
:1002D0000100001A000052E3EFFFFF1A0300A0E143
:1002E00004E09DE41EFF2FE1202082E2023053E073
:1002F000E9FFFF0A0300A0E104E09DE41EFF2FE1F7
:1003000000080020000000000000000000000000C5
:1003100000C0D0E500005CE31900000A04E02DE510
:1003200000E0D1E500005EE31000000A0C005EE191
:100330000C00000A0120A0E1010000EA0C0053E1DA
:100340000800000A0130F2E5000053E3FAFFFF1A4B
:1003500001C0F0E500005CE3F1FFFF1A00C0D2E548
:1003600000005CE30000A00304E09DE41EFF2FE119
:1003700001C0F0E500005CE30120A0E1E8FFFF1A06
:10038000F5FFFFEA0C00A0E11EFF2FE100000000D6
:1003900000C0D0E500005CE31600000A10402DE923
:1003A00000E0A0E10040D1E5000054E30800000AAD
:1003B00004005CE10900000A0120A0E1010000EA5C
:1003C0000C0053E10500000A0130F2E5000053E3A0
:1003D000FAFFFF1A0E0060E01040BDE81EFF2FE19B
:1003E00001C0FEE500005CE3EEFFFF1A0E0060E0D6
:1003F0001040BDE81EFF2FE10C00A0E11EFF2FE121
:10040000704700BF00000000000000000000000076
:10041000FEE700BF00000000000000000000000038
:1004200072B6304880F30988022383F31488BFF33F
:100430006F8F2D4B2D498B420BD2DA430A4422F0A9
:10044000030204321A444FF0553143F8041B93421F
:10045000FBD1274B83420BD2264AD21A22F0030249
:1004600004321A444FF0553143F8041B9342FBD138
:1004700006F0EEFF204B214A93420CD2D8431044A1
:1004800020F0030004301E4A184452F8041B43F8BD
:10049000041B8342F9D11B4B1B498B420AD2DA431E
:1004A0000A4422F0030204321A44002143F8041BD8
:1004B0009A42FBD1154D164CFFF7A2FFAC4204D275
:1004C00054F8043B9847AC42FAD3124D124CFFF754
:1004D0006FFEAC4204D254F8043B9847AC42FAD3C6
:1004E000FFF796FF00080020000000200004002015
:1004F00000040020FF07002000080020DC08002086
:1005000040930008E008002038190020AC010008E2
:10051000AC010008AC010008AC01000800000000BC
:10052000FEE700BF00000000000000000000000027
:10053000024AEFF3098313609D46FEE7E0080020BE
:1005400000F0A6FA00DF00BF00000000000000007D
:10055000EFF30983203383F30988002383F31188A1
:10056000704700BF00000000000000000000000015
:1005700008B5094B094A002199600720DA6010216B
:1005800000F096F820210A2000F092F880210B203C
:10059000BDE8084000F08CB800ED00E00003FA056B
:1005A000202383F31188174B5B6813F4006319D081
:1005B000EFF309834FF0807243F8042CA3F120027B
:1005C00082F3098810498A69D07F70B10868916800
:1005D00082688A4294BF002201227AB10B4A43F812
:1005E000082C704783F31188704708689168826807
:1005F0008A4234BF00220122002AEFD1044A43F884
:10060000082C704700ED00E0200A0020410500089A
:100610004405000800000000000000000000000089
:1006200008B5202383F3118800F09AF8002383F3A0
:100630001188BDE80840FFF7B3BF00BF000000000D
:100640002DE9F04FC1F80CD0D0F80CD0BDE8F08FF8
:10065000002383F311882846A04700F059FB704718
:1006600020F0030202F1604202F5614270B44309D6
:10067000C400D2F8005304F01804FF269B00A640E3
:1006800003F16043A14025EA060503F56143012417
:1006900000F01F0004FA00F02943C2F8001370BCF8
:1006A000C3F88001186070470000000000000000DF
:1006B00020F0030303F1604303F56D4300F00300F2
:1006C00010B4C0009A69FF248440814022EA0400EB
:1006D0000843986110BC7047000000000000000053
:1006E000024B034A9B699A61FEE700BF200A002083
:1006F000307F000800000000000000000000000043
:1007000000B583B0FFF734FF00F0DAF800F058F8D6
:1007100001F056FB01F09CFB40210B4800F0C8F9AA
:100720000A49012288610277002383F3118862B6A7
:100730008969074888610093E021064B064800F06C
:100740000FFA03B05DF804FBC8090020200A00205E
:10075000407F0008E1060008E808002000000000D3
:1007600070B5134B9B69DA7F0AB1013ADA771A6ADE
:10077000104C01321A62E36822680133A242E3603E
:1007800014D09668013E966086B91168D5682160DC
:10079000D66000234C6083F311881069A84720239A
:1007A00083F3118822689368002BEED070BD00BFE0
:1007B000200A0020100A00200000000000000000B5
:1007C000044B4FF0FF3100225B601B609960DA60E0
:1007D000704700BF100A0020000000000000000069
:1007E00070B40C4E3468A5680361A942C26004D994
:1007F0002468491BA5688D42FAD363684360B442FC
:10080000046060601860816002D0A368591AA1601A
:1008100070BC7047100A00200000000000000000BB
:10082000074A0368934203D09A6881680A449A6031
:1008300042681360016800234A60C360704700BFCC
:10084000100A00200000000000000000000000006E
:10085000202383F31188037F0D2B11D8DFE803F0E9
:1008600026101007100B101010101010100B426AF9
:1008700093680133936090E80C001A60026853603B
:1008800010B400234FF0FF3481680A4A44620377B2
:10089000126893688B42FBD251684160026000236A
:1008A0005060086083F3118810BC7047002383F305
:1008B00011887047200A002000000000000000009E
:1008C000034B00225B601B605B611B619A60704799
:1008D000200A0020000000000000000000000000CE
:1008E00000228168074B10B4044602771B689A689F
:1008F0008A42FBD25A686260236020465C601460C2
:1009000010BC7047200A002000000000000000001A
:10091000084B99691A6810B408771420C8771068D2
:100920001860012443601477104610BC9A61FFF7E9
:1009300087BE00BF200A0020000000000000000069
:1009400030B54B1C87B012D00C4C0D4AA36905463C
:1009500001A8FFF745FF2846FFF7DAFF049B13B114
:1009600001A8FFF75DFFA369586A07B030BD034CCB
:10097000FFF7CEFFA369586A07B030BD200A0020F8
:100980005108000800000000000000000000000006
:10099000144BF0B404469D694162A868A168814285
:1009A0004FF000020BD822771B689A689142FBD95E
:1009B0005A68626023605C601460F0BC70472A77FC
:1009C0001A46126891688842FBD956686E60012702
:1009D0002A60556035602777294620469C61F0BC27
:1009E000FFF72EBE200A00200000000000000000DB
:1009F0000E4B1868026830B401219C691A6053607C
:100A0000142501770022A168E577986122770346D3
:100A100000E01B689A688A42FBD25A6862602360D1
:100A200021465C60146030BCFFF70ABE200A00203B
:100A30000D4B1868026810B401219C691A6053605C
:100A400001770022A16822779861034600E01B68C5
:100A50009A688A42FBD85A686260236021465C60CB
:100A6000146010BCFFF7ECBD200A0020000000005D
:100A7000044B1A689B6992689B689A4200D8704739
:100A8000FFF7D6BF200A0020000000000000000091
:100A9000034B9B69DB7F0BB1FFF7CABFFFF7A8BF12
:100AA000200A0020000000000000000000000000FC
:100AB000F0B50F4C016465694561002281600461F5
:100AC00000F12C0160614FF0020E1427012600F1A5
:100AD000280480F81CE0C77786774277C263826378
:100AE00002628261286184620163C162F0BD00BF5D
:100AF000200A0020000000000000000000000000AC
:100B0000F0B5144D144FA1F1240E00EB0E066969E7
:100B1000C66040F80E30059B7360022337624FF0C9
:100B2000140E82600264037700F12C020023012777
:100B300000F128060561416180F81FE0877743775F
:100B40006861C363836303628361086186620263D1
:100B5000C262F0BD200A002051060008000000001B
:100B6000F8B51E460446202383F31188174B243919
:100B700045185F69C5604650069E15496E6029623A
:100B80004FF0020C0025826002644FF0140E00F159
:100B90002C0200F12806012103618177476180F86A
:100BA0001CC0586180F81FE04577C5638563056206
:100BB00085612946386186620263C262FFF7E8FEFA
:100BC0002B4683F311882046F8BD00BF200A002081
:100BD00051060008000000000000000000000000B6
:100BE00010B5202383F31188084B9B691C6C99680E
:100BF0008C4201D0814200D298601864FFF738FF20
:100C0000002383F31188204610BD00BF200A002076
:100C100010B52023044683F311880021FFF7B8FEA6
:100C2000002383F31188204610BD00BF00000000A0
:100C3000202383F31188437F43F004034377002389
:100C400083F31188704700BF00000000000000001F
:100C500008B50146202383F311880620FFF770FEB4
:100C6000002383F3118808BD00000000000000008D
:100C700008B5202383F31188054BD968411A02D0A7
:100C80000620FFF75DFE002383F3118808BD00BF37
:100C9000100A00200000000000000000000000001A
:100CA00008B5202383F31188064B1A689B69926864
:100CB0009B689A4201D3FFF79BFE002383F31188C0
:100CC00008BD00BF200A0020000000000000000056
:100CD00038B50E4B9C692546606255F8280FA8422E
:100CE00006D00368A362FFF7FBFDA06AA842F8D113
:100CF000637F9B0704D1636922691A61226953618A
:100D00000E20BDE83840FFF703BE00BF200A0020D8
:100D1000202383F31188FFF7DBBF00BF0000000032
:100D200038B50446202383F31188037F0E2B07D0A8
:100D3000084B826A9B6907201A60A362FFF7E8FDEF
:100D4000656A002383F31188204600F019F82846CD
:100D500038BD00BF200A0020000000000000000095
:100D6000202383F31188837F01338377002383F368
:100D70001188704700000000000000000000000023
:100D80000146202383F31188827F013AD2B2827711
:100D9000002383F3118812B9037F0E2B00D0704714
:100DA000437F03F00303012B02D0022B07D07047CF
:100DB000436902691A610269536101F0A9B8436984
:100DC00002691A610269406C536101F039B900BFD0
:100DD000F0B583B016461F460D4601F059F8A8B18C
:100DE000202383F31188089B009332463B46294613
:100DF000FFF786FE0123437700210446FFF7C8FD75
:100E0000002383F31188204603B0F0BD0446FAE7BF
:100E10002DE9F04182B00E4617469846054601F08E
:100E2000F7F8B8B1202383F311886968CDF8008002
:100E30003B463246FFF764FE0223437745640021B8
:100E40000446FFF7A5FD002383F31188204602B076
:100E5000BDE8F0810446F9E7000000000000000052
:100E6000202383F31188044B1869837F0133837730
:100E7000002383F311887047200A0020000000003F
:100E800010B5202383F31188074B04699C421DBFD2
:100E9000A37F0133A3770024002383F31188FFF796
:100EA0006FFF204610BD00BF200A00200000000098
:100EB000406000608160704700000000000000009A
:100EC00070B5856881600135002D0CDC04466FF03B
:100ED00001066068436863601C60FFF701FD01352F
:100EE000012D4662F5D170BD000000000000000039
:100EF00008B5202383F31188FFF7E2FFFFF7B8FD61
:100F0000002383F3118808BD0000000000000000EA
:100F1000202383F311888368013B002B836004DB6B
:100F20000020002383F31188704710B5084CA26994
:100F3000506241685160034610605A6003200A60A5
:100F4000FFF7E6FCA369586A002383F3118810BDFC
:100F5000200A002000000000000000000000000047
:100F6000202383F311888268531E002B836004DBE7
:100F70000020002383F31188704710B579B10A4A25
:100F8000926950624468034682E8180003205A6060
:100F90002260FFF7D5FC002383F3118810BD826027
:100FA0004FF0FF30F7E700BF200A002000000000EC
:100FB00003468068421E002A9A6001DB00207047C9
:100FC00010B459B1084A926953625C68032082E800
:100FD00018005A60226010BCFFF7B2BC986010BCC9
:100FE0004FF0FF30704700BF200A002000000000D3
:100FF00008B5202383F3118883680133002B8360B5
:1010000003DD002383F3118808BD034600680268EE
:101010001A6000215360FFF7BBFC002383F31188A3
:1010200008BD00BF0000000000000000000000003C
:1010300083680133002B836000DD704703681A6802
:1010400002600021506018465962FFF749BC00BF9A
:1010500070B50C1E12DD0546002601E0013C0DD0E6
:10106000AB680133002BAB60F8DC286803682B60A9
:101070005D60FFF735FC013C4662F1D170BD00BFF9
:1010800010B5202382B083F3118883680133002BCD
:1010900083601DDD8B68013B002B8B6007DBFFF756
:1010A000E7FC0020002383F3118802B010BD0E4A34
:1010B0004B689469032084E80A004C601C606162FC
:1010C000FFF726FC606A002383F3118802B010BD8D
:1010D000024600680191036813605A60FFF700FC44
:1010E000002343620199D5E7200A00200000000098
:1010F0000023406000608360704700BF0000000074
:10110000304B826870B59C69002A56D0A1689368FC
:101110009942054606D9137F9160042B33D0052BE5
:101120001DD09BB12B4603E09968A268914202D37F
:101130001B689D42F8D15A68626023605C6014604D
:1011400065620420BDE87040FFF7E2BB92E80A0048
:101150001960116810464B60FFF7C2FBE2E792E8A6
:101160000900186010684360566A334602E09868C8
:10117000884202D31B689E42F9D1596851601360BE
:101180005A600A60CEE792E8090018601068436070
:10119000566A334602E09868884203D31B689E4231
:1011A000F9D133465968516013605A600A60B268D9
:1011B000A16893688B42AED3B4E7E36BC3608460ED
:1011C000E06370BD200A0020000000000000000065
:1011D00008B5202383F31188FFF792FF002383F3E0
:1011E000118808BD000000000000000000000000A1
:1011F0000246202383F31188836800201BB100235B
:1012000083F311887047054B9B699360D96BD1605C
:101210000120DA63002383F311887047200A00203D
:10122000174A38B59069202383F31188C46B256869
:10123000E368C363A5421CD0016C4BB11A689A42A3
:1012400003D09268914238BF1146DB68002BF5D17C
:101250002B68EA6B8160236028465C600021A560F2
:10126000E260EC63FFF794FB002383F311882046D0
:1012700038BD0023A360002383F31188204638BDC6
:10128000200A002000000000000000000000000014
:1012900038B5124B9869C46B2568E368C363A542EF
:1012A00018D0016C4BB11A689A4203D092689142EF
:1012B00038BF1146DB68002BF5D12B68EA6B8160E3
:1012C000236028465C60A560E260EC63FFF708FBE2
:1012D000204638BD0023A360204638BD200A0020E8
:1012E000134A70B52023946983F31188E36BB3B17B
:1012F00000261A68D968E1639A42104613D0116833
:10130000D56B19604B609A60DD60D363FFF7E8FA34
:10131000E36B002BEDD1236CA360FFF7A9FB002347
:1013200083F3118870BD9E600B46002BE1D1F2E77C
:10133000200A002000000000000000000000000063
:1013400040600060704700BF000000000000000027
:1013500008B5202383F311880268824207D0116800
:10136000016003464B6010460021FFF711FB00238C
:1013700083F3118808BD00BF0000000000000000DA
:10138000026882420AD0116808B5034601604B60CA
:101390001046FFF7A5FA0023436208BD704700BF5F
:1013A00038B50446202383F311880068A04218BF93
:1013B0006FF0010508D0036823605C60FFF790FAC6
:1013C00045622068A042F6D1FFF752FB002383F369
:1013D000118838BD0000000000000000000000007F
:1013E0000F4B70B59C690546FFF752FF65620646D4
:1013F0002B4603E09968A268914202D31B689D4284
:10140000F8D15A686260236005205C601460FFF7C1
:101410007FFA646A3046FFF773FE204670BD00BF56
:10142000200A002000000000000000000000000072
:1014300008B5202383F31188FFF7D2FF002383F33D
:10144000118808BD0000000000000000000000003E
:10145000F8B505460F46FFF71BFF0F4B9C69064684
:101460002B46656203E09868A268904202D31B682D
:101470009D42F8D15A686260236039465C6005205D
:101480001460FFF75DFA431C044602D03046FFF7B4
:1014900037FE2046F8BD00BF200A002000000000F3
:1014A00008B5202383F31188FFF7D2FF002383F3CD
:1014B000118808BD000000000000000000000000CE
:1014C00030B4202383F31188064C0368A5690B60B0
:1014D0000024016023464D608A60CC6083F311884C
:1014E00030BC7047200A002000000000000000000F
:1014F000202383F31188024602E0994207D01A465E
:1015000013689842F9D1002383F3118870470B6860
:101510001360002383F31188704700BF00000000B0
:10152000202383F31188054B9A69936B23EA00010A
:1015300091631840002383F311887047200A00202C
:10154000202383F31188044B9B699A6B10439863A3
:10155000002383F311887047200A00200000000058
:1015600008B5836B027F1943082A81630AD0092AD0
:1015700000D008BD436A8B43FBD1FFF7B1F90023CC
:10158000436208BD436A1942F7D108BD000000005C
:1015900070B50468A0420AD005460E46201D0BC84F
:1015A0003343E360FFF7DCFF2468A542F6D170BD4A
:1015B00008B5202383F31188FFF7D2FFFFF758FA0D
:1015C000002383F3118808BD000000000000000024
:1015D00008B5202383F31188FFF7DAFFFFF748FAF5
:1015E000002383F3118808BD000000000000000004
:1015F000B9B1F8B507460D460024012606FA04F3F2
:101600002B4204D1013406FA04F32B42FAD02046CF
:1016100025EA030557F8243098470134002DEDD111
:10162000F8BD70470000000000000000000000004E
:1016300038B50D4B9D69202383F31188AB6B13EAFA
:10164000000207D1044668620820FFF761F9AB6B1E
:1016500004EA03025042104023EA0003AB63002374
:1016600083F3118838BD00BF200A0020000000006D
:1016700038B50C4B9D69202383F31188AB6B13EABB
:10168000000406D1044668620820FFF741F9AB6BFD
:101690001C4023EA0403AB63002383F31188204634
:1016A00038BD00BF200A002000000000000000003C
:1016B00038B50B4B04469D69202383F31188AB6B2F
:1016C00030EA030204D068620920FFF721F9AB6B0E
:1016D00023EA0403AB63002383F31188204638BD5B
:1016E000200A0020000000000000000000000000B0
:1016F000114B70B59E69202383F31188B36B13EAF5
:1017000000040FD121B9002383F31188204670BD56
:10171000706205460820FFF713F90028F3DBB36B6E
:1017200005EA03046242144023EA0403B36300237E
:1017300083F31188204670BD200A002000000000BD
:10174000104B70B59E69202383F31188B36B13EAA5
:1017500000050FD121B9002383F31188284670BDFD
:10176000706204460820FFF7EBF80028F3DBB36B48
:1017700004EA030523EA0503B363002383F3118816
:10178000284670BD200A0020000000000000000074
:1017900038B50F4B04469D69202383F31188AB6B4A
:1017A00034EA03000CD021B9002383F311881846D2
:1017B00038BD6C620920FFF7C3F80028F4DBAB6B7F
:1017C00023EA0403AB63002383F31188204638BD6A
:1017D000200A0020000000000000000000000000BF
:1017E00038B50E4B9C69202383F3118800F12C053A
:1017F0006562036B63606163256004631C60037F43
:101800000C2B07D00A20FFF783F8606A002383F3CC
:10181000118838BDFFF764F8F4E700BF200A002004
:1018200010B5202383F311880B4CA269134653F89B
:101830002C0F984208D00168D1620B224B60002324
:10184000027783F3118810BD0C20FFF761F8A269BD
:10185000D06A02F12C03EEE7200A0020000000000D
:1018600008B5202383F31188FFF792F8002383F350
:10187000118808BD0000000000000000000000000A
:1018800010B50B4601EB820141600446C3608360E2
:10189000036011461C30FFF70BFB04F11000002120
:1018A000BDE81040FFF704BB00000000000000008E
:1018B00010B52023044683F3118803684168C36090
:1018C000C91A836089101C30FFF7FAFA04F110007E
:1018D0000021FFF7F5FAFFF7CBF8002383F3118817
:1018E00010BD00BF0000000000000000000000006C
:1018F00070B5202304460E4683F3118811461C3030
:10190000FFF756FB054678B9A2686168131D8B4244
:10191000A36028BF2368166004F1100028BFA360ED
:10192000FFF786FBFFF7A4F8002383F3118828460E
:1019300070BD00BF000000000000000000000000BB
:1019400038B5436A002B12DD84684568221D013BCF
:10195000AA42436228BF03688260216000F1100040
:1019600028BF40F8083CFFF763FB002038BD4FF06C
:10197000FF3038BD00000000000000000000000043
:1019800070B5202304460E4683F3118811461C309F
:10199000FFF70EFB054620B1002383F3118828468C
:1019A00070BDE3682268043B9342E36002D263683F
:1019B000043BE3601E6004F11000FFF739FBFFF702
:1019C00057F8002383F31188284670BD00000000FB
:1019D000426A002A11DDC36810B50468043B013A6D
:1019E000A3424262C36002D24368043BC3601960F1
:1019F0001030FFF71DFB002010BD4FF0FF30704787
:101A000070B5202304460E4683F31188114610302A
:101A1000FFF7CEFA054680B9E368626819680433B7
:101A20009342E36028BF2368316004F11C0028BFA3
:101A3000E360FFF7FDFAFFF71BF8002383F311883B
:101A4000284670BD000000000000000000000000FB
:101A50008269002A14DDC368013A10B582614268C8
:101A60001C6804339342C36028BF03680C6000F114
:101A70001C0028BF40F8103CFFF7DAFA002010BD28
:101A80004FF0FF30704700BF000000000000000072
:101A900069B1084B9B6910B458624468024683E8F8
:101AA00014000D205360236010BCFEF749BF4FF0B7
:101AB000FF307047200A00200000000000000000F6
:101AC00030B4029C046200250A44856002614060D3
:101AD000006041618161C160C36130BC704700BF7B
:101AE00038B504460068E368636100228442A2605E
:101AF000A3610AD06FF00105036823605C60FEF704
:101B0000EFFE45622068A042F6D138BD000000001B
:101B1000836942699A4283681ED010B50133541C10
:101B2000836044611170426903699A420DD2026870
:101B300082420FD01168016003464B601046FEF7E9
:101B4000CFFE00234362184610BD0268C36843619C
:101B50008242EFD1002010BD002BDED06FF00300D9
:101B6000704700BF000000000000000000000000FF
:101B700070B520230E46044683F31188C3692BB148
:101B8000984703E0FFF784FF002811DBA568314682
:101B90002046002DF6D0A2692169531C8B4205F125
:101BA000FF35A361A56028BFE368107828BFA36153
:101BB000002383F3118870BD0000000000000000C6
:101BC0002DE9F0471E46044689469246D0F81C800F
:101BD000202383F311880027B8F1000F05D0204699
:101BE000C04702E0FFF754FFE0B9A5683146204640
:101BF000002DF7D0A369013D5A1CA261A5601B7896
:101C000009F8013B2369A2699A4224BFE368A361F2
:101C1000002383F311880137BA4506D0202383F3CC
:101C20001188D9E72B4683F311883846BDE8F08741
:101C300030B4029C04628D180561406000608260CF
:101C400041618161C160C36130BC70470000000028
:101C500038B5C26803690446006862619B1A844211
:101C6000A261A3600AD06FF00105036823605C6085
:101C7000FEF736FE45622068A042F6D138BD00BFAF
:101C8000F8B504460F461646202383F3118803E077
:101C9000FFF7FEFE002819DBA56831462046002D1F
:101CA000F6D06369013D5A1C6261A5601F7023690B
:101CB00062699A4224BFE3686361E3690BB120461D
:101CC0009847002383F311881846F8BD2B4683F309
:101CD0001188F8BD000000000000000000000000B6
:101CE00038B5826943699342836818D00569511CED
:101CF000013383608161A94214780DD20268824267
:101D000008D01168016003464B601046FEF7E8FDFD
:101D100000234362204638BDC3688361EEE7002B91
:101D2000E4D06FF0020038BD0000000000000000A9
:101D30002DE9F84F9A4604460E461746D0F81C90F7
:101D4000202383F311884FF00008A56806F1010BEA
:101D50006A1E20460DB36369A2605A1C6261327824
:101D60001A70236962699A4224BFE3686361B9F11A
:101D7000000F00D0C847002383F31188013F08F10A
:101D8000010813D0202383F31188A5685E466A1EDC
:101D900006F1010B2046002DDDD151462046FFF70C
:101DA00077FE0028D1D02B4683F311884046BDE84A
:101DB000F88F00BF000000000000000000000000DD
:101DC000054A064B0648074922F0070223F007039D
:101DD00002600B60704700BF3F1900200000032025
:101DE000400A00203C0A0020000000000000000023
:101DF00010B4202383F31188094C0A4B2268196818
:101E0000C31D23F00703891A8B429DBF9B182360D3
:101E100010460020002383F3118810BC704700BFD8
:101E2000400A00203C0A00200000000000000000E2
:101E3000024A034B10681B68C01A70473C0A002016
:101E4000400A002000000000000000000000000028
:101E5000044B054A1A6003F1100000229A60DA6010
:101E6000FFF746B9480A0020F11D000800000000F5
:101E70000023083A81600360C36010304A600B6041
:101E8000FFF736B90000000000000000000000006D
:101E9000F8B51D4E002818BF0646073106F11000A0
:101EA00021F0070506F10804FFF792F903E0436803
:101EB0009D4211D9044620680028F8D1FFF7B0F9F7
:101EC0003368FBB105F108009847D8B1066045605A
:101ED00000F108042046F8BD05F10802934208D23B
:101EE00003682360044644F8086BFFF799F920461D
:101EF000F8BD81185B1B07688750083B4B60216069
:101F00004560EFE70024E5E7480A002000000000F4
:101F100070B50646A0F1080450F8080C00F1080559
:101F20001030FFF755F92B46AB421A6801D0A34297
:101F300002D21AB1944201D31346F5E746F8082CB1
:101F40001C6016E90500B118814209D0596801F1F9
:101F500008021A44944212D0BDE87040FFF760B9FD
:101F6000496802F10800014446F8041CB25846F8DA
:101F7000082C596801F108021A449442ECD156F831
:101F8000042C08321144596056F8082C1A60BDE838
:101F90007040FFF745B900BF0000000000000000DE
:101FA00038B50E4C002818BF044604F110000D4649
:101FB000FFF70EF9A3686BB10022144658681B683E
:101FC00001340244002BF9D105B12A60FFF728F94A
:101FD000204638BD1A461C46F6E700BF480A0020D6
:101FE0000023416082600360704700BF0000000072
:101FF00062B1202383F3118803680B600023016022
:1020000083F311884368013A1944F2D1704700BF45
:1020100008B50246202383F31188006828B10368BD
:102020001360002383F3118808BD9368002BF8D058
:1020300050689847002383F3118808BD0000000012
:10204000202383F3118803680B600023016083F36E
:102050001188704700000000000000000000000030
:10206000014B01221A707047081100200000000087
:1020700070B5084D4C24286803682D219B6898474B
:10208000013CF8D128680449036802221B68BDE8B6
:1020900070401847680A0020508E000800000000B9
:1020A00020B370B584B06D466C46134E00E0144604
:1020B000A6FB0023DB0803EB8301A0EB410000F14A
:1020C00030012246C9B202F8011B1846002BEED19E
:1020D000AA4209D9094E01E014F8011D30680368CD
:1020E0009B689847AC42F7D104B070BD034B1868A9
:1020F000036830219B681847CDCCCCCC680A0020FF
:10210000017859B138B5064D0446286803689B68C4
:10211000984714F8011F0029F7D138BD704700BF58
:10212000680A00200000000000000000000000001D
:1021300070B5017889B10A4D0446286803689B6828
:10214000984714F8011F0029F7D12868054903684A
:1021500002221B68BDE870401847014DF5E700BF3B
:10216000680A0020508E00080000000000000000F7
:10217000202383F31188044B1A68511C19601070D6
:10218000002383F311887047301100200000000005
:1021900051B910B40649074C074A01232370106057
:1021A0000B70184610BC704700231846704700BFDC
:1021B000700A0020710A00206C0A00200000000054
:1021C000F0B40E4E0E4F35683B4605E013F8014B58
:1021D00011F8012B944207D1AB42F7D30B781BB90E
:1021E00037601846F0BC7047064C0749074A012380
:1021F000237010600B701846F0BC7047301100203F
:1022000020110020710A0020700A00206C0A0020B2
:10221000094BDB68521A5B1A93420AD310B4074980
:10222000074C084A0123237010600B70184610BC3D
:102230007047002318467047100A0020700A0020DB
:10224000710A00206C0A002000000000000000005D
:1022500038B5064C04F1140554F8043B18460BB18C
:10226000FEF7E6FCAC42F7D138BD00BF0C110020F0
:1022700070B5064C002604F11405206810B1FEF775
:102280004FFD26600434AC42F7D170BD0C11002024
:102290000D4B30B49C690D4D226A4FF47A7303FBE9
:1022A00000F3013B511CA5FB030301EB93118A4290
:1022B000236A03D29A4203D930BC70479A42F6D9B6
:1022C0009942F4D830BC7047200A0020D34D6210E8
:1022D00008B50120FEF7BCFC014BD86808BD00BF63
:1022E000100A0020000000000000000000000000B4
:1022F0004FF47A7303FB00F10A4B0B4A0139A3FB3D
:10230000013110B58909002401311470202383F3B1
:102310001188064A06482346FEF762FA234683F3ED
:10232000118810BDD34D62100811002061200008F3
:102330003411002000000000000000000000000038
:102340002DE9F04F9C4C9D4D206085B09C48FFF7D7
:10235000EFFE9C48FFF7ECFE9B48FFF7E9FE2A21C1
:10236000206803689B68984715F8011F0029F7D17A
:102370009648974DFFF7DCFE2A21206803689B688A
:10238000984715F8011F0029F7D19248924DFFF7A1
:10239000CFFE2A21206803689B68984715F8011F23
:1023A0000029F7D18D488E4DFFF7C2FE2A21206803
:1023B00003689B68984715F8011F0029F7D18948E1
:1023C000894DFFF7B5FE2A21206803689B6898476E
:1023D00015F8011F0029F7D18448854DFFF7A8FEA5
:1023E0002A21206803689B68984715F8011F002977
:1023F000F7D18048804DFFF79BFE2A2120680368B3
:102400009B68984715F8011F0029F7D17B487C4D40
:10241000FFF78EFE2A21206803689B68984715F80D
:10242000011F0029F7D1774B77480193774B039130
:102430000293FFF77DFE6248754EDFF8FCA1DFF8DE
:102440001092744FFFF774FE0399734B8B4619700B
:102450000BF1010B043F4FF000087B68002B7AD092
:102460006E4DFFF705FE2D21206803689B68984795
:1024700015F8011F0029F7D15846FFF711FE206813
:10248000674D03682E219B6808F101089847404674
:10249000FFF706FE2021206803689B68984715F81F
:1024A000011F0029F7D157F8043F1D68297839B179
:1024B000206803689B68984715F8011F0029F7D129
:1024C0005848FFF735FEC820FEF7C2FB3D68564A64
:1024D0006968C6F800A00023136089F800305360D3
:1024E0009360D360136101B18847EB689847AB688C
:1024F00003B19847FFF7BCFE99F80030002B34D0A9
:102500004A4D2D21206803689B68984715F8011FE4
:102510000029F7D1464B474D1868FFF7C1FD202130
:10252000206803689B68984715F8011F0029F7D1B8
:102530003368534509D9404D206815F8011B0368DD
:102540009B68984733689D42F6D33C48FFF7F0FDFF
:102550007B68002B84D1029B5BB11F46019B1A460E
:1025600052F8043F0293019272E73548FFF7E0FD0D
:1025700073E7FFF77DFD334D1148FFF7D9FD462185
:10258000206803689B68984715F8011F0029F7D158
:10259000214B1B783BB92C48FFF7CAFD1E4B18781E
:1025A00005B0BDE8F08F2948FFF7C2FD1A4B187837
:1025B00005B0BDE8F08F00BF680A0020607F00080A
:1025C000408F0008408000085C80000860800008A0
:1025D000747F000868800008887F000880800008F9
:1025E0009C7F000894800008B07F0008A08000084D
:1025F000C47F0008AC800008D87F0008C4800008B1
:10260000EC7F000854810008F880000890820008E0
:1026100030110020A0810008700A0020008000080E
:1026200010800008208100080C1100201480000890
:102630006C0A00202C800008201100202481000852
:102640002881000830800008348100083C8100089F
:10265000710A0020000000000000000000000000DF
:10266000F0B5274F274EBB69274D9A68274B306836
:10267000274C83B0053A00934FF4A8712B46FEF720
:102680006FFABB6923499A68736820600091043A25
:1026900018464FF4A8712B46FEF762FABA69B36880
:1026A00092681D4960600091033A18464FF4A87182
:1026B0002B46FEF755FABA69F36892681749A0608D
:1026C0000091023A18464FF4A8712B46FEF748FADB
:1026D000BA69336992681249E060013A009118467C
:1026E0004FF4A8712B46FEF73BFA2061FFF7C0FDBF
:1026F0000C49012003B0BDE8F040FFF761BD00BF09
:10270000200A00208081000831270008808200080C
:102710000C110020C8920008708200087482000822
:10272000788200087C8200080000000000000000A1
:1027300008B50078FFF71CFD002008BD0000000070
:10274000F0B52B4F2B4EBB692B4D9A682B4B706805
:102750002B4C83B0043A00934FF4A8712B46FEF73C
:10276000FFF9BB6927499A68336860600091053AB0
:1027700018464FF4A8712B46FEF7F2F9BA6933698F
:102780009268214920600091013A18464FF4A871DF
:102790002B46FEF7E5F9BA69F36892681B49206198
:1027A0000091023A18464FF4A8712B46FEF7D8F96B
:1027B0002023E06083F31188BB69B0689A68144BEA
:1027C0000093033A2B464FF4A871FEF799F90023C2
:1027D000A06083F31188A068FEF71AFAFFF748FD9E
:1027E0000C49012003B0BDE8F040FFF7E9BC00BF91
:1027F000200A00208081000831270008C8920008C4
:102800000C11002080820008788200087482000881
:10281000708200087C8200080000000000000000B8
:10282000F8B54A4EB3699C68651C2846FEF7D8F98E
:10283000211AB1FA81F1074649090120FFF7A8FCE6
:1028400000B1F8BDB3699968491BB1FA81F1022062
:102850004909FFF79DFC0028F3D13846FEF7C0F97F
:10286000291AB1FA81F149090320FFF791FC0028E8
:10287000E7D1B3699968091BB1FA81F104204909CC
:10288000FFF786FC0028DCD1202383F31188B1698F
:102890008B689A1C8A60034683F31188B369996830
:1028A000A71CC91BB1FA81F149090520FFF770FC8B
:1028B0000028C6D12846FEF793F9211AB1FA81F112
:1028C00049090620FFF764FC0028BAD1B36999686A
:1028D000C91BB1FA81F107204909FFF759FC00280B
:1028E000AFD1B369196C491BB1FA81F108204909CC
:1028F000FFF74EFC0028A4D1E71C3846FEF770F91C
:10290000281A414241410920FFF742FC002898D192
:10291000B3699968CA1B514251410A20FFF738FC3C
:1029200000288ED1B369196CCB1B594259410B2039
:10293000FFF72EFC002884D1202383F31188B2698D
:1029400003469460146483F311887AE7200A002018
:1029500038B51C4DFFF7BCFCEC686420FEF778F935
:1029600004F1650204F164010120FFF751FC00B19C
:1029700038BDEC686420FEF76BF904F1650204F1E0
:1029800064010220FFF744FC0028F1D1EC684FF409
:102990007A70FEF75DF904F2E93204F57A710320EA
:1029A000FFF736FC0028E3D1EC6804F16405284603
:1029B000FEF75EF9294604F165020420BDE83840BF
:1029C000FFF726BC100A00200000000000000000F5
:1029D0002DE9F043444E454FB369D7F800809A681B
:1029E000DFF82C91424B434D434C83B005324FF4FA
:1029F000A871CDF800904046FEF7B2F8B369796847
:102A00009A683E4B28600132084600934FF4A87143
:102A1000374BFEF7A5F8B369B9689A68384B686018
:102A20000332084600934FF4A871314BFEF798F833
:102A3000B369F9689A68334BA8600432084600937A
:102A40004FF4A8712A4BFEF78BF8B36939699A687D
:102A50002D4BE8600232084600934FF4A871244BD6
:102A6000FEF77EF828612046FEF7C2FA2046FEF700
:102A7000BFFA2046FEF7BCFA2046FEF7B9FA204618
:102A8000FEF7B6FAFFF7F4FB20490120FFF798FBA9
:102A900010B103B0BDE8F083B269154B9268CDF870
:102AA00000900746053240464FF4A871FEF758F8EB
:102AB0002023286083F3118802212046FEF7C8FAFC
:102AC000FDF7D6FF3B4683F31188FFF7D1FBA168E2
:102AD000A1F10101B1FA81F10220490903B0BDE879
:102AE000F043FFF755BB00BF200A0020808100089B
:102AF000412B00080C1100200408002074820008FB
:102B000070820008C8920008808200087C82000859
:102B100078820008000000000000000000000000B3
:102B200010B5044C2046FEF7F3F92046FEF760FA94
:102B3000002010BD0408002000000000000000007C
:102B400010B504460348FEF7E3F92078FFF710FBC1
:102B5000002010BD0408002000000000000000005C
:102B600000210148FEF7A4B904080020000000007D
:102B7000FFF7F6BF000000000000000000000000AA
:102B8000FFF7EEBF000000000000000000000000A2
:102B900008B53220FEF75CF8202383F3118805483E
:102BA000FEF746FAFDF764FF002383F31188184609
:102BB00008BD00BF04080020000000000000000065
:102BC00008B5202383F311888368002B06DDFDF709
:102BD0004FFF002383F31188184608BDFEF728FA3B
:102BE000F5E700BF0000000000000000000000004A
:102BF00000B587B003A80021FEF75AF903A8002109
:102C0000FEF776F905990029CCBF002101210120AA
:102C1000FFF7BEFA10B107B05DF804FB314B324A42
:102C20009B6910689A68314B03A90091013A4FF4EF
:102C3000A871FDF795FF2E4B186003A8FEF768F901
:102C400005990029CCBF002101210220FFF7A0FA3D
:102C50000028E0D1202383F31188059B002B3CDD65
:102C6000FDF706FF002383F3118805999942D4BF2D
:102C7000002101210320FFF78BFA0028CBD1059911
:102C8000A1F10101B1FA81F104204909FFF780FAAD
:102C90000028C0D1202383F31188059B002B18DD69
:102CA000FDF7E6FE002383F3118805999942D4BF0E
:102CB000002101210320FFF76BFA0028ABD1059911
:102CC000A1F10101B1FA81F149090520FFF760FA8C
:102CD000A1E703A8FEF7ACF9E2E703A8FEF7A8F91D
:102CE000BEE700BF200A002080810008C12B000839
:102CF0000C11002000000000000000000000000097
:102D0000F0B54A4C83B000212046FEF729F9A0F126
:102D1000FF31B1FA81F149090120FFF739FA08B111
:102D200003B0F0BD2168091BB1FA81F10220490905
:102D3000FFF72EFA0028F3D1A168B1FA81F1490911
:102D40000320FFF725FA0028EAD1394B394A9B695D
:102D500011689A68384B0090013A08464FF4A87100
:102D6000FDF7FEFE354B4FF4FA7118602046FEF772
:102D7000F7F80546FFF77CFAB5FA85F14909042012
:102D8000FFF706FA0028CBD12168091BB1FA81F1BF
:102D900005204909FFF7FCF90028C1D1A168B1FA63
:102DA00081F149090620FFF7F3F90028B8D1FFF7B0
:102DB0008FFA234BDF68412526462846FFF7D8F9CE
:102DC0004FF4FA713046FEF7CBF8A0F1FF31B1FABB
:102DD00081F149090720FFF7DBF90028A0D121681C
:102DE000091BB1FA81F108204909FFF7D1F9002840
:102DF00096D1A168B1FA81F149090920FFF7C8F914
:102E00000135EDB200288BD1462DD6D10D490A20CF
:102E1000FFF7D6F9002883D107F6C91207F6C411C7
:102E20000B2003B0BDE8F040FFF7F2B90408002022
:102E3000200A002080810008912B00080C1100203E
:102E4000100A00207C820008000000000000000042
:102E500010B5204B204A9B6910689A681F4B204C84
:102E600082B00021013200914FF4A871FDF778FE85
:102E70001C4B214618602046FEF702F92168091B09
:102E8000B1FA81F101204909FFF782F908B102B0D6
:102E900010BDA168B1FA81F149090220FFF778F964
:102EA0000028F4D121462046FEF7EAF82168091BE4
:102EB000B1FA81F103204909FFF76AF90028E6D148
:102EC000A168B1FA81F14909042002B0BDE81040BF
:102ED000FFF75EB9200A002080810008212B00083E
:102EE000040800200C110020000000000000000079
:102EF000F0B52B4F2B4EBB692B489C682B4D83B0F4
:102F0000FEF766F92A4B0093621C2A4B30684FF497
:102F1000A871FDF725FE7168274B2860A21C0846A2
:102F200000934FF4A871234BFDF71AFEB168234BB1
:102F30006860E21C084600934FF4A8711D4BFDF732
:102F40000FFEF1681E4BA860221D084600934FF447
:102F5000A871184BFDF704FE31691A4BE860621D39
:102F6000084600934FF4A871124BFDF7F9FD286154
:102F7000FEF756F9FFF77CF9BB699968091BB1FAAE
:102F800081F101204909FFF703F908B103B0F0BD51
:102F90000D49022003B0BDE8F040FFF711B900BFB2
:102FA000200A002080810008180800200C11002051
:102FB00080820008D12F0008C892000870820008A3
:102FC00074820008788200087C82000800000000FB
:102FD00010B504460448FEF7FBF82078FFF7C8F860
:102FE000FEF71EF9002010BD1808002000000000A8
:102FF00010B504460448FEF7EBF82078FFF7B8F860
:10300000FEF70EF9002010BD280800200000000087
:1030100008B50448FEF76CF80348BDE80840FEF721
:1030200067B800BF18080020280800200000000032
:10303000FFF7EEBF000000000000000000000000ED
:103040000148FEF755B800BF180800200000000036
:10305000FFF7F6BF000000000000000000000000C5
:10306000FFF7EEBF000000000000000000000000BD
:103070002DE9F041204F214E214C82B0FFF728F975
:10308000BB6920499A68D1F80C801F4B3068002535
:10309000013A4FF4A8710095FDF762FDBA697368B3
:1030A00092682060023A18464FF4A871174B0095B9
:1030B000FDF756FDBA69B368926860604FF4A87175
:1030C000033A18460095124BFDF74AFDA060FFF742
:1030D000CFF810490120FFF773F810B102B0BDE836
:1030E000F08108F1690208F16401022002B0BDE834
:1030F000F041FFF78DB800BF200A00208081000852
:103100000C110020100A0020713200085132000812
:103110000132000860830008000000000000000089
:103120002DE9F0412C4F2D4E2D4C82B0FFF7D0F8F9
:10313000BB692C499A68D1F80C802B4B306800256C
:10314000053A4FF4A8710095FDF70AFDBA69736856
:1031500092682060043A18464FF4A871234B0095FA
:10316000FDF7FEFCBA69B36892686060033A1846DE
:103170004FF4A8711E4B0095FDF7F2FCBA69F36895
:103180009268A060023A18464FF4A871194B009556
:10319000FDF7E6FCBA6933699268E0604FF4A87104
:1031A000013A18460095144BFDF7DAFC2061FFF751
:1031B0005FF812490120FFF703F810B102B0BDE833
:1031C000F08108F1730208F16E01022002B0BDE83F
:1031D000F041FFF71DB800BF200A002080810008E1
:1031E0000C110020100A00203132000821330008A1
:1031F000F1320008D1320008A13200087C820008B8
:1032000008B50848FDF7E4FF2820FFF741F8FEF76E
:1032100007F80A20FFF73CF84320FEF7A9FF00203B
:1032200008BD00BF180800200000000000000000DA
:1032300008B50648FDF7CCFF1E20FFF729F8FDF77B
:10324000EFFF4520FEF794FF002008BD180800207E
:1032500008B51420FDF7FCFC2820FFF719F84220E0
:10326000FEF786FF002008BD0000000000000000FF
:1032700008B52820FDF7ECFC0648FDF7A9FF0A2059
:10328000FFF706F8FDF7CCFF4120FEF771FF0020A5
:1032900008BD00BF1808002000000000000000006A
:1032A00008B53220FDF7D4FC0648FDF791FF0A204F
:1032B000FEF7EEFFFDF7B4FF4120FEF759FF0020B7
:1032C00008BD00BF2808002000000000000000002A
:1032D00008B52820FDF7BCFC1420FEF7D9FF4220DA
:1032E000FEF746FF002008BD0000000000000000BF
:1032F00008B51420FDF7ACFC0648FDF769FF0A206D
:10330000FEF7C6FFFDF78CFF4320FEF731FF0020DC
:1033100008BD00BF280800200000000000000000D9
:1033200008B50A20FDF794FC0B48FDF751FF142067
:10333000FEF7AEFF0948FDF74BFF0A20FEF7A8FF96
:10334000FDF76EFF0A20FEF7A3FFFDF769FF44209B
:10335000FEF70EFF002008BD2808002018080020F6
:1033600008B59620FDF774FC0348FDF731FFFDF723
:1033700057FF002008BD00BF180800200000000013
:1033800008B53220FDF764FC0348FDF721FFFDF787
:1033900047FF002008BD00BF2808002000000000F3
:1033A0002DE9F0468A4D8B4EAB6932689C688A4B9A
:1033B0008A4F85B004F101091046039200934A46F2
:1033C000874B4FF4A871FDF7CBFB7668854B3860CF
:1033D00004F1020A4FF4A871524600933046824B22
:1033E000FDF7BEFB78608148FDF7F2FEAB69996896
:1033F000091BB1FA81F101204909FEF7C9FE10B19C
:1034000005B0BDE8F0866420FDF722FCAB69996841
:10341000A1EB0901B1FA81F102204909FEF7B8FEDA
:103420000028EDD17248FDF7D3FEAB699968A1EB96
:103430000901B1FA81F103204909FEF7A9FE00282C
:10344000DED16420FDF704FCAB699968A1EB0A01A9
:10345000B1FA81F104204909FEF79AFE0028CFD184
:10346000FDF7DEFEAB699968A1EB0901B1FA81F1C4
:1034700005204909FEF78CFE0028C1D16420FDF724
:10348000E7FBAB699968A1EB0901B1FA81F106206C
:103490004909FEF77DFE0028B2D1FDF721FFAB6997
:1034A0009968091BB1FA81F107204909FEF770FEFE
:1034B0000028A5D1FEF7DCFE4E4B00934A46484B50
:1034C00003984FF4A871FDF74BFB4B4B38604FF45A
:1034D000A87100935246444B3046FDF741FB78609B
:1034E0004248FDF775FEAB699968091BB1FA81F195
:1034F00008204909FEF74CFE002881D16420FDF721
:10350000A7FBAB699968A1EB090CDCF1000141EB69
:103510000C010920FEF73CFE00287FF471AF34480F
:10352000FDF756FEAB699968A1EB090EDEF10001CB
:1035300041EB0E010A20FEF72BFE00287FF460AF5E
:103540006420FDF785FBAB699968A1EB0A07794216
:103550004FF00B007941FEF71BFE064600287FF472
:103560004FAF202383F31188FDF792FEFDF780FA19
:10357000334683F31188AB699968A1EB0906714260
:1035800071410C20FEF704FE00287FF439AF64205F
:10359000FDF75EFBAB699968A1EB0902514251410D
:1035A0000D20FEF7F5FD00287FF42AAFFDF798FE09
:1035B000AB6999680B1B594259410E20FEF7E8FD93
:1035C00000287FF41DAF05B0BDE8F046FEF750BE01
:1035D000200A002080810008748200080C1100205D
:1035E0008133000878820008613300082808002031
:1035F00018080020C892000870820008000000002F
:10360000F8B52B4D2B4CAB6920469E68FDF7F0FDBD
:1036100001460120FEF7BCFD00B1F8BD2046FDF7D4
:10362000E7FD80F00101C9B20220FEF7B1FD0746B7
:103630000028F2D1202383F31188FDF729FE3B46B1
:1036400083F311882168091BB1FA81F1032049092C
:10365000FEF79EFD0028E0D1A168B1FA81F1490989
:103660000420FEF795FD0028D7D1AB699968891B26
:10367000B1FA81F105204909FEF78AFD0028CCD175
:103680002046FDF7A5FDFDF72BFE2168091BB1FAC9
:1036900081F106204909FEF77BFD0028BDD1A16814
:1036A000B1FA81F149090720BDE8F840FEF770BD85
:1036B000200A002018080020000000000000000080
:1036C000F0B52F4B2F4F9B692F4D9E682F4B3868BD
:1036D0002F4C83B0721C00934FF4A8712B46FDF75A
:1036E0003FFA7B682B492060B21C009118464FF4CA
:1036F000A8712B46FDF734FABB6827496060F21CBD
:10370000009118464FF4A8712B46FDF729FAFB6883
:103710002249A060321D009118464FF4A8712B4633
:10372000FDF71EFA3B691E49E060721D00911846C4
:103730004FF4A8712B46FDF713FA2023206183F381
:103740001188184C2046FDF71BFE2046FDF718FE99
:103750002046FDF715FE2046FDF712FE2046FDF738
:103760000FFEFDF785F9002383F31188FEF780FD36
:103770000D49012003B0BDE8F040FEF721BD00BFB8
:10378000200A002080810008B137000880820008EC
:103790000C110020C8920008708200087482000892
:1037A00078820008100800207C82000800000000D9
:1037B00010B504460648FDF70BFD0648FDF738FE38
:1037C0002078FEF7D5FCFDF72BFD002010BD00BFD3
:1037D0001808002010080020000000000000000071
:1037E00008B50448FDF7ACFD0348BDE80840FDF707
:1037F0007FBC00BF10080020180800200000000057
:10380000FFF7EEBF00000000000000000000000015
:1038100008B50548FDF794FD0448FDF769FC044828
:10382000BDE80840FDF764BC10080020180800201F
:103830002808002000000000000000000000000038
:10384000F0B5244B244F9B69244D9E68244B386867
:10385000244C83B0721C00934FF4A8712B46FDF7E3
:103860007FF97B6820492060B21C009118464FF414
:10387000A8712B46FDF774F9BB681C496060F21C07
:10388000009118464FF4A8712B46FDF769F9FB68C3
:103890001749A060321D009118464FF4A8712B46BD
:1038A000FDF75EF93B691349E060721D009118460F
:1038B0004FF4A8712B46FDF753F920610E48FDF730
:1038C0006FFDFEF7D5FC0D49012003B0BDE8F040C7
:1038D000FEF776BC200A002080810008B13700087E
:1038E000808200080C110020C89200087082000835
:1038F0007482000878820008100800207C8200088A
:10390000F0B51B4B1B4E9B6930689D681A4B1B4CD6
:103910001B4F83B06A1C00934FF4A871194BFDF73D
:103920001FF97168184B2060AA1C00930846174BBA
:103930004FF4A871FDF714F9B168154B6060EA1CEB
:1039400000930846134B4FF4A871FDF709F9A060E6
:103950003846FDF7FDFC3846FDF7FAFCFEF788FC1B
:103960000D49012003B0BDE8F040FEF729BC00BFBF
:10397000200A002080810008788200080C110020B5
:1039800010080020A139000870820008B137000833
:1039900074820008F12F0008608300080000000016
:1039A00010B504460948FDF713FC0948FDF710FC63
:1039B0004FF0FF310748FDF773FD2078FEF7D8FB85
:1039C000FDF72EFCFDF72CFC002010BD2808002080
:1039D000180800201008002000000000000000006F
:1039E00010B5184A184B916918688A68174B82B04D
:1039F000013200914FF4A871FDF7B2F8144B186032
:103A0000FDF70EFF446B2146FDF72AFFE0B2FEF7FB
:103A1000AFFBFDF705FF446B2146FDF721FFE0B248
:103A2000FEF7A6FBFDF7FCFE446B2146FDF718FFF1
:103A3000E0B2FEF79DFB0749012002B0BDE810404F
:103A4000FEF7BEBB200A002080810008613A000812
:103A50000C1100206083000800000000000000003E
:103A600010B541210446FDF7BBFE20464221FDF77B
:103A7000B7FE20464321FDF7B3FE002010BD00BF76
:103A800070B5624D696AA1F10501B1FA81F182B0A8
:103A900001204909FEF77CFBF0B942242E4621465D
:103AA0004FF0FF323046FDF723FFB0FA80F14909AD
:103AB0000220FEF76DFB013470B9462CEFD1412195
:103AC0004FF0FF325148FDF75BFFB0FA80F1490932
:103AD0000320FEF75DFB08B102B070BD0122582142
:103AE0004A48FDF705FFA0F1FF31B1FA81F149091C
:103AF0000420FEF74DFB04460028EDD1202383F37C
:103B0000118858214148FDF71BFF2346014683F3E6
:103B10001188A1F1FF31B1FA81F105204909FEF7C1
:103B200037FB0028D8D1012258213848FDF728FF5B
:103B3000A0F1FF31B1FA81F149090620FEF728FB17
:103B400004460028C8D1202383F3118858212F4828
:103B5000FDF73EFF2346014683F31188A1F1FF31B3
:103B6000B1FA81F107204909FEF712FB0028B3D111
:103B7000202383F31188696AB1FA81F14909082089
:103B8000FEF706FB18B1002383F31188A4E7034670
:103B900083F31188202383F31188A9694B1F5942AD
:103BA00059410920FEF7F4FA03460028EBD183F3CC
:103BB0001188202383F31188E968AB68A1EB030C1B
:103BC000DCF100014FF00A0041EB0C01FEF7E0FAD6
:103BD00000230028D8D183F311880C4E052405E07A
:103BE0009DF80400FEF7C4FA013C11D001A94FF082
:103BF000FF323046FDF704FFB0FA80F149090B208F
:103C0000FEF7C6FA0028EBD066E700BF38080020B0
:103C1000C6490C20FEF7D4FA00287FF45DAF472197
:103C20004FF0FF32C248FDF763FEB0FA80F1490958
:103C30000D20FEF7ADFA00287FF44EAF01A94FF03A
:103C4000FF32BB48FDF7DCFEB0FA80F149090E20D7
:103C5000FEF79EFA00287FF43FAF2968AB68A1EB1E
:103C6000030EDEF1000141EB0E010F20FEF790FA8A
:103C700000287FF431AF2968EB68CE1A7142714198
:103C80001020FEF785FA00287FF426AF01A9012253
:103C9000A748FDF7B5FE0130414241411120FEF732
:103CA00077FA00287FF418AF202383F31188A04807
:103CB00001A9FDF7CDFE2346014683F311884A1C76
:103CC000514251411220FEF763FA00287FF404AFFD
:103CD000202383F31188696A4B1F594259411320ED
:103CE000FEF756FA002300287FF44EAF83F31188C5
:103CF000202383F31188A969B1FA81F149091420BD
:103D0000FEF746FA00287FF43EAF034683F311889E
:103D1000202383F31188E968AB68A1EB030CDCF185
:103D200000014FF0150041EB0C01FEF731FA03469C
:103D300000287FF428AF83F31188202383F31188B0
:103D400041217B48FDF7FCFDB0FA80F149091620BE
:103D5000FEF71EFA00287FF4BFAE42217448FDF73B
:103D6000EFFDB0FA80F149091720FEF711FA00289B
:103D70007FF4B2AE43216E48FDF7E2FDB0FA80F168
:103D800049091820FEF704FA00287FF4A5AE442163
:103D90006748FDF7D5FDB0FA80F149091920FEF713
:103DA000F7F9044600287FF497AE45216048FDF7F7
:103DB000C7FD234683F31188B0FA80F149091A2020
:103DC000FEF7E6F900287FF487AEE968AB68A1EB5F
:103DD000030EDEF1000141EB0E011B20FEF7D8F9C6
:103DE00000287FF479AE524E0524202383F31188F6
:103DF00001A93046FDF72CFE002383F31188B0FAA9
:103E000080F149091C20FEF7C3F900287FF464AE55
:103E10009DF80400FEF7ACF9013CE6D143491D20B2
:103E2000FEF7CEF900287FF457AE202383F31188E4
:103E3000696A4E1F71424FF01E007141FEF7A8F9EA
:103E4000234600287FF4A0AE83F31188202383F358
:103E50001188A969B1FA81F149091F20FEF798F983
:103E6000234600287FF490AE83F31188E968AB689D
:103E7000CA1A514251412020FEF78AF900287FF4E6
:103E80002BAE202383F3118845212948FDF7A0FD9F
:103E9000B0FA80F149092120FEF77AF900287FF471
:103EA0001BAE44212248FDF793FDB0FA80F1490989
:103EB0002220FEF76DF900287FF40EAE43211C4846
:103EC000FDF786FDB0FA80F149092320FEF760F97D
:103ED00000287FF401AE42211548FDF779FDB0FAC4
:103EE00080F149092420FEF753F900287FF4F4AD4E
:103EF00041210F48FDF76CFD002383F31188B0FAD0
:103F000080F149092520FEF743F900287FF4E4AD4C
:103F1000E968AB68CB1A594259412620FEF738F9B7
:103F200000287FF4D9AD024E052403E07C8200080E
:103F300038080020202383F3118801A93046FDF7BB
:103F400087FD002383F31188B0FA80F14909272007
:103F5000FEF71EF900287FF4BFAD9DF80400FEF7C0
:103F600007F9013CE6D13D492820FEF729F9002850
:103F70007FF4B2AD202383F31188696AA1F1050CA7
:103F8000DCF100014FF0290041EB0C01FEF700F9D4
:103F9000234600287FF4F8AD83F31188202383F3B0
:103FA0001188A969B1FA81F149092A20FEF7F0F8D0
:103FB000234600287FF4E8AD83F31188E968AB68F5
:103FC000A1EB030EDEF1000141EB0E012B20FEF709
:103FD000DFF800287FF480AD2148FDF769FC20233D
:103FE00083F31188696A4E1F71424FF02C007141B2
:103FF000FEF7CEF8234600287FF4C6AD83F3118880
:10400000202383F31188A969B1FA81F149092D2090
:10401000FEF7BEF8234600287FF4B6AD83F311887F
:10402000202383F311882968AB68CA1A51424FF0E4
:104030002E005141FEF7ACF8234600287FF4A4ADD2
:1040400083F31188202383F311882968EB68CB1A46
:10405000594259412F20FEF79BF894E57C820008D5
:1040600038080020000000000000000000000000F0
:10407000052202490248FDF703BC00BF780A002070
:1040800038080020000000000000000000000000D0
:1040900010B51D4C88B02046694601222460FDF70A
:1040A0000FFA204604A90222FDF70AFA2168091B2B
:1040B00018BF01210120FEF76BF808B108B010BD50
:1040C00069462046FDF714FA2168091B18BF012133
:1040D0000220FEF75DF80028F0D104A92046FDF784
:1040E00007FA2168091BB1FA81F103204909FEF79B
:1040F0004FF80028E2D107210448FDF779FA044976
:104100000420FEF75DF8D9E76008002080850008EC
:1041100060830008000000000000000000000000B4
:104120004320FEF725B800BF00000000000000009B
:104130004220FEF71DB800BF000000000000000094
:104140004120FEF715B800BF00000000000000008D
:104150004FF0FF30FDF7E4B9000000000000000060
:10416000FFF7F6BF000000000000000000000000A4
:10417000FFF7EEBF0000000000000000000000009C
:1041800008B500210548FDF723FA3220FCF760FD51
:1041900000210348FDF71CFA002008BD600800203C
:1041A0006408002000000000000000000000000083
:1041B00010B504463220FCF74BFD20460121FDF7E7
:1041C000F7F9002010BD00BF000000000000000053
:1041D0002DE9F04205208CB0FDF7B2F94FF0FF3029
:1041E000FDF726FAA0F10101B1FA81F14909012098
:1041F000FDF7CEFF10B10CB0BDE8F0824FF0FF30FC
:10420000FDF716FAA0F10401B1FA81F14909022083
:10421000FDF7BEFF0028EED14FF0FF30FDF780F92B
:10422000B0FA80F149090320FDF7B2FF0028E2D17E
:10423000714E724F724DFEF74BF8B36971499A682F
:1042400009680093013A039108466F4BFC684FF4EC
:10425000A871FCF785FC28604FF0FF30FDF7E8F906
:1042600004F13702814604F132010420FDF7D0FF4A
:104270000028C0D1A9F10101B1FA81F14909052055
:10428000FDF786FF0028B6D14FF0FF30FDF748F963
:10429000B0FA80F149090620FDF77AFF0028AAD17B
:1042A000FDF7E6FF0520FDF74BF94FF0FF30FDF776
:1042B000DFF9A0F10501B1FA81F149090720FDF705
:1042C00067FF002897D14FF0FF30FDF729F9B0FACA
:1042D00080F149090820FDF75BFF00288BD1FDF72D
:1042E000F7FFB169484B8A6803980091013A4FF48F
:1042F000A871FC68FCF734FC28604FF0FF30FDF734
:10430000B7F904F13702814604F132010920FDF7C3
:104310007FFF00287FF46FAF09F1FF304142414138
:104320000A20FDF735FF00287FF465AF4FF0FF301E
:10433000FDF7F6F8B0FA80F149090B20FDF728FFE8
:1043400000287FF458AFDFF8D090304CFDF790FF95
:10435000484604A90122C9F800902460FDF7B0F88E
:1043600008A904222046FDF7ABF8FDF7B1FFB369B9
:1043700027499A6803980091013A4FF4A871254B98
:10438000FE68FCF7EDFB28600520FDF791F906F1CA
:10439000370206F132010C20FDF73AFF00287FF4C6
:1043A0002AAF4FF0FF30FDF7BBF8B0FA80F14909B2
:1043B0000D20FDF7EDFE00287FF41DAFFDF758FF3F
:1043C00004A94846FDF794F808A92046FDF790F89F
:1043D000D9F80010A1EB0902514251410E20FDF71E
:1043E000D7FE00287FF407AF21680B1B59425941C3
:1043F0000F20FDF7CDFEFEE6200A0020100A002067
:104400000C11002080810008B141000864080020E0
:104410007882000881410008600800200000000048
:1044200008B500214FF0FF30FDF762F9B0FA80F1D6
:1044300049090120FDF7ACFE00B108BD01464FF06F
:10444000FF30FDF77DF9B0FA80F149090220FDF750
:104450009FFE0028F1D101464FF0FF30FDF798F99B
:10446000B0FA80F149090320FDF792FE0028E4D15B
:104470000A214FF0FF30FDF73BF9B0FA80F149090E
:104480000420FDF785FE0028D7D10A214FF0FF3028
:10449000FDF756F9B0FA80F149090520FDF778FEDD
:1044A0000028CAD10A214FF0FF30FDF771F9B0FAA8
:1044B00080F149090620BDE80840FDF769BE00BF4C
:1044C00070B582B0FDF7B4FC01A90020FDF768FDCE
:1044D00010210020FDF7DCFC011C054618BF01215E
:1044E0000120FDF755FE08B102B070BD0446284614
:1044F000FDF70EFD6FF0FF012046FDF7C9FCB0FA95
:1045000080F149090220FDF743FE0028ECD101A902
:104510007D48FDF745FD10217B48FDF7B9FC1021D2
:1045200006467948FDF7B4FC102105467648FDF7AC
:10453000AFFC04463046FDF7EBFC2846FDF7E8FCEF
:104540002046FDF7E5FC69466F48FDF729FDA0F11F
:104550000101B1FA81F149090320FDF719FE002894
:10456000C2D110216848FDF793FC1021044666482B
:10457000FDF78EFC102105466348FDF789FCFDF729
:10458000C7FC2846FDF7C4FC2046FDF7C1FC694680
:104590005D48FDF705FDA0F10101B1FA81F149097E
:1045A0000420FDF7F5FD00289ED111215648FDF7A6
:1045B0006FFC102104465448FDF76AFC054620466E
:1045C000FDF7A6FC69465048FDF7EAFCA0F10201A0
:1045D000B1FA81F149090520FDF7DAFD002883D100
:1045E00010214948FDF754FC694604464648FDF74A
:1045F000D7FC012800F0858069464348FDF7D0FCD0
:10460000A0F10201B1FA81F149090620FDF7C0FDD0
:1046100000287FF469AF2846FDF77AFC2046FDF7B5
:1046200077FC69463848FDF7BBFCA0F10101B1FAFF
:1046300081F149090720FDF7ABFD00287FF454AF55
:1046400010213148FDF724FC102105462E48FDF7C6
:104650001FFC04462846FDF75BFC69462A48FDF727
:104660009FFCA0F10201B1FA81F149090820FDF790
:104670008FFD00287FF438AF20212348FDF708FC88
:10468000FDF746FC2046FDF743FC69461E48FDF752
:1046900087FC0138414241410920FDF779FD00289E
:1046A0007FF422AF69461848FDF77AFC0099164856
:1046B000FDF7EEFB694604461348FDF771FCB0FABE
:1046C00080F149090A20FDF763FD00287FF40CAF53
:1046D0002046FDF71DFC69460B48FDF761FC421EB4
:1046E000514251410B20FDF753FD00287FF4FCAEF1
:1046F0009DE80A00CB1A594259410C20FDF748FDAC
:10470000F2E6014681E700BF4811002000000000EA
:104710004FF4D26201490248FDF7AABB780A002093
:104720004811002000000000000000000000000010
:1047300000207047000000000000000000000000A2
:1047400000224FF4A8710148FDF74ABC6808002018
:10475000F8B52D4B2D481D68052229460646FDF764
:1047600047FC05243046FDF753FC011C18BF01210E
:104770000120FDF70DFDA8BB013CF3D12348FDF757
:1047800047FCB0FA80F149090220FDF701FD48BB62
:104790001F4C1E4F04F1100629463846FDF750FC09
:1047A000A64207D054F8045B38462946FDF748FC7A
:1047B000A642F7D1154D05242846FDF729FC011C1A
:1047C00018BF01210320FDF7E3FC58B9013CF3D1E8
:1047D0000E48FDF71DFCB0FA80F149090420FDF7F1
:1047E000D7FC00B1F8BD10210A4A0848FDF7F8FBD4
:1047F0000648FDF70DFCB0FA80F149090520BDE837
:10480000F840FDF7C5BC00BF8081000868080020A3
:10481000848100083147000800000000000000000B
:1048200070B5344B34489B69344C9D6884B003A9FF
:10483000FDF7B6FB324B00936A1E324B2E484FF405
:10484000A871FCF7C5FA304B2060AA1E00934FF404
:10485000A8712C4B2848FCF7BBFA02A960602648D7
:10486000FDF79EFB02992448FDF712FB274B0093AE
:104870004FF4A8710646EA1E224B1F48FCF7A8FA1F
:10488000A0603046FDF744FB216821B1616811B199
:10489000A16831B300210120FDF77AFC08B104B012
:1048A00070BDFDF7E5FC1A490220FDF789FC0028E0
:1048B000F5D102A91048FDF773FBA0F10101B1FA8F
:1048C00081F149090320FDF763FC0028E7D1029933
:1048D000039BC91AB1FA81F149090420FDF758FC7C
:1048E000DDE7E368002BD6D12169B1FA81F14909EE
:1048F000D1E700BF200A0020681100200C11002021
:10490000788200082149000874820008708200083B
:10491000C086000800000000000000000000000049
:1049200008B50078FDF724FC002008BD0000000059
:104930004FF4D26201490248FDF79ABA780A002082
:1049400068110020000000000000000000000000CE
:10495000FFF7EEBF000000000000000000000000B4
:10496000F8B5324B324C9B69324F9D6804F110060A
:1049700054F8041B3846FDF763FBA642F8D12E4BD2
:104980002E4A2C482E4C691EFCF742FA2D4B206013
:104990002A4A2848A91EFCF73BFA2B4B6060274A9D
:1049A0002448E91EFCF734FA284BA060234A21482A
:1049B000291FFCF72DFA691FE060254B1F4A1D488F
:1049C000FCF726FA2168206141B1616831B1A16824
:1049D00021B1E16811B1B0FA80F149090120FDF778
:1049E000D7FB00B1F8BDFDF743FC1A490220FDF7E3
:1049F000E7FB0028F6D10F4D04242846FDF708FBFD
:104A0000011C18BF01210320FDF7C2FB0028E9D1DA
:104A1000013CF2D10748FDF7FBFAB0FA80F14909F1
:104A20000420BDE8F840FDF7B3BB00BF200A00201A
:104A30008081000888110020788200082149000840
:104A40000C1100207482000870820008C8920008CF
:104A500080820008D08600080000000000000000EE
:104A600000224FF4A8710148FDF7BABA881100205E
:104A700038B50546FCF7F4F9002403461846AB4266
:104A800008BF44F00104FCF7FBF903460028F5D108
:104A9000204638BD000000000000000000000000BB
:104AA00010B5474B47499A6947489268474B82B0CF
:104AB000013A00914FF4A871FCF78AF904460120ED
:104AC000A17F091AB1FA81F14909FDF761FB08B12B
:104AD00002B010BD2046FCF743F9A17F0220091A5D
:104AE000B1FA81F14909FDF753FB0028F0D12046C6
:104AF000FCF746F9A17FA1F10101B1FA81F1032090
:104B00004909FDF745FB0028E2D12046FFF7B0FF39
:104B100001460420FDF73CFB0028D9D12046FFF7D1
:104B2000A7FF01460520FDF733FB0028D0D1204622
:104B3000FCF726F9A17FB1FA81F149090620FDF7BA
:104B400027FB0028C4D1217FB1FA81F14909072050
:104B5000FDF71EFB0028BBD12046FFF789FF014669
:104B60000820FDF715FB0028B2D12046FFF780FF93
:104B700001460920FDF70CFB0028A9D13220FCF7E3
:104B800067F8217FA1F10E03594259410A20FDF730
:104B9000FFFA00289CD12046FFF76AFF01460B2050
:104BA000FDF7F6FA002893D12046FFF761FF80F069
:104BB0000101C9B20C2002B0BDE81040FDF7E8BA0F
:104BC000200A00207882000868110020214900088E
:104BD000704700BF0000000000000000000000005F
:104BE00008B5C8210248FCF7C3FF002008BD00BF7C
:104BF0007408002000000000000000000000000019
:104C000000B5064A064B1168064883B000220092A0
:104C10000422FCF755FF03B05DF804FB8081000817
:104C2000D14B0008740800200000000000000000C4
:104C300008B5C82200210248FDF722F8002008BD6F
:104C400098080020000000000000000000000000A4
:104C500000B5064A064B1168064883B00022009250
:104C60000422FCF7E5FF03B05DF804FB8081000837
:104C7000D14B000898080020000000000000000050
:104C8000F0B5202383B083F31188944DA968B1FA5D
:104C900081F149090120FDF77BFA00BB0646034676
:104CA00083F31188202383F3118841242F46214662
:104CB00001343846E4B2FCF72BFF452CF7D1002332
:104CC00083F31188202383F311886A69AB699A42C0
:104CD0003BD031460220FDF75BFA044620B10023A9
:104CE00083F3118803B0F0BD034683F311882023BA
:104CF00083F3118879482146FCF70AFF043014BF7A
:104D0000002101210320FDF743FA0028E7D10346E3
:104D100083F31188714E04244FF0FF313046FCF7C5
:104D200027FFC0B2FDF724FA013CF5D1202383F31D
:104D30001188A968B1FA81F149090420FDF728FA20
:104D4000234638B183F31188CCE7AE68003618BF2C
:104D50000126BEE783F3118861490520FDF730FA8B
:104D60000028BFD1202383F311885C4E41242146C3
:104D700001343046E4B2FCF7CBFE452CF7D10023DA
:104D800083F31188574E554871680822FCF718FFC5
:104D9000A0F10401B1FA81F149090620FDF7F8F903
:104DA00000289FD1202383F31188A968B1FA81F1EB
:104DB00049090720FDF7ECF9002890D1034683F359
:104DC0001188202383F31188444F41242146013464
:104DD0003846E4B2FCF79CFE452CF7D1002383F360
:104DE000118874683D4821460222FCF7E9FEA0F1D3
:104DF0000201B1FA81F149090820FDF7C9F900283B
:104E00007FF470AF0346214602223448FCF7D8FEF7
:104E1000A0F10201B1FA81F149090920FDF7B8F9C1
:104E200000287FF45FAF202383F31188A968B1FACB
:104E300081F149090A20FDF7ABF9044600287FF407
:104E40004EAF034683F31188202383F31188234850
:104E50002146FCF75DFE2148FCF742FE234683F322
:104E60001188202383F31188A968B1FA81F14909D7
:104E70000B20FDF78DF9074600287FF430AF03467D
:104E800083F31188184B30689A69184B9268009721
:104E900001324FF4A871FBF763FE154A202310601E
:104EA00083F31188A968B1FA81F149090C20FDF753
:104EB0006FF9034600287FF412AF83F31188FDF7E2
:104EC000D7F90A210548FCF753FE431C59425941C2
:104ED0000D2003B0BDE8F040FDF75AB9740800207A
:104EE000D086000880810008200A0020E14B0008DD
:104EF0000C11002000000000000000000000000075
:104F00002DE9F041202382B083F31188884D6A692E
:104F1000AB699A4200F0F28000210120FDF738F9D8
:104F200000283AD1034683F31188814E412421465B
:104F300001344FF0FF323046E4B2FCF7A1FE452CBD
:104F4000F5D1202383F31188A968B1FA81F14909C9
:104F50000220FDF71DF90646F8B9034683F31188D0
:104F6000734F0424202383F311883846FCF7B8FEDE
:104F70000023C0B283F31188FDF7FAF8013CF1D1A8
:104F8000202383F311886A69AB699A4200F0BB80E1
:104F900031460320FDF7FCF828B1002383F3118884
:104FA00002B0BDE8F081034683F311886149042013
:104FB000FDF706F90028F3D1202383F311885C481C
:104FC000FCF78EFE033014BF002101210520FDF700
:104FD000DFF80028E1D1034683F31188564E544888
:104FE000746808222146FCF7A3FEA0F10401B1FA7F
:104FF00081F149090620FDF7CBF80028D0D1202304
:1050000083F31188A968B1FA81F149090720FDF7F6
:10501000BFF880460028C0D1034683F31188474B70
:1050200030689A69464B9268CDF8008001324FF49F
:10503000A871FBF795FD434A2023106083F3118884
:1050400005F108010EC99B1A591AA1F10401B1FA20
:1050500081F149090820FDF79BF8064600289CD1FC
:10506000034683F31188FDF703F9202383F31188A6
:105070002F48FCF7EDFD334683F31188202383F39B
:10508000118805F108010EC99B1A591AB1FA81F16C
:1050900049090920FDF77CF8034600287FF47DAF1D
:1050A00083F31188022221462148FCF741FE023891
:1050B000414241410A20FDF76BF8034600287FF486
:1050C0006FAF214602221A48FCF732FE821E51427F
:1050D00051410B20FDF75CF800287FF461AF2023DD
:1050E00083F31188A968B1FA81F149090C20FDF711
:1050F0004FF8002360B183F3118851E7A9680031AC
:1051000018BF012109E7AE68003618BF01263FE746
:1051100083F311880A2219460548FCF7B1FD431CA8
:10512000594259410D2002B0BDE8F041FDF730B8B9
:1051300098080020D086000880810008200A0020FE
:10514000314C00080C11002000000000000000009D
:10515000704700BF000000000000000000000000D9
:10516000704700BF000000000000000000000000C9
:1051700010B52F482F4CFCF7C3FF4FF4EA70FCF733
:105180008FFF2046FCF7D4FF2B48FCF7B9FF4820DF
:10519000FCF786FF2046FCF7CBFF2848FCF7B0FF62
:1051A0001420FCF77DFF2046FCF7C2FF2448FCF7E3
:1051B000A7FF0C20FCF774FF2046FCF7B9FF21483D
:1051C000FCF79EFF0420FCF76BFF2046FCF7B0FFC6
:1051D0001D48FCF795FF1020FCF762FF2046FCF706
:1051E000A7FF1A48FCF78CFF1020FCF759FF204658
:1051F000FCF79EFF1648FCF783FF0820FCF750FFE2
:105200002046FCF795FF1348FCF77AFF2420FCF7B3
:1052100047FF2046FCF78CFF0F48FCF771FF282062
:10522000FCF73EFF2046BDE81040FCF781BF00BF01
:1052300040880008508800085888000868880008DE
:10524000788800088888000898880008A8880008DE
:10525000B8880008C8880008D88800080000000046
:1052600010B5FCF7DDFA446B2146FCF7F9FA002C87
:10527000F7D1204610BD00BF000000000000000074
:105280002DE9F043154B164A9B69D2F800909D68B2
:10529000DFF85C80134F83B0FDF71AF84FF47A7093
:1052A000FDF726F80024013526463B4600962A469F
:1052B0004FF4A8714846FBF753FC98F800300134CE
:1052C000002BF2D00848FCF71BFF2046FCF7E8FE55
:1052D000064803B0BDE8F043FCF72ABF200A0020CF
:1052E00080810008515100081089000820890008B9
:1052F0000811002000000000000000000000000075
:1053000070B50546FCF7E4FF4FF47A70FCF7F0FF48
:10531000074E002401212846FCF762FA3378013455
:10532000002BF7D028460021FCF75AFA204670BD22
:105330000811002000000000000000000000000034
:1053400010B5134B134A9B6910689A68124B82B0D0
:105350000021013A00914FF4A871FBF701FC0F4BBB
:105360001860FFF7CDFF0446FCF782FF0C48FCF7FE
:10537000C7FE2046FCF794FE0A48FCF7C1FE600019
:10538000FCF78EFE084802B0BDE81040FCF7D0BE26
:10539000200A002080810008615200080C110020C2
:1053A00010890008F0880008FC8800080000000050
:1053B00010B5134B134A9B6910689A68124B82B060
:1053C0000021013200914FF4A871FBF7C9FB0F4B8C
:1053D0001860FFF795FF0446FCF74AFF0C48FCF7FE
:1053E0008FFE2046FCF75CFE0A48FCF789FE600051
:1053F000FCF756FE084802B0BDE81040FCF798BE26
:10540000200A002080810008615200080C11002051
:1054100010890008F0880008FC88000800000000DF
:105420002DE9F0412C4F2D4EBB6930689A682C4B0A
:105430002C4CDFF8C08082B00025013200954FF47B
:10544000A871FBF78DFBBA69736892682060023A15
:10545000009518464FF4A8714346FBF781FBBA69E3
:10546000B36892686060033A009518464FF4A871DB
:105470004346FBF775FBBA69F3689268A060043A8B
:10548000009518464FF4A8714346FBF769FBBA69CB
:1054900033699268E060053A4FF4A87118460095A8
:1054A0004346FBF75DFB20612068FFF729FF0446B8
:1054B000FCF7DEFE0C48FCF723FE2046FCF7F0FD6F
:1054C0000A48FCF71DFE6000FCF7EAFD084802B040
:1054D000BDE8F041FCF72CBE200A002080810008C6
:1054E000615200080C11002010890008F0880008A3
:1054F000FC88000851510008000000000000000076
:10550000084A10B52023946983F311880220FBF721
:10551000FFF9636A002BF9D0002383F31188184642
:1055200010BD00BF200A00200000000000000000A5
:1055300070B5254B254A9B6910689A68244B254E07
:1055400082B0002501324FF4A8710095FBF708FBEB
:10555000214B04461860FCF7BBFE4FF47A70FCF751
:10556000C7FE202383F3118800212046FBF710FAA1
:1055700020460021FBF70CFA20460021FBF708FA31
:1055800020460021FBF704FA002383F311883378C7
:105590000435002BE5D0202383F311884FF0FF3131
:1055A0002046FBF7F5F9002383F31188FCF760FE32
:1055B0000A48FCF7A5FD6800FCF772FD084802B038
:1055C000BDE87040FCF7B4BD200A002080810008CF
:1055D00001550008081100200C1100201089000856
:1055E000FC8800080000000000000000000000002F
:1055F0002DE9F043164B174A9B69D2F800909D683D
:10560000DFF86080144F83B0FCF762FE4FF47A70CD
:10561000FCF76EFE0024013D26463B462A464FF429
:10562000A87100964846FBF79BFAFBF779FB98F8C0
:1056300000300134002BF0D00848FCF761FD204613
:10564000FCF72EFD064803B0BDE8F043FCF770BD43
:10565000200A0020808100085151000810890008AC
:105660002089000808110020000000000000000050
:105670002DE9F041DFF80081374DD8F8183028685F
:105680009A68364B364F374E82B0002405324FF4BD
:10569000A8710094FBF764FAD8F818206B68926838
:1056A0003860043218464FF4A8712C4B0094FBF775
:1056B00057FAD8F81820AB68926878600332184619
:1056C0004FF4A871254B0094FBF74AFAD8F818203C
:1056D000EB689268B860023218464FF4A8711F4B0D
:1056E0000094FBF73DFAD8F818202B699268F8600F
:1056F000013218464FF4A871184B0094FBF730FAAA
:105700003861FCF7E5FD4FF47A70174DFCF7F0FDBA
:1057100000212846FBF7ECFB33780134002BF7D04F
:10572000FCF796FD00211048FBF7E2FBFCF7A0FD1B
:105730000E48FCF7E5FC2046FCF7B2FC04EB440401
:105740000B48FCF7DDFC6000FCF7AAFC094802B03E
:10575000BDE8F041FCF7ECBC8081000881570008EF
:105760000C11002008110020D81100201089000819
:1057700030890008FC880008200A00200000000092
:1057800038B5074CA3695B7F5A0707D4054D2846F7
:10579000FBF7BEFBA3695B7F5B07F8D5002038BD34
:1057A000200A0020D81100200000000000000000A6
:1057B00000210148FBF77CBBD8110020000000004D
:1057C00001210148FBF774BBD81100200000000044
:1057D0002DE9F04184B004ACDFF8CC802D4F2E4E83
:1057E0002E4D002344F8043DFCF772FDD8F8183024
:1057F00038689A6800943346013A4FF4A871FBF771
:10580000AFF9D8F818207B6892682860013A0094B4
:1058100018464FF4A8713346FBF7A2F9D8F81820C0
:10582000BB6892686860013A009418464FF4A8710A
:105830003346FBF795F9D8F81820FB689268A86002
:10584000013A009418464FF4A8713346FBF788F9E3
:10585000D8F818203B699268E860013A4FF4A871C3
:10586000009418463346FBF77BF928614FF47A70B1
:10587000FBF7EEF9FCF7ECFCFCF7FAFC0848FCF748
:105880003FFC0398FCF70CFC0648FCF751FC04B005
:10589000BDE8F08180810008B15800080C1100209B
:1058A00010890008FC880008200A00200000000081
:1058B00038B5094D0446FBF7F3F9FBF7F1F9FBF7AF
:1058C000EFF9FBF7EDF92368AA6904332360537FEE
:1058D0005B07F0D5002038BD200A00200000000042
:1058E00070B582B024482549254E00252B4610224C
:1058F00000950446FCF7E4F8FCF7EAFC4FF47A70F4
:10590000FCF7F6FC202383F3118800212046FCF7E6
:10591000FFF820460121FCF7FBF820460221FCF7A6
:10592000F7F820460321FCF7F3F8002383F31188EE
:105930004FF0FF312046FCF71BF94FF0FF312046B6
:10594000FCF716F94FF0FF312046FCF711F920461D
:105950004FF0FF31FCF70CF933780135002BD1D033
:105960000848FCF7CDFBA800FCF79AFB064802B0FC
:10597000BDE87040FCF7DCBBA411002094110020AE
:10598000081100201089000850890008000000005C
:105990002DE9F041FCF79CFC4FF47A70FCF7A8FC71
:1059A000DFF87080164F174E174D0024202383F325
:1059B000118800233A4630460121FAF711FF3A4692
:1059C000002342F210712846FAF70AFF3046FAF730
:1059D00027FF2846FAF724FF002383F3118898F85D
:1059E00000300134002BE1D00848FCF789FB60004F
:1059F000FCF756FB0648BDE8F041FCF799BB00BF39
:105A000061510008E4110020F811002010890008FD
:105A100010880008081100200000000000000000AD
:105A200070B5FCF755FC4FF47A70FCF761FC154E2D
:105A3000154C00252046FBF76BFA2046FBF7D8FAF9
:105A40002046FBF765FA2046FBF7D2FA2046FBF723
:105A50005FFA2046FBF7CCFA2046FBF759FA2046BE
:105A6000FBF7C6FA33780135002BE3D00748FCF783
:105A700047FBA800FCF714FB0548BDE87040FCF7A5
:105A800057BB00BF08110020D81100201089000862
:105A90002088000800000000000000000000000056
:105AA00070B5FCF715FC4FF47A70FCF721FC134E2F
:105AB000134C00252046FBF78BFBFBF7B1FB204680
:105AC000FBF786FBFBF7ACFB2046FBF781FBFBF704
:105AD000A7FB2046FBF77CFBFBF7A2FB33780135E5
