:020000040800F2
:100000000004002001080008010900081109000887
:100010000109000801090008010900080109000898
:100020000109000801090008010900085109000838
:10003000010900080109000801090008110A000867
:100040000109000801090008010900080109000868
:100050000109000801090008010900080109000858
:10006000010900080109000801090008311C000805
:10007000611C0008911C0008C11C0008F11C00084C
:10008000211D0008511D0008010900080109000890
:100090000109000801090008010900080109000818
:1000A0000109000801090008010900080109000808
:1000B00001090008010900080109000801090008F8
:1000C00001090008010900080109000801090008E8
:1000D00001090008010900080109000801090008D8
:1000E00001090008010900080109000801090008C8
:1000F000010900080109000801090008811D000824
:1001000001090008010900080109000801090008A7
:100110000109000801090008010900080109000897
:10012000B11D0008E11D0008111E0008411E000855
:10013000711E0008010900080109000801090008F2
:100140000109000801090008010900080109000867
:10015000A11E0008D11E0008011F000801090008A7
:10016000612500087126000801090008010900083E
:1001700001090008812D0008010900080109000893
:100180000109000801090008010900080109000827
:100190000109000801090008010900080109000817
:0C01A0000109000801090008010900081D
:1001B0002DE9F047002782B003F002F83846414DA0
:1001C000DFF8048105F004FB05F052FF2C46C14620
:1001D0003E4600203B4905F00BFB2A89D307F8D5A2
:1001E000A288D31E112B638819D8DA1E142A2ED99F
:1001F000A3F11702142A4FD9A3F12B02142A4ED9C6
:10020000A3F13F02142A51D9A3F15302142A52D95F
:10021000673B4FF6FF72142B98BF1646D9E7D91EDD
:10022000112916D8A2F12B03142B33D9A2F15303B1
:10023000142B37D9A2F17B03142B35D9A2F1A303D8
:10024000142B36D9CB3A142A98BF0427C1E70026CD
:10025000BFE70FFA83FABAF1190FBADDD8F8000038
:1002600003F09EF98245B4DCB4F904A0BAF1190F89
:10027000AFDDD9F8000003F09BF98245A9DCD9F87D
:100280000000B4F90210B4F90420B7B9334603F002
:1002900097F99EE700279CE74FF4784699E74FF6D9
:1002A000E07696E7012794E7022792E74FF480660D
:1002B0008FE703278DE71F268BE700963BB203F0FD
:1002C000F7FB86E7A4170020780C0020AFF300802E
:1002D00080F0004002E000BF81F0004142001FBFFB
:1002E0005FEA410392EA030F7FEA226C7FEA236C04
:1002F0006AD04FEA1262D2EB1363C1BFD2184140F9
:1003000048404140B8BF5B42192B88BF704710F08E
:10031000004F40F4000020F07F4018BF404211F031
:10032000004F41F4000121F07F4118BF494292EA99
:10033000030F3FD0A2F1010241FA03FC10EB0C00C5
:10034000C3F1200301FA03F100F0004302D5494252
:1003500060EB4000B0F5000F13D3B0F1807F06D3FF
:1003600040084FEA310102F10102FE2A51D2B1F1F7
:10037000004F40EBC25008BF20F0010040EA0300EC
:100380007047490040EB000010F4000FA2F1010299
:10039000EDD1B0FA80FCACF1080CB2EB0C0200FA23
:1003A0000CF0AABF00EBC25052421843BCBFD04071
:1003B0001843704792F0000F81F4000106BF80F4EB
:1003C00000000132013BB5E74FEA41037FEA226CAE
:1003D00018BF7FEA236C21D092EA030F04D092F079
:1003E000000F08BF0846704790EA010F1CBF0020AD
:1003F000704712F07F4F04D1400028BF40F000400A
:10040000704712F100723CBF00F50000704700F029
:10041000004343F0FE4040F4000070477FEA226250
:1004200016BF08467FEA23630146420206BF5FEA21
:10043000412390EA010F40F4800070474FF0000321
:1004400004E000BF10F0004348BF40425FEA000CE8
:1004500008BF704743F0964301464FF000001CE090
:1004600050EA010208BF70474FF000030AE000BFE6
:1004700050EA010208BF704711F0004302D5404224
:1004800061EB41015FEA010C02BF84460146002096
:1004900043F0B64308BFA3F18053A3F50003BCFAB1
:1004A0008CF2083AA3EBC25310DB01FA02FC63445E
:1004B00000FA02FCC2F12002BCF1004F20FA02F265
:1004C00043EB020008BF20F00100704702F1200258
:1004D00001FA02FCC2F1200250EA4C0021FA02F2B9
:1004E00043EB020008BF20EADC7070470000000008
:1004F0004FF0FF0C1CEAD0521EBF1CEAD15392EA07
:100500000C0F93EA0C0F6FD01A4480EA010C4002E2
:1005100018BF5FEA41211ED04FF0006343EA50103C
:1005200043EA5111A0FB01310CF00040B1F5000F7E
:100530003EBF490041EAD3715B0040EA010062F12D
:100540007F02FD2A1DD8B3F1004F40EBC25008BF17
:1005500020F00100704790F0000F0CF0004C08BF35
:1005600049024CEA502040EA51207F3AC2BFD2F102
:10057000FF0340EAC250704740F400004FF0000310
:10058000013A5DDC12F1190FDCBF00F0004070474A
:10059000C2F10002410021FA02F1C2F1200200FA88
:1005A00002FC5FEA310040F1000053EA4C0308BF4F
:1005B00020EADC70704792F0000F00F0004C02BFA0
:1005C000400010F4000F013AF9D040EA0C0093F01B
:1005D000000F01F0004C02BF490011F4000F013B75
:1005E000F9D041EA0C018FE70CEAD15392EA0C0FE3
:1005F00018BF93EA0C0F0AD030F0004C18BF31F04E
:10060000004CD8D180EA010000F00040704790F023
:10061000000F17BF90F0004F084691F0000F91F0C7
:10062000004F14D092EA0C0F01D142020FD193EA8D
:100630000C0F03D14B0218BF084608D180EA010015
:1006400000F0004040F0FE4040F40000704740F0F1
:10065000FE4040F4400070474FF0FF0C1CEAD052BF
:100660001EBF1CEAD15392EA0C0F93EA0C0F69D01B
:10067000A2EB030280EA010C49024FEA402037D086
:100680004FF0805343EA111143EA10130CF000407D
:100690008B4238BF5B0042F17D024FF4000C8B426D
:1006A00024BF5B1A40EA0C00B3EB510F24BFA3EB4D
:1006B000510340EA5C00B3EB910F24BFA3EB91031D
:1006C00040EA9C00B3EBD10F24BFA3EBD10340EA77
:1006D000DC001B0118BF5FEA1C1CE0D1FD2A3FF6BD
:1006E00050AF8B4240EBC25008BF20F00100704772
:1006F0000CF0004C4CEA50207F32C2BFD2F1FF0315
:1007000040EAC250704740F400004FF00003013A45
:1007100037E792F0000F00F0004C02BF400010F4E9
:10072000000F013AF9D040EA0C0093F0000F01F0FD
:10073000004C02BF490011F4000F013BF9D041EA1F
:100740000C0195E70CEAD15392EA0C0F08D1420252
:100750007FF47DAF93EA0C0F7FF470AF084676E725
:1007600093EA0C0F04D14B023FF44CAF08466EE7FE
:1007700030F0004C18BF31F0004CCAD130F00042CC
:100780007FF45CAF31F000437FF43CAF5FE700BF24
:100790004FEA4002B2F1FE4F0FD34FF09E03B3EB8E
:1007A00012620DD94FEA002343F0004310F0004FCE
:1007B00023FA02F018BF404270474FF00000704724
:1007C00012F1610F01D1420205D110F0004008BFC3
:1007D0006FF0004070474FF00000704700000000CD
:1007E000704700BFAFF30080AFF30080AFF300802D
:1007F000FEE700BFAFF30080AFF30080AFF30080EF
:1008000072B6304880F30988022383F31488BFF35B
:100810006F8F2D4B2D4A93420BD2D943114421F0B7
:10082000030119444FF05532043B43F8042F8B4227
:10083000FBD1274B83420CD226491A1D891A21F07D
:10084000030119444FF05532043B43F8042F8B4207
:10085000FBD102F0A5FC2049204B99420BD2C843A2
:10086000184420F003001E4C04300023E258CA5004
:1008700004338342FAD11B4B1B4A93420AD2D94319
:10088000114421F0030119440022043B43F8042FD2
:100890008B42FBD1154D164CFFF7A2FFAC4204D2A0
:1008A00054F8043B9847AC42FAD3124D124CFFF770
:1008B0007FFCAC4204D254F8043B9847AC42FAD3D4
:1008C000FFF796FF00080020000000200004002031
:1008D0000004002003080020000800200008002079
:1008E000508B000800080020B4170020AC0100085D
:1008F000AC010008AC010008AC010008AFF30080B7
:10090000FEE700BFAFF30080AFF30080AFF30080DD
:10091000034BEFF309821A60EFF309839D46FEE76C
:1009200000080020AFF30080AFF30080AFF3008039
:1009300072B6FEE7AFF30080AFF30080AFF3008044
:1009400000F09EFA00DF00BFAFF30080AFF300803D
:10095000EFF30983203383F30988002383F311889D
:10096000704700BFAFF30080AFF30080AFF30080AB
:1009700008B5094B094A002199600720DA60102167
:1009800000F08EF80A20202100F08AF80B20802148
:10099000BDE8084000F084B800ED00E00003FA056F
:1009A000202383F31188164B5B6813F4006319D07E
:1009B000EFF309834FF0807243F8042CA3F1200277
:1009C00082F309880F498A690968D07F896892682B
:1009D00058B1914294BF0022012262B10A4A43F801
:1009E000082C704783F311887047914234BF00226E
:1009F0000122002AF2D1054A43F8082C704700BFB3
:100A000000ED00E040090020410900084409000809
:100A100008B5202383F3118800F09AF8002383F3AC
:100A20001188BDE80840FFF7BBBF00BFAFF30080EF
:100A30002DE9F04FC1F80CD0D0F80CD0BDE8F08F04
:100A4000002383F311882846A04700F019FB704764
:100A500020F0030202F1604202F56142F0B4430962
:100A600000F00304D2F80053E400FF269B00A640E8
:100A700003F1604325EA060503F561430127A14020
:100A800000F01F0007FA00F045EA0104C2F8004335
:100A9000C3F88001F0BC1860704700BFAFF300805E
:100AA00020F0030303F1604303F56D4300F00300FE
:100AB00010B4C0009A69FF24844022EA04028140F5
:100AC0000A439A615DF8044B704700BFAFF30080A2
:100AD000024B034A9B699A61FEE700BF4009002070
:100AE000B0620008AFF30080AFF30080AFF3008086
:100AF00000B583B0FFF73CFF00F0DAF800F058F8DB
:100B000000F016FC00F04CFC40210B4800F0C8F946
:100B10000A49012288610277002383F3118862B6B3
:100B20008969074888610093E021064B064800F078
:100B300017FA03B05DF804FB040800204009002008
:100B4000C0620008D10A000850080020AFF30080FE
:100B500070B5134B9B69DA7F0AB1013ADA771A6AEA
:100B6000104C01321A62E36822680133A242E3604A
:100B700014D09668013E966086B91168D5682160E8
:100B8000D66000234C6083F311881069A8472023A6
:100B900083F3118822689368002BEED070BD00BFEC
:100BA0004009002030090020AFF30080AFF300803F
:100BB000044B4FF0FF3100225B601B609960DA60EC
:100BC000704700BF30090020AFF30080AFF3008012
:100BD00070B40C4E3468A5680361A942C26004D9A0
:100BE0002468491BA5688D42FAD363684360B44208
:100BF000046060601860816002D0A368591AA16027
:100C000070BC704730090020AFF30080AFF3008064
:100C1000074A0368934203D0996882680A449A603D
:100C200042681360036800215A60C160704700BFCA
:100C300030090020AFF30080AFF30080AFF30080F5
:100C400010B4202383F31188037F0D2B11D8DFE824
:100C500003F026101007100B101010101010100BBE
:100C6000436A9A6801329A6090E80C001A60026840
:100C700053604FF0FF34002381680C4A44620377CD
:100C8000126893688B42FBD2516841600260002376
:100C90005060086083F311885DF8044B70470023AF
:100CA00083F311885DF8044B704700BF40090020B2
:100CB000034B00225B601B605B611B619A607047A5
:100CC00040090020AFF30080AFF30080AFF3008055
:100CD00000228168084B10B4044602771B689A68AA
:100CE0008A42FBD25A686260236020465C601460CE
:100CF0005DF8044B704700BF40090020AFF300804F
:100D0000084B30B41A6899691468087701251420D3
:100D1000C877636015771C60104630BC9A61FFF796
:100D200087BE00BF40090020AFF30080AFF3008012
:100D300030B54B1C87B0054611D00C4C0C4AA3694A
:100D400001A8FFF745FF2846FFF7DAFF049B13B120
:100D500001A8FFF75DFFA369586A07B030BD034CD7
:100D6000FFF7CEFFA369586A07B030BD40090020E5
:100D7000410C0008AFF30080AFF30080AFF30080B8
:100D8000DFF858C0F0B4DCF818708568BC684162C0
:100D9000A54206460DD80022634602771B689A6872
:100DA0009542FBD95A68726033605E601660F0BC91
:100DB000704700233B7763461B689A689442FBD9CF
:100DC0005A687A6001243B605F6017603477394667
:100DD0003046CCF81860F0BCFFF72ABE400900206E
:100DE0000E4A1068F0B40368956913600127142651
:100DF0000021AC685A60077703469061EE77297747
:100E000000E01B689A68A242FBD25A686A602B60B5
:100E100029465D601560F0BCFFF70ABE400900205E
:100E20000D4A106870B403689569136001260021AB
:100E3000AC685A60067703469061297700E01B682A
:100E40009A68A242FBD85A686A602B6029465D60A6
:100E5000156070BCFFF7ECBD40090020AFF30080C7
:100E6000044B1A689B6992689B689A4200D8704745
:100E7000FFF7D6BF40090020AFF30080AFF300803A
:100E8000034B9B69DB7F0BB1FFF7CABFFFF7A8BF1E
:100E900040090020AFF30080AFF30080AFF3008083
:100EA0002DE9F003114C016465694561002200F1F0
:100EB0002C064FF002094FF0140800F128074FF0FC
:100EC000010C0461816080F81C90606180F81F80D3
:100ED00080F81EC04277C263826302628261286129
:100EE00087620663C662BDE8F003704740090020D0
:100EF0002DE9F00F184D089FD5F814C0DFF85C807D
:100F000024394618C6604FF0020B43504FF0140AC4
:100F10007760002300F12C074FF0010900F1280150
:100F2000C6F820800561826080F81CB080F81FA0A0
:100F300080F81E90C0F814C0026468614377C363F0
:100F4000836303628361CCF810000763C762816228
:100F5000BDE8F00F704700BF40090020410A0008BB
:100F60002DE9F84F1D460446202383F311881C4EBB
:100F7000DFF870B0D6F814E024394718C76000F1E4
:100F80002C03455000F1280C00250A9979604FF098
:100F9000020A4FF014094FF00108C7F820B02946A3
:100FA00082600661C0F814E0026480F81CA080F83A
:100FB0001F9080F81E8045777061C5638563056268
:100FC0008561CEF810000363C362C0F828C0FFF744
:100FD000D7FE2B4683F311882046BDE8F88F00BF6B
:100FE00040090020410A0008AFF30080AFF3008001
:100FF00008B50146202383F311880620FFF798FEE9
:10100000002383F3118808BDAFF30080AFF30080A5
:1010100008B5202383F31188064B1A689B699268F0
:101020009B689A4201D3FFF7DBFE002383F311880C
:1010300008BD00BF40090020AFF30080AFF300807F
:1010400038B50E4B9C692546606255F8280FA842BA
:1010500006D00368A362FFF73BFEA06AA842F8D15E
:10106000637F9B0704D1636922691A612269536116
:101070000E20BDE83840FFF743BE00BF4009002006
:10108000202383F31188FFF7DBBF00BFAFF300809D
:10109000F0B583B017461D460E4600F091F998B1A1
:1010A000202383F31188089B009331463A462B4650
:1010B000FFF71EFF0123437700210446FFF760FE80
:1010C000002383F31188204603B0F0BDAFF3008006
:1010D0004060006081607047AFF30080AFF3008034
:1010E0008268013A002A10B50346826001DB0020C5
:1010F00010BD074CA26950624168516010605A608F
:1011000003200A60FFF7FCFDA369586A10BD00BF09
:1011100040090020AFF30080AFF30080AFF3008000
:1011200008B5202383F31188FFF7DAFF002383F348
:10113000118808BDAFF30080AFF30080AFF30080EB
:1011400003468068421E002A10B49A6003DB002028
:101150005DF8044B704761B1084A926953625C685C
:10116000032082E818005A6022605DF8044BFFF704
:10117000DFBD98604FF0FF30EAE700BF4009002074
:1011800008B5202383F31188FFF7DAFF002383F3E8
:10119000118808BDAFF30080AFF30080AFF300808B
:1011A00083680133002B836000DD704703681A6891
:1011B00002600021506018465962FFF789BD00BFE8
:1011C0000023406000608360704700BFAFF3008081
:1011D00070B52F4B054680689C69002853D0A268E3
:1011E00083689A4206D9037F8260042B32D0052B94
:1011F0001CD09BB12B4603E09968A268914202D3B0
:101200001B689D42F8D15A68626023605C6014607C
:1012100065620420BDE87040FFF772BD90E80C00E5
:101220001A6002685360FFF753FDE3E790E80A0095
:101230001960466A01684B60334602E099688A4249
:1012400002D81B689E42F9D15A6842600360586018
:101250001060CFE790E80A001960466A01684B60A9
:10126000334602E09968914202D31B689E42F9D14D
:101270005A684260036058601060B068A268836872
:101280009342B0D3B6E7E36BEB60AC60E56370BD4F
:1012900040090020AFF30080AFF30080AFF300807F
:1012A00008B5202383F31188FFF792FF002383F30F
:1012B000118808BDAFF30080AFF30080AFF300806A
:1012C000174A38B59069202383F31188C46B2568C9
:1012D000E368C363A5421CD0016C4BB11A689A4203
:1012E00003D09268914238BF1146DB68002BF5D1DC
:1012F0002B68EA6B8160236028465C600021A56052
:10130000E260EC63FFF73CFD002383F31188204685
:1013100038BD0023A360002383F31188204638BD25
:1013200040090020AFF30080AFF30080AFF30080EE
:101330000548064A0649074B20F0070022F007023D
:1013400008601A60704700BFBB1700200000032030
:10135000600900205C090020AFF30080AFF300803B
:10136000202383F31188094A094913680968073063
:1013700020F00700C91A88429BBFC01810600020E7
:101380001846002383F31188704700BF60090020CE
:101390005C090020AFF30080AFF30080AFF3008062
:1013A000044B054A1A6003F1100000229A60DA60CB
:1013B000FFF706BF6809002061130008AFF3008043
:1013C000F8B51E4E002818BF0646073106F110007A
:1013D00021F0070506F10804FFF762FF03E05A68F1
:1013E000954211D91C462368002BF8D1FFF768FFFE
:1013F00033680BB305F108009847E8B10660456013
:1014000000F108042046F8BD05F10801914208D911
:101410001A6822601C4644F8086BFFF751FF20460B
:10142000F8BD6FF00700401B5F1802441868585061
:101430007A6027605D60EDE70024E3E7680900203B
:1014400070B50646A0F1080450F8080C00F1080534
:101450001030FFF725FF2B46AB4204D0A34202D346
:101460001B68AB42FAD11A681AB1944201D31346F1
:10147000F2E756F8041C46F8082C1C6001F108023B
:1014800056F8085CA018A84209D05A6802F1080171
:1014900019448C4211D0BDE87040FFF711BF40687D
:1014A000A25846F8082C0A18083246F8042C5A6844
:1014B00002F1080119448C42EDD156F8040C56F89B
:1014C000081C1960024408325A60BDE87040FFF7FA
:1014D000F7BE00BFAFF30080AFF30080AFF3008032
:1014E00008B500F09DFD074800F052FE00F030F80E
:1014F00000F08EF800F0E4F800F082F8BDE8084053
:1015000001F056BE10640008AFF30080AFF3008016
:101510000C494A68104482424B680CD29A4203D963
:101520000023002BF7D17047984294BF002301237A
:10153000002BF0D1F7E79A42F6D80123002BEAD12D
:10154000F1E700BF001000E0AFF30080AFF30080D0
:1015500001F006B9AFF30080AFF30080AFF3008075
:1015600001220023027043600C30FFF729BE00BF48
:1015700010B52023044683F31188416001F008F977
:1015800002232370002383F3118810BDAFF3008082
:101590002DE9F04184B0984604460A9F0B9E202313
:1015A00083F311884FF0030E0C9B029300250097E4
:1015B00001964346856080F800E001F0A9F9431CDC
:1015C0000CBF052302232370002383F3118804B08A
:1015D000BDE8F081AFF30080AFF30080AFF300808F
:1015E0000C30FFF75DBE00BFAFF30080AFF30080AB
:1015F000FFF766BEAFF30080AFF30080AFF300806B
:10160000704700BFAFF30080AFF30080AFF30080FE
:1016100001F00EBDAFF30080AFF30080AFF30080A8
:10162000002301220270436083600C30FFF7C8BDC5
:1016300010B52023044683F31188416001F020FD9A
:1016400002232370002383F3118810BDAFF30080C1
:1016500008B5202383F3118801F062FD002383F392
:10166000118808BDAFF30080AFF30080AFF30080B6
:1016700008B5202383F3118801F062FD002383F372
:10168000118808BDAFF30080AFF30080AFF3008096
:1016900010B52023044683F311880323037001F05F
:1016A0005FFD054B9B69A3600220FFF729FB002328
:1016B00083F3118810BD00BF40090020AFF3008004
:1016C00001F0A6B9AFF30080AFF30080AFF3008064
:1016D000012300210370416003460522013A59624B
:1016E000996303F10403F9D102814281704700BF7D
:1016F00070B5448944FA01F313F0010601D00120CA
:1017000070BD012303FA01F52C43448101F0E0FB95
:10171000304670BDAFF30080AFF30080AFF30080C0
:1017200070B5048944FA01F313F0010601D00120D9
:1017300070BD012303FA01F52C43048101F0D8FBAD
:10174000304670BDAFF30080AFF30080AFF3008090
:10175000002202210170A0F8642080F8662080F841
:10176000672002814281C260026142618261C2617E
:10177000026280F84C2001F063B900BFAFF3008033
:10178000F8B50023044680F84C3000F15C0201F00B
:10179000E7F963689B68002B2DD02046984750B32B
:1017A000656D94F85C3094F8631094F8622042EA16
:1017B0000122AA423CBF6265154613F0800FE36820
:1017C00040F08A80002D6ED15B69052284F84C20A0
:1017D00020461D70DD605D609D60294601F040FA85
:1017E000202383F3118820462946FFF799FF2B46D3
:1017F00083F31188F8BD94F85C3013F0600711D0C2
:101800002046002101F09CFB2046002101F088FBCE
:1018100063681B6813B1204605219847062384F8A6
:101820004C30F8BD94F85D6003F07F0242EA062672
:10183000B6F5407F00F0038117DDB6F5C06F00F00C
:10184000E5807ADDB6F5106F00F08A8040F602423E
:10185000964200F00781B6F5006FD1D104F167021E
:101860000125A765226565659DE7022E00F0B7801A
:1018700040F3AC80B6F5807F00F09880B6F5817FAC
:10188000BED194F85E20002ABAD194F8602012F0FC
:101890000F0160D01206204600F10C8101F060FBC0
:1018A00094F85C3057E09B69226D0026042184F88F
:1018B0004C102046DA605D601E709E60314601F07B
:1018C0005FF9202383F3118820463146FFF710FF8C
:1018D000334683F31188F8BDC5B15B69226D0026DC
:1018E000012184F84C102046DA605D601E709E6015
:1018F000314601F0B5F9202383F3118820463146A3
:10190000FFF70EFF334683F31188F8BD9B6903226E
:1019100084F84C2020461D70DD605D609D60294686
:1019200001F02EF9202383F3118820462946FFF782
:10193000DFFE2B4683F31188F8BD40F20232964257
:1019400021D0B6F5A06F7FF45BAFB4F85C20B2F5A0
:10195000A06F00F09D80002525656565A56522E7DF
:1019600094F85E2084F86720002A40F082800322E9
:10197000227062681268002AEDD02046022190474A
:1019800094F85C30E7E794F85E20002A7FF438AFE3
:1019900094F8602012F00F01DDD01306204600F10C
:1019A0008E8001F0BDFA94F85C30D4E794F85E20A4
:1019B000012A7FF425AFB4F86420276522F00202E3
:1019C0006765A7653D46A4F86420ECE6002E46D185
:1019D00004F164020225A66522656565E3E694F8D4
:1019E000601011F0800F204601F00F0144D101F08A
:1019F00097F8012844D002287FF402AF324B2365C8
:101A00006065A765054694F85C30CCE6626894F89A
:101A1000610094F86030556894F85F1094F85E2087
:101A200043EA00232046A84700283FF4E9AE436874
:101A3000056865652365A76594F85C30B3E694F89E
:101A40005E20012A7FF4DCAEB4F86420276542F002
:101A500002026765A7653D46A4F86420A3E6012E4F
:101A60007FF4CEAE194A2265022500226565A26583
:101A700099E6042222707CE701F062F80128BAD1CD
:101A8000134B23656665A765354694F85C308AE696
:101A900094F85E3084F86630204601F031F86368CF
:101AA0001B6813B1204601219847032294F85C304B
:101AB000227050E701F064FA94F85C304BE701F0D3
:101AC0003FFA94F85C3046E7F0620008E0620008F4
:101AD00000630008AFF30080AFF30080AFF3008035
:101AE00038B590F84C30022B044643D0052B3AD041
:101AF000012B10D0002101F023FA2046002101F033
:101B00000FFA63681B6813B1204605219847062326
:101B100084F84C3038BD90F8632090F86230456D01
:101B200043EA0223AB42C26805D9138AB5FBF3F13D
:101B300003FB115505B393690025032284F84C205B
:101B400029461D70DD605D609D60204601F018F83B
:101B5000202383F3118820462946FFF7C9FD2B4631
:101B600083F3118838BD836D03B19847002384F84F
:101B70004C3038BDC268DEE7536929461D70DD6010
:101B80005D609D6001F06CF8202383F3118820468E
:101B90002946FFF7C5FD2B4683F31188022384F8FD
:101BA0004C3038BDAFF30080AFF30080AFF300805E
:101BB00038B590F84C30032B04462BD0042B11D0B1
:101BC0002046002101F0BCF92046002101F0A8F9CF
:101BD00063681B6813B1204605219847062384F8E3
:101BE0004C3038BDC3685B690025052280F84C2065
:101BF00029461D70DD605D609D6001F031F8202395
:101C000083F3118820462946FFF78AFD2B4683F38C
:101C1000118838BDC3689B699B68002BD0D1836D48
:101C200003B19847002384F84C3038BDAFF30080EF
:101C300008B5074B074A196801F03D019960136820
:101C40000BB150689847BDE80840FEF7A9BE00BF39
:101C50000060024088090020AFF30080AFF30080ED
:101C6000084B094819688268890901F03D0110B5DF
:101C70008C019C600AB1C0689047BDE81040FEF737
:101C80008FBE00BF0060024088090020AFF30080D3
:101C9000084B094819680269090C01F03D0110B5AB
:101CA0000C049C600AB140699047BDE81040FEF703
:101CB00077BE00BF0060024088090020AFF30080BB
:101CC000084B094819688269890D01F03D0110B57A
:101CD0008C059C600AB1C0699047BDE81040FEF7D2
:101CE0005FBE00BF0060024088090020AFF30080A3
:101CF00008B5074B07485968026A01F03D01D960F1
:101D00000AB1406A9047BDE80840FEF749BE00BFEF
:101D10000060024088090020AFF30080AFF300802C
:101D2000084B09485968826A890901F03D0110B5DC
:101D30008C01DC600AB1C06A9047BDE81040FEF734
:101D40002FBE00BF0060024088090020AFF3008072
:101D5000084B09485968026B090C01F03D0110B5A8
:101D60000C04DC600AB1406B9047BDE81040FEF700
:101D700017BE00BF0060024088090020AFF300805A
:101D8000084B09485968826B890D01F03D0110B577
:101D90008C05DC600AB1C06B9047BDE81040FEF7CF
:101DA000FFBD00BF0060024088090020AFF3008043
:101DB00008B5074B07481968026C01F03D019960AE
:101DC0000AB1406C9047BDE80840FEF7E9BD00BF8E
:101DD0000064024088090020AFF30080AFF3008068
:101DE000084B09481968826C890901F03D0110B55A
:101DF0008C019C600AB1C06C9047BDE81040FEF7B2
:101E0000CFBD00BF0064024088090020AFF300800E
:101E1000084B09481968026D090C01F03D0110B525
:101E20000C049C600AB1406D9047BDE81040FEF77D
:101E3000B7BD00BF0064024088090020AFF30080F6
:101E4000084B09481968826D890D01F03D0110B5F4
:101E50008C059C600AB1C06D9047BDE81040FEF74C
:101E60009FBD00BF0064024088090020AFF30080DE
:101E700008B5074B07485968026E01F03D01D9606B
:101E80000AB1406E9047BDE80840FEF789BD00BF2B
:101E90000064024088090020AFF30080AFF30080A7
:101EA000084B09485968826E890901F03D0110B557
:101EB0008C01DC600AB1C06E9047BDE81040FEF7AF
:101EC0006FBD00BF0064024088090020AFF30080AE
:101ED000084B09485968026F090C01F03D0110B523
:101EE0000C04DC600AB1406F9047BDE81040FEF77B
:101EF00057BD00BF0064024088090020AFF3008096
:101F0000084B09485968826F890D01F03D0110B5F1
:101F10008C05DC600AB1C06F9047BDE81040FEF749
:101F20003FBD00BF0064024088090020AFF300807D
:101F30000C4B30B400220C4D0C4C1A601146134669
:101F4000E8580C33C02B0160A15002F10802F7D110
:101F50000749084A4FF0FF338B6030BCCB60936079
:101F6000D3607047080A0020106300088809002029
:101F70000060024000640240AFF30080AFF30080D5
:101F80002DE9F041214E447A3768012505FA04FC19
:101F90001CEA070F33D11E4D4CEA070705EBC408B6
:101FA00017F0FF0F45F834203760C8F8043004D02C
:101FB000184B1C6B44F400141C6317F47F4F18D1AA
:101FC0000468236823F01F032360236813F00105CE
:101FD000FBD1067A43683D27B74021261F60256064
:101FE00066617AB1807A0901FEF732FD2846BDE8C4
:101FF000F081084B1C6B44F480041C63E0E7284626
:10200000BDE8F0811046BDE8F08100BF080A00205D
:102010008809002000380240AFF30080AFF3008051
:10202000214B22491A69DFF894C000224FF0FF309B
:102030002DE9F00118611A615F6958615A611F6AE0
:102040001B4E1C4D1C4C67F080571F621A620727FD
:10205000D3F8248058625A62C1F804C08A600F60C5
:10206000F16841F08071F160296841F00101296057
:10207000196C41F080511964216841F4807121602C
:10208000196F01F44071B1F5007F03D04FF4803136
:1020900019671A67084B5A6822F400725A60BDE843
:1020A000F001FFF745BF00BF0038024010E000E03C
:1020B000F0ED00E0001000E0007000403F900200F2
:1020C0002B492C4B4FF080504FF4404208641A606B
:1020D0000B6843F001030B600B68254A9807FBD59A
:1020E0001168002301F0F9011160114693608B68BB
:1020F0001F4A13F00C0FFAD1136843F480331360B6
:1021000011460B681A4A9B03FBD5536F43F001033A
:10211000536711464B6F164A9807FBD5164B536011
:102120001368144943F0807313604B685A04FCD55C
:102130000F490B680E4A9B01FBD5104B104991606B
:1021400040F205711960936843F0020393601146F1
:102150008B68074A03F00C03082BF9D1536C43F446
:1021600080435364536E43F480435366704700BF0B
:10217000003802400070004008544007003C024014
:1021800000940838AFF30080AFF30080AFF3008015
:102190002DE9F00FDFF8AC91DFF8AC81D9F830B061
:1021A000DFF8A8C1604F614E614D624C6249634ADD
:1021B00040F2FF1A4BEA0A0BC9F830B0D9F850B018
:1021C0004BEA0A0AC9F850A04368C8F8043083688B
:1021D000C8F80830C368C8F80C300369C8F8143070
:1021E0004369C8F820308369C8F824300368C8F808
:1021F0000030036ACCF80430436ACCF80830836AB4
:10220000CCF80C30C36ACCF81430036BCCF8203017
:10221000436BCCF82430C369CCF80030C36B7B60CF
:10222000036CBB60436CFB60836C7B61C36C3B6283
:10223000036D7B62836B3B60876D7760C76DB760B2
:10224000076EF760476E7761876E3762C76E776299
:10225000476D3760466F6E60866FAE60C66FEE602A
:10226000D0F880606E61D0F884602E62D0F888600B
:102270006E62066F2E60D0F890506560D0F8945072
:10228000A560D0F89850E560D0F89C506561D0F812
:10229000A0502562D0F8A4506562D0F88C5025601B
:1022A000D0F8AC404C60D0F8B0408C60D0F8B4406E
:1022B000CC60D0F8B8404C61D0F8BC400C62D0F88B
:1022C000C0404C62D0F8A8400C60D0F8C8105160F3
:1022D000D0F8CC109160D0F8D010D160D0F8D410E4
:1022E0005161D0F8D8101162D0F8DC105162D0F8EA
:1022F000C4101160124BD0F8E4205A60D0F8E820E6
:102300009A60D0F8EC20DA60D0F8F0205A61D0F86A
:10231000F4201A62D0F8F8205A62D0F8E0201A604F
:10232000BDE8F00F704700BF00080240000C0240FB
:10233000001002400014024000180240001C02403D
:102340000020024000380240000002400004024029
:102350002DE9F00F002302F00307C2F38006C2F359
:10236000C105C2F341144FF00F09C2F3C3124FF07D
:10237000010A38E0D0F820B02BEA0C0C4CEA08082F
:10238000C0F82080D0F804C00AFA03F82CEA080C40
:102390004CEA060CC0F804C04FF0030B4FEA430CA4
:1023A000D0F808800BFA0CFC6FEA0C0C0CEA080859
:1023B00048EA0508C0F80880D0F80C800CEA080844
:1023C00048EA0408C0F80C80D0F800800CEA080C39
:1023D0004CEA070CC0F800C049081AD07600AD00DE
:1023E000A400BF00013303F0070C4FEA8C0C11F07E
:1023F000010F02FA0CF809FA0CFCEDD0072BB9D941
:10240000D0F824B02BEA0C0C4CEA0808C0F8248061
:10241000B8E7BDE8F00F7047AFF30080AFF300807E
:1024200010B4436B046B4FF4004122681980002103
:10243000198099809982136823F01F031360136831
:10244000D907FCD4C16A207A63680A683D2404FA7B
:1024500000F01860136823F01F0313601368DB0794
:10246000FCD40A7A4B685DF8044B3D2101FA02F274
:102470001A607047AFF30080AFF30080AFF30080C5
:1024800038B50546202383F31188C4694CB1FFF7A2
:10249000C7FF00224FF0FF33EA6120466362FEF778
:1024A00017FC002383F3118838BD00BFAFF3008011
:1024B00011F00C0F38B50546446B14D1296B0A682E
:1024C000136823F01F0313601368DB07FCD40A7A38
:1024D0004B683D2101FA02F21A60A3889BB243F4D3
:1024E0000073A38038BDFEF723FAE7E7AFF300805F
:1024F00011F00C0F38B50546446B2ED1E86A02681E
:10250000136823F01F031360136813F00101FBD15C
:10251000027A43683D2000FA02F21A60A38823F48D
:1025200080531B041B0CA380238823F480631B04AB
:102530001B0C238023889BB243F400732380202349
:1025400083F31188EB6923B1E96118465962FEF7FC
:10255000BFFB002383F3118838BDFEF7E9F9CDE70F
:10256000404A414938B5546B238BA58AADB245EA40
:10257000034323F07F438B425ED021D807398B423F
:102580004ED001318B4213D1A388D26A23F4007359
:102590001B0412681B0CA380136843F00103136033
:1025A000A3889BB243F48053A3805368012B52D974
:1025B00015F00A0F18BF238BBDE83840FEF7F0B9BD
:1025C0002A498B421FD002318B42F1D1D36A1B685A
:1025D0005968002935D1A38823F400731B041B0C10
:1025E000A38023889BB243F400732380202383F3CA
:1025F0001188D06918B14162D161FEF769FB0023EF
:1026000083F31188D4E7A388126B23F400731B04AF
:1026100012681B0CA380136843F001031360C7E723
:10262000138C1A0A0BD003F0010343F0F00302F0FD
:1026300006021A432282BBE7138CC3F347032382AB
:10264000B6E72388118C9BB243F4A06341F00101EB
:1026500011842380B0E7238823F480631B041B0CC0
:102660002380A5E70C0A0020080003008200070071
:102670003748F8B5446B066BA18A326889B201F419
:102680005F4383F47F4383F0FF03A382136823F047
:102690001F0313601368DF07FCD4377AC56A7368B9
:1026A0002A683D26BE401E60136823F01F03136096
:1026B000136813F00103FBD12E7A6A683D25B540FB
:1026C0001560CD0548BF01238A05836044BF43F0F0
:1026D000020383604F050DD5A28822F40072120414
:1026E000120CA280228892B243F0040342F40072DA
:1026F000228083600E0544BF43F0080383604D04CD
:1027000044BF43F020038360CC0444BF43F0100374
:1027100083600A0404D433B9BDE8F840FEF740B939
:1027200043F040038360202383F31188C069084B82
:1027300030B16FF0010242620022DA61FEF7C8FA9E
:10274000002383F31188BDE8F840FEF729B900BFE4
:102750000C0A0020AFF30080AFF30080AFF30080DD
:1027600010B5074C2046FEF7FBFE064B064A626397
:10277000002103F11802E161E362226310BD00BF92
:102780000C0A002028630008005C0040AFF30080C2
:10279000037840F256422DE9F047012B826240F265
:1027A000164204464262456B51D02A46E16A236BC9
:1027B000D1F80090D3F800A061684D4E48680F7AB8
:1027C00005F110034FF4004800244FF4106CC9F8D1
:1027D0000830CAF80830A5F800802C80A5F804C09D
:1027E000938823F03F031B041B0C938093889BB2B8
:1027F00043F02A03B042938020DD3E4B984207DC31
:10280000022F6AD0032F5BD048F6FF740D23138488
:1028100094830978138802299BB24BD0032946D0B0
:10282000012907D013802B889BB243F001032B8032
:10283000BDE8F08723F00A039BB2F3E72E4C40007B
:1028400094FBF0F42B23C4F30B041384E0E72B4B2D
:102850009842AAD12A4EC06A316A2A4A41F400013C
:1028600000233162052133622346FFF789FB264AA4
:10287000206B05212346FFF783FB336C43F40003F1
:10288000336448205021FEF7E3F850214920FEF739
:10289000DFF8616AA36A626B41F0C06143F0C06314
:1028A00041F4403143F440336162A3627EE743F078
:1028B0000A03B7E723F008039BB243F00203B1E732
:1028C00000EB80000C4C00EB800094FBF0F46FEA0E
:1028D00084446FEA9444A4B298E7074C00EB4000AC
:1028E00094FBF0F46FEA44446FEA5444A4B28DE7D9
:1028F000A0860100801A060080DE80020C0A0020FB
:1029000000380240F1240008B1240008AFF3008031
:102910002DE9F04987B08046109D446B681C8B46BA
:1029200017461E4605D001A82946364A4346FEF7FB
:102930004FF9002383F31188D8F82C10D8F83020F1
:1029400008681268D8F82410C8F808304FEA4B0B12
:10295000D8F82830A8F820B01360D7600F9B5660D5
:1029600001600E99C160436002E0002383F3118887
:10297000228B12F0020F4FF0200302D12288920521
:102980000BD583F31188691CEFD0049A002AECD18F
:102990004FF0FF3007B0BDE8F08983F311880135AF
:1029A0001DD0049B002BF3D0A388174D9BB243F49A
:1029B0000073A3802288AB6992B242F480722280B5
:1029C0000220C8F81C30FEF79BF9049B13B101A844
:1029D000FEF71EF9AB69586A07B0BDE8F089A38815
:1029E000094D9BB243F40073A3802288AB6992B275
:1029F00042F4807222800220C8F81C30FEF780F971
:102A0000E8E700BF8124000840090020AFF3008000
:102A100010B5064C2046FEF75BFE054B054AA36643
:102A20000023E266A367E36710BD00BF480A0020E9
:102A300000000440D0630008AFF30080AFF30080D3
:102A4000F8B5846E202307462361226912F0200521
:102A5000FBD10C20FEF75CFDFB6E9E682A46FF2131
:102A60004FF0006504EB42130132B242C3F8005943
:102A7000C3F8005BC3F80819C3F8081BF2D94FF07C
:102A8000FF324FF00113C4F81828C4F81C38FB6E4D
:102A90001A683A671B686362BA6E10231361136980
:102AA00013F01005FBD10C20FEF732FDD4F80038EE
:102AB000104A114823F4FE63C4F80038A36943F4B4
:102AC000402343F010030921A361C4F81018C4F88F
:102AD0001418F860C4F8105BC4F8002BC4F810593F
:102AE000C4F800293B6F03F1100243F480133A67E6
:102AF000A362F8BD40800010E0630008AFF30080DF
:102B0000836E90F86610D3F8002822F4FE6242EA41
:102B10000112C3F800287047AFF30080AFF30080C4
:102B20005831836E49015B5813F4004004D013F40C
:102B3000001F0CBF02200120704700BFAFF30080D0
:102B40004831836E49015B5813F4004004D013F4FC
:102B5000001F0CBF02200120704700BFAFF30080B0
:102B600000EB8101CB681B6A19685B6853601160D8
:102B7000704700BFAFF30080AFF30080AFF3008079
:102B800000EB810330B4DC68A2695368136131B98A
:102B9000402B04D940255560094B3F2502E05D1EBE
:102BA00043F0C043628A806EAC18B4FBF2F200EBD3
:102BB000411143EAC242C1F8102B30BC704700BF3C
:102BC00040000060AFF30080AFF30080AFF30080FF
:102BD000F8B5876E07EB41130546D3F8084BC3F8E9
:102BE000084B22070E4603D5D7F814381B0718D414
:102BF000E20715D5D7F81438DB0711D505EB8603A6
:102C0000DB689A6951681069814210D36989DB6871
:102C10000122B24021EA02026A81314628469847E1
:102C2000F8BD00EB8103DB685B689847E0E7411A79
:102C300000245160946028463146FFF7A1FF20230D
:102C400083F31188AB6E03EB46162346D6F8002BB0
:102C500042F08062C6F8002B83F31188F8BD00BFF4
:102C600000EB810330B4DC68626953681361A3B17F
:102C700069B15D1E228A806EAC18B4FBF2F200EBE3
:102C8000411143EAC243C1F8103930BC7047402BB0
:102C9000EFD9402353603F25ECE7836E03EB4111EE
:102CA0004FF40023C1F8103930BC7047AFF30080F7
:102CB0002DE9F041866E06EB41130446D3F808591E
:102CC000C3F80859EB070F4603D5D6F81038DA07D2
:102CD0001FD42B061BD50122D6F8343802FA07F789
:102CE0001F4214D0202383F31188636FD6F8342851
:102CF000E06F3B4322EA07076367C6F8347818B1F0
:102D0000FDF7E6FF0023E367002383F31188BDE8A6
:102D1000F08100EB8103DB685A69D2F804E0D2F855
:102D200010C0E6451FD2CEEB0C034FF000085360F5
:102D3000C2F80880FFF794FF202383F31188A26E66
:102D400002EB47130121D3F8000940F00440C3F817
:102D50000009D2F83438B9401943C2F83418434650
:102D600083F31188B5E7B0F808E09B6801228A4038
:102D70002EEA020202819847ABE700BFAFF3008062
:102D800070B54F4EB56E6B69AC691C40E1046C6167
:102D900047D4A20448BFD5F80838230704D5736880
:102DA000DB680BB146489847E00610D5202383F333
:102DB0001188AB69F06F424E23F01003AB6118B17C
:102DC000FDF786FF0023F367002383F31188610377
:102DD000D5F818580BD5EA074ED4AB0752D46E0776
:102DE00056D428075AD4E9065ED4AA0662D423032F
:102DF0000BD5EE0327D4AC032BD468032FD42903BF
:102E000033D4EA0218D4AB0203D4BDE87040FDF716
:102E1000C7BD2B480521FFF7DBFEBDE87040FDF77D
:102E2000BFBD3046FEF794FC73681B68002BB0D022
:102E3000304600219847ACE721480421FFF7C8FE3F
:102E4000AB02E2D5E5E71E480021FFF7C1FEAC0367
:102E5000D3D51B480121FFF7BBFE6803CFD5022164
:102E60001748FFF7B5FE2903CBD515480321FFF717
:102E7000AFFEEA02C7D5DFE711480021FFF718FFD0
:102E8000AB07ACD50E480121FFF712FF6E07A8D59E
:102E90000B480221FFF70CFF2807A4D5032108489F
:102EA000FFF706FFE906A0D505480421FFF700FF5C
:102EB000AA069CD502480521FFF7FAFE97E700BF56
:102EC000480A0020AFF30080AFF30080AFF300802A
:102ED000836E03EB4111D1F8003B43F08063C1F8EE
:102EE000003B7047AFF30080AFF30080AFF300808A
:102EF000836E03EB411210B4D2F8004944F004444D
:102F0000C2F80049D3F834285DF8044B012000FAD8
:102F100001F11143C3F83418704700BFAFF30080CC
:102F2000836E03EB4111D1F8003B43F40013C1F869
:102F3000003B7047AFF30080AFF30080AFF3008039
:102F4000836E03EB4111D1F8003943F40013C1F84B
:102F500000397047AFF30080AFF30080AFF300801B
:102F6000836E03EB4111D1F8003B23F40013C1F849
:102F7000003B7047AFF30080AFF30080AFF30080F9
:102F8000836E03EB4111D1F8003923F40013C1F82B
:102F900000397047AFF30080AFF30080AFF30080DB
:102FA00011F00C0F00D17047FDF7C2BCAFF30080E9
:102FB00011F00C0F38B5044637D1606A0268136807
:102FC00023F01F0313601368D907FCD4057A216A24
:102FD00043680A683D20A8401860136823F01F0367
:102FE00013601368DB07FCD46368087A4A681B68BF
:102FF0003D2181401160ABB10422227020469847E8
:103000002378042B0ED0202383F31188A3682BB1DF
:103010000022A26018465A62FDF75AFE002383F38D
:10302000118838BD02232370EDE7FDF781FCC4E76A
:1030300010B50A4C0A4B4FF6FF7220461A80FEF775
:10304000EFFA084B08480949094AE06103F10C000E
:1030500023626062A162E26210BD00BF380C0020F2
:10306000340C002094630008005001401600010455
:1030700046000104AFF30080AFF30080AFF300809F
:103080000378012B10B504461ED0C3696268A06A9C
:103090005289E16A20F4F04021F4F04112F4006F0B
:1030A0001CBF40F4205041F42051A062E16242F480
:1030B00041720020072118801A8099801A8892B2E4
:1030C00042F040021A8010BD0F4B984209D0216A8D
:1030D000626AE3690868116803F10C0282608A6021
:1030E000D4E70A4A006A0A212346FEF749FF084A44
:1030F000606A23460A21FEF743FF064B5A6C42F4EE
:1031000080125A64E3E700BF380C0020B12F00089A
:10311000A12F000800380240AFF30080AFF3008019
:1031200043681A895B68012101FA02F292B25A835C
:10313000704700BFAFF30080AFF30080AFF30080B3
:1031400043681A895B68012101FA02F292B21A837C
:10315000704700BFAFF30080AFF30080AFF3008093
:1031600070B4436A046AC56A24681B68806A094EA1
:10317000E66045F4806561602060DA6059601D603A
:10318000226842F0010222601A6842F001021A60CD
:1031900070BC7047680C0020AFF30080AFF3008074
:1031A000FEF78EBFAFF30080AFF30080AFF3008077
:1031B000704700BFAFF30080AFF30080AFF3008033
:1031C00008B50A4B1A7802B108BD01221A7000F046
:1031D0000FF801F035FB01F023FC00F081F800F05E
:1031E00017FBBDE8084001F0D3BC00BF6A0C00200B
:1031F00008B5054B9B6903B108BDFEF771F9BDE841
:103200000840FDF775BC00BF40090020AFF3008007
:10321000034678B1421C01D1FDF7EABE4FF47A7043
:1032200000FB03F0044A0138A2FB003080090130A2
:10323000FDF7DEBEFDF7ECBED34D6210AFF30080AC
:10324000C2609142A8BF1146FDF742BFAFF30080B4
:1032500008B50B4679B14A1C03D1FDF761FF012087
:1032600008BD4FF47A7101FB03F1064A0139A2FB54
:10327000013189090131FDF783FF013018BF0120B9
:1032800008BD00BFD34D6210AFF30080AFF30080E4
:1032900008B5202383F311888168C368994201DA55
:1032A000FDF77EFFFDF7DCFD002383F3118808BDE9
:1032B00030B4029D38B119B1029530BCFDF750BE53
:1032C000084630BC7047002908BF4FF4807130BCFD
:1032D000FDF7DEBEAFF30080AFF30080AFF30080F8
:1032E000704700BFAFF30080AFF30080AFF3008002
:1032F0002DE9F047DFF89080D8F80040064689466F
:10330000002C36D000270088BA4665682468B5428C
:103310002D8808BF0AF1010A854208BF0137002C39
:10332000F3D100207168FEF74BF8044620B300216A
:10333000726802F06DFFB568666035B14946524665
:103340003B462046A8470546C0B1D8F800300E4A93
:103350005BB10E4B1B681C60F36820461BB198479D
:103360002046BDE8F087BDE8F087084B14601C607C
:10337000F2E72746A246D4E7BDE8F0872046FEF7ED
:103380005FF82846BDE8F087700C00206C0C002028
:103390000A4B1B6810B46BB1002401E01B684BB1F1
:1033A0005A6812888242F9D18C4203D01B680134DA
:1033B000002BF5D118465DF8044B7047700C0020C7
:1033C00051B10B6833B15A681288824202D01B682F
:1033D000002BF8D118467047014B1B68F2E700BF7D
:1033E000700C0020AFF30080AFF30080AFF30080DB
:1033F00070B582B006460D46054C186D01933146F6
:10340000134600942A4600F01BFF02B070BD00BFB7
:10341000F13F0008AFF30080AFF30080AFF300800E
:1034200070B582B006460D46054C186D01933146C5
:10343000134600942A4600F003FF02B070BD00BF9F
:10344000D1400008AFF30080AFF30080AFF30080FD
:10345000038FB0F8402010B519B2044610B288426C
:1034600003DAA3872287A4F84030B4F93220B4F9F4
:103470003A309A4220DCB4F936209A421CDD218E83
:10348000B4F938300AB29342B8BF2187A18EB8BFD1
:103490001346B4F9402008B282420EDA9A420BDB9E
:1034A000204602F095FB238FB4F9401001339BB204
:1034B0001AB291422387F3DA10BD4A1E92B2A4F8E1
:1034C000402012B2EAE700BFAFF30080AFF3008004
:1034D000438FB0F8422010B519B2044610B28842AA
:1034E00003DAE3876287A4F84230B4F93020B4F9F4
:1034F00038309A4220DCB4F934209A421CDD618EC7
:10350000B4F93A300AB29342B8BF6187E18EB8BFCE
:103510001346B4F9422008B282420EDA9A420BDB1B
:10352000204602F055FB638FB4F9421001339BB281
:103530001AB291426387F3DA10BD4A1E92B2A4F820
:10354000422012B2EAE700BFAFF30080AFF3008081
:1035500038B5002100F1200503774277C183044686
:103560002846FDF72DFE2846FDF79AFE204602F07C
:103570006FFB0446FDF7A4FE204638BDAFF3008084
:1035800010B5054C2368834200D010BD6720002190
:10359000FFF7FEFE206010BD780C0020AFF3008026
:1035A000B0F90800704700BFAFF30080AFF30080B0
:1035B000B0F90A00704700BFAFF30080AFF300809E
:1035C000F8B5044620300D461F461646FDF768FE46
:1035D000B4F93030A4F84870AB42258766870BDC1D
:1035E000B4F93430AB4207DDB4F93230B34203DC16
:1035F000B4F93630B34203DCBDE8F840FDF760BEF5
:10360000204602F0E5FAF7E7AFF30080AFF3008061
:103610002DE9F04F83B004462030BDF93050BDF89D
:10362000348001920E461F46FDF73AFE019AA4F837
:103630004880AA4226876287A4F84070A4F84250C6
:1036400000F0A880BE4200F0A98056DDF71BAA4218
:103650001FFA87FA4FF6FF7756DCAD1AADB20FFAB4
:103660008AFB0FFA85F9CB454FF0010856DB4FEA8C
:1036700049091FFA8AFA1FFA89F9CAEB0905ADB29E
:10368000CAEB050ABBF1000F1FFA8AFAADB22FDBB5
:10369000314600260BE0638F01364344638733B223
:1036A000554439449B45ADB2218721DB218FB4F9C4
:1036B00030200BB29A4211DCB4F934209A420DDD6D
:1036C000B4F93220B4F93A309A4207DCB4F9362022
:1036D0009A4203DD204602F07BFA218F2A04DAD5D4
:1036E000013633B24D4439449B45ADB22187DDDA12
:1036F00003B0BDE8F04FFDF7E3BDBF1BAA421FFAC0
:1037000087FA4FF00107A8DD551BADB20FFA8AFB0F
:103710000FFA85F9CB454FF6FF78A8DA4FEA4B0B45
:10372000ADB21FFA8BFBC5EB0B039BB25D1BB9F16E
:10373000000F1FFA85FA9DB2DADB314600260CE055
:10374000238F554442443B44ADB262872387013600
:1037500033B29945CCDB218F628FB4F9303009B296
:103760008B4210DCB4F934308B4210B20BDDB4F96B
:103770003230834207DCB4F93630834203DD204621
:1037800002F026FA628F2B04DAD55D444244ADB2D2
:103790006287DCE72046FFF75BFEA9E72046FFF7DC
:1037A00097FEA5E7AFF30080AFF30080AFF3008092
:1037B00038B5044620300D46FDF772FDB4F90A0015
:1037C000A4F848500025A842658719DDB4F90820FF
:1037D000002A25870DDD204602F0FAF9238FB4F97F
:1037E000082001339BB219B28A422387F3DCB4F973
:1037F0000A00638F01339BB219B288426387E7DC0A
:10380000BDE83840FDF75CBDAFF30080AFF300804A
:1038100010B500210D48FFF76BFD4FF47A70FFF7EC
:10382000F7FC67200021FFF7CBFD044650B120468E
:103830000021FFF7BDFF21466720FFF7C1FD0446C9
:103840000028F4D1024B01221A7010BD608A0008D2
:10385000740C0020AFF30080AFF30080AFF3008062
:103860002DE9F047044620300D46BDF82470BDF91F
:1038700020A090469946FDF713FD268EA4F84870C7
:1038800037B2BD422587A4F83A80A4F83C90A4F84A
:103890003EA054DAC6EB09032B449BB2A3872687CC
:1038A000B4F832900FFA89F2904544DAC9EB0A0A6B
:1038B000D0441FFA88FAA4F83EA0A4F83A90A08E4B
:1038C00019B205B207EB010CAC4503DD831B9BB2BB
:1038D000A38719B2E08E02FA8AFA05B2AA45C4BFDC
:1038E000C9EB0000E087002921DDE18F08B2002844
:1038F0001DDD49440FFA81F8334490459DB214DD33
:103900002DB2BD4209DD204602F062F9238F01335A
:103910009BB21AB295422387F5DC638F2687013369
:103920009BB21AB290456387EBDCA4F83A90BDE8ED
:10393000F047FDF7C5BCC1460FFA88F2BFE72E4637
:103940004B462FB2ACE700BFAFF30080AFF300806F
:103950002DE9F8430D460446203016461F46BDF9B2
:103960002080FDF79DFC002D2ADB002E23DB002F9D
:103970001DDDB8F1000F1ADD23891AB2954216DA5F
:10398000618908B2864212DA2F44B044BFB21FFAEE
:1039900088F80FFA87F90FFA88FC4A45A8BF3B461A
:1039A0006045A8BF414625866686A386E186BDE8B8
:1039B000F843FDF785BCB0440FFA88F80026D6E737
:1039C0002F443FB20025D0E7AFF30080AFF3008073
:1039D0002DE9F04782B0B0F90A20B0F90830009222
:1039E00000210A460646FFF7B3FF30460021FFF7E5
:1039F000DFFE294B1B7833B1284B1A68002A41D0CF
:103A000002B0BDE8F087B6F90830002B1D46B8BFFC
:103A100003F13F05C5F38F15002D37D02AB2C2EB55
:103A2000C261C2EB0272ADB249011201B6F90A904D
:103A30001B4C0B44914403EBD37309EBD979C3F3CB
:103A40004F0AC9F34F0904F180081F27E088218835
:103A50006288A388019700FB05F000B205FB01A175
:103A600005FB029203FB05F3009009B212B21BB2F0
:103A700008343046FFF7F4FE4445E7D3074B1A6895
:103A8000002ABDD11E6002B0BDE8F08701256FF0AD
:103A90000F026FF01F01C9E7740C0020780C0020A2
:103AA00010650008AFF30080AFF30080AFF3008033
:103AB0002DE9F04F85B004469EB220309A468BB275
:103AC0000D461746BDF838800093FDF7E9FB009BD3
:103AD0006787991BF2182187A4F84020A4F8488032
:103AE00020460093BFB2FFF7B3FCB4F9301025872E
:103AF000F219C6F1040B92B2A9421FFA8BFB62873E
:103B0000009B1DDCB4F93410A94209DDB4F9320080
:103B100012B2904204DCB4F93600904200F3978070
:103B2000BA1B92B225876287A94209DDB4F9321027
:103B300012B2914204DCB4F93610914200F397803E
:103B4000012236E0A4F83AE0A4F838C0A4F8401006
:103B5000019200930291CDF80CC0FFF779FCDDF8DB
:103B60000CC00299A4F84010B81B6087A4F838C0B4
:103B70002046FFF76DFC019A009B12B2013E013511
:103B8000B6B2CAEB020A0BF1050BAAB20BEB4A0B59
:103B900011B20FFA86FAC6EB030903EB060851458A
:103BA0001FFA8BFB1FFA89F91FFA88F837DA1FFA18
:103BB0008AF695B2C6EB030906EB0308E9191FFA6A
:103BC00089F91FFA88F86187A4F83890A4F8408032
:103BD000204601920093FFF73BFC791B618720464A
:103BE000A4F83890A4F84080FFF732FC009B019ABB
:103BF000C5EB030CE9181BF4004F1FFA8CFC89B2CB
:103C000006EB070E20469DD00BF1030B0BEB450B8B
:103C10000135AAB211B251451FFA8BFBC7DB95B231
:103C2000EB1963872046A4F83890A4F840807F1BE6
:103C3000FFF70EFC6787A4F83890A4F84080204670
:103C4000FFF706FC05B0BDE8F04FFDF739BB204695
:103C500001F0BEFF218E2587BA1B09B292B28D42B8
:103C60006287009BFFF66CAFB4F934105CE7204626
:103C7000009301F0ADFF009B62E700BFAFF300804F
:103C80002DE9F84F002B164604460D46BDF92820B5
:103C9000BDF82C8040DD002A3EDD4F1E1F441FFA78
:103CA00086F94A443FB220301FFA82FAFDF7F8FA4B
:103CB0007B1B0AF1FF3B022B0FFA8BFBA4F8488019
:103CC0002587668716DDA4F840702046FFF7C0FB05
:103CD0005E450BD02587A4F83AB0A4F84070204682
:103CE000C6EB0B06FFF7B4FB022E17DCBDE8F84F5E
:103CF000FDF7E6BAA4F842B02046FFF7E9FBBD4263
:103D0000F4D027876687A4F842B02046FFF7E0FB8F
:103D1000BDE8F84FFDF7D4BABDE8F88F09F1010905
:103D2000AAF1020A0FFA89F90FFA8AFA2046A4F8D2
:103D30003A90A4F842A02587FFF7CAFBA4F83A906E
:103D4000A4F842A027872046FFF7C2FBCEE700BFBA
:103D50002DE9F04385B004460C9DBDF83490203029
:103D600016461F468846FDF79BFA0022A4F85880A5
:103D7000394613462565A4F85A60284600F0E0FA53
:103D80001FFA88F84044A4F85C006B7AA4F85490B9
:103D90003344A4F85E302B7BDFF824E0009708EB77
:103DA000030100230394324609B228460193CDF85B
:103DB00008E000F0F5FA05B0BDE8F043FDF780BA81
:103DC000F1330008AFF30080AFF30080AFF3008061
:103DD0002DE9F04F8BB00D469B461599169B099126
:103DE0000446A9B2203004939DF86430BDF8607099
:103DF000BDF950A0BDF85C90089390460791FDF77F
:103E00004FFA0799268EA4F848701FFA8BF31FFA11
:103E100088F21944059209B206910599A4F85670E2
:103E20001FFA8AF2114437B20498A4F85E10BD421A
:103E30000699A4F83CB0A4F83EA020652587A4F814
:103E40005850A4F83A80A4F85A80A4F85490A4F8E2
:103E50005C1074DA079D2687A91B0B449BB2A387CD
:103E6000B4F832900FFA89F1884563DA059DA4F819
:103E70003A90C9EB0500024495B2E587A08E1AB2CC
:103E80000FFA80FC07EB0208E04503DD831B9BB2C1
:103E9000A3871AB2E08E01FA85F50FFA80FC65451A
:103EA000C4BFC9EB0000E087002A3EDDE28F10B2FC
:103EB00000283ADD4A440FFA82F8334441459DB266
:103EC00014DA2DB2BD4209DD204601F081FE238FB8
:103ED00001339BB21AB295422387F5DC638F2687A4
:103EE00001339BB21AB290456387EBDC089BA4F8C0
:103EF0003A90012B2ED0022B25D1049D09996B7A83
:103F000000910AF1010A0599174D0394C3EB0A03C6
:103F100003EBD37301EB630200260699089B049818
:103F2000019612B2029500F03BFA0BB0BDE8F04FDB
:103F3000FDF7C6B9C1460FFA88F155469EE72E46F1
:103F40002FB25B468CE7049D07992B7B0B441BB279
:103F50000693D2E70BF1010B079D0BEBDB7B05EB27
:103F60006B031BB20693C8E721340008AFF300804F
:103F700010B4002204461346084621465DF8044B5F
:103F800000F0DEB9AFF30080AFF30080AFF3008044
:103F9000F0B400F4FC67531C01F4FC6C00F47845A9
:103FA000FF10C2F5807207FB03F792B2C60001F45E
:103FB00078444FEAEC0C2D120CFB027005FB03F564
:103FC000F6B22412C90004FB025406FB03F34009B5
:103FD000C9B204F4784400F4FC6001FB02322043CF
:103FE000C2F3C4221043F0BC704700BFAFF300809F
:103FF0002DE9F843089CB4F95A608E420D46984664
:1040000050DCB4F95E308B424CDDB4F95830811885
:10401000994247DDB4F85C703EB2B04242DA984251
:1040200005DAD21A50FA82F2D2B2991818468E42A4
:10403000BCBFC0EB0702D2B2B8F1FF0F34D0002AE8
:1040400041D002F1FF39461C56FA89F90FFA89F975
:1040500000E0461C208765872046B4F8547001F0C4
:10406000CFFD424601463846FFF792FFB4F9307063
:10407000B4F93810A4F848008F4210DCB4F9343099
:104080008B420CDDB4F93220B4F93A309A4206DCA6
:10409000B4F936209A4202DD204601F099FD30B293
:1040A0008145D6D1BDE8F883431E1A44B4F8543094
:1040B0002087A4F840206587A4F848302046BDE852
:1040C000F843FFF7C5B9BDE8F88300BFAFF3008040
:1040D0002DE9F041069CB4F95A708F420D46064610
:1040E000904635DCB4F95E208A4231DDB4F95820BF
:1040F00000EB080191422BDDB4F85C7038B28642C7
:1041000026DA964208DAC2EB080856FA88F85FFA0F
:1041100088F802EB080116468842BCBFC6EB0708C8
:104120005FFA88F8FF2B15D01A46B4F85400B4F89B
:104130005610FFF72DFFA4F84800731E98442687F9
:10414000A4F8408065872046BDE8F041FFF780B9BC
:10415000BDE8F081B4F85430A4F84830EDE700BF72
:1041600003780A7883B12A2B06D1AAB14378934207
:104170000FD04A780131F8E7934213D143784A7857
:1041800001300131002BEED1D2F1010038BF002007
:10419000704701301346E5E74078D0F1010038BFA1
:1041A0000020704700207047AFF30080AFF300801D
:1041B00070B5064600F06CF8044610B90AE02468B1
:1041C00044B1656830462968FFF7CAFF0028F6D079
:1041D000284670BD00F05CF8044638B900F058F885
:1041E0004568284670BD2468002CF7D065683046C5
:1041F0006968FFF7B5FF0028F5D0284670BD00BFFD
:1042000090F90F20002A00DB704700228261FDF741
:1042100017B900BFAFF30080AFF30080AFF30080A9
:104220000268137813B1531C036013781846704763
:104230000368013B03607047AFF30080AFF3008079
:104240002DE9F04383B087690A9E0B9D0096019586
:10425000044689469046B84738B9237C00960195B4
:1042600049464246A5692046A84703B0BDE8F08309
:1042700010B543690446984718B920466369217C04
:10428000984710BDAFF30080AFF30080AFF300801C
:1042900000487047F0750008AFF30080AFF300806E
:1042A000F8B50E466D2117460546FFF7E1FF2021C0
:1042B000C4002846FFF7DCFF2B7B384482B29B1BEF
:1042C0001344A4B21BB293FBF4F0224404FB103459
:1042D000101B00B2F8BD00BFAFF30080AFF3008049
:1042E0002DE9F04F83B0057BDDF83490DDF83880A0
:1042F000BDF8304002AE4D1B83468A461746ADB22C
:1043000046F8043D04E0C847284485B2013CA4B205
:10431000304684B1FFF784FF8646BEF1090F394667
:1043200028B272464346EED1024651465846FFF740
:10433000B7FF0546EAE703B0BDE8F08FAFF30080B2
:10434000F0B583B002AF4FF6FF74064647F8041D80
:10435000002A18BF1446002506E0FFF789FF013C3C
:104360002844A4B285B29CB1019B1B7838467BB12E
:10437000FFF756FF0346092B01463046EDD12AB21E
:104380000021FFF78DFF013CA4B20546002CEBD1C4
:1043900028B203B0F0BD00BFAFF30080AFF30080E0
:1043A0002DE9F04F89B008ADBDF84C409846129BFE
:1043B00045F80C3D00264FF6FF7C07468B4691469C
:1043C000B44208BF6446B246059A12780AF1010366
:1043D00028461FFA83FA72B1FFF722FF00F07F022E
:1043E000202A06D00D2804D00938C0B2012888BF81
:1043F0005646A245E8D1B8F1000F08D0B8F1010F38
:1044000063D0B8F1020F10D009B0BDE8F08F149D51
:104410000195159D00960295384659464A46129BCD
:10442000FFF75EFF09B0BDE8F08F129D0695002EE4
:10443000EAD00024013406A8FFF7F2FEA3B29E42A0
:10444000F8D83D7B1FFA8BFBC5EB0B051FFA85FAED
:10445000002410E0FFF70CFFC0EB0A001FFA80FAFF
:1044600042460FFA8AF04946159B149DA84701342D
:10447000A3B29E42C8D906A8FFF7DAFE069B0793AF
:1044800007A8FFF7CDFE8046B8F1090F0146384670
:10449000E0D16D21FFF7ECFE20214FEAC00838463D
:1044A000FFF7E6FE3B7BC0EB0A0085B25B445B1B7B
:1044B0001FFA88F81BB293FBF8F2C8EB050508FB5E
:1044C00012331D441FFA85FAD1E712993246384655
:1044D0000023FFF735FF149D019500EBD070ABEB87
:1044E0006001159D009609B2029538464A46129B16
:1044F000FFF7F6FE88E700BFAFF30080AFF3008060
:104500002DE9F04385884788044628B20E463BB221
:104510004118994283B0904619DBE1887D1B2369DD
:1045200000935FFA85F909B24A464346E568A84711
:104530002588E1886788A580C9EB0606B6B228B24F
:10454000013182193BB289B29A42E180E6DA56B172
:104550002369B4F906100093F2B24346E568A84710
:10456000A3881E44A68003B0BDE8F083AFF30080AB
:1045700030B480B10B6800211C88A24201F1010116
:10458000C4EB020502D35C88A54206D3814203F145
:104590000C03F1D3002030BC70475A68986832F899
:1045A000153030BC18447047AFF30080AFF3008083
:1045B0000F2A2DE9F04107460D463FD9102A56D063
:1045C000172A39D990F828301733934253DAFB2A47
:1045D0003DD90127043AD6B2002106E001317B1E05
:1045E000C9B27608DBB207B31F46F307F6D4002939
:1045F00038D1AB88688801339BB21AB201B28A42C3
:10460000AB800CDB2C88EA88201A80B203449BB272
:104610001CB201328C4292B2F8DAAB80EA807B1E87
:1046200000217608DBB2002FDED129B12846FF2217
:10463000BDE8F041FFF764BFBDE8F08102EB021274
:104640000846D2B20121BDE8F041FFF759BFF32A75
:1046500074D8E32A74D8C32A74D8842A34BF0627AE
:104660000527B7E72846FF22FFF74AFFC1E70B8976
:10467000CB80BDE8F081436A183AD2B203EB420125
:1046800033F812604B889B1B9BB2002BD4D0013BAC
:10469000721C12FA83F83B6A9B5D13F0C0021AD1B8
:1046A000AA88698813449BB21AB20CB2A242AB80AA
:1046B0000CDB2888EA88411A88B203449BB219B2FD
:1046C00001328C4292B2F8DDAB80EA800136464579
:1046D000E1D1BDE8F081402A0FD0802A26D0C02A3F
:1046E000F4D103F00F02C3F3011102EB0212D2B2B4
:1046F00001312846FFF704FFE8E7AA88698803F03C
:104700003F03013302EB83139BB21AB208B2824219
:10471000AB80DBDB2C88EA88611A8CB223449BB225
:1047200019B20132884292B2F8DDCDE703F03F01C1
:1047300001312846FF22FFF7E3FEC7E7022749E7DA
:10474000032747E7042745E7AFF30080AFF3008076
:104750002DE9F04390F8098090F808E087B004460E
:1047600090440D468E4491460E9F0F9EADF80A2050
:104770001FFA88F890F82A00ADF804501A4604F1A0
:104780002C01ADF80850ADF806E0ADF80C800497A8
:104790000596FFF7EDFE00283CD00FFA88F30FFADC
:1047A00089F190F800800646022707E0204601A91B
:1047B000FFF7FEFEBDF90A10BDF90C30994228DA68
:1047C00094F8280016F8012F17309042EEDA94F88A
:1047D000290017308242E9DC183AD2B217FB027581
:1047E000606A30F805C030F81250C5EB0C0292B286
:1047F000002AE3D002F1FF396B1C13FA89F9236A0E
:1048000020465A5D01A90135FFF7D2FE4D45F6D18C
:10481000D0E7404607B0BDE8F08300BFAFF30080AB
:1048200008B503460A4690F82A0003F12C01FFF769
:104830009FFE00B1007808BDAFF30080AFF30080A9
:104840000148FCF7BDBC00BF7C0E0020AFF3008028
:1048500038B505460C4628B31348FCF721FDFCB1DA
:10486000236813B11A8A510712D4104A10349442A3
:104870000AD26368AB420FD00C4A02E06368AB42D5
:104880000AD010349442F9D3FCF71AFD002038BD49
:1048900022F005021A82E8E7FCF712FD204638BD37
:1048A000034CE6E738BD00BF7C0E00207C0E0020E4
:1048B0007C0C0020AFF30080AFF30080AFF30080EA
:1048C00010B504460948FCF7EBFC23681A8AD107A7
:1048D00007D442F005021A82FCF7F2FC20681C3073
:1048E00010BDFCF7EDFC002010BD00BF7C0E0020C9
:1048F00010B504461448FCF7D3FC206842695AB14D
:10490000028A22F00D020282FCF7DAFC21684B6970
:1049100088691C31984710BD028A22F0040189B2CF
:104920009307018206D441F008010182BDE81040DE
:10493000FCF7C6BC22F00E020282FEF7A9FCBDE81D
:104940001040FCF7BDBC00BF7C0E0020AFF3008020
:104950002DE9F0472E4F2F4E4FF0000A4FF0FF3950
:10496000FCF756FB49462C48FEF772FC4FF0000856
:104970002A48FC68FCF794FC3568002D3ED02B4695
:104980004FF0FF390AE0824501D8844210D2001B63
:10499000814528BF81465B699D4231D01A8A510703
:1049A00006D49107F7D4A2459868ECD98245ECD893
:1049B000D00715D5D96899B1900707D498680C44E9
:1049C000241AB4FBF1F401FB0401996022F0040203
:1049D0001A8293E83000FCF773FC2846A047C7E72B
:1049E0005A6999698A420FD091619969AB424A61CB
:1049F00004BF5A693260A3F81080EAE74FF0FF392C
:104A0000FCF75EFCA246ABE7C6F80080F3E700BF08
:104A10003009002070170020741700208C0E002031
:104A200008B5054800210122FEF70AFC0348BDE84D
:104A30000840FCF7C5BB00BF741700208C0E002097
:104A40002DE9F043384E83B0044638480A9D894624
:104A500090461F46FCF724FC306800285AD0238A71
:104A600019072FD43248C4F80090C4F80480002FEE
:104A70003BD14FF008036A1C23823BD04FF47A727B
:104A800002FB05F22B4E2C49238AC968013AA6FB8A
:104A90000252920901321144E2600268A160244985
:104AA000002A30D09169A16162614C6162699461B0
:104AB0009B0702D42148FEF7EBFB03B0BDE8F043AF
:104AC000FCF7FEBB6369A269194893421FD09A6143
:104AD000A16902684B61A24204BF63690360C4F824
:104AE0000090C4F80480002FC3D04FF009036A1C63
:104AF0002382C3D1238A0268E56043F00203238244
:104B00000B49002ACED10C60A4616461D0E7002378
:104B10000360A8E700900A4B0A484FF40D617F221A
:104B2000FEF7C6FB30609AE79C0E00208C0E00203A
:104B300070170020D34D6210300900207417002038
:104B400051490008A00E0020AFF30080AFF30080B1
:104B5000008AC0F3C0007047AFF30080AFF300805D
:104B600010B504460648FCF79BFB238A054843F032
:104B700004032382FEF78CFBBDE81040FCF7A0BBCA
:104B80008C0E002074170020AFF30080AFF300807C
:104B900000F096BDAFF30080AFF30080AFF300806C
:104BA000F8B50E4615460446FFF78AFE0346002870
:104BB00044D0E88810F0F00115D1E2689AB9A268F3
:104BC000170711D4B5F900C0B6F90870BC450BD170
:104BD000B5F902C0B6F90A70BC4505D1F78947405E
:104BE0003F0701D1F8BDA268C70724D4570703D4F3
:104BF0000029F7D0D207F5D57268E1685788B5F873
:104C000000C0F2696E88AD88DD8017F0010F40F2B8
:104C1000011740EA010008BF4FF480770021188196
:104C2000A3F802C01F809E802046E160DA60BDE8E4
:104C3000F840FFF75DBE9707DAD5DDE7EA88E3685D
:104C400002F0F00243F400431343E360F8BD00BFF9
:104C50002DE9F041028A436882B022F040020282CC
:104C60001B6B694604469847B8B16568BDF80610E5
:104C70006B8801F00F02DE07ADF8062010D498050E
:104C8000268A2AD5E189BDF806204A40B1071ED4FC
:104C9000D00722D546F00206268202B0BDE8F08198
:104CA000B5F91660B5F914008642B5F91860BDF97A
:104CB000040000F3D980864240F3F580B5F91A204C
:104CC0008242EADB01F00E01ADF80610D7E7D70704
:104CD00026F00206E0D5B6B22682F1060DD5BDF863
:104CE0000630DA0705D5BDF80010BDF80220218195
:104CF0006281E38102B0BDE8F081DF0504D5BDF833
:104D00000620D00740F1EC80310700F1F080E06927
:104D100050B1FEF745FC0546E069FEF749FC268ADE
:104D2000720700F1C5806568BDF80620B3064CBF68
:104D300005F1220105F11C018B8818B200281ADD4B
:104D4000B4F808C0BDF90070B4F80AE0BDF90280FB
:104D50000FFA8CF03F1A0FFA8EF007FB07F7C0EB43
:104D6000080013FB03F300FB007098423CBFADF852
:104D700000C0ADF802E04B8819B2002917DDF70733
:104D800015D5BDF900E0B4F91200BDF90270B4F90F
:104D90001410C0EB0E0000FB00F0791A13FB03F3B4
:104DA00001FB0101994284BF26F001062682E389B6
:104DB00090B220EA030123EA0003C80744BF42F08F
:104DC0001002ADF8062013F0010005D0BDF8062052
:104DD00042F02002ADF806208F070CD0634A278AE4
:104DE000D268BDF80060BDF80210A26147F0010270
:104DF00022826682A1829E0728D0228AD10725D5E9
:104E00005A4EA169F668711A22F00102B1F5967F37
:104E10002282A1610ED89A0705D5BDF8063043F06D
:104E20008003ADF8063028B1BDF8063043F04003EA
:104E3000ADF806306B88DB0708D5B1F52F7F05D3B9
:104E4000BDF8063043F08003ADF80630002501E0E0
:104E5000FFF7A6FE29464648FFF7FAFC214605461D
:104E60006A460028F4D109E086421CDAB5F91A2016
:104E700082423FF712AF25E7FFF792FE2946204610
:104E8000FFF7E6FC214605466A460028F4D1BDF846
:104E90000000BDF80210BDF80420BDF806302081E6
:104EA0006181A28125E742F00102ADF80620E6E625
:104EB000BDF90030002B55DB9D42DCBF05F1FF350D
:104EC000ADF80050BDF90230002B44DB98423FF7AB
:104ED0002AAF01386568BDF80620ADF8020025E765
:104EE00021896389ADF80010ADF802301EE7BDF9E5
:104EF0000200FBF7A7FA0746BDF90000FBF7A2FA8C
:104F0000216AFBF7F5FA616A80463846FBF7F0FA4A
:104F100001464046FBF7E2F9A16AFBF7DFF9FBF730
:104F200037FC83B218B2ADF80030FBF78BFAE16AB8
:104F3000FBF7DEFA216B80463846FBF7D9FA0146CB
:104F40004046FBF7CBF9616BFBF7C8F9FBF720FC98
:104F5000ADF80200DBE60023ADF802306568BDF86D
:104F60000620E3E60023ADF80030ABE7300900206F
:104F700084170020AFF30080AFF30080AFF3008010
:104F800010B56D200021FEF71BFA044688B1636856
:104F90005B8813F0020F204602D0238A5B0601D5FE
:104FA000FFF756FE21466D20FEF70AFA0446002858
:104FB000EDD110BDAFF30080AFF30080AFF3008000
:104FC0002DE9F04F8346A1B09A48FFF7F1F8109011
:104FD000002800F062839848FFF7EAF81190002853
:104FE00000F06083DBF81C00FEF7DAFA0D90DBF8C6
:104FF0001C00FEF7DDFA002104460D9BDBF81C00C7
:1050000000940A46FEF7A4FCDBF80430BBF810203D
:105010005B8842F010029806ABF8102040F1D7826E
:105020000D9D611E6A1E04EBD47405EBD570002340
:1050300092B289B2641040101293ADF86030ADF8AE
:105040006230ADF8663016930F931593ADF8642077
:10505000ADF868200E92ADF86A101791ADF86E4069
:10506000ADF86C00DBF81C00744C1F21FEF7A0FBB0
:10507000109DDBF81C0002954FF6FF711F220123E3
:105080001E2503910492059300950D9B0194002128
:105090000522FEF79DFEDBF804305B8813F0400F1D
:1050A0004FF000060CBF032704270A960C970B96B7
:1050B0000A9CDBF81C0018AD2B4635F804A02344ED
:1050C0001FFA8AF9B3F80280A9F10F031BB20FFA95
:1050D00088F44FF6FF750993A9F102032246099956
:1050E00000941BB2019509F10F07FEF791FA3FB248
:1050F00009F102011FFA88F8DBF81C00009422462F
:1051000001953B4609B2FEF783FAA8F10F04A8F116
:10511000020324B20FFA8AFA1BB2DBF81C000195D5
:1051200051462246009308F10F065346FEF770FAE7
:1051300036B208F10202DBF81C00019551465346D5
:1051400012B20096FEF764FAA9F1070C4BF6F0458F
:105150000FFA8CFCDBF81C00099900966346324676
:105160000195CDF818C008F1070AFEF751FA099920
:10517000DBF81C0000960FFA8AFA0B46524601959E
:10518000FEF746FADDF818C0DBF81C000999009418
:10519000634622460195FEF73BFAA8F107080999F4
:1051A000DBF81C0000940FFA88F809F107090B4698
:1051B00042460FFA89F90195FEF72AFADBF81C003E
:1051C0000096324649463B460195FEF721FADBF848
:1051D0001C000096524639463B460195FEF718FAE8
:1051E000DBF81C000094494622463B460195FEF739
:1051F0000FFADBF81C00CDF800803B4639460195DC
:105200002246FEF705FABBF80E3003F00103002B2F
:1052100000F0D58100273D463E46F92F4FF014009F
:105220000ED8BBF90820BBF90A30013716441D44DB
:1052300006E000BFF0880008FC8800080889000824
:10524000FDF7E6FFBBF80E3013F00103E5D10E2F9A
:10525000DDD9B5FBF7F5B6FBF7F60A9FDBF81C00C6
:1052600009991CAB0DF1700EBE4422460B9CDE5317
:105270001F230134009301930437AEF802500B94BE
:105280000A97FEF7EDFA0C9DA5423FF611AFBDF966
:105290007020BDF978800792C8EB0200FBF7D2F8C6
:1052A000BDF97630BDF97A5008938246581BFBF75A
:1052B000C9F8BDF974900990C8EB0900FBF7C2F872
:1052C000BDF972C00A90C5EB0C00CDF818C0FBF711
:1052D000B9F809990B905046FBF70AF90E9E0B9905
:1052E000044636B20A980E96FBF702F901462046AC
:1052F000FAF7F2FF0F9F0446B81BFBF7A3F8064628
:1053000031460998FBF7F4F8002107460B98FBF7A4
:10531000EFF801463846FAF7DFFF2146FBF79CF924
:1053200000211390CBF820005046FBF7E1F83146FE
:1053300007460A98FBF7DCF801463846FAF7CCFF37
:105340002146FBF789F91490CBF824004846FBF777
:1053500079F80C902846FBF775F881464046FBF734
:1053600071F8089B80461846FBF76CF849460746DB
:105370000C98FBF7BDF8394605464046FBF7B8F8F0
:1053800001462846FAF7A8FF0F900E98FBF75AF847
:10539000079A0E901046FBF755F8DDF818C0064640
:1053A0006046FBF74FF8314605464846FBF7A0F844
:1053B000294681464046FBF79BF801464846FAF7E6
:1053C0008BFF314680463846FBF792F82946064661
:1053D0000C98FBF78DF801463046FAF77DFF159DD6
:1053E000074628B2FBF72EF80F99FBF781F84146E4
:1053F00005460E98FBF77CF801462846FAF76CFF45
:10540000394605460E98FBF773F801462846FAF729
:1054100065FF2146FBF720F9179E0C90129D0FFAAD
:1054200086F90C9ECBF82860C9EB0500FBF70AF85B
:10543000054629460998FBF75BF8294606460B986E
:10544000FBF756F801463046FAF746FF2146FBF7D0
:1054500003F92946CBF82C0006465046FBF748F8DE
:10546000294682460A98FBF743F801465046FAF768
:1054700033FF2146FBF7F0F81699CBF830000546CC
:1054800008B2FAF7DFFF824651460F98FBF730F873
:105490005146034640460893FBF72AF8089B01460D
:1054A0001846FAF719FF80464846FAF7CBFF01463F
:1054B0003846FBF71DF801464046FAF70FFF214634
:1054C000FBF7CAF8DBF80430CBF834005A885106F1
:1054D00007464CD5BBF81020BDF97E0092064CBFA4
:1054E00003F1220903F11C09FAF7ACFF0446BDF9E8
:1054F0007C00FAF7A7FF01461398FAF7F9FF214657
:1055000080461498FAF7F4FF01464046FAF7E6FEA3
:1055100001460C98FAF7E2FEFBF73AF9BDF96C8008
:1055200003B21846C8EB0308FAF78CFF0146304671
:10553000FAF7DEFF214606462846FAF7D9FF01466C
:105540003046FAF7CBFE01463846FAF7C7FEFBF7BE
:105550001FF9BDF96E20B9F8003000B2841A04FBBF
:1055600004F413FB03F308FB08449C426AD8109828
:10557000FEF746FE1198FEF743FEBBF8103023F00D
:1055800010039BB2DBF80420546B43F00C03ABF820
:1055900010302CB158460BF120011822A0470024EE
:1055A00000255846ABF80E50FFF752FBDBF81C0005
:1055B0002946FEF7FDF8204621B0BDE8F08F142003
:1055C000FDF726FEBBF80E3003F001031FE60D9A2F
:1055D0000D990D9F0D9D002AB8BF0332002C234664
:1055E000B8BFE31C0029B8BF0331002C2046B8BF68
:1055F000E01CC3F38F03C2F38F0205EBD576A7EB54
:10560000A101A4EBA00004EBD47489B280B26510B0
:105610001FB2741016B2ADF86020ADF86230ADF86C
:105620006410ADF86810ADF86630ADF86A001790F8
:10563000ADF86E500E91ADF86C400F961592129722
:1056400016930FE5119DDBF81C00194E02954FF6DD
:10565000E071012228274FF478450D9B04910592B3
:1056600000212322009701960395FEF7B1FB40F637
:10567000B830FDF7CDFD1098FEF7C2FD1198FEF78A
:10568000BFFDBBF8103023F010039BB243F00402BF
:10569000ABF81020002C83D174E70648FEF788FD94
:1056A000109098E40348FEF783FD11909AE400BF40
:1056B000148900082C8B0008AFF30080AFF3008042
:1056C0000448B0F90230002B03DB034B1968FDF7E7
:1056D0000FBE7047C08A0008780C0020AFF300802E
:1056E00010B54368C1615988090782B003D5018AA2
:1056F00041F0200101829B6A11469847044610B987
:10570000204602B010BD0948FFF722FA18B104463E
:10571000204602B010BD19230246009303480449F5
:105720000123FFF78DF9204602B010BD8417002039
:10573000814F0008AFF30080AFF30080AFF300802B
:10574000F8B54368018A5A8841F00401D20604463C
:10575000018218D59B6BDBB118219847C0B1016855
:1057600045688768C668E66221626562A76201696A
:1057700045696368656321635B881B0613D4238ACC
:1057800043F0080323822046BDE8F840FFF760BAE3
:105790002046FFF715FC0028F5D02046FFF710FC47
:1057A0000028F5D1EFE7FBF74BFE238A43F008030F
:1057B0002382E8E7AFF30080AFF30080AFF300800F
:1057C000704700BFAFF30080AFF30080AFF30080FD
:1057D000431C03D001466D20FDF7DABD0048704739
:1057E00084170020AFF30080AFF30080AFF3008098
:1057F000F8B5054601200C46FDF70AFD29466D2047
:10580000FDF7C6FDC8B1038ADB0615D443680789D6
:105810005E8845898189C289C369E36016F0010FFA
:1058200040F2011008BF4FF4807020806780A5808F
:10583000E18022810120F8BD0020F8BDAFF3008097
:1058400018B1038A43F0400303820148FFF788B987
:1058500084170020AFF30080AFF30080AFF3008027
:1058600010B584B001230821002200930293019116
:1058700003920120202100F00BF904460028F8D102
:10588000684600F0EDF80120FBF7B2FB0221082288
:1058900001238DE81E000120202100F0F9F80446C4
:1058A0000028F8D1684600F0DBF803210822042321
:1058B0008DE81E000120202100F0EAF80028F9D12F
:1058C000684600F0CDF80120202100F0E1F8002822
:1058D000F9D1684600F0C4F804200821012240F202
:1058E00031238DE80F000120202100F0D1F800289D
:1058F000F9D1684600F0B4F840F2AB2000F0C0F8EF
:105900000120202100F0C4F80028F9D104B010BD16
:105910002DE9F0411A4B9A6B92B042F001029A6362
:105920000022022304214FF0100C4FF0400E0724F8
:1059300007A800930493059306934FF001080DEB1D
:1059400002034FF4C0774FF400664FF40055029104
:10595000099108920D920F92CDF828C0CDF82CE055
:10596000119301940394CDF81C800C970E9610951A
:1059700000F00EF8FFF774FF12B0BDE8F08100BF31
:1059800000380240AFF30080AFF30080AFF3008037
:105990002DE9F003C168866805694469C369D0F8D8
:1059A0002090476A02680E4335432C43856944EAD8
:1059B0000501194341EA090144683943214302BB07
:1059C000264A836A11609F685D681E68DC6803F17F
:1059D00010000BC8013F3F02013D47EA0515013E9B
:1059E0003543013C45EA0434013844EA00400139BA
:1059F00040EA0151013B41EA03639360BDE8F003D3
:105A0000704749EA0308154C836A48EA070020609A
:105A1000D3F808805E68DF68D3F800C05D69186954
:105A200008F1FF331B02013E920043EA0616013FD4
:105A30000CF1FF3C02F120423F0346EA0C06013D17
:105A4000013847EA055546EA0040C2F84011A56012
:105A5000C2F84801BDE8F003704700BF400100A054
:105A6000011D30B416C90568044B294341EA44219D
:105A7000013A41EA42121A6130BC7047400100A06D
:105A8000024B5A6942EA400058617047400100A049
:105A900010280ED0B0F5807F0ED0B0F5805F0BBF20
:105AA000074B084B5868986908400B1A58425841F0
:105AB0007047054B5868F7E7044B5868F4E700BF98
:105AC000A00000A0400100A0600000A0800000A095
:105AD0004A893A4BB1F90EC02DE9F00FB1F908A08F
