:020000040800F2
:1000000000040020DDB40008A5B50008A9B500086B
:10001000A5B50008A5B50008A5B50008A5B5000858
:10002000A5B50008A5B50008A5B50008E5B5000808
:10003000A5B50008A5B50008A5B50008C9B5000814
:10004000A5B50008A5B50008A5B50008A5B5000828
:10005000A5B50008A5B50008A5B50008A5B5000818
:10006000A5B50008A5B50008A5B500082529000814
:1000700065290008A9290008ED290008312A00088F
:10008000712A0008B52A0008A5B50008A5B5000822
:10009000A5B50008A5B50008A5B50008A5B50008D8
:1000A000A5B50008A5B50008A5B50008A5B50008C8
:1000B000A5B50008A5B50008A5B50008A5B50008B8
:1000C000A5B50008A5B50008A5B50008A5B50008A8
:1000D000A5B50008A5B50008A5B50008A5B5000898
:1000E000A5B50008A5B50008A5B50008A5B5000888
:1000F000A5B50008A5B50008A5B50008F92A0008AF
:10010000A5B50008A5B50008A5B50008A5B5000867
:10011000A5B50008A5B50008A5B50008A5B5000857
:100120003D2B00087D2B0008C12B0008052C000882
:10013000492C0008A5B50008A5B50008A5B500081C
:10014000A5B50008A5B50008A5B50008A5B5000827
:10015000892C0008CD2C0008112D0008A5B5000839
:1001600095150008A9150008A5B50008A5B5000853
:10017000A5B500085D040008A5B50008A5B50008F0
:10018000A5B50008A5B50008A5B50008A5B50008E7
:10019000A5B50008A5B50008A5B50008A5B50008D7
:0C01A000A5B50008A5B50008A5B500082D
:1001B00080B586B000AF78607B689B6E7B617B69A1
:1001C0005A697B699B6913403B617B693A695A6153
:1001D0003B6903F48053002B0DD0786802F0DCF902
:1001E0007B685B681B68002B05D07B685B681B68BD
:1001F0007868002198473B6903F40053002B02D034
:100200007B69D3F808383B6903F00803002B09D059
:100210007B685B68DB68002B04D07B685B68DB680D
:10022000786898473B6903F01003002B0ED0202319
:1002300083F311887B699B6923F010027B699A61C3
:10024000786801F0D9FB002383F311887B69D3F828
:100250001838FB603B6903F48023002B35D0FB6822
:1002600003F00103002B03D07868002101F09EFF0A
:10027000FB6803F00203002B03D07868012101F032
:1002800095FFFB6803F00403002B03D0786802217C
:1002900001F08CFFFB6803F00803002B03D07868A3
:1002A000032101F083FFFB6803F01003002B03D050
:1002B0007868042101F07AFFFB6803F02003002B2B
:1002C00003D07868052101F071FF3B6903F4002336
:1002D000002B35D0FB6803F48033002B03D0786803
:1002E000002101F0FDFFFB6803F40033002B03D075
:1002F0007868012101F0F4FFFB6803F48023002BF0
:1003000003D07868022101F0EBFFFB6803F40023BF
:10031000002B03D07868032101F0E2FFFB6803F4AF
:100320008013002B03D07868042101F0D9FFFB680B
:1003300003F40013002B03D07868052101F0D0FFEF
:100340001837BD4680BD00BF80B588B000AF78606B
:100350007B68BB61BB699B6E7B613E4B9B693E4A80
:100360009A61202383F31188BB691B78012B09D084
:10037000BB695B6F002B12D17B695B6903F01003D3
:10038000002B0CD17B699B6943F010027B699A6159
:10039000304B9A69BB69DA6702200BF0DBFB002364
:1003A00083F311880023FB774AE0B86901F0B6FDBA
:1003B0007B695B6903F01003002BF6D1FB7F012200
:1003C00002FA03F33B61BB695A6F3B691340002B90
:1003D00033D0202383F311887B699B6823F00102CB
:1003E0007B699A60BB695A6F3B69DB431A40BB6902
:1003F0005A67002383F31188FB7FB869194601F01F
:100400002DFE0346FB73202383F311887B699B68D1
:1004100043F001027B699A60FB7B83F00103DBB24E
:10042000002B07D07B69D3F834283B691A437B69DA
:10043000C3F83428002383F31188FB7F0133FB7753
:10044000FA7FBB69DB6E9B689A42B1D9202383F3A4
:10045000118889E730300020B4CB010880B500AFA7
:100460000248FFF7A5FE0BF0EBF880BDD83800205E
:1004700080B500AF074804F013FA064B00229A67D4
:10048000044B0022DA67034B034A9A66014B034A86
:10049000DA6680BDD838002000000440A8CB0108EF
:1004A00080B586B002AF78607B689B6EFB607B682E
:1004B0001B78012B78D17B683D4A93421ED13D4A7F
:1004C0003C4B1B6B43F0005313633A4A394B1B6997
:1004D00043F080531361374B00221A61354A354B84
:1004E0001B6B23F080431363324A324B1B6D23F0A6
:1004F000804313654D20E0210BF00EF97B6800224C
:100500005A677B689B6F002B12D17B6803F18002D6
:100510007B68009310464FF4A8710222264B0BF023
:10052000C3FC02467B68DA677B68DA6F7B689A6790
:10053000FB68224ADA60FB68214AC3F80028FB689E
:100540000022C3F8002EFB684FF450229A637868AB
:1005500001F066FAFB6800229A60786801F07EFA82
:10056000FB680022C3F81028FB680022C3F8142897
:10057000FB680022C3F81C287B685B68DB68002BE3
:1005800004D1FB684FF440529A6103E0FB6843F2E8
:1005900008029A61FB684FF0FF325A61FB689B6862
:1005A00043F00102FB689A601037BD4680BD00BF72
:1005B000D8380020003802404903000840140040A9
:1005C0000300200280B584B000AF78607B689B6E2A
:1005D000FB607B681B78012B0FD0786801F03EFA36
:1005E0007B6800225A67FB680022C3F81C28FB685E
:1005F00000229A60FB6800229A631037BD4680BDD6
:1006000090B585B000AF78607B689B6EBB60786802
:10061000002101F0BFFA0023FB6022E0BA68FB680A
:1006200048335B0113444FF000621A60BA68FB68FC
:1006300058335B0113444FF000621A60BA68FB68DC
:100640005B01134403F60813FF221A60BA68FB68C3
:100650005B01134403F60833FF221A60FB68013381
:10066000FB607B68DB6E9A68FB689A42D6D2BB68F7
:100670004FF0FF32C3F81828BB684FF00112C3F8DF
:100680001C28786801F0A0FA7B68DB6E1A68BB68EA
:100690005A62786801F068FABB68D3F8003823F42E
:1006A000FE62BB68C3F80028BB689B6943F4402323
:1006B00043F01003BA689361BB680922C3F810289D
:1006C000BB680922C3F814287B68174ADA60BB6844
:1006D0000022C3F8102B402343F0805343F400431F
:1006E000BA68C2F8003BBB680022C3F81029402357
:1006F00043F0805343F40043BA68C2F80039402302
:100700009B089BB21B041C4640239B089BB2786845
:10071000194601F067FA034644EA0302BB689A628D
:100720001437BD4690BD00BF84CB010880B485B0AE
:1007300000AF78607B689B6EFB60FB68D3F8003885
:1007400023F4FE637A6892F8662012011A43FB686C
:10075000C3F800281437BD465DF8047B704700BF1E
:10076000B0B586B000AF78600B46FB707B689B6EBF
:10077000FB60FB787A6802339B0013445B681B685C
:1007800003F00303032B00F2ED8001A252F823F0E3
:10079000A1070008A7070008AD070008B307000875
:1007A000724B7B6107E0724B7B6104E0714B7B61B4
:1007B00001E0714B7B61FB78FA685B01134403F540
:1007C000316300221A60FB787A6802339B0013447D
:1007D0005B68DB68002B1DD0F878FB787A68023301
:1007E0009B0013445B685B8A1A467B691A43F9686D
:1007F00000F158035B010B441A60FB68D3F81C2816
:10080000FB781033012101FA03F31A43FB68C3F8A4
:100810001C281AE0FB78FA78F968583252010A4429
:10082000126822F40042F96858335B010B441A60E5
:10083000FB68D3F81C28FB781033012101FA03F37D
:10084000DB431A40FB68C3F81C28FB78FA685B019D
:10085000134403F5116300221A60FB787A680233AF
:100860009B0013445B689B68002B54D0FB787A682C
:1008700002339B0013445B681B8A9B089BB23B615D
:10088000FB787A6802339B0013445B689B8B012BD7
:100890000BD9FB787A6802339B0013445B689B8B0F
:1008A0001A463B6902FB03F33B61FB785C1E3B6924
:1008B0001D047868396901F095F9034645EA030299
:1008C000F96804F140039B000B445A60FB78786898
:1008D000194601F05FF9F878FB789B051A467B69A9
:1008E0001A43FB78796802339B000B445B681B8AD0
:1008F0001A43F96800F148035B010B441A60FB6876
:10090000D3F81C28FB78012101FA03F31A43FB6892
:10091000C3F81C2826E0FB78013BFA6840339B00B3
:100920001344164A5A60FB787868194601F032F988
:10093000FB78FA78F968483252010A44126822F4C6
:100940000042F96848335B010B441A60FB68D3F836
:100950001C28FB78012101FA03F3DB431A40FB68F2
:10096000C3F81C281837BD46B0BD00BF008000107A
:10097000008004100080081000800C1000040002A9
:1009800080B582B000AF7860786801F01DF97868B2
:1009900001F064F80837BD4680BD00BF80B485B063
:1009A00000AF78600B46FB707B689A6EFB7858331B
:1009B0005B0113441B68FB60FB6803F40043002BDE
:1009C00001D1002307E0FB6803F40013002B01D0E2
:1009D000012300E0022318461437BD465DF8047B6E
:1009E000704700BF80B485B000AF78600B46FB70E5
:1009F0007B689A6EFB7848335B0113441B68FB608D
:100A0000FB6803F40043002B01D1002307E0FB68DF
:100A100003F40013002B01D0012300E00223184649
:100A20001437BD465DF8047B704700BF80B584B0C5
:100A300000AFF8600B467A60FB72FB7AFA6802330B
:100A40009B0013445B681B6A78681946082219F0FA
:100A500067FA1037BD4680BD80B485B000AF7860BE
:100A60000B46FB70FB787A6802339B0013445B688B
:100A70009B69FB60FB685A68FB681A61FB78002B76
:100A800006D1FB685B68402B02D9FB6840225A60A4
:100A9000FB685A68FB78796802339B000B445B68FB
:100AA0005B8A13445A1EFB78796802339B000B441F
:100AB0005B685B8AB2FBF3F3BB607B68996EFB7883
:100AC000BA68D004FA685268024342F0C0425B013F
:100AD0000B4403F531631A601437BD465DF8047B9F
:100AE000704700BF80B485B000AF78600B46FB70E4
:100AF000FB787A6802339B0013445B685B69FB6098
:100B0000FB685A68FB681A61FB685B68002B0AD1B6
:100B10007B689A6EFB785B01134403F511634FF415
:100B200000221A602BE0FB78002B06D1FB685B6883
:100B3000402B02D9FB6840225A60FB685A68FB7858
:100B4000796802339B000B445B681B8A13445A1E6E
:100B5000FB78796802339B000B445B681B8AB2FB0D
:100B6000F3F3BB607B68996EFB78BA68D004FA68CF
:100B7000526802435B010B4403F511631A6014379A
:100B8000BD465DF8047B704780B483B000AF7860E9
:100B90000B46FB707B68996EFB787A68906EFA78EA
:100BA000583252010244126842F0806258335B01AD
:100BB0000B441A600C37BD465DF8047B704700BFDC
:100BC00080B483B000AF78600B46FB707B68996E91
:100BD000FB787A68906EFA784832520102441268C3
:100BE00042F0044248335B010B441A607B689B6E01
:100BF0007A68926ED2F83418FA78012000FA02F27C
:100C00000A43C3F834280C37BD465DF8047B7047AF
:100C100080B483B000AF78600B46FB707B68996E40
:100C2000FB787A68906EFA78583252010244126862
:100C300042F4001258335B010B441A600C37BD4676
:100C40005DF8047B704700BF80B483B000AF78606C
:100C50000B46FB707B68996EFB787A68906EFA7829
:100C6000483252010244126842F4001248335B01D8
:100C70000B441A600C37BD465DF8047B704700BF1B
:100C800080B483B000AF78600B46FB707B68996ED0
:100C9000FB787A68906EFA785832520102441268F2
:100CA00022F4001258335B010B441A600C37BD4626
:100CB0005DF8047B704700BF80B483B000AF7860FC
:100CC0000B46FB707B68996EFB787A68906EFA78B9
:100CD000483252010244126822F4001248335B0188
:100CE0000B441A600C37BD465DF8047B704700BFAB
:100CF00080B584B000AF786039603B6803F00C03C6
:100D0000002B01D00AF05CFC7B685B6A1B687A6888
:100D1000526A1268126822F01F021A607B685B6ACE
:100D20001B681B6803F00103002BF7D17B685B6A2B
:100D30005B687A68526A127A11463D228A401A60CC
:100D40007B681B6A1B687A68126A1268126822F054
:100D50001F021A607B681B6A1B681B6803F0010393
:100D6000002BF7D17B681B6A5B687A68126A127A7B
:100D700011463D228A401A607B685B681B68002B25
:100D80000FD07B6804221A707B685B681B687868E8
:100D900098477B681B78042B06D17B6802221A7067
:100DA00002E07B6802221A70202383F311887B689B
:100DB0009B68002B0BD07B689B68FB607B680022E4
:100DC0009A60FB6800225A62F8680AF091FE0023DC
:100DD00083F311881037BD4680BD00BF80B582B057
:100DE00000AF786039603B6803F00C03002B01D042
:100DF0000AF0E6FB0837BD4680BD00BF80B500AFF6
:100E0000144B4FF6FF721A80134803F0A1F9124BEE
:100E1000124ADA61104B124A1A620F4B114A5A6297
:100E20000D4B114A9A620C4B104ADA62104803F0DB
:100E30008FF90F4B0F4ADA610D4B0F4A1A620C4BB8
:100E40000E4A5A620A4B0E4A9A62094B0D4ADA62FE
:100E500080BD00BF243B0020C43A00200034014084
:100E600024CB010830CB0108160001084600010818
:100E7000F43A00200050014048CB010854CB01084F
:100E8000160001044600010480B584B000AF78600C
:100E90007B681B78012B49D17B68454A934219D165
:100EA0007B681B6A18460A21424A7B6801F090FF62
:100EB0000346FB737B685B6A18460A213E4A7B68DF
:100EC00001F086FF0346FB733C4A3C4B5B6C43F4EA
:100ED000005353647B683A4A934219D17B681B6A7A
:100EE00018460A21334A7B6801F072FF0346BB7340
:100EF0007B685B6A18460A212F4A7B6801F068FF0D
:100F00000346BB732D4A2D4B5B6C43F48013536433
:100F10007B681B6A1B687A68D2690C329A607B68AE
:100F20005B6A1B687A68D2690C329A607B685B687E
:100F30005B8903F40063002B0CD17B689B6A23F46C
:100F4000F0427B689A627B68DB6A23F4F0427B683C
:100F5000DA620FE07B689B6A23F4F04343F420528B
:100F60007B689A627B68DB6A23F4F04343F4205287
:100F70007B68DA627B68DB6900221A807B68DB6948
:100F80007A685268528942F4417292B21A807B6840
:100F9000DB6907229A807B68DB697A68D2691288EC
:100FA00092B242F0400292B21A801037BD4680BD24
:100FB000C43A0020F10C0008DD0D000800380240A2
:100FC000F43A002080B582B000AF78607B681B786F
:100FD000022B25D17B68DB6900221A807B68DB69E4
:100FE00000229A807B681B6A184601F06BFF7B68C1
:100FF0005B6A184601F066FF7B680B4A934205D195
:101000000A4A0A4B5B6C23F4005353647B68084A1A
:10101000934205D1054A054B5B6C23F4801353645E
:101020000837BD4680BD00BFC43A002000380240EA
:10103000F43A002080B483B000AF78607B685B68CE
:101040005B687A6852681289114601228A4092B21E
:101050005A830C37BD465DF8047B704780B483B07B
:1010600000AF78607B685B685B687A685268128959
:10107000114601228A4092B21A830C37BD465DF8B0
:10108000047B704780B483B000AF786039607B68C0
:101090001B6A1B681A4ADA607B681B6A1B683A681D
:1010A0005A607B681B6A1B687A68926A1A607B6860
:1010B0005B6A1B68134ADA607B685B6A1B683A6884
:1010C0005A607B685B6A1B687A68D26A1A607B68C0
:1010D0001B6A1B687A68126A1268126842F0010281
:1010E0001A607B685B6A1B687A68526A12681268C9
:1010F00042F001021A600C37BD465DF8047B704770
:10110000263B0020243B002080B485B000AFF8606F
:10111000B9607A603B60FB681B6A1B683A68DA60FA
:10112000FB681B6A1B68BA685A60FB681B6A1B680D
:10113000FA68926A42F480621A60FB685B6A1B6814
:101140007A68DA60FB685B6A1B68BA685A60FB6899
:101150005B6A1B68FA68D26A42F480621A60FB68B4
:101160001B6A1B68FA68126A1268126842F0010270
:101170001A60FB685B6A1B68FA68526A1268126838
:1011800042F001021A601437BD465DF8047B7047D7
:1011900080B485B000AFF860B9607A60FB681B6A04
:1011A0001B681C4ADA60FB681B6A1B68BA685A60D5
:1011B000FB681B6A1B68FA68926A1A60FB685B6AC4
:1011C0001B687A68DA60FB685B6A1B68BA685A60F9
:1011D000FB685B6A1B68FA68D26A42F480621A6034
:1011E000FB681B6A1B68FA68126A1268126842F090
:1011F00001021A60FB685B6A1B68FA68526A12682F
:10120000126842F001021A601437BD465DF8047B93
:10121000704700BF263B002080B485B000AFF86067
:10122000B9607A60FB681B6A1B687A68DA60FB68E1
:101230001B6A1B68BA685A60FB681B6A1B68FA68FD
:10124000926A42F480621A60FB685B6A1B68134A08
:10125000DA60FB685B6A1B68BA685A60FB685B6AA5
:101260001B68FA68D26A1A60FB681B6A1B68FA6816
:10127000126A1268126842F001021A60FB685B6A27
:101280001B68FA68526A1268126842F001021A601A
:101290001437BD465DF8047B704700BF243B002037
:1012A00080B483B000AF78600B467B807B68DB69DD
:1012B0007A889A817B68DB691B899BB203F0010302
:1012C000002BF7D07B68DB699B899BB218460C37F3
:1012D000BD465DF8047B704780B500AF01F09AFE13
:1012E00080BD00BF80B400AFBD465DF8047B704791
:1012F00080B584B000AF786039607B685B6BFB6061
:101300003B6803F00C03002B01D00AF059F97B680D
:10131000DB6A1B687A68D26A1268126822F01F02C0
:101320001A607B68DB6A1B681B6803F00103002BF3
:10133000F7D17B68DB6A5B687A68D26A127A1146F9
:101340003D228A401A60FB689B889BB223F480533D
:101350009AB2FB689A80FB681B889BB223F4806377
:101360009AB2FB681A80FB681B889BB243F4007337
:101370009AB2FB681A80202383F311887B68DB69AB
:10138000002B0BD07B68DB69BB607B680022DA61D5
:10139000BB6800225A62B8680AF0AAFB002383F3F4
:1013A00011881037BD4680BD80B584B000AF78602D
:1013B00039607B685B6BFB603B6803F00C03002BC0
:1013C00001D00AF0FDF87B681B6B1B687A68126B12
:1013D0001268126822F01F021A607B681B6B1B6880
:1013E0001B6803F00103002BF7D17B681B6B5B6864
:1013F0007A68126B127A11463D228A401A60FB68A5
:101400009B889BB243F400739AB2FB689A801037B2
:10141000BD4680BD80B584B000AF78600B467B8050
:101420007B681B6B1B687A68126B1268126822F06B
:101430001F021A607B681B6B1B681B6803F00103AB
:10144000002BF7D17B681B6B5B687A68126B127A92
:1014500011463D228A401A607B68DB6A1B687A6805
:10146000D26A1268126822F01F021A607B68DB6A77
:101470001B681B6803F00103002BF7D17B68DB6A54
:101480005B687A68D26A127A11463D228A401A60F5
:101490007B6800229A607B8803F48073002B05D060
:1014A0007B689B6843F001027B689A607B8803F449
:1014B0000073002B05D07B689B6843F002027B68B9
:1014C0009A607B8803F48063002B19D07B685B6B88
:1014D0007A68526B928892B222F4007292B29A8029
:1014E0007B685B6B7A68526B128892B242F400722E
:1014F00092B21A807B689B6843F004027B689A6012
:101500007B8803F40063002B05D07B689B6843F065
:1015100008027B689A607B8803F48043002B05D027
:101520007B689B6843F020027B689A607B8803F4A9
:101530008053002B05D07B689B6843F010027B68CA
:101540009A607B881BB2002B05DA7B689B6843F0AE
:1015500040027B689A607B689B68002B16D0202332
:1015600083F311887B68DB69002B0CD07B68DB6917
:10157000FB607B680022DA61FB686FF001025A624F
:10158000F8680AF0B5FA002383F311881037BD46D6
:1015900080BD00BF80B500AF024802F005F80AF038
:1015A0004FF880BDA038002080B582B000AF0C4B52
:1015B0005B6B9B8AFB800A4B5A6BFB8823F40353BB
:1015C00023F03F039BB2DB439BB29382FB8804482A
:1015D0001946FFF71FFF0AF033F80837BD4680BDF4
:1015E000A038002080B500AF074802F0DFF8064BB6
:1015F0000022DA61044B054A5A63034B044ADA625B
:10160000014B044A1A6380BDA0380020005C0040F2
:10161000DCCA0108F4CA010880B584B000AF786064
:101620007B685B6BFB607B6840F256429A627B682A
:1016300040F216425A627B681B78012B3ED17B68D0
:10164000324A93423AD1324A314B1B6A43F4000387
:1016500013622F4B00221A627B68DB6A1846052151
:101660002C4A7B6801F0B4FB0346FB727B681B6B62
:1016700018460521284A7B6801F0AAFB0346FB7245
:10168000234A234B1B6C43F400031364482050216E
:101690000AF042F8492050210AF03EF87B685B6A64
:1016A00043F0C06343F440337A6853627B689B6ABB
:1016B00043F0C06343F440337A6893627B68DB6A2B
:1016C0001B68FA6810329A607B681B6B1B68FA68AB
:1016D00010329A60FB684FF400421A80FB680022C7
:1016E0001A80FB684FF410629A80786801F0A4FEBB
:1016F000786801F029FFFB681B889BB243F0010367
:101700009AB2FB681A801037BD4680BDA038002011
:1017100000380240F1120008A913000880B582B019
:1017200000AF78607B681B78012B1CD0786801F0D3
:101730000DFE7B681B6B184601F0C4FB7B68DB6AFF
:10174000184601F0BFFB7B68084A93420BD1482042
:101750000AF020F849200AF01DF8054A044B1B6CDA
:1017600023F4000313640837BD4680BDA038002071
:101770000038024080B58AB000AFF8607A603B6004
:101780000B467B81FB685B6B7B623B6BB3F1FF3F7E
:1017900007D007F110031846396B3C4AFB680AF082
:1017A000F1F8002383F311887B895B009BB243F03F
:1017B00001039BB29AB2FB681A84FB6800229A600C
:1017C000FB68DB6A1B68FA68526A1A60FB68DB6AAE
:1017D0001B687A68DA60FB68DB6A1B683A685A60E3
:1017E0000FE0202383F311883B6BB3F1FF3F05D05B
:1017F000FB69002B02D14FF0FF3343E0002383F35A
:1018000011887B6A1B8B9BB203F00203002BE8D18B
:101810007B6A1B889BB203F40073002BE1D1202369
:1018200083F311883B6BB3F1FF3F05D0FB69002BBD
:1018300002D14FF0FF3325E07B6A9B889BB243F4D3
:1018400000739AB27B6A9A807B6A1B889BB243F4CE
:10185000A0639AB27B6A1A800D4B9A69FB68DA61C1
:1018600002200AF077F93B6BB3F1FF3F07D0FB6929
:10187000002B04D007F1100318460AF0CDF8044BF2
:101880009B695B6A18462837BD4680BDF133000866
:101890003030002080B58AB000AFF8607A603B60DD
:1018A0000B467B81FB685B6B7B62BB6BB3F1FF3FDD
:1018B00007D007F110031846B96B424AFB680AF0DB
:1018C00061F8002383F311887B895B009AB2FB687F
:1018D0001A84FB6800229A60FB681B6B1B68FA681D
:1018E000926A1A60FB681B6B1B687A68DA60FB6897
:1018F0001B6B1B683A685A60FB68DB6A1B68FA68F6
:10190000526A1A60FB68DB6A1B683A6BDA60FB6834
:10191000DB6A1B687A6B5A600FE0202383F311881F
:10192000BB6BB3F1FF3F05D0FB69002B02D14FF039
:10193000FF3343E0002383F311887B6A1B8B9BB248
:1019400003F00203002BE8D17B6A1B889BB203F4EF
:101950000073002BE1D1202383F31188BB6BB3F11B
:10196000FF3F05D0FB69002B02D14FF0FF3325E08C
:101970007B6A9B889BB243F400739AB27B6A9A801D
:101980007B6A1B889BB243F480739AB27B6A1A808D
:101990000D4B9A69FB68DA6102200AF0DBF8BB6B39
:1019A000B3F1FF3F07D0FB69002B04D007F1100310
:1019B00018460AF031F8044B9B695B6A18462837D1
:1019C000BD4680BDF13300083030002080B485B0C2
:1019D00000AF78607B681B68FB60FB681A687B68F7
:1019E0001A607B681B687A685A60FB68184614376F
:1019F000BD465DF8047B704780B582B000AF78606B
:101A00007B68DB6F002B07D07B68DB6F18460AF022
:101A10006FF87B680022DA670837BD4680BD00BFDB
:101A200080B584B000AF78607B689B6EFB6020203F
:101A300001F09EFEFB6801221A61FB681B6903F03E
:101A40000103002BF9D10C2001F092FEFB681B6909
:101A5000002BFBDA1037BD4680BD00BF80B485B0D7
:101A600000AF78607B689B6EBB600023FB606AE020
:101A7000BA68FB6848335B0113441B68002B13DA18
:101A8000BA68FB6848335B0113444FF080421A6028
:101A9000BA68FB685B01134403F608131B6803F084
:101AA0000203002BF4D006E0BA68FB6848335B0100
:101AB000134400221A60BA68FB685B01134403F503
:101AC000116300221A60BA68FB685B01134403F6D5
:101AD00008134FF0FF321A60BA68FB6858335B0195
:101AE00013441B68002B13DABA68FB6858335B0198
:101AF00013444FF080421A60BA68FB685B011344DC
:101B000003F608331B6803F01003002BF4D006E043
:101B1000BA68FB6858335B01134400221A60BA6844
:101B2000FB685B01134403F5316300221A60BA6855
:101B3000FB685B01134403F608334FF0FF321A6071
:101B4000FB680133FB607B68DB6E9A68FB689A4236
:101B50008ED2BB684FF00112C3F81C281437BD4663
:101B60005DF8047B704700BF80B584B000AF78603B
:101B70007B689B6EFB60FB6810221A61FB681B6927
:101B800003F01003002BF9D10C2001F0F1FD103708
:101B9000BD4680BD80B584B000AF786039607B6899
:101BA0009B6EFB603B689B0143F02002FB681A615F
:101BB000FB681B6903F02003002BF9D10C2001F016
:101BC000D7FD1037BD4680BD80B483B000AF7860CC
:101BD0007B68DB6E1A687B681A670C37BD465DF858
:101BE000047B704780B485B000AF786039607B6853
:101BF0001B6FFB607B681A6F3B681A447B681A672F
:101C0000FB6818461437BD465DF8047B704700BF7B
:101C100080B485B000AFF860B9607A6009E0BB6855
:101C20001A68FB681A60BB680433BB607B68013BC1
:101C30007B607B68002BF2D1BB6818461437BD4629
:101C40005DF8047B704700BF80B584B000AFF860DA
:101C5000B9607A607B6803339B08F868B9681A46F4
:101C6000FFF7D6FF1037BD4680BD00BF80B58AB0F4
:101C700000AFF860B9607A607B687B625FE07B6A86
:101C80009B08BB61BB69002B2AD0BB681B691A4645
:101C9000BB689B69D31A002B00DA03339B107B616E
:101CA000BA697B69934228BF13463B613B699B003D
:101CB0007A6AD31A7B62BB689B69F86819463A69ED
:101CC000FFF7A6FF0246BB689A61BB689A69BB68CA
:101CD0001B699A4204D3BB68DA68BB689A612EE03C
:101CE0007B6A002B2ED000233B620023FB611DE0AA
:101CF000BB689B69591CBA6891611B781A46FB69DD
:101D0000DB0002FA03F33A6A13433B62BB689A6949
:101D1000BB681B699A4203D3BB68DA68BB689A61E7
:101D20007B6A013B7B62FB690133FB617B6A002BB1
:101D300002D0FB69032BDBD9FB683A6A1A607B6A25
:101D4000002B9CD1202383F31188BB689A687B68A1
:101D50001A44BB689A600AE0BB681846FFF736FE73
:101D60000346184609F0C4FE024600235362BB68CE
:101D70001A68BB689A42EFD109F0AEFF002383F3E3
:101D800011882837BD4680BD80B487B000AFF860A9
:101D9000B9607A600BE0FB681B687B61BB687A699D
:101DA0001A60BB680433BB607B68013B7B607B6867
:101DB000002BF0D1BB6818461C37BD465DF8047B8C
:101DC000704700BF80B487B000AFF860B9607A6038
:101DD0003B607B6803339B087B603B6803339B0855
:101DE0003B6011E0FB681B687B613B68002B08D0FF
:101DF000BB687A691A60BB680433BB603B68013B0F
:101E00003B607B68013B7B607B68002BEAD11C3721
:101E1000BD465DF8047B704780B58AB000AFF860BE
:101E2000B9607A607B687B6252E07B6A9B08FB61E9
:101E3000FB69002B21D00023BB61FA69BB69934287
:101E400028BF13467B617B699B007A6AD31A7B6249
:101E5000BB685B69F86819467A69FFF795FF024627
:101E6000BB685A61BB685A69BB681B699A4204D354
:101E7000BB68DA68BB685A612AE07B6A002B2AD00B
:101E8000FB681B683B6100233B621BE0BB685B692E
:101E9000591CBA6851613A6AD20011463A69CA407F
:101EA000D2B21A70BB685A69BB681B699A4203D3E5
:101EB000BB68DA68BB685A617B6A013B7B623B6A3C
:101EC00001333B627B6A002B02D03B6A032BDDD9D6
:101ED0007B6A002BA9D1202383F31188BB689A6801
:101EE0007B681A44BB689A600AE0BB681846FFF733
:101EF0006DFD0346184609F0FBFD024600235362C0
:101F0000BB681A68BB689A42EFD109F0E5FE00236E
:101F100083F311882837BD4680BD00BF90B587B0D8
:101F200000AF78607B689B6E1B6A7B617B6903F402
:101F3000F013B3F5002F00F08E80B3F5402F03D0DF
:101F4000B3F5802F1CD086E07A6947F6F073134012
:101F50001B093B617B6903F00F03FB607B689B6E91
:101F600003F580517A68FB6802339B0013445B6879
:101F70001B6A084619463A690823FFF723FF6AE0FF
:101F80007A6947F6F07313401B093B617B6903F0E4
:101F90000F03FB607A68FB6802339B0013445B68A5
:101FA0009B691B78002B11D07B689B6E03F58051D9
:101FB0007A68FB6802339B0013445B689B69DB68AB
:101FC000084619463A69FFF727FF32E07B689B6EA7
:101FD00003F580507A68FB6802339B0013445B680A
:101FE0009B69DC687A68FB6802339B0013445B687A
:101FF0009B695A687968FB6802339B000B445B68F5
:102000009B699B68D31A21463A69FFF7DBFE7A6821
:10201000FB6802339B0013445B689A697968FB682C
:1020200002339B000B445B689B69D9683B690B4496
:10203000D3607A68FB6802339B0013445B689A693B
:102040007968FB6802339B000B445B689B69996865
:102050003B690B4493601C37BD4690BD80B584B08E
:1020600000AF78600B46FB70FB787A6802339B0008
:1020700013445B685B699A68FB78796802339B005C
:102080000B445B685B695B689A4201D3012389E07A
:10209000FB787A6802339B0013445B685B695A687B
:1020A000FB78796802339B000B445B685B699B6833
:1020B000D31AFB60FB787A6802339B0013445B6899
:1020C0001B8A1A46FB689A4207D2FB787A68023369
:1020D0009B0013445B681B8AFB607B689A6EFB78ED
:1020E0005B01134403F618131B689BB29A00FB684C
:1020F0009A4201D2002355E0FB787A6802339B00B4
:1021000013445B685B691B78002B13D07B689A6E65
:10211000FB7801331B03D118FB787A6802339B00EC
:1021200013445B685B69DB6808461946FA68FFF789
:102130009DFD24E07B689A6EFB7801331B03D11868
:10214000FB787A6802339B0013445B685B69DB6849
:1021500008461946FA68FFF777FDFB787A6802337C
:102160009B0013445B685A69FB78796802339B00D3
:102170000B445B685B69D968FB680B44D360FB78F0
:102180007A6802339B0013445B685A69FB7879686C
:1021900002339B000B445B685B699968FB680B44E6
:1021A000936061E718461037BD4680BD80B586B0A4
:1021B00000AF78600B46FB707B689B6E7B61FB78A1
:1021C0007A695B01134403F608131B683B61FB78D3
:1021D0007A695B01134403F608133A691A603B6994
:1021E00003F00103002B4AD07B69D3F8103803F0C9
:1021F0000103002B43D0FB787A6802339B00134421
:102200005B685B69FB60FB685A68FB681B699A4204
:102210001AD2FB681A69FB685B68D21AFB685A60BD
:10222000FB6800229A60FB7878681946FEF75AFC32
:10223000202383F31188FB7878681946FEF7C0FCE9
:10224000002383F311881AE07B681B8999B2FB781D
:10225000012202FA03F39BB2DB439BB20A4613400E
:102260009BB29AB27B681A81FB787A6802339B0032
:1022700013445B689B68FA787868114698473B6915
:1022800003F08003002B27D07B69D3F83428FB7838
:10229000012101FA03F31340002B1DD0202383F307
:1022A00011887B685B6FFA78012101FA02F21A4308
:1022B0007B685A677B69D3F83438FA78012101FAD0
:1022C00002F2D2431A407B69C3F834287868FFF7DA
:1022D00093FB002383F311881837BD4680BD00BFF0
:1022E00080B586B000AF78600B46FB707B689B6E54
:1022F0007B61FB787A695B01134403F608331B6842
:102300003B61FB787A695B01134403F608333A6951
:102310001A603B6903F00803002B11D07B69D3F8E6
:10232000143803F00803002B0AD0FB787A680233D4
:102330009B0013445B685B68FA787868114698479D
:102340003B6903F00103002B4AD07B69D3F81438B2
:1023500003F00103002B43D0FB787A6802339B0023
:1023600013445B689B69FB60FB685A68FB681B69E8
:102370009A421AD2FB681A69FB685B68D21AFB683A
:102380005A60FB6800229A60FB7878681946FEF76D
:1023900063FB202383F31188FB7878681946FEF7E6
:1023A000F3FB002383F311881AE07B685B8999B201
:1023B000FB78012202FA03F39BB2DB439BB20A468D
:1023C00013409BB29AB27B685A81FB787A680233D9
:1023D0009B0013445B68DB68FA787868114698477D
:1023E0001837BD4680BD00BF00000000000000009F
:1023F00080B586B000AFF8607A603B600B46FB7238
:10240000FB7AFA6802339B0013445B689B697B612B
:102410007B6901221A707B697A68DA607B693A68A5
:102420005A607B6900229A60FB7AF8681946FEF7C9
:1024300013FB1837BD4680BD80B586B000AFF8608D
:102440007A603B600B46FB72FB7AFA6802339B00B2
:1024500013445B685B697B617B6901221A707B694D
:102460007A68DA607B693A685A607B6900229A6010
:10247000FB7AF8681946FEF735FB1837BD4680BD74
:1024800080B582B000AF78600B46FB707B685B89DB
:102490001A46FB7842FA03F303F00103002B01D044
:1024A000012313E07B685B8999B2FB78012202FA71
:1024B00003F39BB20A4613439BB29AB27B685A81DC
:1024C000FB7878681946FEF75FFB0023184608374B
:1024D000BD4680BD80B582B000AF78600B46FB7012
:1024E0007B681B891A46FB7842FA03F303F0010369
:1024F000002B01D0012313E07B681B8999B2FB7884
:10250000012202FA03F39BB20A4613439BB29AB22A
:102510007B681A81FB7878681946FEF751FB002327
:1025200018460837BD4680BD80B582B000AF7860E0
:102530000B46FB707B685B891A46FB7842FA03F313
:1025400003F00103002B01D0012305E0FB7878683C
:102550001946FEF75DFB002318460837BD4680BDCF
:1025600080B582B000AF78600B46FB707B681B893A
:102570001A46FB7842FA03F303F00103002B01D063
:10258000012305E0FB7878681946FEF75DFB002320
:1025900018460837BD4680BD80B584B000AF78606E
:1025A0007B6802221A707B680022A3F864207B6893
:1025B000002283F866207B68002283F867207B680E
:1025C00000221A817B6800225A810023FB6009E007
:1025D0007A68FB6802339B00134400225A60FB6850
:1025E0000133FB60FB68052BF2D97B68002283F87E
:1025F0004C207868FEF704F81037BD4680BD00BF58
:1026000080B584B000AF78600B46FB707B68002219
:1026100083F84C207B685C33FA78786811461A4658
:10262000FEF704FA7B685B689B68002B0AD07B6826
:102630005B689B6878689847034683F00103DBB2C8
:10264000002B27D07B6893F85C3003F06003002BED
:1026500008D1786801F048FF034683F00103DBB23C
:10266000002B17D078680021FEF7EEFA7868002179
:10267000FEF7CEFA7B685B681B68002B05D07B6891
:102680005B681B687868052198477B68062283F899
:102690004C2077E07B6893F862301A467B6893F8A9
:1026A00063301B021343FB607B685A6DFB689A42E0
:1026B00002D97B68FA685A657B6893F85C30DBB2B4
:1026C0005BB2002B2FDA7B685B6D002B16D07B682A
:1026D000012283F84C207B681A6D7B685B6D7868FB
:1026E000002102F0DDF9202383F3118878680021AE
:1026F000FFF7F0FE002383F3118843E07B68032299
:1027000083F84C20786800210022002302F0A4F90D
:10271000202383F3118878680021FFF7B1FE00239E
:1027200083F311882EE07B685B6D002B16D07B68ED
:10273000042283F84C207B681A6D7B685B6D786897
:10274000002102F089F9202383F3118878680021A1
:10275000FFF796FE002383F3118813E07B680522C0
:1027600083F84C20786800210022002302F098F9B9
:10277000202383F3118878680021FFF7ABFE002344
:1027800083F311881037BD4680BD00BF80B584B08B
:1027900000AF78600B46FB707B6893F84C30022BDF
:1027A00033D0052B46D0012B51D17B6893F8623092
:1027B0001A467B6893F863301B021343FB607B6807
:1027C0005A6DFB689A4220D27B685B6D7A68D2684A
:1027D000128AB3FBF2F102FB01F29B1A002B14D117
:1027E000786800210022002302F05AF9202383F3A5
:1027F000118878680021FFF76DFE002383F31188AC
:102800007B68022283F84C2038E07B68032283F83F
:102810004C20786800210022002302F01DF92023BB
:1028200083F3118878680021FFF72AFE002383F3E1
:10283000118823E07B689B6D002B03D07B689B6D28
:10284000786898477B68002283F84C2016E0786807
:102850000021FEF7F9F978680021FEF7D9F97B68C5
:102860005B681B68002B05D07B685B681B68786819
:10287000052198477B68062283F84C201037BD4617
:1028800080BD00BF80B582B000AF78600B46FB70A2
:102890007B6893F84C30032B16D0042B27D17B6830
:1028A000052283F84C20786800210022002302F0E2
:1028B000F7F8202383F3118878680021FFF70AFED8
:1028C000002383F3118829E07B68DB689B699B68A0
:1028D000002B0CD17B689B6D002B03D07B689B6D1C
:1028E000786898477B68002283F84C2016E0786867
:1028F0000021FEF7A9F978680021FEF789F97B68C5
:102900005B681B68002B05D07B685B681B68786878
:10291000052198477B68062283F84C200837BD467E
:1029200080BD00BF80B582B000AF0C4B1B6803F0C8
:102930003D037B60094A7B689360094B1B68002B51
:1029400006D0074B1B68064A5268104679689847BC
:1029500008F076FE0837BD4680BD00BF006002402B
:102960002038002080B582B000AF0D4B1B689B095A
:1029700003F03D037B600A4A7B689B019360094B2F
:102980009B68002B06D0074B9B68064AD26810460E
:102990007968984708F054FE0837BD4680BD00BFEF
:1029A000006002402038002080B582B000AF0D4B9F
:1029B0001B681B0C03F03D037B600A4A7B681B0409
:1029C0009360094B1B69002B06D0074B1B69064A15
:1029D000526910467968984708F032FE0837BD46BC
:1029E00080BD00BF006002402038002080B582B06A
:1029F00000AF0D4B1B689B0D03F03D037B600A4A43
:102A00007B689B059360094B9B69002B06D0074BA5
:102A10009B69064AD26910467968984708F010FE0B
:102A20000837BD4680BD00BF00600240203800204E
:102A300080B582B000AF0C4B5B6803F03D037B6058
:102A4000094A7B68D360094B1B6A002B06D0074BF1
:102A50001B6A064A526A10467968984708F0F0FDEA
:102A60000837BD4680BD00BF00600240203800200E
:102A700080B582B000AF0D4B5B689B0903F03D034E
:102A80007B600A4A7B689B01D360094B9B6A002BE1
:102A900006D0074B9B6A064AD26A10467968984767
:102AA00008F0CEFD0837BD4680BD00BF0060024083
:102AB0002038002080B582B000AF0D4B5B681B0C46
:102AC00003F03D037B600A4A7B681B04D360094B1B
:102AD0001B6B002B06D0074B1B6B064A526B104634
:102AE0007968984708F0ACFD0837BD4680BD00BF47
:102AF000006002402038002080B582B000AF0D4B4E
:102B00005B689B0D03F03D037B600A4A7B689B0575
:102B1000D360094B9B6B002B06D0074B9B6B064A7F
:102B2000D26B10467968984708F08AFD0837BD4691
:102B300080BD00BF006002402038002080B582B018
:102B400000AF0C4B1B6803F03D037B60094A7B68B8
:102B50009360094B1B6C002B06D0074B1B6C064A7D
:102B6000526C10467968984708F06AFD0837BD46F0
:102B700080BD00BF006402402038002080B582B0D4
:102B800000AF0D4B1B689B0903F03D037B600A4AB5
:102B90007B689B019360094B9B6C002B06D0074B15
:102BA0009B6C064AD26C10467968984708F048FD3D
:102BB0000837BD4680BD00BF0064024020380020B9
:102BC00080B582B000AF0D4B1B681B0C03F03D03BA
:102BD0007B600A4A7B681B049360094B1B6D002BCA
:102BE00006D0074B1B6D064A526D10467968984710
:102BF00008F026FD0837BD4680BD00BF00640240D6
:102C00002038002080B582B000AF0D4B1B689B0DB3
:102C100003F03D037B600A4A7B689B059360094B88
:102C20009B6D002B06D0074B9B6D064AD26D10465C
:102C30007968984708F004FD0837BD4680BD00BF9D
:102C4000006402402038002080B582B000AF0C4BF9
:102C50005B6803F03D037B60094A7B68D360094BE6
:102C60001B6E002B06D0074B1B6E064A526E104699
:102C70007968984708F0E4FC0837BD4680BD00BF7E
:102C8000006402402038002080B582B000AF0D4BB8
:102C90005B689B0903F03D037B600A4A7B689B01EC
:102CA000D360094B9B6E002B06D0074B9B6E064AE8
:102CB000D26E10467968984708F0C2FC0837BD46C6
:102CC00080BD00BF006402402038002080B582B083
:102CD00000AF0D4B5B681B0C03F03D037B600A4AA1
:102CE0007B681B04D360094B1B6F002B06D0074B7E
:102CF0001B6F064A526F10467968984708F0A0FC8F
:102D00000837BD4680BD00BF006402402038002067
:102D100080B582B000AF0D4B5B689B0D03F03D03A7
:102D20007B600A4A7B689B05D360094B9B6F002B35
:102D300006D0074B9B6F064AD26F104679689847BA
:102D400008F07EFC0837BD4680BD00BF006402402D
:102D50002038002080B483B000AF184B00221A60E6
:102D600000237B6011E016497A6813465B00134428
:102D70009B000B441B6800221A60124A7B680021EA
:102D800042F833107B6801337B607B680F2BEADDF0
:102D90000D4B4FF0FF329A600B4B4FF0FF32DA6071
:102DA0000A4B4FF0FF329A60084B4FF0FF32DA6067
:102DB0000C37BD465DF8047B704700BF1C3800200F
:102DC000C4CA0108203800200060024000640240AC
:102DD00080B584B000AFF860B9607A603B60FB6892
:102DE0005B7A1A46012393401A46334B1B68134003
:102DF000002B01D001235BE0FB685B7A19462F4A68
:102E00007B6842F83130FB685B7A2C4ADB00134464
:102E10003A685A60FB685B7A1A46012393401A4667
:102E2000254B1B681343244A1360234B1B68DBB2FA
:102E3000002B05D0224A224B1B6B43F40013136373
:102E40001D4B1B6803F47F43002B05D01C4A1C4B11
:102E50001B6B43F480031363FB681B68FA681268FA
:102E6000126822F01F021A60FB681B681B6803F0DF
:102E70000103002BF8D1FB685B68FA68127A1146EF
:102E80003D228A401A60FB681B6800221A60FB68BA
:102E90001B6821225A617B68002B08D0FB689B7A53
:102EA0001A46BB681B011046194608F035FC002382
:102EB00018461037BD4680BD1C3800202038002041
:102EC0000038024080B582B000AF78607B689B7AA2
:102ED000184608F05FFC7B685B7A1A460123934032
:102EE000DB431A460F4B1B6813400E4A13600D4B11
:102EF0001B68DBB2002B05D10B4A0B4B1B6B23F479
:102F000000131363074B1B6803F47F43002B05D1A9
:102F1000054A054B1B6B23F4800313630837BD463A
:102F200080BD00BF1C3800200038024080B400AFD4
:102F30000E4A0E4B1B6843F4807313600C4B1B6FDF
:102F400003F44073B3F5007F06D0094B4FF4803291
:102F50001A67074B00221A67044A044B5B6823F484
:102F600000735360BD465DF8047B704700700040FD
:102F70000038024080B500AF214B1B69204B4FF059
:102F8000FF321A611E4B00221A611D4B5B691C4BFC
:102F90004FF0FF325A611A4B00225A61184A184BFF
:102FA0001B6A63F080531362154B00221A62144BA4
:102FB0005B6A134B4FF0FF325A62114B00225A6288
:102FC000104B114A5A600F4B00229A600D4B07229A
:102FD0001A600E4A0D4BDB6843F08073D3600C4AD5
:102FE0000B4B1B6843F001031360054A044B1B6C39
:102FF00043F080531364FFF799FFFFF7ABFE80BDEA
:103000000038024010E000E03F900200F0ED00E0E8
:10301000001000E080B400AF394B4FF080521A64CA
:10302000384B4FF440421A60354A354B1B6843F029
:1030300001031360324B1B6803F00203002BF9D02D
:103040002F4A2F4B1B6803F0F90313602C4B00220F
:103050009A602B4B9B6803F00C03002BF9D1284A94
:10306000274B1B6843F480331360254B1B6803F424
:103070000033002BF9D0224A214B5B6F43F0010350
:1030800053671F4B5B6F03F00203002BF9D01C4BFF
:103090001D4A5A601A4A1A4B1B6843F0807313602A
:1030A000184B5B6803F48043002BF9D0144B1B686A
:1030B00003F00073002BF9D0114B144A9A60144BA3
:1030C00040F205721A600E4A0D4B9B6843F00203F2
:1030D00093600B4B9B6803F00C03082BF9D1084A53
:1030E000074B5B6C43F480435364054A044B5B6EAF
:1030F00043F480435366BD465DF8047B704700BFD0
:10310000003802400070004008544007009408381E
:10311000003C024080B483B000AF786039603B6807
:103120005A687B685A603B689A687B689A603B681B
:10313000DA687B68DA603B681A697B685A613B68C9
:103140005A697B681A623B689A697B685A623B6875
:103150001A687B681A600C37BD465DF8047B7047BF
:1031600080B582B000AF7860234A234B1B6B6FEAB7
:1031700053236FEA432313631F4A1F4B1B6D6FEAF0
:1031800053236FEA432313657B681C481946FFF7F6
:10319000C1FF7B681C331A481946FFF7BBFF7B68E9
:1031A000383318481946FFF7B5FF7B685433164883
:1031B0001946FFF7AFFF7B68703314481946FFF7D5
:1031C000A9FF7B688C3312481946FFF7A3FF7B6881
:1031D000A83310481946FFF79DFF7B68C4330E489B
:1031E0001946FFF797FF7B68E0330C481946FFF755
:1031F00091FF0837BD4680BD003802400000024004
:103200000004024000080240000C0240001002408E
:103210000014024000180240001C0240002002403E
:1032200080B48FB000AFF860B9607A607B6803F05B
:1032300003037B637B6803F004039B083B637B68A9
:1032400003F01803DB08FB627B6803F060035B0993
:10325000BB627B6803F4F063DB093B6200237B62A3
:10326000BB6803F00103002B54D07B6A03F0070313
:103270009B001A463B6A9340FB617B6A03F007039D
:103280009B001A460F239340BB617B6A072B09D82A
:10329000FB681A6ABB69DB431A40FB691A43FB6887
:1032A0001A6208E0FB685A6ABB69DB431A40FB6993
:1032B0001A43FB685A627B6A012202FA03F37B61BC
:1032C000FB685A687B69DB431A403B6B1A43FB6817
:1032D0005A607B6A5B001A46032393403B61FB689C
:1032E0009A683B69DB431A40FB6A1A43FB689A60A1
:1032F000FB68DA683B69DB431A40BB6A1A43FB6828
:10330000DA60FB681A683B69DB431A407B6B1A433F
:10331000FB681A60BB685B08BB60BB68002B0FD002
:103320003B6B5B003B63FB6A9B00FB62BB6A9B00E1
:10333000BB627B6B9B007B637B6A01337B628FE7A5
:103340003C37BD465DF8047B704700BF80B485B054
:1033500000AF78607B685B6BFB60FB684FF40042FA
:103360001A80FB6800221A80FB6800229A80FB68A2
:1033700000229A827B681B6B1B687A68126B12684A
:10338000126822F01F021A607B681B6B1B681B68A7
:1033900003F00103002BF7D17B681B6B5B687A6835
:1033A000126B127A11463D228A401A607B68DB6AF2
:1033B0001B687A68D26A1268126822F01F021A60CB
:1033C0007B68DB6A1B681B6803F00103002BF7D1E5
:1033D0007B68DB6A5B687A68D26A127A11463D22A2
:1033E0008A401A601437BD465DF8047B704700BF01
:1033F00080B584B000AF78607B68FB60202383F3E6
:103400001188FB68DB69002B0FD0FB68DB69BB60B0
:10341000F868FFF79BFFFB680022DA61BB684FF09A
:10342000FF325A62B86808F063FB002383F3118807
:103430001037BD4680BD00BF80B487B000AF786054
:103440007B685B6B3B617B685B685B68FB607B6890
:103450005B681B7AFB727B68002B05D0FB68002B36
:1034600002DDFB68344A93423B699B889BB223F0A0
:103470003F039AB23B699A803B699B889BB243F0B9
:103480002A039AB23B699A800023FB8240F6FF73BD
:10349000BB82FB68294A934211DCFB685B00284A27
:1034A00092FBF3F3BB82BB8AC3F30B039AB2FB8A92
:1034B00013439BB2FB823B692B221A8434E0FB68E6
:1034C000204A934230DCFB7A022B01D0FB7A032B9B
:1034D000FB7A022B08D1FA6813465B001344184AA2
:1034E00092FBF3F3BB8210E0FB7A032B0DD1FA6859
:1034F00013469B0013449A001344114A92FBF3F3C2
:10350000BB82FB8A43F48043FB82BB8AC3F30B0379
:103510009AB2FB8A13439BB26FEA43436FEA534369
:10352000FB823B690D221A843B69FA8A9A831C3715
:10353000BD465DF8047B704700093D00A086010090
:1035400080DE8002801A060080B487B000AF786009
:103550007B685B6B3B617B685B681B78FB733B69DB
:103560001B88FB82FB7B022B08D0032B0FD0012B87
:1035700011D1FB8A23F00A03FB820CE0FB8A43F0A3
:103580000203FB82FB8A23F00803FB8203E0FB8A31
:1035900043F00A03FB823B69FA8A1A801C37BD4656
:1035A0005DF8047B704700BF80B586B000AF7860DF
:1035B0007B685B6B7B617B691B8B9BB23B617B692F
:1035C0009B8A9BB2FB603B691A04FB68134323F0A0
:1035D0007F435F4A93422FD05D4A934206D85D4AAB
:1035E00093420AD05C4A93422FD0A6E05B4A9342B2
:1035F00054D05B4A934264D09FE07B681B8C1B0ACB
:103600009BB2002B13D07B681B8C1B0A9BB203F070
:1036100006039AB27B681B8C03F001039BB2134331
:103620009BB243F0F0039AB27B691A8285E07B6813
:103630001A8C7B691A8280E07B681B8C5B089BB2CA
:10364000DBB29AB27B691A8277E07B699B889BB276
:1036500023F400739AB27B699A807B68DB6A1B68EB
:103660007A68D26A1268126842F001021A607B69B5
:103670009B889BB243F480539AB27B699A807B68A3
:10368000DB6A1B685B68012B57D87B691B889BB280
:1036900023F480639AB27B691A804EE07B699B8831
:1036A0009BB223F400739AB27B699A807B681B6B90
:1036B0001B687A68126B1268126842F001021A6085
:1036C0003BE07B68DB6A1B685B68002B0FD07B6884
:1036D0001B8C43F001039AB27B681A847B691B88B8
:1036E0009BB243F4A0639AB27B691A802CE07B6999
:1036F0009B889BB223F400739AB27B699A807B69A2
:103700001B889BB243F400739AB27B691A80202312
:1037100083F311887B68DB69002B0BD07B68DB6946
:10372000BB607B680022DA61BB6800225A62B8681D
:1037300008F0DEF9002383F31188FB6803F00A0325
:10374000002B01D07B691B8B1837BD4680BD00BFA5
:1037500008000300010003000200030082000700CC
:1037600084000700000000000000000000000000CE
:1037700080B584B000AF7860084B5B68FB60FA6886
:103780007B681344BB60F868B96802F0A5FA034689
:10379000002BF8D11037BD4680BD00BF001000E0FF
:1037A00080B500AFFDF71EFF80BD00BF80B582B0C1
:1037B00000AF78607B6801221A707B6800225A6033
:1037C0007B680C33184606F0FBFD0837BD4680BD0C
:1037D00080B582B000AF786039607B68002B01D083
:1037E0003B68002B7B681B78012B06D07B681B781D
:1037F000022B02D07B681B78052B202383F31188D2
:103800007B683A685A607868FDF706FF7B68022299
:103810001A70002383F311880837BD4680BD00BFAE
:1038200080B582B000AF78607B681B78012B06D032
:103830007B681B78022B02D07B681B78052B20232A
:1038400083F311887868FDF769FF7B6801221A709D
:10385000002383F311880837BD4680BD80B483B050
:1038600000AF78607B689B6818460C37BD465DF8F2
:10387000047B704780B58AB004AFF8607A603B6023
:103880000B467B81FB68002B13D07B89002B10D06B
:103890003B68002B0DD07B68002B0AD07B6A002B85
:1038A00005D07B6A002B04D03B6A002B01D0BB6A99
:1038B000002B202383F31188FB6800229A60FB68A9
:1038C00003221A707A893B6A00937B6A0193BB6A70
:1038D0000293F86811467A683B68FDF7DBFF786170
:1038E0007B69B3F1FF3F03D1FB6805221A7002E048
:1038F000FB6802221A70002383F311887B69184643
:103900001837BD4680BD00BF80B588B002AFF860F3
:103910007A603B600B467B81FB68002B0AD07B8979
:10392000002B07D03B68002B04D07B68002B01D014
:103930003B6A002B202383F31188FB6800229A60E6
:10394000FB6804221A707A893B6A0093F868114672
:103950007A683B68FDF70EFF78617B69B3F1FF3F42
:1039600003D1FB6805221A7002E0FB6802221A707C
:10397000002383F311887B6918461837BD4680BD44
:1039800080B582B000AF78607B680C33184606F0D3
:103990002BFD0837BD4680BD80B582B000AF786092
:1039A00006F0C6FD0837BD4680BD00BF80B483B0B9
:1039B00000AF78607B68002B02D07B689B680F2B80
:1039C0007B681B681B697A68926823FA02F27B683D
:1039D0005B68134018460C37BD465DF8047B7047A2
:1039E00080B483B000AF786039607B68002B02D070
:1039F0007B689B680F2B7B681B683A68D1437A68A9
:103A000052680A4079688968103102FA01F17A68CF
:103A100050683A6802407868806882400A439A6138
:103A20000C37BD465DF8047B704700BF80B582B09F
:103A300000AF786039607B68002B02D07B689B68A0
:103A40000F2B7B6819687B685B687A689268934083
:103A5000084619463A68FFF7E3FB0837BD4680BDC4
:103A600080B584B000AFF860B9607A60FB6830332D
:103A70001846B9687A684FF0FF3305F029FD034610
:103A800018461037BD4680BD80B584B000AFF860E1
:103A9000B9607A60FB680C331846B9687A684FF0F1
:103AA000FF3305F0E3FB034618461037BD4680BDE3
:103AB00080B582B000AF78600B46FB707B6803F185
:103AC0003002FB78104619464FF0FF3205F07AFCC1
:103AD000034618460837BD4680BD00BF80B582B09A
:103AE00000AF78607B680C3318464FF0FF3105F06B
:103AF0007DFB034618460837BD4680BD80B584B0BF
:103B000000AFF8600B467A60FB72FB6803F130028D
:103B1000FB7A104619467A6805F054FC03461846AD
:103B20001037BD4680BD00BF80B582B000AF786061
:103B300039607B680C331846396805F057FB03463B
:103B400018460837BD4680BD80B584B000AFF86028
:103B5000B9607A603B60FB6830331846B9687A68B0
:103B60003B6805F0B5FC034618461037BD4680BDDE
:103B700080B584B000AFF860B9607A603B60FB68E4
:103B80000C331846B9687A683B6805F06FFB03464A
:103B900018461037BD4680BD80B586B000AF78604E
:103BA0007B681B6A7B617B69D3F854321B681B7886
:103BB000042B5AD17B691B7A022B56D17B69D3F82F
:103BC00054321A687B69D3F854325B7902339B0014
:103BD00013445B685B8A3B617B69D3F854321B6892
:103BE0005B891A467B69D3F854325B7942FA03F356
:103BF00003F00103002B38D17B69DB691A467B692E
:103C00009B69D31A1A467B695B69D31AFB60FA6811
:103C10003B699A4229D3002383F31188FA683B69F0
:103C2000B2FBF3F33A6902FB03F3FB607B69D3F861
:103C3000543219687B69D3F854325A797B690C3352
:103C4000084611461A46FB68FEF7D2FB202383F391
:103C500011887B69D3F854321A687B69D3F85432DF
:103C60005B7910461946FEF70BFC1837BD4680BD40
:103C700080B584B000AF78607B681B6AFB60FB682E
:103C8000D3F854321B681B78042B43D1FB681B7A92
:103C9000022B3FD1FB68D3F854321B681B891A46AC
:103CA000FB68D3F854321B7942FA03F303F00103A3
:103CB000002B2FD1FB681B6C1A46FB68DB6BD31AF9
:103CC0001A46FB689B6BD31ABB60BB68002B21D0E4
:103CD000002383F31188FB68D3F854321968FB681A
:103CE000D3F854321A79FB683033084611461A4625
:103CF000BB68FEF7A1FB202383F31188FB68D3F890
:103D000054321A68FB68D3F854321B7910461946AE
:103D1000FEF7E0FB1037BD4680BD00BF80B400AFAA
:103D2000BD465DF8047B704780B584B002AF786013
:103D30007B68154A1A607B681A1D7B685A607B682D
:103D400001221A727B6803F10C017B6803F15402B3
:103D50007B680093084611464FF480720B4B05F0C8
:103D6000AFF97B6803F130017B6803F5AA727B68C9
:103D70000093084611464FF48072054B05F0CCFACB
:103D80000837BD4680BD00BF98CA0108993B0008AE
:103D9000713C000880B485B000AF786039603B6842
:103DA0001B68FB60202383F311887B681B7A012B3F
:103DB00002D07B681B7A022B3B681B79013BFA68B7
:103DC00008339B0013447A685A603B685B795A1E3B
:103DD000FB680E32796843F822103B689B79013BFF
:103DE000FA6808339B0013447A685A607B683A6823
:103DF000C3F854227B6802221A72002383F31188CD
:103E00001437BD465DF8047B704700BF80B584B0B1
:103E100000AF78607B68D3F854321B68FB602023C6
:103E200083F311887B681B7A012B02D07B681B7A95
:103E3000022B7B68D3F854321B79013BFA680833B4
:103E40009B00134400225A607B68D3F854325B799C
:103E50005A1EFB680E32002143F822107B68D3F80B
:103E600054329B79013BFA6808339B0013440022CB
:103E70005A607B6801221A727B680433184602215B
:103E800006F0F6FD7B680C33184605F045F97B68B3
:103E90003033184605F06CFA07F01EFF002383F359
:103EA00011881037BD4680BD90B585B000AF7860F1
:103EB0007B68D3F854321B68FB607B680C33184670
:103EC00005F02AF97B683033184605F051FA7B6813
:103ED00004331846012106F0CBFD7B68D3F8543239
:103EE00059797B6803F10C047B68D3F854325B7911
:103EF000FA6802339B0013445B685B8AF8682246C9
:103F0000FEF776FA7B68D3F854325B79F868194685
:103F1000FEF7B6FA1437BD4690BD00BF80B483B03B
:103F200000AF78607B6893F85C3003F06003202B6F
:103F30002CD17B6893F85D30212B04D0222B18D034
:103F4000202B0BD020E07B68144A1A657B6807227F
:103F50005A657B6800229A65012318E07B680F4A46
:103F60001A657B6807225A657B6800229A650123DF
:103F70000DE07B6800221A657B6800225A657B6829
:103F800000229A65012302E0002300E00023184686
:103F90000C37BD465DF8047B704700BF4409002024
:103FA00080B584B000AF78600B46FB70FB78013BB6
:103FB0007A6808339B0013445B68FB60FB68002B46
:103FC0005FD0202383F31188FB680433184608214F
:103FD00006F04EFDFB681B6C1A46FB68DB6BD31AC0
:103FE0001A46FB689B6BD31ABB60BB68002B14D0CE
:103FF000002383F31188FB683033FA787868114620
:104000001A46BB68FEF718FA202383F31188FB7861
:1040100078681946FEF75EFA30E0FB787A6802337A
:104020009B0013445B685B695B68002B26D0FB78C0
:104030007A6802339B0013445B685B695A68FB78BB
:10404000796802339B000B445B681B8A013B134079
:10405000002B13D1002383F31188FB683033FA78E7
:10406000786811461A460023FEF7E6F9202383F309
:104070001188FB7878681946FEF72CFA002383F341
:1040800011881037BD4680BD80B586B000AF78601E
:104090000B46FB70FB785A1E7B680E3253F82230B9
:1040A0007B617B69002B3ED0202383F311887B69E1
:1040B00004331846042106F0DBFCFB787A680233EF
:1040C0009B0013445B685B8A3B617B69DB691A4632
:1040D0007B699B69D31A1A467B695B69D31AFB60BB
:1040E000FA683B699A421BD3002383F31188FA686C
:1040F0003B69B2FBF3F33A6902FB03F3FB607B69B4
:104100000C33FA78786811461A46FB68FEF770F9A6
:10411000202383F31188FB7878681946FEF7B0F9FD
:10412000002383F311881837BD4680BD80B483B067
:1041300000AF78600B46FB700C37BD465DF8047B22
:10414000704700BF80B500AFFCF758FE80BD00BFD0
:1041500080B582B000AF78607B6801221A707B68FE
:1041600000225A607B6800229A607B680C331846F4
:1041700006F026F90837BD4680BD00BF80B582B085
:1041800000AF786039607B68002B01D03B68002B62
:10419000202383F311887B681B78012B02D07B6876
:1041A0001B78022B7B683A685A607868FCF76CFED3
:1041B0007B6802221A70002383F311880837BD46FA
:1041C00080BD00BF80B582B000AF7860202383F34C
:1041D00011887B681B78012B02D07B681B78022B2F
:1041E0007868FCF73BFF7868FCF7ECFE7B680122FF
:1041F0001A70002383F311880837BD4680BD00BFC5
:1042000080B582B000AF7860202383F3118878688E
:10421000FCF710FF002383F311880837BD4680BDEB
:1042200080B582B000AF7860202383F3118878686E
:10423000FCF714FF002383F311880837BD4680BDC7
:1042400080B582B000AF786039607B68002B01D008
:104250003B68002B202383F311887B6803221A70AC
:1042600078683968FCF70EFF002383F3118808375C
:10427000BD4680BD80B584B000AFF860B9607A609B
:104280003B60FB68002B07D0BB68002B04D03B6869
:10429000002B01D07B68002B202383F31188FB685F
:1042A00003221A70F868B9687A683B68FCF72CFF3B
:1042B000002383F311881037BD4680BD80B584B0DC
:1042C00000AFF860B9607A60FB68002B04D0BB686F
:1042D000002B01D07B68002B202383F31188FB681F
:1042E00003221A70F868B9687A68FCF751FF002356
:1042F00083F311881037BD4680BD00BF80B584B000
:1043000000AFF860B9607A60FB68002B04D0BB682E
:10431000002B01D07B68002B202383F31188FB68DE
:1043200003221A70F868B9687A68FCF775FF0023F1
:1043300083F311881037BD4680BD00BF80B582B0C1
:1043400000AF786039607B68002B01D03B68002BA0
:10435000202383F311887B6803221A7078683968F8
:10436000FCF790FE064B9A697B689A60022007F082
:10437000F1FB002383F311880837BD4680BD00BFE1
:104380003030002080B584B000AFF860B9607A604A
:104390003B60FB68002B07D0BB68002B04D03B6858
:1043A000002B01D07B68002B202383F31188FB684E
:1043B00003221A70F868B9687A683B68FCF7A4FEB3
:1043C000064B9A69FB689A60022007F0C3FB002342
:1043D00083F311881037BD4680BD00BF3030002008
:1043E00080B584B000AFF860B9607A60FB68002BDC
:1043F00004D0BB68002B01D07B68002B202383F303
:104400001188FB6803221A70F868B9687A68FCF7AB
:10441000BFFE064B9A69FB689A60022007F09AFB80
:10442000002383F311881037BD4680BD3030002053
:1044300080B584B000AFF860B9607A60FB68002B8B
:1044400004D0BB68002B01D07B68002B202383F3B2
:104450001188FB6803221A70F868B9687A68FCF75B
:10446000DBFE064B9A69FB689A60022007F072FB3C
:10447000002383F311881037BD4680BD3030002003
:1044800080B582B000AF78607B680C33184605F0C9
:10449000ABFF0837BD4680BD80B582B000AF786005
:1044A00006F046F80837BD4680BD00BF80B582B033
:1044B00000AF78607B6893F85E207B6883F86620A5
:1044C0007868FCF733F97B685B681B68002B05D0C4
:1044D0007B685B681B687868012198477B680322CA
:1044E0001A700837BD4680BD90B585B000AF7860C2
:1044F0007B6893F85C3003F07F027B6893F85D3053
:104500001B021343B3F5407F5AD0B3F5407F12DC52
:10451000022B00F0F280022B05DC002B28D0012BAF
:1045200000F0E080AAE1B3F5807F2ED0B3F5817F63
:1045300000F03A81A2E1B3F5C06F74D0B3F5C06F5B
:1045400008DC40F20232934200F06381B3F5A06FC1
:1045500051D093E1B3F5106F00F09C8040F6024219
:10456000934200F0BF80B3F5006F00F0868085E1D4
:104570007B6803F164027B681A657B6802225A65D6
:104580007B6800229A65012379E17B6893F85E30AD
:10459000012B13D17B68B3F8643023F002039AB285
:1045A0007B68A3F864207B6800221A657B68002280
:1045B0005A657B6800229A65012360E100235EE171
:1045C0007B6893F85E30012B13D17B68B3F86430BD
:1045D00043F002039AB27B68A3F864207B68002250
:1045E0001A657B6800225A657B6800229A65012360
:1045F00045E1002343E17B6893F85C30002B07D151
:104600007B6893F85D30052B02D17868FFF74EFF89
:104610007B6800221A657B6800225A657B6800224D
:104620009A6501232BE17B685B685C687B6893F883
:104630005F107B6893F85E207B6893F8603098B2D7
:104640007B6893F861301B029BB203439BB29BB221
:104650007868A047F860FB68002B01D100230EE1C9
:10466000FB685A687B681A65FB681A687B685A653C
:104670007B6800229A65012301E17B6803F16702F0
:104680007B681A657B6801225A657B6800229A65FF
:104690000123F4E07B6893F85E207B6883F8672051
:1046A0007B6893F86730002B03D17B6803221A7074
:1046B00002E07B6804221A707B685B681B68002B31
:1046C00005D07B685B681B687868022198477B6827
:1046D00000221A657B6800225A657B6800229A6571
:1046E0000123CCE07B68684A1A657B6802225A6520
:1046F0007B6800229A650123C1E07B6893F86030F3
:10470000DBB25BB2002B27DA7B6893F8603003F0F2
:104710000F03DBB278681946FCF764F90346012BF6
:1047200002D0022B0BD015E07B68584A1A657B68D3
:1047300002225A657B6800229A6501239FE07B680C
:10474000534A1A657B6802225A657B6800229A6583
:10475000012394E0002392E07B6893F8603003F03B
:104760000F03DBB278681946FCF718F90346012BF2
:1047700002D0022B0BD015E07B68444A1A657B6897
:1047800002225A657B6800229A65012377E07B68E4
:104790003F4A1A657B6802225A657B6800229A6547
:1047A00001236CE000236AE07B6893F85E30002B05
:1047B00001D0002363E07B6893F8603003F00F03BF
:1047C000002B1BDD7B6893F86030DBB25BB2002B03
:1047D0000ADA7B6893F8603003F00F03DBB2786885
:1047E0001946FCF769FA09E07B6893F8603003F03A
:1047F0000F03DBB278681946FCF742FA7B680022A7
:104800001A657B6800225A657B6800229A6501233D
:1048100035E07B6893F85E30002B01D000232EE05A
:104820007B6893F8603003F00F03002B1BDD7B687F
:1048300093F86030DBB25BB2002B0ADA7B6893F846
:10484000603003F00F03DBB278681946FCF7FCF91F
:1048500009E07B6893F8603003F00F03DBB27868FF
:104860001946FCF7D5F97B6800221A657B6800229F
:104870005A657B6800229A65012300E000231846F0
:104880001437BD4690BD00BFB8CA0108C0CA0108B0
:10489000BCCA010880B500AFFBF7EAFD80BD00BFD0
:1048A00080B485B000AF78607B6801221A707B68A5
:1048B00000225A600023FB600FE07A68FB6808332F
:1048C0009B00134400225A607B68FA680E32002174
:1048D00043F82210FB680133FB60FB68042BECD922
:1048E0007B6800221A817B6800225A811437BD46FA
:1048F0005DF8047B704700BF80B584B000AF78607E
:1049000039607B68002B01D03B68002B202383F3A8
:1049100011887B681B78012B02D07B681B78022BE7
:104920007B683A685A600023FB6009E07A68FB689C
:1049300002339B00134400225A60FB680133FB6082
:10494000FB68052BF2D97868FBF7AAFD7B68022289
:104950001A70002383F311881037BD4680BD00BF55
:1049600080B582B000AF7860202383F311887B6824
:104970001B78012B0AD07B681B78022B06D07B6842
:104980001B78032B02D07B681B78042B7868FBF71D
:1049900019FE7B6801221A70002383F311880837FF
:1049A000BD4680BD80B584B000AFF8600B467A602C
:1049B000FB72FB68002B01D07B68002B7B685B6976
:1049C000002B06D07B685B6918460021142215F085
:1049D000CFFB7B689B69002B06D07B689B691846E0
:1049E0000021142215F0C4FBFB7AFA6802339B0005
:1049F00013447A685A60FB7AF8681946FBF7B0FEF0
:104A00001037BD4680BD00BF80B584B000AF786070
:104A10007B681B8923F001039AB27B681A817B684B
:104A20005B8923F001039AB27B685A810123FB6002
:104A300009E07A68FB6802339B00134400225A6045
:104A4000FB680133FB60FB68052BF2D97868FBF744
:104A500097FF1037BD4680BD80B586B000AFF860C7
:104A60007A603B600B46FB72FB7AFA6802339B006C
:104A700013445B689B697B617B6900221A707B69C8
:104A80007A68DA607B693A685A607B6900229A60CA
:104A9000FB7AF8681946FBF7DFFF1837BD4680BD83
:104AA00080B586B000AFF8607A603B600B46FB7261
:104AB000FB7AFA6802339B0013445B685B697B6195
:104AC0007B6900221A707B697A68DA607B693A68D0
:104AD0005A607B6900229A60FB7AF8681946FCF7F5
:104AE00001F81837BD4680BD00000000000000003E
:104AF00080B584B002AF202383F31188AF4B9B684D
:104B0000002B0CBF01230023DBB20120194605F066
:104B10006BF80346002B03D0002383F3118890E148
:104B2000002383F31188202383F3118800237B6003
:104B30000AE07B68DBB24133DBB2A048194604F0DF
:104B40000FFB7B6801337B607B68032BF1D900236B
:104B500083F31188202383F31188984B5A69974B6C
:104B60009B699A4205D1954B9B68002B01D001238C
:104B700000E0002303F00103DBB20220194605F038
:104B800033F80346002B03D0002383F3118858E148
:104B9000002383F31188202383F3118887480021A1
:104BA00004F0DEFA034613F1040F0CBF01230023C7
:104BB000DBB20320194605F017F80346002B03D09B
:104BC000002383F311883CE1002383F31188002341
:104BD0007B600CE079484FF0FF3104F007FB03469F
:104BE000DBB2184604F0CCFF7B6801337B607B6846
:104BF000032BEFD9202383F31188704B9B68002B84
:104C00000CBF01230023DBB20420194604F0ECFFA3
:104C10000346002B03D0002383F3118811E1002306
:104C200083F311880520664904F0F4FF0346002B46
:104C300040F00781202383F3118800237B600AE082
:104C40007B68DBB24133DBB25C48194604F088FA7A
:104C50007B6801337B607B68032BF1D9002383F3EE
:104C60001188584B5B68554819460822002304F008
:104C7000FDFA38603B68042B0CBF01230023DBB234
:104C80000620194604F0B0FF0346002B40F0D980FF
:104C9000202383F31188494B9B68002B0CBF012311
:104CA0000023DBB20720194604F09EFF0346002BC9
:104CB00003D0002383F31188C3E0002383F311881A
:104CC000202383F3118800237B600AE07B68DBB23A
:104CD0004133DBB23948194604F042FA7B680133AC
:104CE0007B607B68032BF1D9002383F31188354B5C
:104CF0005B68324819460222002304F0B7FA386094
:104D00003B68022B0CBF01230023DBB208201946AD
:104D100004F06AFF0346002B40F09380294B5B6848
:104D2000264819460222002304F0A0FA38603B68A6
:104D3000022B0CBF01230023DBB20920194604F02B
:104D400053FF0346002B7CD1202383F311881B4B98
:104D50009B68002B0CBF01230023DBB20A201946FD
:104D600004F042FF0346002B03D0002383F3118895
:104D700067E0002383F31188202383F311880F4811
:104D8000002104F0EDF90D4804F0C6F9002383F387
:104D90001188202383F31188084B9B68002B0CBFDC
:104DA00001230023DBB20B20194604F01DFF03464C
:104DB000002B09D0002383F3118842E0FC08002077
:104DC000C0CC01083CC20108002383F311881E4BAC
:104DD00019681E4B9B699B685A1C00230093084668
:104DE0004FF4A8711A4B07F091F80246194B1A605C
:104DF000202383F31188184B9B68002B0CBF0123E1
:104E00000023DBB20C20194604F0EEFE0346002B13
:104E100003D0002383F3118813E0002383F3118868
:104E200004F064FF0C480A2104F0E0F90346B3F1F2
:104E3000FF3F0CBF01230023DBB20D20194604F015
:104E4000D3FE0837BD4680BD3CC20108303000208B
:104E50002D6C000828370020FC08002080B582B0A7
:104E600002AF064B1A68002300930548114604223E
:104E7000044B04F051FABD4680BD00BF3CC201089E
:104E800020090020ED6B000880B582B000AF78608B
:104E900004480021C82204F095FA00231846083778
:104EA000BD4680BD2009002080B586B002AF20231A
:104EB00083F31188B74B5A69B64B9B699A4205D167
:104EC000B44B9B68002B01D0012300E0002303F0CA
:104ED0000103DBB20120194604F086FE0346002BD5
:104EE00003D0002383F3118873E1002383F3118837
:104EF0000023FB600CE0FB68DBB24133DBB2A5486A
:104F000019464FF0FF3204F05DFAFB680133FB6095
:104F1000FB68032BEFD9202383F311889D4B9B68FB
:104F2000002B0CBF01230023DBB20220194604F042
:104F30005BFE0346002B03D0002383F3118848E176
:104F4000002383F311880023FB6011E0202383F307
:104F50001188904804F078FA0346FB72002383F32B
:104F60001188FB7A184604F00BFEFB680133FB60E6
:104F7000FB68032BEAD9202383F31188854B5A69F8
:104F8000844B9B699A4205D1824B9B68002B01D0D0
:104F9000012300E0002303F00103DBB203201946E4
:104FA00004F022FE0346002B03D0002383F3118874
:104FB0000FE1002383F311880420774904F02AFECF
:104FC0000346002B40F00581202383F311887148AC
:104FD00004F03AFA034613F1030F0CBF0123002338
:104FE000DBB20520194604F0FFFD0346002B03D079
:104FF000002383F31188ECE0002383F31188674BCF
:105000005B68644819460822002304F061FA78605E
:105010007B68042B0CBF01230023DBB2062019465A
:1050200004F0E2FD0346002B40F0D380202383F3FD
:105030001188584B9B68002B0CBF01230023DBB267
:105040000720194604F0D0FD0346002B03D00023AF
:1050500083F31188BDE0002383F311884F4B196857
:105060004F4B9B699B685A1C0023009308464FF4E2
:10507000A8714C4B06F04AFF02464B4B1A602023A6
:1050800083F31188434B1B691A46424BDB68D31AE2
:105090001A46404B9B68D31A042B0CBF01230023F4
:1050A000DBB20820194604F09FFD0346002B03D015
:1050B000002383F311888CE0002383F3118804F02C
:1050C00015FE202383F31188324804F051F90023A0
:1050D00083F31188202383F311882E4B1B691A4612
:1050E0002C4BDB68D31A1A462A4B9B689A420CBF9A
:1050F00001230023DBB20920194604F075FD0346A5
:10510000002B03D0002383F3118862E0002383F394
:105110001188224B5B681F4819460222002304F0C5
:10512000D7F978607B68022B0CBF01230023DBB228
:105130000A20194604F058FD0346002B49D1174BAD
:105140005B68144819460222002304F0C1F9786014
:105150007B68022B0CBF01230023DBB20B20194616
:1051600004F042FD0346002B33D1202383F3118842
:10517000084B9B68002B0CBF01230023DBB20C20E3
:10518000194604F031FD0346002B0FD0002383F3B2
:1051900011881EE020090020C0CC01083CC2010893
:1051A00030300020894E000828370020002383F388
:1051B0001188094800210A2204F004F90346B3F1DA
:1051C000FF3F0CBF01230023DBB20D20194604F082
:1051D0000BFD1037BD4680BD2009002080B584B08E
:1051E00000AF786005F0B8FEF860FB685B6BBB60F1
:1051F000F868B96805F0D6FEBB68002BF2D1002331
:1052000018461037BD4680BD80B584B000AF7860C9
:105210000023FB6004F0D4FD4FF47A7004F0EAFD43
:105220007868012105F068FEFB680133FB60084BDC
:105230001B7883F00103DBB2002BF1D178680021E9
:1052400005F05AFEFB6818461037BD4680BD00BF0A
:105250004037002080B584B002AF164B1968164B5A
:105260009B699B685A1E0023009308464FF4A8715F
:10527000124B06F04BFE0246114B1A60104B1B6896
:105280001846FFF7C1FF786004F030FD0D4804F0C8
:1052900017FC786804F0CAFB0B4804F011FC7B682B
:1052A0005B00184604F0C2FB084804F023FC0837F2
:1052B000BD4680BD3CC2010830300020DD510008F1
:1052C00028370020C8CC0108D8CC0108E4CC01085C
:1052D00080B584B002AF164B1968164B9B699B686A
:1052E0005A1C0023009308464FF4A871124B06F095
:1052F0000DFE0246114B1A60104B1B681846FFF753
:1053000083FF786004F0F2FC0D4804F0D9FB786864
:1053100004F08CFB0B4804F0D3FB7B685B00184661
:1053200004F084FB084804F0E5FB0837BD4680BD67
:105330003CC2010830300020DD5100082837002031
:10534000C8CC0108D8CC0108E4CC010880B483B0F3
:1053500000AF78607B6818460C37BD465DF8047B6B
:10536000704700BF80B584B002AF384B1968384B26
:105370009B699B685A1C0023009308464FF4A87150
:10538000344B06F0C3FD0246334B1A602F4B59686D
:105390002F4B9B699B689A1E0023009308464FF48D
:1053A000A8712E4B06F0B2FD02462B4B5A60274BDC
:1053B0009968274B9B699B68DA1E00230093084677
:1053C0004FF4A871254B06F0A1FD0246224B9A60CE
:1053D0001E4BD9681E4B9B699B681A1F00230093C4
:1053E00008464FF4A8711D4B06F090FD02461A4B7B
:1053F000DA60164B1969164B9B699B685A1F00238C
:10540000009308464FF4A871144B06F07FFD024646
:10541000114B1A61104B1B681846FFF7F5FE7860B8
:1054200004F064FC0E4804F04BFB786804F0FEFACC
:105430000C4804F045FB7B685B00184604F0F6FA64
:10544000094804F057FB0837BD4680BD3CC201083F
:1054500030300020DD510008283700204D5300086F
:10546000C8CC0108D8CC0108E4CC010880B584B0D0
:1054700000AF78600B4B9B69FB60202383F311889E
:10548000022006F067FBFB685B6ABB60BB68002B11
:10549000F6D0002383F31188002318461037BD4649
:1054A00080BD00BF3030002080B584B002AF2B4BF0
:1054B00019682B4B9B699B685A1C00230093084674
:1054C0004FF4A871274B06F021FD0246264B1A60C7
:1054D000254B1B683B6000237B6004F071FC4FF49C
:1054E0007A7004F087FC202383F311883868002148
:1054F00006F0CAFB3868002106F0C6FB38680021B8
:1055000006F0C2FB3868002106F0BEFB002383F3DF
:1055100011887B6804337B60144B1B7883F0010394
:10552000DBB2002BDFD1202383F3118838684FF0E2
:10553000FF3106F0A9FB002383F3118804F0D6FBAA
:105540000B4804F0BDFA7B685B00184604F06EFA65
:10555000084804F0CFFA0837BD4680BD3CC20108B8
:10556000303000206D5400082837002040370020DC
:10557000C8CC0108E4CC010880B586B002AF002396
:10558000FB60184B1B68BB60174B9B699B68013B1A
:105590007B6004F015FC4FF47A7004F02BFC0023C0
:1055A0000093B8684FF4A8717A68104B06F0AEFC0F
:1055B0000346184606F0A6FDFB680133FB600C4B62
:1055C0001B7883F00103DBB2002BE8D1094804F01B
:1055D00077FAF86804F02AFA074804F08BFA1037D3
:1055E000BD4680BD3CC20108303000204D5300084C
:1055F00040370020C8CC0108F0CC010880B586B047
:1056000002AF0023FB60164B1B68BB60154B9B6908
:105610009B6801337B6004F0D3FB4FF47A7004F095
:10562000E9FB00230093B8684FF4A8717A680E4B29
:1056300006F06CFCFB680133FB600C4B1B7883F0BD
:105640000103DBB2002BECD1094804F039FAF86809
:1056500004F0ECF9074804F04DFA1037BD4680BD60
:105660003CC20108303000204D5300084037002074
:10567000C8CC0108F0CC010880B582B000AF7860DA
:1056800002E0074804F0A2FC064B9B695B7F03F035
:105690000403002BF5D0002318460837BD4680BD13
:1056A000A43700203030002080B500AF0248002130
:1056B00004F026FC80BD00BFA437002080B584B074
:1056C00002AF454B1968454B9B699B685A1D0023E7
:1056D000009308464FF4A871414B06F017FC0246B0
:1056E000404B1A603C4B59683C4B9B699B681A1DA8
:1056F0000023009308464FF4A871394B06F006FCCE
:105700000246384B5A60344B9968344B9B699B680E
:10571000DA1C0023009308464FF4A871304B06F0C2
:10572000F5FB02462F4B9A602B4BD9682B4B9B699C
:105730009B689A1C0023009308464FF4A871284BDD
:1057400006F0E4FB0246274BDA60234B1969234B32
:105750009B699B685A1C0023009308464FF4A8716C
:105760001F4B06F0D3FB02461E4B1A6100237B60E1
:1057700004F026FB4FF47A7004F03CFB1A48002139
:1057800004F0D8FB7B6801337B60184B1B7883F0F7
:105790000103DBB2002BF1D104F08AFA1248002198
:1057A00004F0C8FB04F0A2FA114804F089F9786803
:1057B00004F03CF90F4804F083F97A6813465B0063
:1057C00013445B00184604F031F90B4804F092F9D9
:1057D0000837BD4680BD00BF3CC201083030002004
:1057E0007956000828370020A437002040370020D1
:1057F000C8CC0108FCCC0108E4CC010880B582B01B
:1058000000AF786006F028FC06F026FC06F024FCC9
:1058100006F022FC7B681B681A1D7B681A60064B29
:105820009B695B7F03F00403002BEBD00023184639
:105830000837BD4680BD00BF3030002080B584B041
:1058400002AF00237B6004F0BBFA354B1968354B7F
:105850009B699B685A1E3B1D009308464FF4A87134
:10586000314B06F053FB0246304B1A602C4B596803
:105870002C4B9B699B685A1E3B1D009308464FF4B6
:10588000A871294B06F042FB0246284B5A60244B74
:105890009968244B9B699B685A1E3B1D00930846E0
:1058A0004FF4A871204B06F031FB02461F4B9A6063
:1058B0001B4BD9681B4B9B699B685A1E3B1D009371
:1058C00008464FF4A871184B06F020FB0246174B10
:1058D000DA60134B1969134B9B699B685A1E3B1D79
:1058E000009308464FF4A8710F4B06F00FFB0246D9
:1058F0000E4B1A614FF47A7006F080FB04F0D8F971
:1059000004F0F4F90A4804F0DBF87B68184604F068
:105910008DF8084804F0EEF80837BD4680BD00BF9A
:105920003CC2010830300020FD5700082837002015
:10593000C8CC0108E4CC010880B584B002AF0023D4
:105940000093284828491022002303F0B9FB0023C4
:105950007B6004F035FA4FF47A7004F04BFA2023A0
:1059600083F311881F48002103F0FAFB1D48012131
:1059700003F0F6FB1B48022103F0F2FB1948032158
:1059800003F0EEFB002383F3118816484FF0FF313C
:1059900003F02CFC13484FF0FF3103F027FC1148B3
:1059A0004FF0FF3103F022FC0E484FF0FF3103F0BF
:1059B0001DFC7B6801337B600C4B1B7883F001037B
:1059C000DBB2002BCBD10A4804F07AF87B689B004D
:1059D000184604F02BF8074804F08CF80837BD4649
:1059E00080BD00BFC0370020E437002040370020D2
:1059F000C8CC010810CD010880B483B000AF786036
:105A00000C37BD465DF8047B704700BF80B582B09F
:105A100000AF00237B6004F0D3F94FF47A7004F0F8
:105A2000E9F9202383F3118816480121164A00233F
:105A300005F0A8FF154842F21071134A002305F043
:105A4000A1FF104805F0E8FF104805F0E5FF00232E
:105A500083F311887B6801337B600D4B1B7883F0E7
:105A60000103DBB2002BDCD10A4804F029F87B6883
:105A70005B00184603F0DAFF074804F03BF80837EC
:105A8000BD4680BDF4370020F959000808380020D1
:105A900040370020C8CC01081CCD010880B500AFFC
:105AA0000248012104F02CFA80BD00BFA437002079
:105AB00080B582B000AF00237B6004F081F94FF421
:105AC0007A7004F097F9184804F080FA164804F048
:105AD00021FB154804F07AFA134804F01BFB124826
