:020000040800F2
:1000000000040020D1560008A1570008B15700088D
:10001000A1570008A1570008A1570008A1570008E0
:10002000A1570008A1570008A1570008015800086F
:10003000A1570008A1570008A1570008E157000880
:10004000A1570008A1570008A1570008A1570008B0
:10005000A1570008A1570008A1570008A1570008A0
:10006000A1570008A1570008A1570008F1E50008B2
:1000700031E6000871E60008B1E60008F1E6000884
:1000800031E7000871E70008A1570008A1570008F0
:10009000A1570008A1570008A1570008A157000860
:1000A000A1570008A1570008A1570008A157000850
:1000B000A1570008A1570008A1570008A157000840
:1000C000A1570008A1570008A1570008A157000830
:1000D000A1570008A1570008A1570008A157000820
:1000E000A1570008A1570008A1570008A157000810
:1000F000A1570008A1570008A1570008B1E7000860
:10010000A1570008A1570008A1570008A1570008EF
:10011000A1570008A1570008A1570008A1570008DF
:10012000F1E7000831E8000871E80008B1E80008CC
:10013000F1E80008A1570008A1570008A1570008DE
:10014000A1570008A1570008A1570008A1570008AF
:1001500031E9000871E90008B1E90008A157000879
:10016000B1F60008D1F60008A1570008A157000811
:10017000A157000801070108A1570008A15700086E
:10018000A1570008A1570008A1570008A15700086F
:10019000A1570008A1570008A1570008A15700085F
:0C01A000A1570008A1570008A157000853
:1001B00080F0004002E000BF81F0004142001FBF1C
:1001C0005FEA410392EA030F7FEA226C7FEA236C25
:1001D0006AD04FEA1262D2EB1363C1BFD21841401A
:1001E00048404140B8BF5B42192B88BF704710F0B0
:1001F000004F40F4000020F07F4018BF404211F053
:10020000004F41F4000121F07F4118BF494292EABA
:10021000030F3FD0A2F1010241FA03FC10EB0C00E6
:10022000C3F1200301FA03F100F0004302D5494273
:1002300060EB4000B0F5000F13D3B0F1807F06D320
:1002400040084FEA310102F10102FE2A51D2B1F118
:10025000004F40EBC25008BF20F0010040EA03000D
:100260007047490040EB000010F4000FA2F10102BA
:10027000EDD1B0FA80FCACF1080CB2EB0C0200FA44
:100280000CF0AABF00EBC25052421843BCBFD04092
:100290001843704792F0000F81F4000106BF80F40C
:1002A00000000132013BB5E74FEA41037FEA226CCF
:1002B00018BF7FEA236C21D092EA030F04D092F09A
:1002C000000F08BF0846704790EA010F1CBF0020CE
:1002D000704712F07F4F04D1400028BF40F000402B
:1002E000704712F100723CBF00F50000704700F04B
:1002F000004343F0FE4040F4000070477FEA226272
:1003000016BF08467FEA23630146420206BF5FEA42
:10031000412390EA010F40F4800070474FF0000342
:1003200004E000BF10F0004348BF40425FEA000C09
:1003300008BF704743F0964301464FF000001CE0B1
:1003400050EA010208BF70474FF000030AE000BF07
:1003500050EA010208BF704711F0004302D5404245
:1003600061EB41015FEA010C02BF844601460020B7
:1003700043F0B64308BFA3F18053A3F50003BCFAD2
:100380008CF2083AA3EBC25310DB01FA02FC63447F
:1003900000FA02FCC2F12002BCF1004F20FA02F286
:1003A00043EB020008BF20F00100704702F1200279
:1003B00001FA02FCC2F1200250EA4C0021FA02F2DA
:1003C00043EB020008BF20EADC7070470000000029
:1003D0004FF0FF0C1CEAD0521EBF1CEAD15392EA28
:1003E0000C0F93EA0C0F6FD01A4480EA010C400204
:1003F00018BF5FEA41211ED04FF0006343EA50105E
:1004000043EA5111A0FB01310CF00040B1F5000F9F
:100410003EBF490041EAD3715B0040EA010062F14E
:100420007F02FD2A1DD8B3F1004F40EBC25008BF38
:1004300020F00100704790F0000F0CF0004C08BF56
:1004400049024CEA502040EA51207F3AC2BFD2F123
:10045000FF0340EAC250704740F400004FF0000331
:10046000013A5DDC12F1190FDCBF00F0004070476B
:10047000C2F10002410021FA02F1C2F1200200FAA9
:1004800002FC5FEA310040F1000053EA4C0308BF70
:1004900020EADC70704792F0000F00F0004C02BFC1
:1004A000400010F4000F013AF9D040EA0C0093F03C
:1004B000000F01F0004C02BF490011F4000F013B96
:1004C000F9D041EA0C018FE70CEAD15392EA0C0F04
:1004D00018BF93EA0C0F0AD030F0004C18BF31F06F
:1004E000004CD8D180EA010000F00040704790F045
:1004F000000F17BF90F0004F084691F0000F91F0E9
:10050000004F14D092EA0C0F01D142020FD193EAAE
:100510000C0F03D14B0218BF084608D180EA010036
:1005200000F0004040F0FE4040F40000704740F012
:10053000FE4040F4400070474FF0FF0C1CEAD052E0
:100540001EBF1CEAD15392EA0C0F93EA0C0F69D03C
:10055000A2EB030280EA010C49024FEA402037D0A7
:100560004FF0805343EA111143EA10130CF000409E
:100570008B4238BF5B0042F17D024FF4000C8B428E
:1005800024BF5B1A40EA0C00B3EB510F24BFA3EB6E
:10059000510340EA5C00B3EB910F24BFA3EB91033E
:1005A00040EA9C00B3EBD10F24BFA3EBD10340EA98
:1005B000DC001B0118BF5FEA1C1CE0D1FD2A3FF6DE
:1005C00050AF8B4240EBC25008BF20F00100704793
:1005D0000CF0004C4CEA50207F32C2BFD2F1FF0336
:1005E00040EAC250704740F400004FF00003013A67
:1005F00037E792F0000F00F0004C02BF400010F40B
:10060000000F013AF9D040EA0C0093F0000F01F01E
:10061000004C02BF490011F4000F013BF9D041EA40
:100620000C0195E70CEAD15392EA0C0F08D1420273
:100630007FF47DAF93EA0C0F7FF470AF084676E746
:1006400093EA0C0F04D14B023FF44CAF08466EE71F
:1006500030F0004C18BF31F0004CCAD130F00042ED
:100660007FF45CAF31F000437FF43CAF5FE700BF45
:100670004FEA4002B2F1FE4F0FD34FF09E03B3EBAF
:1006800012620DD94FEA002343F0004310F0004FEF
:1006900023FA02F018BF404270474FF00000704745
:1006A00012F1610F01D1420205D110F0004008BFE4
:1006B0006FF0004070474FF00000704700000000EE
:1006C000844641EA000313F003036DD1403A41D35D
:1006D00051F8043B40F8043B51F8043B40F8043B1C
:1006E00051F8043B40F8043B51F8043B40F8043B0C
:1006F00051F8043B40F8043B51F8043B40F8043BFC
:1007000051F8043B40F8043B51F8043B40F8043BEB
:1007100051F8043B40F8043B51F8043B40F8043BDB
:1007200051F8043B40F8043B51F8043B40F8043BCB
:1007300051F8043B40F8043B51F8043B40F8043BBB
:1007400051F8043B40F8043B51F8043B40F8043BAB
:10075000403ABDD2303211D351F8043B40F8043B4B
:1007600051F8043B40F8043B51F8043B40F8043B8B
:1007700051F8043B40F8043B103AEDD20C3205D35B
:1007800051F8043B40F8043B043AF9D2043208D053
:10079000D2071CBF11F8013B00F8013B01D30B88C5
:1007A00003806046704700BF082A13D38B078DD0A3
:1007B00010F003038AD0C3F10403D21ADB071CBF75
:1007C00011F8013B00F8013B80D331F8023B20F8DF
:1007D000023B7BE7043AD9D3013A11F8013B00F818
:1007E000013BF9D20B7803704B7843708B788370A0
:1007F000604670470000000000000000000000009C
:100800000EB400B584B0019006AB0393019805992E
:10081000039A00F0F5FA04B05DF804EB03B07047FA
:1008200000B587B0039002910192039B002B02D088
:10083000019B039A1A60019B1B680593059B002B83
:1008400001D1002320E00598029910F079FE0346BB
:10085000059A134405930598029910F049FE024643
:10086000019B1A60019B1B68002B06D0019B1B6833
:10087000591C019A116000221A70059B1B78002BED
:1008800001D0059B00E00023184607B05DF804FB8B
:1008900000B583B00190009101980349009AFFF7D9
:1008A000AFFF03B05DF804FB80150108AFF30080D3
:1008B00000B583B00190009109E0009B1B6801988E
:1008C00006491A46FFF79CFF009B08330093009BE4
:1008D0001B68002BF1D103B05DF804FB8C150108F7
:1008E00000B587B0059004910392049B002B04DDB2
:1008F00005981949FFF7CCFF2AE005981749184ACF
:10090000FFF77EFF05981749174AFFF779FF05980B
:100910001649174AFFF774FF05981649164AFFF75C
:100920006FFF05981549164AFFF76AFF05981549A4
:10093000154AFFF765FF05981449154AFFF760FF50
:10094000144B009305981449144A154BFFF758FFB0
:1009500007B05DF804FB00BF901501089815010869
:10096000AC150108B4150108C815010810160108D6
:100970002416010830160108441601085016010813
:10098000641601087C16010890160108C4160108B7
:10099000D8160108281701080017010818170108C0
:1009A00024170108AFF30080AFF30080AFF300809D
:1009B00000B585B0039002910192029B002B04DDEB
:1009C00003980749FFF764FF06E0064BDB680398CE
:1009D00005491A46FFF714FF05B05DF804FB00BF98
:1009E00034170108C82B00203C170108AFF3008022
:1009F00000B585B0039002910192009313E0039B30
:100A00001B681846019910F04BFD0346002B07D1D7
:100A1000039B5B6802980099069A9847002307E0B9
:100A2000039B08330393039B1B68002BE7D101232F
:100A3000184605B05DF804FBAFF30080AFF300800B
:100A400000B5A1B00390039B1B681D93039B5B68DB
:100A50001C93564B9B69564A9A611D985549FFF75E
:100A6000CFFE1D985449FFF7CBFE0AAB1D981946DF
:100A7000402200F0EDF80346002B04D01D984F49AA
:100A8000FFF7BEFE8AE00AAA1AAB10464C491A4686
:100A9000FFF7C6FE1B901B9B1E9300231F9312E0C3
:100AA0001F9B032B06DD1D984649FFF7A9FE002377
:100AB0001E9312E01F9B5A1C1F929B0020AA1344F6
:100AC0001B9A43F86C2C1AAB00203D491A46FFF7DD
:100AD000A7FE1B901B9B002BE2D11F9B9B0020AA13
:100AE0001344002243F86C2C1E9B002B55D01E98FB
:100AF000354910F0D5FC0346002B08D11F9B002B75
:100B000004DD1D983049FFF7C3FE46E046E01E981D
:100B10002E4910F0C5FC0346002B1BD11F9B002B58
:100B200004DD1D982949FFF7B3FE36E01D982849DA
:100B3000FFF766FE1D982749FFF7BAFE1C9B002BA6
:100B400003D01D981C99FFF7B3FE1D982249FFF7AB
:100B500057FE22E005AB00931E481D991E9A1F9B6D
:100B6000FFF746FF0346002B17D01C9B002B0AD033
:100B700005AB00931C981D991E9A1F9BFFF738FF29
:100B80000346002B09D01D9814491E9AFFF738FE22
:100B90001D981349FFF734FE63E762E7002000F079
:100BA00027F80023184621B05DF804FBD82B00205D
:100BB000441701084C170108641701086C17010855
:100BC000781701087C170108941701089C17010881
:100BD000A417010800080020BC170108C01701086D
:100BE000C4170108AFF30080AFF30080AFF30080BB
:100BF00000B583B00190202383F3118804480021BD
:100C000006F0E6FA019805F043FB03B05DF804FB3B
:100C100048090020AFF30080AFF30080AFF30080FD
:100C200000B587B0059004910392059B00930020C6
:100C30000499039A034B05F0EBFB0346184607B0F3
:100C40005DF804FB410A0008AFF30080AFF30080B9
:100C500000B587B0039002910192029B0593039B1C
:100C60001B685B680DF11302039811460122984737
:100C70000346002B01D1012355E09DF81330042BCE
:100C800005D103982A49FFF7BBFD01234BE09DF8EE
:100C90001330082B1ED1059A029B9A4219D0039B50
:100CA0001B689B689DF81320039811469847039B87
:100CB0001B689B68039820219847039B1B689B68CF
:100CC0009DF81320039811469847059B013B059317
:100CD00028E027E09DF813300D2B08D10398154923
:100CE000FFF78EFD059B00221A7000231BE09DF884
:100CF00013301F2B00D815E0019B013B029A1A44C8
:100D0000059B9A420ED9039B1B689B689DF8132094
:100D1000039811469847059B5A1C05929DF813208D
:100D20001A709CE79BE7184607B05DF804FB00BF0C
:100D3000CC170108BC170108AFF30080AFF30080A7
:100D400088B00390029101920093029B0593009B4F
:100D5000002B02D1029B049301E0009B0493039BB0
:100D60000B330693059B019AB3FBF2F2019901FB49
:100D700002F29B1A0793079B30330793079B392B8B
:100D800002DD079B07330793069B013B0693079BF6
:100D9000DAB2069B1A70059A019BB2FBF3F3059336
:100DA000049A019BB2FBF3F30493049B002BD9D16B
:100DB000039B0B331A46069BD31A0793039B5A1CBB
:100DC0000392069A511C069112781A70079B013BF8
:100DD0000793079B002BF1D1039B184608B070477F
:100DE00000B585B003900291019203980299019A8F
:100DF0000023FFF7A5FF0346184605B05DF804FB86
:100E000000B591B0039002910192029B5A1C02928C
:100E10001B788DF837309DF83730002B00D105E274
:100E20009DF83730252B08D0039B1B689B689DF8E5
:100E30003720039811469847F7E105AB0F9305ABB0
:100E40000E9300238DF82630029B1B782D2B05D1A5
:100E5000029B0133029301238DF8263020238DF865
:100E60003630029B1B782E2B03D0029B1B78302B35
:100E700005D1029B0133029330238DF836300023D5
:100E80000A93029B5A1C02921B788DF837309DF80A
:100E900037302F2B09D99DF83730392B05D89DF8DD
:100EA0003730303B8DF8373012E09DF837302A2B41
:100EB00006D1019B1A1D01921B688DF8373007E09F
:100EC00000BF00230B939DF837302E2B37D10AE05B
:100ED0000A9A13469B0013445B001A469DF837306C
:100EE00013440A93CDE7029B5A1C02921B788DF89B
:100EF00037309DF837302F2B09D99DF83730392BF3
:100F000005D89DF83730303B8DF837300BE09DF831
:100F100037302A2B06D1019B1A1D01921B688DF8D0
:100F2000373000E00BE00B9A13469B0013445B0044
:100F30000B939DF837300B9A13440B93D3E79DF82E
:100F400037306C2B03D09DF837304C2B0ED101235A
:100F50008DF82730029B1B78002B06D0029B5A1C71
:100F600002921B788DF8373013E012E09DF837308D
:100F7000402B05D99DF837305A2B01D8012300E0CA
:100F800000238DF827309DF8273003F001038DF8FA
:100F900027309DF83730443B342B00F2E28001A229
:100FA00052F823F0DB1000086311000863110008F9
:100FB0006311000863110008DB10000863110008CA
:100FC0006311000863110008631100086311000831
:100FD0002D11000863110008631100086311000857
:100FE000631100086311000825110008631100084F
:100FF000631100081D110008631100086311000847
:1010000063110008631100086311000863110008F0
:1010100063110008631100086311000863110008E0
:1010200079100008DB100008631100086311000844
:101030006311000863110008DB1000086311000849
:1010400063110008631100086311000863110008B0
:101050002D110008631100086311000863110008D6
:10106000931000086311000825110008631100089F
:10107000631100081D11000820238DF836300F9BE6
:101080005A1C0F92019A111D01911268D2B21A7066
:101090006EE020238DF83630019B1A1D01921B68EB
:1010A0000E930E9B002B01D1624B0E930B9B002BDA
:1010B00002D147F6FF730B930E9B0F9302E00F9B39
:1010C00001330F930F9B1B78002B05D00B9B013B2B
:1010D0000B930B9B002BF2DA4AE09DF82730002B94
:1010E00005D0019B1A1D01921B68089304E0019B27
:1010F0001A1D01921B680893089B002B07DA0F9BAF
:101100005A1C0F922D221A70089B5B4208930F986D
:1011100008990A22FFF764FE0F9029E010238DF84A
:10112000373006E00A238DF8373002E008238DF8C7
:1011300037309DF82730002B05D0019B1A1D0192F6
:101140001B68089304E0019B1A1D01921B68089319
:101150009DF837300F9808991A46FFF741FE0F9017
:1011600006E00F9B5A1C0F929DF837201A7000BFA3
:101170000F9A0E9BD31A0C930A9A0C9BD31A0A93BC
:101180000A9B002B01DA00230A939DF8263083F096
:101190000103DBB2002B02D00A9B5B420A930A9B3D
:1011A000002B22DA0E9B1B782D2B10D19DF83630A8
:1011B000302B0CD1039B1B689A680E9B591C0E9117
:1011C0001B780398194690470C9B013B0C93039B9B
:1011D0001B689B689DF836200398114698470A9B28
:1011E00001330A930A9B002BF1D109E0039B1B6892
:1011F0009A680E9B591C0E911B78039819469047CC
:101200000C9B013B0C930C9B002BEFDA0AE0039B39
:101210001B689B689DF836200398114698470A9BE7
:10122000013B0A930A9B002BF1D1EEE511B05DF86A
:1012300004FB00BFD0170108AFF30080AFF30080BC
:101240000EB400B584B0019006AB039301980599E4
:10125000039AFFF7D5FD04B05DF804EB03B07047C7
:1012600000B583B001900A4B9B690A4A9A610A4B08
:101270004FF480425A834FF4FA7004F0B1FF064BEA
:101280004FF480421A834FF4FA7004F0A9FFEEE79E
:10129000D82B0020E017010800180240AFF30080AF
:1012A00000B587B0039002910192029B002B04DDF0
:1012B00003981049FFF7C4FF18E004AB002019465B
:1012C00007F066F8059006F01BFF034603980A49ED
:1012D0001A46FFF7B5FF03980849059AFFF7B0FFD4
:1012E000049B039806491A46FFF7AAFF07B05DF86A
:1012F00004FB00BFEC170108FC1701081C180108CB
:1013000034180108AFF30080AFF30080AFF3008022
:1013100030B58BB0079006910592069B002B04DD3B
:1013200007981649FFF78CFF26E007981449FFF746
:1013300087FF05F0CDF80990099A099BDB680999A8
:101340008D680999897F01390C460999097F0846FA
:101350000C4951F820000999096A009501940290FE
:10136000039107980849FFF76BFF099805F0C8F843
:101370000990099B002BDFD10BB030BD5418010838
:10138000681801081808002098180108AFF30080B9
:1013900000B589B0059004910392049B002B04DDF5
:1013A00005980F49FFF74CFF17E00E4B9B699B68B0
:1013B000059A009200204FF4E8711A460A4B05F096
:1013C00027F80790079B002B04D105980749FFF7E2
:1013D00037FF02E0079804F093FF09B05DF804FBC3
:1013E000B8180108D82B0020318A0008C818010855
:1013F00000B585B00023039300F05AFC2F480CF091
:10140000FFF82E482E490CF033F92D4B1B689B6ECC
:101410002B4A1268926E926B22F400229A634FF468
:101420007A7004F0DDFE264B1B68184625490CF047
:101430009FFD234B1B689B6E214A1268926E926B34
:1014400042F400229A63002300931F484FF4A871CE
:101450004B221E4B04F044FE002300931C484FF423
:101460000D614A221B4B04F03BFE002300931A48F7
:101470004FF40D614A22194B04F032FE039B002BFE
:101480000ED10E4BD3F854321B681B78042B10D1AD
:1014900013484FF40D614022FFF7C2FB039008E0B0
:1014A000039B1B7F0E2B04D1039804F069FF0023DC
:1014B00003934FF47A7004F093FEDFE74C090020A9
:1014C000A024010890240108A80B00206112000844
:1014D000F80C0020C1150008C815002001160008EE
:1014E000E0220108AFF30080AFF30080AFF300808B
:1014F00082B001908DF803108DF80220ADF8003015
:101500009DF80330022B05D0032B05D0012B0DD104
:10151000084B0CE0084B0AE09DF80230032B05D87D
:101520009DF80230DA00054B134400E00023184612
:1015300002B070471023010870230108102401082D
:1015400000B583B001900B468DF803309DF8033051
:10155000052B23D801A252F823F000BF9D150008E7
:101560009D150008751500089D1500089D150008BB
:101570009D150008202383F3118801980121094A51
:101580000CF02EFD01980221074A0CF029FD0748B6
:101590000CF0A6F8002383F3118800E000BF03B02D
:1015A0005DF804FB30240108602401084C09002088
:1015B000704700BFAFF30080AFF30080AFF300804F
:1015C00000B583B00190FFF7F3FF4FF47A7004F099
:1015D00007FEFAE7AFF30080AFF30080AFF30080BF
:1015E0000EB400B584B0019006AB03930198059941
:1015F000039AFFF705FC04B05DF804EB03B07047F5
:1016000000B585B001900D4B9B690D4A9A6100F0C1
:10161000BFF800F0EDF8002303930023029303AA20
:1016200002AB1046194600F023F9064BDA68039B1B
:1016300005480649FFF7D4FFEDE700BFD82B00208F
:1016400070190108C82B00204C0900207C190108E2
:1016500000B583B01E238DF8073009480CF0E0F97F
:101660000DF10703064801211A460CF0F9F905208F
:1016700004F0B6FD02480CF0E3F903B05DF804FB9A
:101680006C360020AFF30080AFF30080AFF3008032
:1016900000B585B003468DF807309DF807305B0034
:1016A000DBB263F05F03DBB2DBB28DF80F300E48C4
:1016B0000CF0B6F90DF10F030B4801211A460CF09E
:1016C000CFF903AB084802211A460CF0F9F9064895
:1016D0000CF0B6F99DF80C301A029DF80D30134449
:1016E000184605B05DF804FB6C360020AFF30080AF
:1016F00000B585B003468DF8073000238DF80F3014
:101700009DF80730002B02D0012B04D007E04823BE
:101710008DF80F3005E058238DF80F3001E00023DD
:101720002FE01A480CF07CF90DF10F031748012146
:101730001A460CF095F915480CF082F90A2004F0CD
:101740004FFD00238DF80F3010480CF069F90DF1B2
:101750000F030E4801211A460CF082F903AB0B4827
:1017600003211A460CF0ACF908480CF069F99DF811
:101770000C301A049DF80D301B021A449DF80E30EF
:101780001344184605B05DF804FB00BF6C3600201A
:1017900008B5114B10221A830F48102101220DF0B9
:1017A0005FFB0D48042140F292220DF059FB0A48DC
:1017B000202140F282220DF053FB0748402140F2E5
:1017C00092220DF04DFB05480CF0EAF8034804495D
:1017D0000CF0FEF808BD00BF001002406C3600207F
:1017E000B0240108AFF30080AFF30080AFF30080B6
:1017F00008B5FFF72DFF0120FFF74AFF03469AB215
:10180000124B1A800220FFF743FF03469AB2104B97
:101810001A800320FFF73CFF03469AB20D4B1A8053
:101820000420FFF735FF03469AB20B4B1A800520C0
:10183000FFF72EFF03469AB2084B1A800620FFF7E7
:1018400027FF03469AB2064B1A8008BDD41E00201B
:10185000D61E0020D81E0020DA1E0020DC1E00202C
:10186000DE1E0020AFF30080AFF30080AFF30080F6
:101870002DE9F04FA9B0179016910020FFF738FF1F
:1018800021900120FFF734FF2090209B18464FF055
:101890000001934B1B889AB24FF000031D0245EAEA
:1018A0001265140202460B46121B63EB0503CDE9D9
:1018B0001E238C4B1B889AB24FF000031E9903FB2A
:1018C00001F01F9902FB01F108441E99A1FB0223BC
:1018D000C1180B46D60D46EA4326DF1516F5FA6207
:1018E00047F10003CDE91C237F4B1B889AB24FF0D0
:1018F00000034FEA034B4BEA124B4FEA024A7B4B81
:101900001B889AB24FF000031E9903FB01F01F9948
:1019100002FB01F108441E99A1FB0223C1180B46EA
:101920004FEAD21848EA43684FEAE31942464B4669
:1019300012EB0A0243EB0B03CDE91A236C4B1B8815
:101940009AB24FF00003D8031590159941EA52411D
:101950001591D4031494674B1B889AB24FF000037F
:101960001E9903FB01F01F9902FB01F108441E9927
:10197000A1FB0223C1180B46150A1295DDF848C0D9
:101980004CEA036CCDF848C018121390DDE914231B
:10199000DDE91245121943EB0503CDE918234FF099
:1019A00000024FF00003CDE926234FF000024FF074
:1019B0000003CDE924234FF000024FF00003CDE9EE
:1019C0002223DDE91C23142A73F1000580F20D8126
:1019D0001F9A1E9B03FB02F11F9A1E9B03FB02F33F
:1019E00019441E9A1E9BA2FB032319440B464FEA7F
:1019F000D27CCDF828C00A9840EA43000A90D91753
:101A00000B91DDE90A45CDE92645DDE91C23B2F558
:101A1000FA6043F1FF31DDE91C23B2F5FA6243F1CC
:101A2000FF3302FB01F500FB03F42C44A0FB020191
:101A30006318194602460B469D000995DDF824C03F
:101A40004CEA927CCDF824C094000894DDE9082388
:101A5000121843EB01035B104FEA3202CDE9242355
:101A6000DDE91C23B2F5FA6043F1FF31DDE91C2307
:101A7000B2F5FA6243F1FF3302FB01F500FB03F418
:101A80002C44A0FB02016318194602460B469D0038
:101A90000795DDF81CC04CEA927CCDF81CC0940080
:101AA0000694DDE90623121843EB0103950804951B
:101AB000DDF810C04CEA837CCDF810C0981005907A
:101AC000DDE90445CDE92245DDE91C016FF00E0298
:101AD0004FF0FF33904271EB030580F298800BE0EA
:101AE000DC1E0020DE1E0020D61E0020DA1E002094
:101AF000D41E0020D81E0020DDE91C0140F2DC527B
:101B00004FF00003861841EB0307DDE91C0140F2AA
:101B1000DC524FF00003121843EB010302FB07F005
:101B200006FB03F14418A6FB02016318194602469E
:101B30000B464FEAC30CCDF80CC0039C44EA527428
:101B40000394D5000295DDE90223121A63EB010329
:101B5000DDE92401121843EB0103CDE92423DDE97B
:101B60001C0140F2DC524FF00003801841EB0301EE
:101B7000DDE91C4540F2DC524FF00003121943EB43
:101B8000050302FB01F500FB03F42C44A0FB02015A
:101B90006318194602460B46921843EB03034FEABB
:101BA000830CCDF804C0019C44EA92740194950022
:101BB0000095DDE90045121943EB0503121843EBCC
:101BC000010395081095DDF840C04CEA837CCDF800
:101BD00040C098101190DDE92223DDE9104512196B
:101BE00043EB0503CDE9222311E04FF000024FF053
:101BF0000003CDE926234FF000024FF00003CDE9AA
:101C000024234FF000024FF00003CDE92223DDE949
:101C10001C01DDE92623821A61EB0303CDE91C23B5
:101C2000DDE91A01DDE92423821A61EB0303CDE922
:101C30001A23DDE91801DDE92223821A61EB03038F
:101C4000CDE918231C9A169B1A60219B1A464FF067
:101C50000003189903FB01F0199902FB01F10144FB
:101C60001898A0FB022319440B46550D0E95DDF87C
:101C700038C04CEAC32CCDF838C058150F90DDE9B8
:101C80001A23DDE90E45A21A65EB0303D50B0C956B
:101C9000DDF830C04CEA434CCDF830C0D8130D907D
:101CA0000C9A179B1A6029B0BDE8F08FAFF3008043
:101CB00008B50C4B1B78002B00D012E0094B012219
:101CC0001A7000F015F800F0B3F900F061FD00F0B3
:101CD00097FF00F0E5F800F023FB02F0D9F801F0DF
:101CE0008FF808BDE01E0020AFF30080AFF3008046
:101CF00008B5044B9B69002B03D10BF0E9F903F005
:101D00008FFE08BDD82B0020AFF30080AFF300801A
:101D100000B583B00190019B002B03D0B3F1FF3FCE
:101D200003D007E004F08CFA13E04FF0FF3004F02A
:101D300057FA0EE0019B4FF47A7202FB03F35A1E2E
:101D4000054BA3FB02139B090133184604F048FA24
:101D500000BF03B05DF804FBD34D6210AFF3008009
:101D600000B585B0039002910192029A019B9A42BC
:101D700001DD019B0293039B019ADA60039B1846E5
:101D8000029904F02DFC05B05DF804FBAFF3008070
:101D900000B583B001900091009B002B03D0B3F1FC
:101DA000FF3F0DD012E0019B1846002104F0D8FC43
:101DB0000346B3F1FF3F0CBF00230123DBB21CE05D
:101DC000019B184604F07CFC012316E0019A009B5D
:101DD0004FF47A7101FB03F3591E0A4BA3FB010375
:101DE0009B0901331046194604F0BAFC0346B3F1CF
:101DF000FF3F0CBF00230123DBB2184603B05DF8A0
:101E000004FB00BFD34D6210AFF30080AFF300803E
:101E100000B583B00190202383F31188019B9A6859
:101E2000019BDB689A4203DA019B184604F030FDFF
:101E300004F03EF8002383F3118803B05DF804FB3F
:101E400000B587B00590049103920293059B002B87
:101E50000FD1049B002B02D14FF480730493089B95
:101E6000009300200499039A029B04F0D1FA0346E0
:101E70000DE0049B002B01D1002308E0089B009398
:101E800005980499039A029B04F02AF90346184620
:101E900007B05DF804FB00BFAFF30080AFF3008034
:101EA000704700BFAFF30080AFF30080AFF3008056
:101EB00010B586B00190009100230393039B049317
:101EC000314B1B68059314E0059B5A68019B9A42AD
:101ED00002D1049B01330493059B5B681A88019B24
:101EE0001B889A4202D1039B01330393059B1B6815
:101EF0000593059B002BE7D1019B5B6800201946E9
:101F000006F056F90590059B002B01D1002338E01F
:101F1000019B5B68059800211A460FF071FA059B3A
:101F2000019A5A60019B9B68002B11D0019B9C6811
:101F300005980099049A039BA047034683F0010388
:101F4000DBB2002B04D0059806F0AAF9002318E0B4
:101F50000D4B1B68002B04D00C4B1B68059A1A60B4
:101F600006E00A4B059A1A60084B1A68064B1A607D
:101F7000019BDB68002B03D0019BDB680598984729
:101F8000059B184606B010BDE41E0020E81E002088
:101F900084B003460091ADF80630002302930F4B46
:101FA0001B68039312E0039B5B681B88BDF8062047
:101FB0009A4208D1029A009B9A4201D1039B09E000
:101FC000029B01330293039B1B680393039B002B2B
:101FD000E9D10023184604B0704700BFE41E00207A
:101FE00082B003460091ADF80630009B002B02D072
:101FF000009B1B6801E00A4B1B68009302E0009BFA
:102000001B680093009B002B06D0009B5B681B881D
:10201000BDF806209A42F2D1009B184602B07047E4
:10202000E41E0020AFF30080AFF30080AFF3008028
:10203000704700BFAFF30080AFF30080AFF30080C4
:1020400082B00190019B00225A60019B5A68019B5B
:102050001A6002B0704700BFAFF30080AFF300809A
:1020600000B583B001900091202383F3118801987B
:10207000009900F00DF8002383F3118803B05DF898
:1020800004FB00BFAFF30080AFF30080AFF300802C
:1020900082B001900091009B002B00D115E0009BC5
:1020A00000221A60019B1B68002B07D1019B009A3C
:1020B0005A60019B5A68019B1A6006E0019B5B68AD
:1020C000009A1A60019B009A5A6002B0704700BFE4
:1020D00000B583B001900091202383F3118801980B
:1020E000009900F00DF8002383F3118803B05DF828
:1020F00004FB00BFAFF30080AFF30080AFF30080BC
:1021000084B001900091009B002B00D130E0019B36
:102110001B68002B2CD0019B1A68009B9A4207D1A8
:10212000009B1A68019B1A60009B00221A601FE046
:10213000019B1B68039317E0039B1A68009B9A425C
:102140000FD1009B1A68039B1A60019B5A68009B81
:102150009A4202D1019B039A5A60009B00221A60A6
:1021600006E0039B1B680393039B1B68002BE3D1D2
:1021700004B07047AFF30080AFF30080AFF300808E
:1021800000B585B00190019B1B8FADF80E30019B0F
:102190005B8FADF80C30019B1B8F9AB2019B9B8F1C
:1021A0009BB213449BB2ADF80A30019B5B8F9AB28D
:1021B000019BDB8F9BB213449BB2ADF808301CE04F
:1021C00009E0019803F08CF8019B1B8F9BB201334F
:1021D0009AB2019B1A87019B1B8FBDF90A201BB283
:1021E0009A42EEDC019B5B8F9BB201339AB2019B5A
:1021F0005A87019BBDF80E201A87019B5B8FBDF9A2
:1022000008201BB29A42DBDC019BBDF80C205A87E8
:1022100000BF05B05DF804FBAFF30080AFF30080B2
:1022200010B588B00390039B1B891BB2002B00DA0A
:102230003F339B11ADF81E30BDF91E30002B02D18B
:102240000123ADF81E30039B1B8919B2BDF91E2076
:102250001346DB069B1A5B010B44DA0F13445B1039
:10226000ADF81630039B5B8919B2BDF91E201346E9
:102270001B079B1A1B010B44DA0F13445B10ADF8CC
:102280001430224B06933BE0069B1B889BB2BDF8A3
:102290001E2002FB03F39AB2BDF8163013449BB222
:1022A00099B2069B02331B889BB2BDF81E2002FB2D
:1022B00003F39AB2BDF8143013449BB29AB2069B52
:1022C00004331B889BB2BDF81E0000FB03F39BB2D6
:1022D0009BB206980630008880B2BDF81E4004FB11
:1022E00000F080B280B209B212B21BB200B200900C
:1022F0001F200190039800F003F9069B0833069312
:10230000069A034B9A42BFD308B010BDC0240108FF
:1023100040250108AFF30080AFF30080AFF30080E9
:1023200000B583B00F480021FFF7C2FD4FF47A706B
:10233000FFF7EEFC67200021FFF752FE019008E056
:102340000198002100F09CF867200199FFF748FEF2
:102350000190019B002BF3D1034B01221A7003B0B3
:102360005DF804FB80250108F01E0020AFF300801B
:1023700000B587B00390029101920093009BDAB2FE
:10238000039B1A77019BDAB2039B5A77039B0022C7
:10239000DA83039B2033184604F0B2FB039B2033FF
:1023A000184604F0BDFB039802F06AFF03468DF85F
:1023B000173004F05DFC9DF81730184607B05DF843
:1023C00004FB00BFAFF30080AFF30080AFF30080E9
:1023D00000B585B00390039B1B89039A52891BB2F9
:1023E00012B2009203980021002200F029F903980C
:1023F000002100F045F80A4B1B7883F00103DBB2A3
:10240000002B02D00398FFF70BFF064B1B68002B35
:1024100002D1044B039A1A6005B05DF804FB00BFBB
:10242000F01E0020EC1E0020AFF30080AFF3008010
:1024300000B583B00190074B1A68019B9A4206D100
:1024400067200021FFF7A4FD0246024B1A6003B08B
:102450005DF804FBEC1E0020AFF30080AFF30080BA
:1024600082B00190019B1B891BB2184602B07047D5
:1024700082B00190019B5B891BB2184602B0704785
:1024800000B583B001900B46ADF80230019B2033BC
:10249000184604F045FB019BBDF80220A3F8482034
:1024A000019B00225A871CE0019B00221A8709E049
:1024B000019802F015FF019B1B8F9BB201339AB26A
:1024C000019B1A87019B1A8F019B1B8912B21BB2B9
:1024D0009A42EDDB019B5B8F9BB201339AB2019B69
:1024E0005A87019B5A8F019B5B8912B21BB29A4299
:1024F000DADB04F0BDFB00BF03B05DF804FB00BFF6
:1025000000B585B00390ADF80A10ADF80820ADF81D
:102510000630039B2033184604F002FB039BBDF8F2
:102520000A201A87039BBDF808205A87039BBDF831
:1025300006209A87039BBDF81820DA87039BBDF815
:102540001C20A3F84820039B1A8F039B1B8E12B2FA
:102550001BB29A4213DA039B9B8F9AB2039B1B8F89
:1025600099B2039B1B8E9BB2CB1A9BB213449BB2B6
:102570009AB2039B9A87039B1A8E039B1A87039B2D
:102580005A8F039B5B8E12B21BB29A4213DA039BE3
:10259000DB8F9AB2039B5B8F99B2039B5B8E9BB2DE
:1025A000CB1A9BB213449BB29AB2039BDA87039B6C
:1025B0005A8E039B5A87039B1B8F1AB2039B9B8FD8
:1025C0001BB21A44039B9B8E1BB29A420ADD039BEB
:1025D0009B8E9AB2039B1B8F9BB2D31A9BB29AB26B
:1025E000039B9A87039B5B8F1AB2039BDB8F1BB203
:1025F0001A44039BDB8E1BB29A420ADD039BDB8EDF
:102600009AB2039B5B8F9BB2D31A9BB29AB2039B85
:10261000DA87039B9B8F1BB2002B07DD039BDB8FAD
:102620001BB2002B02DD0398FFF7AAFD04F020FB8C
:1026300005B05DF804FB00BFAFF30080AFF300808E
:1026400000B585B00390ADF80A10ADF80820ADF8DC
:102650000630039B2033184604F062FABDF90A30B5
:10266000002B0ADABDF80620BDF80A3013449BB2ED
:10267000ADF806300023ADF80A30BDF90830002B64
:102680000ADABDF81820BDF8083013449BB2ADF843
:1026900018300023ADF80830BDF90630002B11DDED
:1026A000BDF91830002B0DDD039B1B89BDF90A20F5
:1026B0001BB29A4206DA039B5B89BDF908201BB264
:1026C0009A4202DB04F0D4FA33E0039BBDF80A20FF
:1026D0001A86039BBDF808205A86BDF80A20BDF86B
:1026E000063013449BB29AB2039B9A86039B9A8E40
:1026F000039B1B8912B21BB29A4203DD039B1A890A
:10270000039B9A86BDF80820BDF8183013449BB28D
:102710009AB2039BDA86039BDA8E039B5B8912B223
:102720001BB29A4203DD039B5A89039BDA8604F0AD
:102730009FFA05B05DF804FBAFF30080AFF30080B3
:1027400000B583B00190019B1B8A03F00303022BA9
:1027500014D1019B1B8A43F001039AB2019B1A8298
:10276000019B01229A83019B1B8A23F002039AB2E8
:10277000019B1A82019B1846FFF74AFB03B05DF8E4
:1027800004FB00BFAFF30080AFF30080AFF3008025
:1027900008B5024804F0B4F908BD00BFF41E0020DB
:1027A00000B583B00190019B184600216FF00042F4
:1027B000FFF7D6FA019B00225A61019B00229A83FF
:1027C000019B00221A8203B05DF804FBAFF3008086
:1027D00000B587B0039002910192039B002B02D0B9
:1027E000029B002B01D100233FE0224804F098F91E
:1027F00000230493204B05931CE0059B1A68039B60
:102800009A420BD1059B5A68029B9A4206D1059BBE
:10281000019A9A6004F02CFA012326E0049B002B15
:1028200005D1059B1B68002B01D1059B0493059BDB
:1028300010330593059A114B9A42DED3049B002B6B
:102840000BD0049B039A1A60049B029A5A60049B63
:10285000019A9A60049B0022DA6004F009FA049B52
:10286000002B0CBF00230123DBB2184607B05DF834
:1028700004FB00BFF41E0020041F002004210020E0
:1028800000B585B0039002910192039B002B17D0F5
:102890000D4804F045F90398FFF752FF039B019A96
:1028A0009A61039B029A5A61029B002B06D0039BFC
:1028B0001B8A23F001039AB2039B1A8204F0D8F911
:1028C00005B05DF804FB00BFF41E0020AFF30080EC
:1028D00000B585B001900091019B002B01D1002330
:1028E00035E01D4804F01CF9009B002B13D0009B21
:1028F0001B68002B0FD0009B1B681B8A03F004038E
:10290000002B08D0009B1B68009A1268128A22F0E4
:10291000050292B21A82009B002B02D0009B10335A
:1029200000E00E4B03930BE0039B5A68019B9A4215
:1029300003D104F09DF9039B09E0039B103303933B
:10294000039A074B9A42EFD304F092F900231846FA
:1029500005B05DF804FB00BFF41E0020041F00203A
:1029600004210020AFF30080AFF30080AFF30080BC
:1029700000B583B00190104804F0D2F8019B1B68A9
:102980001B8A03F00103002B03D004F071F900232C
:102990000DE0019B1B68019A1268128A42F0050241
:1029A00092B21A8204F064F9019B1B681C3318462A
:1029B00003B05DF804FB00BFF41E0020AFF30080FD
:1029C00000B583B00190264804F0AAF8019B1B686B
:1029D0005B69002B17D0019B1B68019A1268128A51
:1029E00022F00D0292B21A8204F042F9019B1B6898
:1029F0005B69019A12689169019A12681C32084653
:102A00001146984729E0019B1B68019A1268128AB7
:102A100022F0040292B21A82019B1B681B8A03F007
:102A20000203002B0ED0019B1B68019A1268128AC8
:102A300022F00A0292B21A82019B1B681846FFF725
:102A4000E7F908E0019B1B68019A1268128A42F0BC
:102A5000080292B21A8204F00BF903B05DF804FB8D
:102A6000F41E0020AFF30080AFF30080AFF30080CE
:102A700000B589B001904FF0FF3306930023059312
:102A800003F0DEFB5A480699FFF782F9594BDB68E1
:102A900004934FF0FF330693574804F041F8574B27
:102AA0001B68002B00F09E80544B1B680793079B0C
:102AB0001B8A03F00403002B21D1079B1B8A03F020
:102AC0000203002B73D1049A059B9A4209D3079BFA
:102AD0009A68059B9A4204D3079B9A68049B9A4282
:102AE0000DD9049A059B9A4261D2079B9A68059B6F
:102AF0009A4204D2079B9A68049B9A4257D8079B34
:102B00001B8A03F00103002B25D0079BDB68002BF9
:102B100021D0079B1B8A03F00203002B13D1079BD4
:102B20009A68079BD968049B1944079B9B68C91A3C
:102B3000079BDB68B1FBF3F30799C96801FB03F35B
:102B40001A44079B9A60079B1B8A23F004039AB2DE
:102B5000079B1A821FE0079B5A69079B9B699A4251
:102B600003D1264B00221A6012E0079B5B69079A8B
:102B700092699A61079B9B69079A52695A611F4B38
:102B80001A68079B9A4203D1079B5A691B4B1A602C
:102B9000079B00221A82079B1B680393079B5B68B5
:102BA000029304F065F8039B029898476EE7079B31
:102BB0001B8A03F00203002B0BD1079B9A68049B2E
:102BC000D21A069B9A4204D2079B9A68049BD31A96
:102BD0000693079B5B690793084B1B68079A9A4209
:102BE0007FF465AF049B059304F042F848E700BF0B
:102BF0001C210020C82B00200421002018210020C7
:102C000008B5044800210122FFF7AAF8024803F0A2
:102C100077FF08BD1C21002004210020AFF30080B5
:102C200082B00190019B00221A8202B0704700BF5F
:102C300000B587B00590049103928DF80B304E4893
:102C400003F06EFF4D4B1B68002B0BD1002300934C
:102C50004B484FF40D617F224A4BFFF7F1F80246D3
:102C6000464B1A60059B1B8A03F00803002B1CD0FF
:102C7000059B5A69059B9B699A4203D1424B0022EE
:102C80001A6012E0059B5B69059A92699A61059B3F
:102C90009B69059A52695A613B4B1A68059B9A4297
:102CA00003D1059B5A69384B1A60059B049A1A6038
:102CB000059B039A5A60059B08221A829DF80B30E7
:102CC000002B06D0059B1B8A43F001039AB2059B9B
:102CD0001A82089BB3F1FF3F0BD1059B1B8A43F07F
:102CE00002039AB2059B1A82059B4FF0FF32DA600D
:102CF00013E0089B4FF47A7202FB03F35A1E234B36
:102D0000A3FB02139B095A1C059BDA60204BDA686F
:102D1000059BDB681A44059B9A601B4B1B68002BC4
:102D200011D0194B1A68059B5A61174B1B689A6999
:102D3000059B9A61059B9B69059A5A61059B5B6996
:102D4000059A9A610AE0104B059A1A600E4B1A68B0
:102D5000059B9A61059B9A69059B5A61059B1B8A95
:102D600003F00203002B02D10A48FFF751F803F0E9
:102D70007FFF07B05DF804FB042100201421002030
:102D800030210020712A000818210020D34D621044
:102D9000C82B00201C210020AFF30080AFF300807F
:102DA00082B00190019B1B8A03F00803002B01D025
:102DB000012300E00023184602B07047AFF3008003
:102DC00000B583B00190094803F0AAFE019B1B8A5D
:102DD00043F004039AB2019B1A820548FFF718F8E2
:102DE00003F046FF03B05DF804FB00BF04210020A0
:102DF0001C210020AFF30080AFF30080AFF3008010
:102E000008B500F005F900F0EBF800F0F9FF08BD97
:102E1000014B1B8818467047002A0020AFF3008042
:102E200000B585B001900091009B1B88A3F58073CD
:102E3000012B00F2D18000230293002000F000FB60
:102E400003908FE0039B9A68009BDB689A4205D150
:102E5000039B9B6903F40073002B00D17EE0039B6E
:102E60009B6903F48203B3F5820F4DD1039B029358
:102E7000009B1B8903F02003002B24D0029B9B693D
:102E800023F48002029B9A61029B5B68DB69002B42
:102E900037D0029B5B68DB69009A528891B2029A34
:102EA000928992B28A1A92B291B2009A928890B2A2
:102EB000029AD28992B2821A92B292B209B212B234
:102EC000029898471DE0029B5B681B6A002B18D094
:102ED000029B5B681B6A009A528891B2029A92899F
:102EE00092B28A1A92B291B2009A928890B2029AE1
:102EF000D28992B2821A92B292B209B212B20298F6
:102F000098470023029331E0009B5A88039B9B89DA
:102F100012B21BB29A4221DB009B5B881AB2039B60
:102F20009B8919B2039B1B8A1BB20B449A4215DA88
:102F3000009B9A88039BDB8912B21BB29A420DDB7D
:102F4000009B9B881AB2039BDB8919B2039B5B8AA7
:102F50001BB20B449A4201DA039B0293039800F0E0
:102F60006FFA0390039B002B7FF46CAF029B002B46
:102F700031D0029B9B6903F48433B3F5843F2AD19B
:102F8000009B1B8903F01003002B24D0029B9B693C
:102F900043F48002029B9A61029B5B689B69002B51
:102FA00019D0029B5B689B69009A528891B2029A81
:102FB000928992B28A1A92B291B2009A928890B291
:102FC000029AD28992B2821A92B292B209B212B223
:102FD0000298984701E000E000BF05B05DF804FBEF
:102FE00008B50948FFF7DCFB074808490022FFF74E
:102FF00047FC4FF0FF3001F093FB034602481946AF
:103000000322FFF7E5FB08BD042A0020212E00085B
:1030100000B583B00F4801210122FEF7A1FE0E4842
:10302000FFF70EF80D48FFF7FBFD4FF0FF3300935D
:103030000A480B4900220123FFF7FAFD094B0A4A0F
:103040001A60084B1B681B681B68984703B05DF843
:1030500004FB00BF442A0020542A00205C2A0020E0
:1030600071300008402A002070250108AFF300806D
:1030700000B583B00190012000F00AF803B05DF8BC
:1030800004FB00BFAFF30080AFF30080AFF300801C
:1030900030B587B003468DF80F307F4B1B78DBB21D
:1030A000002B00D1F5E09DF80F30002B05D17B48B7
:1030B0004FF0FF31FEF76CFE0EE09DF80F30012B54
:1030C0000AD176480021FEF763FE034683F0010330
:1030D000DBB2002B00D0DCE058E06F4B1B78DBB29A
:1030E00023F00103DAB26C4B1A70002000F0A8F94B
:1030F000059048E0059B9B6903F48443B3F5804F3A
:1031000000D03CE0059B9868059B9989059BDA896E
:10311000059B1B8A059C648A09B212B21BB224B2B9
:103120000094FFF78DFA5E4B1B681B681B690598BE
:103130009847059B9D68059B9B681846FFF790F98B
:1031400003461C46059B9B681846FFF791F903460A
:1031500000932846002100222346FFF771FA9DF8CC
:103160000F30012B0BD14C4B1B78DBB243F001032A
:10317000DAB2494B1A704B48FFF722FE7EE0059801
:1031800000F05EF90590059B002BB3D1424B1B78F4
:10319000DBB203F00103002B9FD168E03E4B1B78AC
:1031A000DBB223F00203DAB23B4B1A70002000F0CE
:1031B00047F9059058E0059B9B6903F48443B3F5F8
:1031C000844F00D04CE0059B9868059B9989059B2E
:1031D000DA89059B1B8A059C648A09B212B21BB26C
:1031E00024B20094FFF72CFA2D4B1B681B681B6957
:1031F00005989847059B9D68059B9B681846FFF7B7
:103200002FF903461C46059B9B681846FFF730F9CB
:10321000034600932846002100222346FFF710FAB8
:103220009DF80F30012B1BD112E0059B9B6903F425
:103230008443B3F5844F0BD1174B1B78DBB243F0BB
:103240000203DAB2144B1A701648FFF7B9FD06E014
:10325000059800F0F5F80590059B002BE5D10DE0F1
:10326000059800F0EDF80590059B002BA3D10A4BC3
:103270001B78DBB203F00203002B8FD19DF80F30D7
:10328000002B03D09DF80F30012B02D10348FEF72D
:10329000BFFD07B030BD00BF782A0020442A0020BF
:1032A000402A00205C2A0020AFF30080AFF30080AA
:1032B00000B583B00190019B9B6903F40073002B60
:1032C00000D110E0019B9B6943F48042019B9A610D
:1032D000064B1B78DBB243F00203DAB2034B1A70E1
:1032E0000348FFF76DFD03B05DF804FB782A00206A
:1032F0005C2A0020AFF30080AFF30080AFF30080C2
:1033000000B583B001900B468DF803309DF8033073
:10331000002B47D0019B9B6943F48072019B9A610B
:10332000019B9B6903F40073002B40F08180019B9B
:103330001B6A002B06D0019B1B6A9B6903F4007378
:10334000002B75D0002000F07BF801901BE0019B62
:103350009B6903F44073B3F5807F10D1019B1B6A16
:10336000002B06D0019B1B6A9B6903F40073002BA2
:1033700005D0019B9B6943F44242019B9A610198ED
:1033800000F05EF80190019B002BE0D12A4B1B78E6
:10339000DBB243F00203DAB2274B1A702748FFF77B
:1033A0000FFD45E0019B9B6923F48072019B9A61AC
:1033B000019B9B6903F40073002B39D0019B9B692F
:1033C00043F44042019B9A61002000F039F80190DB
:1033D00020E0019B9B6903F40073002B16D0019B36
:1033E0009B6903F48073002B0AD0019B1B6A002B9E
:1033F0000CD0019B1B6A9B6903F40073002B05D161
:10340000019B9B6923F40072019B9A61019800F073
:1034100017F80190019B002BDBD1074B1B78DBB227
:1034200043F00103DAB2044B1A700448FFF7C8FCFA
:1034300003B05DF804FB00BF782A00205C2A00205E
:1034400082B00190019B002B02D0019B1B6801E020
:10345000024B1B68184602B0704700BF542A002078
:10346000704700BFAFF30080AFF30080AFF3008080
:10347000704700BFAFF30080AFF30080AFF3008070
:1034800000B583B001900091019B16481946FEF7E4
:10349000E7FD019B03221A82019B03225A82019BB2
:1034A0000022DA81019BDA89019B9A81009B1A88AC
:1034B000009B5B8812B21BB2019811461A4600F0BD
:1034C000B7FA009B9A88009BDB8812B21BB2019866
:1034D00011461A4600F02CF90123184603B05DF896
:1034E00004FB00BF542A0020AFF30080AFF300803C
:1034F00000B583B00190019B03481946FEF7E8FD33
:1035000003B05DF804FB00BF542A0020AFF3008035
:103510002DE9F04186B00390039B9B6903F400738F
:10352000002B54D0039B5B68DB68002B05D0039B0A
:103530005B68DB680398984729E0039B9B6903F469
:103540000043002B23D0039B9868039B9989039B1E
:10355000DA89039B1B8A039C658A039CE48A09B26F
:1035600012B21BB22DB200950194FEF7C9FF039B66
:103570009B6903F08073002B09D1039B5B681B6977
:10358000002B04D0039B5B681B6903989847039B3F
:103590009B6923F0807323F44043039A9361039B58
:1035A0009B6903F08173B3F5003F40F0B780039847
:1035B00000F02EFC039006E00398FFF779FE0398D5
:1035C00000F046FC0390039B002BF5D1A6E0039B83
:1035D0009B6903F40043002B00F09880039B1B6A57
:1035E000002B13D0039B9B6923F0807323F440438B
:1035F000039A9361039B1B6A0393039B9B6943F0AC
:10360000807343F40043039A936185E7039B9C68AE
:10361000039BB3F80C80039BDF89039B1E8A039BEB
:103620005D8AFFF7F5FB034618460FFA88F13AB2B8
:1036300033B22DB2009501902046FEF761FF0020C5
:10364000FFF7FEFE05905EE0059B9B6903F40073A7
:10365000002B54D0059B9A68039B9B689A424ED1DD
:10366000059B9B891AB2039B9B8919B2039B1B8AFA
:103670001BB20B449A4242DA059BDB891AB2039BC8
:10368000DB8919B2039B5B8A1BB20B449A4236DA80
:10369000059B9B891AB2059B1B8A1BB21A44039B8C
:1036A0009B891BB29A422ADB059BDB891AB2059BD8
:1036B0005B8A1BB21A44039BDB891BB29A421EDB56
:1036C000059B5B68DB68002B05D0059B5B68DB68AE
:1036D0000598984713E0059B9868059B9989059B79
:1036E000DA89059B1B8A059C658A059CE48A09B2D8
:1036F00012B21BB22DB200950194FEF701FF05989E
:10370000FFF79EFE0590059B002B9DD1039B9B69B7
:1037100023F0807323F44043039A936106B0BDE81D
:10372000F08100BFAFF30080AFF30080AFF3008003
:1037300030B587B0019013460A46ADF80220ADF8C7
:103740000030019B1B6A002B55D0019B1B6A9B8993
:103750009AB2019B1B6A1B8A9BB213449CB2019BC9
:103760001B6A5B68DB6A019A126A10469847034637
:103770009BB2E31A9BB2ADF80E30019B9B891AB243
:10378000BDF902301A44BDF90E309A4208DDBDF889
:103790000E20019B9B899BB2D31A9BB2ADF80230DD
:1037A000019B1B6ADB899AB2019B1B6A5B8A9BB2F5
:1037B00013449CB2019B1B6A5B681B6B019A126AE3
:1037C0001046984703469BB2E31A9BB2ADF80E3001
:1037D000019BDB891AB2BDF900301A44BDF90E30E5
:1037E0009A4208DDBDF80E20019BDB899BB2D31AFB
:1037F0009BB2ADF80030019B9B681846FEF730FE87
:103800000346ADF80E30019B9B891AB2BDF9023018
:103810001A44BDF90E309A4208DDBDF80E20019B16
:103820009B899BB2D31A9BB2ADF80230019B9B6877
:103830001846FEF71DFE0346ADF80E30019BDB89EE
:103840001AB2BDF900301A44BDF90E309A4208DDB3
:10385000BDF80E20019BDB899BB2D31A9BB2ADF859
:103860000030BDF90230022B02DC0323ADF8023038
:10387000BDF90030022B02DC0323ADF80030019BC0
:103880001B8ABDF902201BB29A4207D1019B5B8AB9
:10389000BDF900201BB29A4200D1C1E0019B9B6997
:1038A00003F40073002B70D0019B1B8ABDF902202A
:1038B0001BB29A4212DB019B5B8ABDF900201BB24E
:1038C0009A420BDB019BBDF802201A82019BBDF8D6
:1038D00000205A820198FFF7EBFCA1E0019800213B
:1038E000FFF70EFD0020FFF7D3FB019BBDF8022080
:1038F0001A82019BBDF800205A82019B9B6903F448
:103900000033002B3CD0019800F082FA059034E09F
:10391000059B9B899AB2019B9B899BB2D31A9CB24F
:10392000019B1B6A5B685B6A019A126A10469847A2
:1039300003469BB2E31A9BB29CB2059BDB899AB209
:10394000019BDB899BB2D31A9DB2019B1B6A5B680A
:103950009B6A019A126A1046984703469BB2EB1A7B
:103960009BB29BB222B21BB2019811461A4600F0DC
:103970005FF8059800F06CFA0590059B002BC7D105
:1039800001980121FFF7BCFC4AE0019BBDF8022031
:103990001A82019BBDF800205A82019B9B6903F4A7
:1039A0000033002B3CD0019800F032FA049034E050
:1039B000049B9B899AB2019B9B899BB2D31A9CB2B0
:1039C000019B1B6A5B685B6A019A126A1046984702
:1039D00003469BB2E31A9BB29CB2049BDB899AB26A
:1039E000019BDB899BB2D31A9DB2019B1B6A5B686A
:1039F0009B6A019A126A1046984703469BB2EB1ADB
:103A00009BB29BB222B21BB2019811461A4600F03B
:103A10000FF8049800F01CFA0490049B002BC7D107
:103A200007B030BDAFF30080AFF30080AFF300808C
:103A300030B587B0019013460A46ADF80220ADF8C4
:103A40000030019B1B6A002B00F09C80019B1B6ACD
:103A50001B8A9CB2019B1B6A5B685B6A019A126AB3
:103A60001046984703469BB2E31A9CB2019B1B6A1F
:103A70005B68DB6A019A126A1046984703469BB25C
:103A8000E31A9BB2ADF80E30BDF90220019B1B8AF0
:103A90001BB21A44BDF90E309A4208DDBDF80E2063
:103AA000019B1B8A9BB2D31A9BB2ADF80230019BDB
:103AB0001B6A5B8A9CB2019B1B6A5B689B6A019ACA
:103AC000126A1046984703469BB2E31A9CB2019BC8
:103AD0001B6A5B681B6B019A126A10469847034683
:103AE0009BB2E31A9BB2ADF80E30BDF90020019BEA
:103AF0005B8A1BB21A44BDF90E309A4208DDBDF84C
:103B00000E20019B5B8A9BB2D31A9BB2ADF80030AA
:103B1000BDF90230002B02DA0023ADF80230BDF906
:103B20000030002B02DA0023ADF80030019B1B6A45
:103B30009B899CB2019B1B6A5B685B6A019A126A53
:103B40001046984703469BB223449AB2BDF8023010
:103B500013449BB2ADF80230019B1B6ADB899CB217
:103B6000019B1B6A5B689B6A019A126A1046984720
:103B700003469BB223449AB2BDF8003013449BB273
:103B8000ADF80030019B9B681846FEF769FC0346C0
:103B9000ADF80E30BDF90220019B1B8A1BB21A44FE
:103BA000BDF90E309A4208DDBDF80E20019B1B8A3C
:103BB0009BB2D31A9BB2ADF80230019B9B681846AA
:103BC000FEF756FC0346ADF80E30BDF90020019B10
:103BD0005B8A1BB21A44BDF90E309A4208DDBDF86B
:103BE0000E20019B5B8A9BB2D31A9BB2ADF80030CA
:103BF000BDF90230002B02DA0023ADF80230BDF926
:103C00000030002B02DA0023ADF80030019B9B89C5
:103C1000BDF902201BB29A4207D1019BDB89BDF995
:103C200000201BB29A4200D1C3E0019B9B6903F4C0
:103C30000073002B64D001980021FFF761FB002086
:103C4000FFF726FA019B9B89ADF80E30019BBDF86A
:103C500002209A81BDF80E30ADF80230019BDB895D
:103C6000ADF80E30019BBDF80020DA81BDF80E30B2
:103C7000ADF80030019B9B6903F40033002B3AD070
:103C8000019800F0C5F8059032E0059B9B899AB237
:103C9000BDF80230D31A9CB2019B1B6A5B685B6A59
:103CA000019A126A1046984703469BB2E31A9BB2E8
:103CB0009CB2059BDB899AB2BDF80030D31A9DB245
:103CC000019B1B6A5B689B6A019A126A10469847BF
:103CD00003469BB2EB1A9BB29BB222B21BB2019875
:103CE00011461A46FFF7A4FE059800F0B1F80590BA
:103CF000059B002BC9D101980121FFF701FB58E07A
:103D0000019B9B89ADF80E30019BBDF802209A8182
:103D1000BDF80E30ADF80230019BDB89ADF80E30F6
:103D2000019BBDF80020DA81BDF80E30ADF80030FF
:103D3000019B9B6903F40033002B3AD0019800F0FB
:103D400067F8049032E0049B9B899AB2BDF8023078
:103D5000D31A9CB2019B1B6A5B685B6A019A126A68
:103D60001046984703469BB2E31A9BB29CB2049B51
:103D7000DB899AB2BDF80030D31A9DB2019B1B6A51
:103D80005B689B6A019A126A1046984703469BB289
:103D9000EB1A9BB29BB222B21BB2019811461A4693
:103DA000FFF746FE049800F053F80490049B002BA4
:103DB000C9D107B030BD00BFAFF30080AFF30080C2
:103DC00082B001900B468DF8033002B0704700BFFF
:103DD00000B583B00190019B07481946FEF778F9BA
:103DE000019B05481946FEF73BF90198FFF760FA79
:103DF00003B05DF804FB00BF542A0020AFF300803D
:103E0000704700BFAFF30080AFF30080AFF30080D6
:103E100000B585B001900020FFF712FB03900AE087
:103E2000039B1A6A019B9A4201D1039B07E0039806
:103E3000FFF706FB0390039B002BF1D100231846EC
:103E400005B05DF804FB00BFAFF30080AFF3008066
:103E500000B585B001900198FFF7F2FA0390019B3D
:103E60001B6A01930AE0039B1A6A019B9A4201D1E3
:103E7000039B07E00398FFF7E3FA0390039B002BF3
:103E8000F1D10023184605B05DF804FBAFF30080C4
:103E900008B500F0A5FB08BDAFF30080AFF30080CC
:103EA00030B583B001900091009B1C68019B1B887A
:103EB0001BB21846FCF736FA034620461946FCF7B3
:103EC00087FA03461C46009B5D68019B5B881BB21A
:103ED0001846FCF727FA034628461946FCF778FAF5
:103EE000034620461946FCF769F903461A46009B2B
:103EF0009B6810461946FCF761F903461846FCF723
:103F0000B7FB03469AB2019B1A80009BDC68019BB9
:103F10001B881BB21846FCF705FA034620461946D3
:103F2000FCF756FA03461C46009B1D69019B5B8803
:103F30001BB21846FCF7F6F9034628461946FCF76B
:103F400047FA034620461946FCF738F903461A4655
:103F5000009B5B6910461946FCF730F9034618468A
:103F6000FCF786FB03469AB2019B5A8003B030BD32
:103F700000B587B00390029101920398FEF7F8FC18
:103F80000590059B002B0BD1039BDA68019BDB8816
:103F900003F0F003134343F40042039BDA607CE038
:103FA000019BDB8803F0F003002B24D1039BDB682B
:103FB000002B20D1039B9B6803F00803002B1AD130
:103FC000019B1A88029B1B8912B21BB29A4212D122
:103FD000019B5A88029B5B8912B21BB29A420AD19A
:103FE000019BDB881A46029BDB89534003F00F03D9
:103FF000002B00D151E0019BDB8803F00103002B73
:1040000005D0039B9B6803F00203002B18D1019B92
:10401000DB8803F00103002B05D1039B9B6803F0B1
:104020000403002B0CD1019BDB8803F0F003002B71
:1040300005D0039B9B6803F00103002B00D12CE00B
:10404000029B5B685B8803F00103002B02D040F207
:10405000011301E04FF48073059A1380019B1A88C5
:10406000059B5A80019B5A88059B9A80019B9A88E0
:10407000059BDA80019BDA88039BDB689BB21343C4
:104080009AB2059B1A81039B0022DA60029BDA69CF
:10409000059BDA600398FEF793FC07B05DF804FB1C
:1040A00000B58BB00190019B1B8A23F040039AB2AC
:1040B000019B1A82019B5B681B6B03AA0198114646
:1040C0009847034683F00103DBB2002B00D051E296
:1040D000BDF8123003F00F039BB2ADF81230019B14
:1040E0005B685B8803F00103002B4FD0019B5B688A
:1040F000DA8A019B5B689B8A12B21BB29A4222DC6D
:10410000BDF81020019B5B681B8B12B21BB29A4258
:1041100007DBBDF8123043F001039BB2ADF812305B
:1041200034E0BDF81020019B5B685B8B12B21BB2C0
:104130009A4207DCBDF8123023F001039BB2ADF8C0
:10414000123023E016E2BDF81020019B5B681B8B48
:1041500012B21BB29A4207DCBDF8123043F00103E1
:104160009BB2ADF8123011E0BDF81020019B5B68E6
:104170005B8B12B21BB29A4207DBBDF8123023F000
:1041800001039BB2ADF8123000E0F3E1019B5B68E4
:104190005B8803F40073002B31D0019B1B8A03F072
:1041A0000203002B19D0BDF81220019BDB8953407C
:1041B0009BB203F00103002B07D1019B1B8A23F064
:1041C00002039AB2019B1A82D4E1019B1B8A23F05D
:1041D00002039AB2019B1A8211E0BDF81220019BE2
:1041E000DB8953409BB203F00103002B07D0019BF6
:1041F0001B8A43F002039AB2019B1A82BAE1019B27
:104200005B685B8803F48073002B0ED0BDF812301E
:1042100003F00103002B08D1019B1B89ADF80C3082
:10422000019B5B89ADF80E3054E0019B1B8A03F0C3
:104230000803002B06D0019B203303AA1046194621
:10424000FFF72EFE019BDB69002B43D0019BDB694E
:104250001846FEF705F90346ADF82230019BDB69ED
:104260001846FEF705F90346ADF82030019B1B8A7E
:1042700003F00403002B2DD0BDF80C301BB2002B33
:1042800003DA0023ADF80C300DE0BDF80C30BDF9B9
:1042900022201BB29A4206DCBDF82230013B9BB2C1
:1042A0009BB2ADF80C30BDF80E301BB2002B03DA18
:1042B0000023ADF80E300DE0BDF80E30BDF9202022
:1042C0001BB29A4206DCBDF82030013B9BB29BB288
:1042D000ADF80E30019B1B8A03F02003002B03D0A6
:1042E000019B5B68223302E0019B5B681C330793F0
:1042F000079B9B881BB2002B34DDBDF80C301AB233
:10430000019B1B891BB2D31ABDF80C2011B2019A74
:10431000128912B28A1A02FB03F2BDF80E3019B2EA
:10432000019B5B891BB2CB1ABDF80E1008B2019934
:10433000498909B2411A01FB03F313440693079B11
:104340009B881BB2079A928812B202FB03F2069B6B
:104350009A4207D9019B1B89ADF80C30019B5B8900
:10436000ADF80E30079B5B881BB2002B39DD019B3B
:104370001B8A03F00103002B33D0BDF80C301AB2B6
:10438000019B5B8A1BB2D31ABDF80C2011B2019AB3
:10439000528A12B28A1A02FB03F2BDF80E3019B229
:1043A000019B9B8A1BB2CB1ABDF80E1008B2019973
:1043B000898A09B2411A01FB03F313440693079B50
:1043C0005B881BB2079A528812B202FB03F2069B6B
:1043D0009A4206D2019B1B8A23F001039AB2019BE9
:1043E0001A82BDF812309AB2019BDB899BB2DB4383
:1043F0009BB213409BB2ADF81630BDF812309BB2A1
:10440000DB439AB2019BDB899BB213409BB2ADF8B0
:104410001430BDF8163003F00103002B06D0BDF8B0
:10442000123043F010039BB2ADF81230BDF81430D7
:1044300003F00103002B06D0BDF8123043F0200337
:104440009BB2ADF81230BDF8163003F00303002B19
:1044500012D0BDF80C20019B5A82BDF80E20019BA2
:104460009A82464BDA68019B9A61019B1B8A43F052
:1044700001039AB2019B1A82BDF8143003F00303C2
:10448000002B45D0019B1B8A03F00103002B3FD07A
:10449000019B1B8A23F001039AB2019B1A82374BBE
:1044A000DA68019B9B69D21A019B9A61019B9B6907
:1044B000B3F5967F19D8BDF8143003F00203002B32
:1044C00006D0BDF8123043F080039BB2ADF8123035
:1044D000BDF8143003F00103002B06D0BDF81230F4
:1044E00043F040039BB2ADF81230019B5B685B88E0
:1044F00003F00103002B0BD0019B9B69B3F52F7FC9
:1045000006D3BDF8123043F080039BB2ADF81230F1
:104510000023099305E003AB099801991A46FFF7B8
:1045200027FD17480999FEF7D3F90990099B002B3D
:10453000F1D10023099305E003AB099801991A46CC
:10454000FFF716FD01980999FEF7C2F90990099B3A
:10455000002BF1D1BDF80C20019B1A81BDF80E2073
:10456000019B5A81BDF81020019B9A81BDF8122051
:10457000019BDA810BB05DF804FB00BFC82B002063
:104580007C2A0020AFF30080AFF30080AFF30080FF
:1045900000B585B001906D200021FDF721FD03904D
:1045A00014E0039B5B685B8803F00203002B05D0DB
:1045B000039B1B8A03F04003002B02D00398FFF7F4
:1045C0006FFD6D200399FDF70BFD0390039B002BFE
:1045D000E7D105B05DF804FBAFF30080AFF30080D6
:1045E00008B5064B5B889BB21BB2002B05DB044B66
:1045F0001B6802481946FDF75BFC08BD202701082F
:10460000EC1E0020AFF30080AFF30080AFF300801A
:1046100000B587B00590049103920293059B049A1C
:10462000DA61059B5B685B8803F00803002B06D00A
:10463000059B1B8A43F020039AB2059B1A82059BB7
:104640005B689B6A059803999847034683F00103CA
:10465000DBB2002B01D0002311E00B48FEF7A0FBDA
:10466000034683F00103DBB2002B07D0192300932C
:104670000548064900220123FEF7DAFA012318460D
:1046800007B05DF804FB00BF7C2A002091450008BC
:1046900000B585B00190019B1B8A43F004039AB2D8
:1046A000019B1A82019B5B685B8803F01003002B5F
:1046B00026D0019B5B689B6B002B21D0019B5B6824
:1046C0009B6B0198182198470390039B002B17D0F0
:1046D000019B2033184603991822FBF7F1FF019B39
:1046E0005B685B8803F08003002B02D0039803F023
:1046F000D7FD019B1B8A43F008039AB2019B1A82E3
:104700000198FFF7CDFC05B05DF804FBAFF3008026
:1047100082B0019002B07047AFF30080AFF3008029
:1047200000B583B00190019BB3F1FF3F01D1054B70
:1047300004E06D200199FDF72BFC0346184603B0F9
:104740005DF804FB7C2A0020AFF30080AFF300800B
:1047500000B583B00190019B002B06D0019B1B8A02
:1047600043F040039AB2019B1A820348FEF728FBEC
:1047700003B05DF804FB00BF7C2A0020AFF300808B
:1047800000B593B01A4B1A4A926B42F001029A6339
:104790000223009307230193042302930723039327
:1047A0000223049302230593022306930123079314
:1047B000002308930423099310230A9340230B93A7
:1047C0004FF4C0730C9300230D934FF400630E93CA
:1047D00000230F934FF4005310936B46119307ABD4
:1047E000184600F085F800F00BF813B05DF804FBF4
:1047F00000380240AFF30080AFF30080AFF30080D9
:1048000000B587B000230593012301930823029389
:10481000012303930023049300BF0120202100F013
:104820003FFA0346002BF8D101AB184600F0D8F947
:10483000012001F0D5FC02230193082302930123F8
:1048400003930023049300BF0120202100F028FAE5
:104850000346002BF8D101AB184600F0C1F9032341
:10486000019308230293042303930023049300BFBE
:104870000120202100F014FA0346002BF8D101ABEF
:10488000184600F0ADF900BF0120202100F008FA21
:104890000346002BF8D101AB184600F0A1F940F215
:1048A00031230593042301930823029301230393E7
:1048B000059B049300BF0120202100F0F1F903467D
:1048C000002BF8D101AB184600F08AF940F2AB207A
:1048D00000F0D6F900BF0120202100F0E1F90346E5
:1048E000002BF8D107B05DF804FB00BFAFF30080E8
:1048F00086B00190002305930023049300230393C3
:1049000000230293019B1B68002B03D0019B1B68B3
:10491000012B00D100BF019B5B68002B0BD0019BDA
:104920005B68012B07D0019B5B68022B03D0019BC6
:104930005B68032B00D100BF019B9B68002B07D055
:10494000019B9B68042B03D0019B9B68082B00D123
:1049500000BF019BDB68002B07D0019BDB68102B9D
:1049600003D0019BDB68202B00D100BF019B1B699A
:10497000002B03D0019B1B69402B00D100BF019B82
:104980005B69802B09D0019B5B69B3F5807F04D004
:10499000019B5B69B3F5C07F00D100BF019B9B69A0
:1049A000002B04D0019B9B69B3F5007F00D100BFB1
:1049B000019BDB69002B09D0019BDB69B3F5006F1C
:1049C00004D0019BDB69B3F5406F00D100BF019BB0
:1049D0001B6A002B04D0019B1B6AB3F5805F00D1DA
:1049E00000BF019B5B6A002B09D0019B5B6AB3F59A
:1049F000005F04D0019B5B6AB3F5804F00D100BF1C
:104A0000019B9B6A1B68002B05D0019B9B6A1B685E
:104A1000102B00D800BF019B9B6A5B68002B05D060
:104A2000019B9B6A5B68102B00D800BF019B9B6AAF
:104A30009B68002B05D0019B9B6A9B68102B00D8BC
:104A400000BF019B9B6ADB68002B05D0019B9B6A22
:104A5000DB68102B00D800BF019B9B6A1B69002BF1
:104A600005D0019B9B6A1B69102B00D800BF019BDE
:104A70009B6A5B69002B05D0019B9B6A5B69102BCD
:104A800000D800BF019B9B6A9B69002B05D0019B4E
:104A90009B6A9B69102B00D800BF019B5A68019B41
:104AA0009B681A43019BDB681A43019B1B691A43ED
:104AB000019B5B691A43019B9B691A43019BDB695C
:104AC0001A43019B1B6A1A43019B5B6A13430593BC
:104AD000019B1B68002B06D13E4B019A1268059979
:104AE00043F8221011E0019BDA69019B1B6A1A430B
:104AF000019B5B6A13430393364B039A1A60354B51
:104B0000019A1268059943F82210019B1B68002B3B
:104B100030D1019B9B6A1B685A1E019B9B6A5B6894
:104B2000013B1B011A43019B9B6A9B68013B1B02D3
:104B30001A43019B9B6ADB68013B1B031A43019BE1
:104B40009B6A1B69013B1B041A43019B9B6A5B69BF
:104B5000013B1B051A43019B9B6A9B69013B1B069A
:104B6000134304931B4B019A12680232049943F8D1
:104B700022102CE0019B9B6A1B685A1E019B9B6ABA
:104B80005B68013B1B011A43019B9B6A9B68013BCD
:104B90001B021A43019B9B6A1B69013B1B041343C5
:104BA0000493019B9B6ADB68013B1A03019B9B6A90
:104BB0005B69013B1B0513430293064B029A9A6003
:104BC000044B019A12680232049943F8221006B08D
:104BD000704700BF400100A0AFF30080AFF300803A
:104BE00084B0019000230393019B1B68002B17D016
:104BF000019B1B68012B13D0019B1B68022B0FD05C
:104C0000019B1B68032B0BD0019B1B68042B07D057
:104C1000019B1B68052B03D0019B1B68062B00D151
:104C200000BF019B5B68102B07D0019B5B68082BC2
:104C300003D0019B5B68182B00D100BF019B9B68D0
:104C4000002B04D0019B9B68102B00D800BF019B58
:104C50001A68019B5B681A43019B9B68013B5B01DF
:104C60001A43019BDB685B0213430393024B039AD5
:104C70001A6104B0704700BF400100A0AFF300808C
:104C800082B00190044B044A5169019A52000A43D0
:104C90005A6102B0704700BF400100A0AFF300802E
:104CA00084B00190009100238DF80F30002302930F
:104CB000019B102B10D0019BB3F5807F0CD0019B82
:104CC000B3F5805F08D0019B002B05D0019B012B21
:104CD00002D0019B012B00D100BF009B012B0ED005
:104CE000009B022B0BD0009B042B08D0009B402B79
:104CF00005D0009B012B02D0009B202B00D100BFD0
:104D0000019B102B03D1144B5B68029312E0019BB3
:104D1000B3F5807F03D1114B5B6802930AE0019BDE
:104D2000B3F5805F03D10E4B5B68029302E00D4B3D
:104D30009B690293029A009B1A40009B9A4203D0FF
:104D400000238DF80F3002E001238DF80F309DF81D
:104D50000F30184604B07047600000A0800000A02B
:104D6000A00000A0400100A0AFF30080AFF30080DE
:104D700000B583B00190019B00229A61019B5B7F8B
:104D8000002B3CD11F484FF4007140F282320AF0F0
:104D900067F81C484FF4806140F282320AF060F8F4
:104DA0001948802140F282220AF05AF816484FF43E
:104DB000806140F202720AF053F8144B144AC3F8AF
:104DC0008820124B114AD2F88C2022F4403242F44F
:104DD0008032C3F88C200D4B0C4A126842F080528E
:104DE0001A60FFF7CDFC4FF0504000214FF48002D5
:104DF0000CF006FB0748084908F0EAFD00BF03B0C5
:104E00005DF804FB0000024000140240003802403C
:104E1000003000479C360020E0250108AFF30080F9
:104E200082B0019002B07047AFF30080AFF3008012
:104E300082B001900B468DF8033002B0704700BF7E
:104E400000B583B00190034808F0EAFD03B05DF8B7
:104E500004FB00BF9C360020AFF30080AFF300805E
:104E600000B583B00190034808F0EAFD03B05DF897
:104E700004FB00BF9C360020AFF30080AFF300803E
:104E800000B583B001900B468DF80330074B4FF40B
:104E900000525A83064B9DF803201A7005480121E1
:104EA000034A08F0DDFD03B05DF804FB000C02408E
:104EB000992A00209C360020AFF30080AFF30080D9
:104EC00000B583B001900B468DF80330074B4FF4CB
:104ED00000521A83064B9DF803201A7005480121E1
:104EE000034A08F0BDFD03B05DF804FB000C02406E
:104EF000982A00209C360020AFF30080AFF300809A
:104F000000B585B001900198FFF79AFF194B039304
:104F100025E0039B1B8803F47F43B3F5807F0CD00F
:104F2000B3F5007F11D0002B16D1039B1B88DBB299
:104F300001981946FFF7C4FF0EE0039B1B88DBB204
:104F400001981946FFF79CFF06E0039B1B88DBB224
:104F50001846FCF7DDFE00BF039B02330393039A60
:104F6000054B9A42D5D30198FFF77AFF05B05DF85B
:104F700004FB00BF60260108FE260108AFF3008095
:104F800008B5084B074A526A42F001025A6201E032
:104F900001F056F9034B5B6A03F00303002BF7D1D2
:104FA00008BD00BF00680140AFF30080AFF3008090
:104FB00084B001900091019B1B6923F00702009BC4
:104FC0005B8903F007031A43019B1A61009B1B686E
:104FD0001A46019B9A62009B1B891BB21A044C4B18
:104FE0001340009A52894B498A5C0099898809B21A
:104FF00001FB02F20332C2F30C021A43019BDA6294
:10500000009BDB889BB2C3F30A02019B1A63009BDF
:105010009B891AB20A231BB21A4414231BB21344ED
:105020000393009B1B8A1AB2039B1344013B029318
:10503000039BC3F30B02029B1B041A43019B5A60A0
:10504000009BDB891AB202231BB21A4402231BB253
:1050500013440393009B5B8A1AB2039B1344013BE6
:105060000293039BC3F30B02029B1B041A43019B95
:105070009A60009B5A69019B9A61019BDB6803F06F
:105080007F42009B9B6923F07F431A43019BDA60B8
:10509000019B5B6923F0FF02009B93F826301A43C3
:1050A000019B5A61019BDB6923F4E06222F0070255
:1050B000009BD96940F207730B401A43019BDA61E8
:1050C000002303930FE0039B1A06009B196A039BBE
:1050D0009B000B441B6823F07F431A43019B1A6417
:1050E000039B01330393009B9B8C1A46039B9A42BC
:1050F000E9D8019B1B6823F01302009B93F827302B
:1051000003F013031A43019B1A6004B0704700BFF9
:105110000000FF1F00270108AFF30080AFF30080FD
:1051200000B583B04B4B4B4A526A42F080625A62E0
:10513000484B00225A62474B464AD2F88C2022F450
:10514000403242F40032C3F88C20424B414A526C48
:1051500042F080625A64404B00229A613E4B00222A
:105160005A63FFF70DFF0A231BB2013B0193022391
:105170001BB2013B0093384A019B1904374B0B408B
:105180000099C1F30A010B43936014231BB2019AE7
:105190001344019302231BB2009A134400932E4A36
:1051A000019B19042D4B0B400099C1F30A010B43DD
:1051B000D360F0231BB2019A134401934FF4A07300
:1051C0001BB2009A13440093234A019B1904234BFA
:1051D0000B400099C1F30A010B4313610A231BB270
:1051E000019A1344019304231BB2009A13440093C1
:1051F000194A019B1904194B0B400099C1F30A018C
:105200000B435361144A00231946154B0B4093611D
:10521000114B114AD26A02F07F41002222F07F42F4
:105220000A43DA620F481049FFF7C2FE0F481049DF
:10523000FFF7BEFE084B00225A63FFF7A1FE064BA4
:10524000054A926942F001029A61FFF799FE03B0A4
:105250005DF804FB00380240006801400000FF0FC9
:10526000000001F08468014008260108046901403B
:1052700030260108AFF30080AFF30080AFF3008069
:1052800000B583B00190019B00225A61019B00226E
:105290009A610198FFF76CFD0198FFF731FEFFF767
:1052A0003FFF0198FFF7BCFD01986421FFF7C0FDA7
:1052B000F022019B1A814FF4A072019B5A81019B3D
:1052C00000229A81019B03229A73019B6422DA7364
:1052D000019B32221A740123184603B05DF804FBC7
:1052E00084B00190019B5B8F1BB24FF4F07212B23D
:1052F00002FB03F2019B1B8F1BB25B001344039361
:105300004FF05042039B1344019AB2F848201A8090
:1053100004B07047AFF30080AFF30080AFF30080BC
:1053200084B00190019B5B8F1BB24FF4F07212B2FC
:1053300002FB03F2019B1B8F1BB25B001344039320
:105340004FF05042039B13441B88ADF80A30BDF860
:105350000A30184604B07047AFF30080AFF3008006
:1053600000B583B001900091009B002B01D0002379
:1053700018E00E484FF40041002209F071FD0B487F
:105380004FF4807140F2062209F06AFD08484FF49C
:10539000007140F2062209F063FD0648064907F055
:1053A00017FF0123184603B05DF804FB000002401C
:1053B000000802404834002010270108AFF30080A5
:1053C00082B0019002B07047AFF30080AFF300806D
:1053D00082B0019002B07047AFF30080AFF300805D
:1053E00000B589B0059013460A468DF813208DF854
:1053F00012309DF813308DF81C309DF812308DF866
:105400001D300B4807F064FF07AB0022009200221A
:1054100001924FF440520292054841211A4602235C
:1054200007F006FF024807F063FF09B05DF804FBD0
:1054300048340020AFF30080AFF30080AFF300806A
:1054400000B589B005900B468DF8133000238DF818
:105450001C300D4807F03CFF0DF1130307AA009222
:10546000012201924FF440520292074841211A460C
:10547000012307F0DDFE044807F03AFF9DF81C30D9
:10548000184609B05DF804FB48340020AFF30080F3
:1054900000B589B005900B468DF8133000238DF8C8
:1054A0001C3000238DF81D30104807F011FF0DF15E
:1054B000130307AA0092022201924FF44052029273
:1054C0000A4841211A46012307F0B2FE074807F0B7
:1054D0000FFF9DF81C301B029AB29DF81D3013433C
:1054E0009BB29BB2184609B05DF804FB483400201B
:1054F00000B583B00190009101980099FFF730FF4B
:10550000034683F00103DBB2002B01D000235CE0F3
:105510000198FFF755FF019803210222FFF760FF72
:105520000A20FCF7F5FB019804210C22FFF758FF35
:1055300001980A210022FFF753FF019820214822F9
:10554000FFF74EFF0220FCF7E3FB01982121012227
:10555000FFF746FF019817210022FFF741FF01984E
:105560004121A322FFF73CFF01984A210122FFF7C6
:1055700037FF01984B210122FFF732FF01984B21A1
:105580000022FFF72DFF019856210722FFF728FF81
:10559000019858210122FFF723FF01984021322270
:1055A000FFF71EFF019840213322FFF719FF0198F2
:1055B0000B21FF22FFF714FF019809210122FFF7B9
:1055C0000FFF0198FFF704FF0123184603B05DF8B1
:1055D00004FB00BFAFF30080AFF30080AFF30080A7
:1055E00000B585B001900091009B0022DA800198FF
:1055F0004B21FFF725FF03468DF80F309DF80F3044
:1056000003F02003002B17D001984021FFF718FF6B
:105610000346DBB25BB2002B09DB019B5B68DA8AD5
:10562000009B9A800198FFF7D3FE01233AE001988E
:10563000FFF7CEFE002335E001984D21FFF728FF4C
:1056400003469AB2009B1A8001984F21FFF720FF72
:1056500003469AB2009B5A80019B5B689A8A009B22
:105660009A809DF80F3003F0C003002B0CD10198F5
:105670004B21FFF7E5FE034603F02003002B0DD17D
:105680000198FFF765F809E001984B210122FFF727
:10569000A7FE01984B210022FFF7A2FE0198FFF719
:1056A00097FE0123184605B05DF804FBAFF30080B8
:1056B000704700BFAFF30080AFF30080AFF300800E
:1056C000FEE700BFAFF30080AFF30080AFF30080D0
:1056D00072B6244C84F30988022484F31488BFF33F
:1056E0006F8F214C214D04E023461C1D4FF0553295
:1056F0001A60AC42F8D31E4C1A4D04E023461C1D20
:105700004FF055321A60AC42F8D30BF069FE194DD8
:10571000194C05E023461C1D2A46151D12681A6007
:10572000164B9C42F6D3164C164D03E023461C1D27
:1057300000221A60AC42F9D3FFF7BAFF124C02E024
:10574000236898470434114B9C42F9D3FBF750FE71
:105750000F4C02E02368984704340E4B9C42F9D367
:10576000FFF7AEFF0008002000000020000400202A
:1057700000040020B82E010800080020480900207D
:1057800048090020D0360020AC010008AC01000818
:10579000AC010008AC010008AFF30080AFF300805B
:1057A000FEE700BFAFF30080AFF30080AFF30080EF
:1057B000EFF30982024B1A60014B1B689D46FEE71E
:1057C0009C2A0020AFF30080AFF30080AFF300808D
:1057D00072B6FEE7AFF30080AFF30080AFF3008056
:1057E00008B5202383F3118800F052F9002383F3D6
:1057F000118800F02DF808BDAFF30080AFF30080F2
:1058000082B0EFF309830193019B20330193019B45
:1058100083F30988002383F3118802B0704700BF27
:1058200008B5094B00229A60074B084ADA60072046
:10583000102100F0BDF80A20202100F0B9F80B205B
:10584000802100F0B5F808BD00ED00E00003FA0586
:1058500082B0202383F311881E4B5B6803F400633E
:10586000002B32D0EFF309830193019B203B01937E
:10587000019B4FF08072DA61019B83F30988164B1C
:105880009B69DB7F002B0BD0134B1B689A68124B74
:105890009B699B689A4294BF00230123DBB20AE014
:1058A0000D4B1B689A680C4B9B699B689A4234BFEE
:1058B00000230123DBB2002B03D0019B074A9A612E
:1058C00006E0019B064A9A6102E0002383F31188F7
:1058D00002B0704700ED00E0D82B0020F15800081E
:1058E000F4580008AFF30080AFF30080AFF30080FE
:1058F00000F046FB00DF00BFAFF30080AFF3008095
:1059000003460A462DE9F04FC2F80CD0D3F80CD06C
:10591000BDE8F08FAFF30080AFF30080AFF30080FD
:10592000002383F311882846A04700F0A1FC7047AC
:1059300010B485B001900091019B03F00303DB00DC
:105940000393194B019A9208174901988008C030B7
:1059500051F820000399FF2404FA01F1C9430840DB
:105960000399009C04FA01F10143C03243F822106C
:105970000D4B019A5209019901F01F01012000FA13
:1059800001F1603243F82210074B019A5209019944
:1059900001F01F01012000FA01F143F8221005B0C7
:1059A0005DF8044B704700BF00E100E0AFF30080FA
:1059B00010B485B001900091019B03F00303DB005C
:1059C00003930D4B019A92080B4901988008063009
:1059D00051F820000399FF2404FA01F1C94308405B
:1059E0000399009C04FA01F10143063243F82210A6
:1059F00005B05DF8044B704700ED00E0AFF30080A8
:105A000082B00190024B9B69024A9A61FEE700BF97
:105A1000D82B002090190108AFF30080AFF300806D
:105A200000B583B0FFF7FCFE00F032F900F080F81B
:105A300002F00EFB02F074FB0E48402100F0D0FA99
:105A400002460D4B9A610C4B9B6901221A77002389
:105A500083F3118862B6084B9B69084A9A61002358
:105A600000930748E0210122064B00F039FB03B008
:105A70005DF804FB802B0020D82B00206027010854
:105A8000A02A0020015A0008AFF30080AFF3008085
:105A900000B583B0214B9B69DB7F002B05D01F4BEA
:105AA0009B69DA7F013AD2B2DA771C4B9B691A6A9A
:105AB00001321A621A4BDB685A1C194BDA60184B18
:105AC0001A68174B9A4225D0154B1B689A68013A01
:105AD0009A6018E0019BDB680093019B0022DA606A
